{
  "_format": "hh-sol-artifact-1",
  "contractName": "OFTV2",
  "sourceName": "@layerzerolabs/solidity-examples/contracts/token/oft/v2/OFTV2.sol",
  "abi": [
    {
      "inputs": [
        {
          "internalType": "string",
          "name": "_name",
          "type": "string"
        },
        {
          "internalType": "string",
          "name": "_symbol",
          "type": "string"
        },
        {
          "internalType": "uint8",
          "name": "_sharedDecimals",
          "type": "uint8"
        },
        {
          "internalType": "address",
          "name": "_lzEndpoint",
          "type": "address"
        }
      ],
      "stateMutability": "nonpayable",
      "type": "constructor"
    },
    {
      "anonymous": false,
      "inputs": [
        {
          "indexed": true,
          "internalType": "address",
          "name": "owner",
          "type": "address"
        },
        {
          "indexed": true,
          "internalType": "address",
          "name": "spender",
          "type": "address"
        },
        {
          "indexed": false,
          "internalType": "uint256",
          "name": "value",
          "type": "uint256"
        }
      ],
      "name": "Approval",
      "type": "event"
    },
    {
      "anonymous": false,
      "inputs": [
        {
          "indexed": true,
          "internalType": "uint16",
          "name": "_srcChainId",
          "type": "uint16"
        },
        {
          "indexed": false,
          "internalType": "bytes",
          "name": "_srcAddress",
          "type": "bytes"
        },
        {
          "indexed": false,
          "internalType": "uint64",
          "name": "_nonce",
          "type": "uint64"
        },
        {
          "indexed": false,
          "internalType": "bytes32",
          "name": "_hash",
          "type": "bytes32"
        }
      ],
      "name": "CallOFTReceivedSuccess",
      "type": "event"
    },
    {
      "anonymous": false,
      "inputs": [
        {
          "indexed": false,
          "internalType": "uint16",
          "name": "_srcChainId",
          "type": "uint16"
        },
        {
          "indexed": false,
          "internalType": "bytes",
          "name": "_srcAddress",
          "type": "bytes"
        },
        {
          "indexed": false,
          "internalType": "uint64",
          "name": "_nonce",
          "type": "uint64"
        },
        {
          "indexed": false,
          "internalType": "bytes",
          "name": "_payload",
          "type": "bytes"
        },
        {
          "indexed": false,
          "internalType": "bytes",
          "name": "_reason",
          "type": "bytes"
        }
      ],
      "name": "MessageFailed",
      "type": "event"
    },
    {
      "anonymous": false,
      "inputs": [
        {
          "indexed": false,
          "internalType": "address",
          "name": "_address",
          "type": "address"
        }
      ],
      "name": "NonContractAddress",
      "type": "event"
    },
    {
      "anonymous": false,
      "inputs": [
        {
          "indexed": true,
          "internalType": "address",
          "name": "previousOwner",
          "type": "address"
        },
        {
          "indexed": true,
          "internalType": "address",
          "name": "newOwner",
          "type": "address"
        }
      ],
      "name": "OwnershipTransferred",
      "type": "event"
    },
    {
      "anonymous": false,
      "inputs": [
        {
          "indexed": true,
          "internalType": "uint16",
          "name": "_srcChainId",
          "type": "uint16"
        },
        {
          "indexed": true,
          "internalType": "address",
          "name": "_to",
          "type": "address"
        },
        {
          "indexed": false,
          "internalType": "uint256",
          "name": "_amount",
          "type": "uint256"
        }
      ],
      "name": "ReceiveFromChain",
      "type": "event"
    },
    {
      "anonymous": false,
      "inputs": [
        {
          "indexed": false,
          "internalType": "uint16",
          "name": "_srcChainId",
          "type": "uint16"
        },
        {
          "indexed": false,
          "internalType": "bytes",
          "name": "_srcAddress",
          "type": "bytes"
        },
        {
          "indexed": false,
          "internalType": "uint64",
          "name": "_nonce",
          "type": "uint64"
        },
        {
          "indexed": false,
          "internalType": "bytes32",
          "name": "_payloadHash",
          "type": "bytes32"
        }
      ],
      "name": "RetryMessageSuccess",
      "type": "event"
    },
    {
      "anonymous": false,
      "inputs": [
        {
          "indexed": true,
          "internalType": "uint16",
          "name": "_dstChainId",
          "type": "uint16"
        },
        {
          "indexed": true,
          "internalType": "address",
          "name": "_from",
          "type": "address"
        },
        {
          "indexed": true,
          "internalType": "bytes32",
          "name": "_toAddress",
          "type": "bytes32"
        },
        {
          "indexed": false,
          "internalType": "uint256",
          "name": "_amount",
          "type": "uint256"
        }
      ],
      "name": "SendToChain",
      "type": "event"
    },
    {
      "anonymous": false,
      "inputs": [
        {
          "indexed": false,
          "internalType": "uint16",
          "name": "_dstChainId",
          "type": "uint16"
        },
        {
          "indexed": false,
          "internalType": "uint16",
          "name": "_type",
          "type": "uint16"
        },
        {
          "indexed": false,
          "internalType": "uint256",
          "name": "_minDstGas",
          "type": "uint256"
        }
      ],
      "name": "SetMinDstGas",
      "type": "event"
    },
    {
      "anonymous": false,
      "inputs": [
        {
          "indexed": false,
          "internalType": "address",
          "name": "precrime",
          "type": "address"
        }
      ],
      "name": "SetPrecrime",
      "type": "event"
    },
    {
      "anonymous": false,
      "inputs": [
        {
          "indexed": false,
          "internalType": "uint16",
          "name": "_remoteChainId",
          "type": "uint16"
        },
        {
          "indexed": false,
          "internalType": "bytes",
          "name": "_path",
          "type": "bytes"
        }
      ],
      "name": "SetTrustedRemote",
      "type": "event"
    },
    {
      "anonymous": false,
      "inputs": [
        {
          "indexed": false,
          "internalType": "uint16",
          "name": "_remoteChainId",
          "type": "uint16"
        },
        {
          "indexed": false,
          "internalType": "bytes",
          "name": "_remoteAddress",
          "type": "bytes"
        }
      ],
      "name": "SetTrustedRemoteAddress",
      "type": "event"
    },
    {
      "anonymous": false,
      "inputs": [
        {
          "indexed": false,
          "internalType": "bool",
          "name": "_useCustomAdapterParams",
          "type": "bool"
        }
      ],
      "name": "SetUseCustomAdapterParams",
      "type": "event"
    },
    {
      "anonymous": false,
      "inputs": [
        {
          "indexed": true,
          "internalType": "address",
          "name": "from",
          "type": "address"
        },
        {
          "indexed": true,
          "internalType": "address",
          "name": "to",
          "type": "address"
        },
        {
          "indexed": false,
          "internalType": "uint256",
          "name": "value",
          "type": "uint256"
        }
      ],
      "name": "Transfer",
      "type": "event"
    },
    {
      "inputs": [],
      "name": "NO_EXTRA_GAS",
      "outputs": [
        {
          "internalType": "uint256",
          "name": "",
          "type": "uint256"
        }
      ],
      "stateMutability": "view",
      "type": "function"
    },
    {
      "inputs": [],
      "name": "PT_SEND",
      "outputs": [
        {
          "internalType": "uint8",
          "name": "",
          "type": "uint8"
        }
      ],
      "stateMutability": "view",
      "type": "function"
    },
    {
      "inputs": [],
      "name": "PT_SEND_AND_CALL",
      "outputs": [
        {
          "internalType": "uint8",
          "name": "",
          "type": "uint8"
        }
      ],
      "stateMutability": "view",
      "type": "function"
    },
    {
      "inputs": [
        {
          "internalType": "address",
          "name": "owner",
          "type": "address"
        },
        {
          "internalType": "address",
          "name": "spender",
          "type": "address"
        }
      ],
      "name": "allowance",
      "outputs": [
        {
          "internalType": "uint256",
          "name": "",
          "type": "uint256"
        }
      ],
      "stateMutability": "view",
      "type": "function"
    },
    {
      "inputs": [
        {
          "internalType": "address",
          "name": "spender",
          "type": "address"
        },
        {
          "internalType": "uint256",
          "name": "amount",
          "type": "uint256"
        }
      ],
      "name": "approve",
      "outputs": [
        {
          "internalType": "bool",
          "name": "",
          "type": "bool"
        }
      ],
      "stateMutability": "nonpayable",
      "type": "function"
    },
    {
      "inputs": [
        {
          "internalType": "address",
          "name": "account",
          "type": "address"
        }
      ],
      "name": "balanceOf",
      "outputs": [
        {
          "internalType": "uint256",
          "name": "",
          "type": "uint256"
        }
      ],
      "stateMutability": "view",
      "type": "function"
    },
    {
      "inputs": [
        {
          "internalType": "uint16",
          "name": "_srcChainId",
          "type": "uint16"
        },
        {
          "internalType": "bytes",
          "name": "_srcAddress",
          "type": "bytes"
        },
        {
          "internalType": "uint64",
          "name": "_nonce",
          "type": "uint64"
        },
        {
          "internalType": "bytes32",
          "name": "_from",
          "type": "bytes32"
        },
        {
          "internalType": "address",
          "name": "_to",
          "type": "address"
        },
        {
          "internalType": "uint256",
          "name": "_amount",
          "type": "uint256"
        },
        {
          "internalType": "bytes",
          "name": "_payload",
          "type": "bytes"
        },
        {
          "internalType": "uint256",
          "name": "_gasForCall",
          "type": "uint256"
        }
      ],
      "name": "callOnOFTReceived",
      "outputs": [],
      "stateMutability": "nonpayable",
      "type": "function"
    },
    {
      "inputs": [],
      "name": "circulatingSupply",
      "outputs": [
        {
          "internalType": "uint256",
          "name": "",
          "type": "uint256"
        }
      ],
      "stateMutability": "view",
      "type": "function"
    },
    {
      "inputs": [
        {
          "internalType": "uint16",
          "name": "",
          "type": "uint16"
        },
        {
          "internalType": "bytes",
          "name": "",
          "type": "bytes"
        },
        {
          "internalType": "uint64",
          "name": "",
          "type": "uint64"
        }
      ],
      "name": "creditedPackets",
      "outputs": [
        {
          "internalType": "bool",
          "name": "",
          "type": "bool"
        }
      ],
      "stateMutability": "view",
      "type": "function"
    },
    {
      "inputs": [],
      "name": "decimals",
      "outputs": [
        {
          "internalType": "uint8",
          "name": "",
          "type": "uint8"
        }
      ],
      "stateMutability": "view",
      "type": "function"
    },
    {
      "inputs": [
        {
          "internalType": "address",
          "name": "spender",
          "type": "address"
        },
        {
          "internalType": "uint256",
          "name": "subtractedValue",
          "type": "uint256"
        }
      ],
      "name": "decreaseAllowance",
      "outputs": [
        {
          "internalType": "bool",
          "name": "",
          "type": "bool"
        }
      ],
      "stateMutability": "nonpayable",
      "type": "function"
    },
    {
      "inputs": [
        {
          "internalType": "uint16",
          "name": "_dstChainId",
          "type": "uint16"
        },
        {
          "internalType": "bytes32",
          "name": "_toAddress",
          "type": "bytes32"
        },
        {
          "internalType": "uint256",
          "name": "_amount",
          "type": "uint256"
        },
        {
          "internalType": "bytes",
          "name": "_payload",
          "type": "bytes"
        },
        {
          "internalType": "uint64",
          "name": "_dstGasForCall",
          "type": "uint64"
        },
        {
          "internalType": "bool",
          "name": "_useZro",
          "type": "bool"
        },
        {
          "internalType": "bytes",
          "name": "_adapterParams",
          "type": "bytes"
        }
      ],
      "name": "estimateSendAndCallFee",
      "outputs": [
        {
          "internalType": "uint256",
          "name": "nativeFee",
          "type": "uint256"
        },
        {
          "internalType": "uint256",
          "name": "zroFee",
          "type": "uint256"
        }
      ],
      "stateMutability": "view",
      "type": "function"
    },
    {
      "inputs": [
        {
          "internalType": "uint16",
          "name": "_dstChainId",
          "type": "uint16"
        },
        {
          "internalType": "bytes32",
          "name": "_toAddress",
          "type": "bytes32"
        },
        {
          "internalType": "uint256",
          "name": "_amount",
          "type": "uint256"
        },
        {
          "internalType": "bool",
          "name": "_useZro",
          "type": "bool"
        },
        {
          "internalType": "bytes",
          "name": "_adapterParams",
          "type": "bytes"
        }
      ],
      "name": "estimateSendFee",
      "outputs": [
        {
          "internalType": "uint256",
          "name": "nativeFee",
          "type": "uint256"
        },
        {
          "internalType": "uint256",
          "name": "zroFee",
          "type": "uint256"
        }
      ],
      "stateMutability": "view",
      "type": "function"
    },
    {
      "inputs": [
        {
          "internalType": "uint16",
          "name": "",
          "type": "uint16"
        },
        {
          "internalType": "bytes",
          "name": "",
          "type": "bytes"
        },
        {
          "internalType": "uint64",
          "name": "",
          "type": "uint64"
        }
      ],
      "name": "failedMessages",
      "outputs": [
        {
          "internalType": "bytes32",
          "name": "",
          "type": "bytes32"
        }
      ],
      "stateMutability": "view",
      "type": "function"
    },
    {
      "inputs": [
        {
          "internalType": "uint16",
          "name": "_srcChainId",
          "type": "uint16"
        },
        {
          "internalType": "bytes",
          "name": "_srcAddress",
          "type": "bytes"
        }
      ],
      "name": "forceResumeReceive",
      "outputs": [],
      "stateMutability": "nonpayable",
      "type": "function"
    },
    {
      "inputs": [
        {
          "internalType": "uint16",
          "name": "_version",
          "type": "uint16"
        },
        {
          "internalType": "uint16",
          "name": "_chainId",
          "type": "uint16"
        },
        {
          "internalType": "address",
          "name": "",
          "type": "address"
        },
        {
          "internalType": "uint256",
          "name": "_configType",
          "type": "uint256"
        }
      ],
      "name": "getConfig",
      "outputs": [
        {
          "internalType": "bytes",
          "name": "",
          "type": "bytes"
        }
      ],
      "stateMutability": "view",
      "type": "function"
    },
    {
      "inputs": [
        {
          "internalType": "uint16",
          "name": "_remoteChainId",
          "type": "uint16"
        }
      ],
      "name": "getTrustedRemoteAddress",
      "outputs": [
        {
          "internalType": "bytes",
          "name": "",
          "type": "bytes"
        }
      ],
      "stateMutability": "view",
      "type": "function"
    },
    {
      "inputs": [
        {
          "internalType": "address",
          "name": "spender",
          "type": "address"
        },
        {
          "internalType": "uint256",
          "name": "addedValue",
          "type": "uint256"
        }
      ],
      "name": "increaseAllowance",
      "outputs": [
        {
          "internalType": "bool",
          "name": "",
          "type": "bool"
        }
      ],
      "stateMutability": "nonpayable",
      "type": "function"
    },
    {
      "inputs": [
        {
          "internalType": "uint16",
          "name": "_srcChainId",
          "type": "uint16"
        },
        {
          "internalType": "bytes",
          "name": "_srcAddress",
          "type": "bytes"
        }
      ],
      "name": "isTrustedRemote",
      "outputs": [
        {
          "internalType": "bool",
          "name": "",
          "type": "bool"
        }
      ],
      "stateMutability": "view",
      "type": "function"
    },
    {
      "inputs": [],
      "name": "lzEndpoint",
      "outputs": [
        {
          "internalType": "contract ILayerZeroEndpoint",
          "name": "",
          "type": "address"
        }
      ],
      "stateMutability": "view",
      "type": "function"
    },
    {
      "inputs": [
        {
          "internalType": "uint16",
          "name": "_srcChainId",
          "type": "uint16"
        },
        {
          "internalType": "bytes",
          "name": "_srcAddress",
          "type": "bytes"
        },
        {
          "internalType": "uint64",
          "name": "_nonce",
          "type": "uint64"
        },
        {
          "internalType": "bytes",
          "name": "_payload",
          "type": "bytes"
        }
      ],
      "name": "lzReceive",
      "outputs": [],
      "stateMutability": "nonpayable",
      "type": "function"
    },
    {
      "inputs": [
        {
          "internalType": "uint16",
          "name": "",
          "type": "uint16"
        },
        {
          "internalType": "uint16",
          "name": "",
          "type": "uint16"
        }
      ],
      "name": "minDstGasLookup",
      "outputs": [
        {
          "internalType": "uint256",
          "name": "",
          "type": "uint256"
        }
      ],
      "stateMutability": "view",
      "type": "function"
    },
    {
      "inputs": [],
      "name": "name",
      "outputs": [
        {
          "internalType": "string",
          "name": "",
          "type": "string"
        }
      ],
      "stateMutability": "view",
      "type": "function"
    },
    {
      "inputs": [
        {
          "internalType": "uint16",
          "name": "_srcChainId",
          "type": "uint16"
        },
        {
          "internalType": "bytes",
          "name": "_srcAddress",
          "type": "bytes"
        },
        {
          "internalType": "uint64",
          "name": "_nonce",
          "type": "uint64"
        },
        {
          "internalType": "bytes",
          "name": "_payload",
          "type": "bytes"
        }
      ],
      "name": "nonblockingLzReceive",
      "outputs": [],
      "stateMutability": "nonpayable",
      "type": "function"
    },
    {
      "inputs": [],
      "name": "owner",
      "outputs": [
        {
          "internalType": "address",
          "name": "",
          "type": "address"
        }
      ],
      "stateMutability": "view",
      "type": "function"
    },
    {
      "inputs": [],
      "name": "precrime",
      "outputs": [
        {
          "internalType": "address",
          "name": "",
          "type": "address"
        }
      ],
      "stateMutability": "view",
      "type": "function"
    },
    {
      "inputs": [],
      "name": "renounceOwnership",
      "outputs": [],
      "stateMutability": "nonpayable",
      "type": "function"
    },
    {
      "inputs": [
        {
          "internalType": "uint16",
          "name": "_srcChainId",
          "type": "uint16"
        },
        {
          "internalType": "bytes",
          "name": "_srcAddress",
          "type": "bytes"
        },
        {
          "internalType": "uint64",
          "name": "_nonce",
          "type": "uint64"
        },
        {
          "internalType": "bytes",
          "name": "_payload",
          "type": "bytes"
        }
      ],
      "name": "retryMessage",
      "outputs": [],
      "stateMutability": "payable",
      "type": "function"
    },
    {
      "inputs": [
        {
          "internalType": "address",
          "name": "_from",
          "type": "address"
        },
        {
          "internalType": "uint16",
          "name": "_dstChainId",
          "type": "uint16"
        },
        {
          "internalType": "bytes32",
          "name": "_toAddress",
          "type": "bytes32"
        },
        {
          "internalType": "uint256",
          "name": "_amount",
          "type": "uint256"
        },
        {
          "internalType": "bytes",
          "name": "_payload",
          "type": "bytes"
        },
        {
          "internalType": "uint64",
          "name": "_dstGasForCall",
          "type": "uint64"
        },
        {
          "components": [
            {
              "internalType": "address payable",
              "name": "refundAddress",
              "type": "address"
            },
            {
              "internalType": "address",
              "name": "zroPaymentAddress",
              "type": "address"
            },
            {
              "internalType": "bytes",
              "name": "adapterParams",
              "type": "bytes"
            }
          ],
          "internalType": "struct ICommonOFT.LzCallParams",
          "name": "_callParams",
          "type": "tuple"
        }
      ],
      "name": "sendAndCall",
      "outputs": [],
      "stateMutability": "payable",
      "type": "function"
    },
    {
      "inputs": [
        {
          "internalType": "address",
          "name": "_from",
          "type": "address"
        },
        {
          "internalType": "uint16",
          "name": "_dstChainId",
          "type": "uint16"
        },
        {
          "internalType": "bytes32",
          "name": "_toAddress",
          "type": "bytes32"
        },
        {
          "internalType": "uint256",
          "name": "_amount",
          "type": "uint256"
        },
        {
          "components": [
            {
              "internalType": "address payable",
              "name": "refundAddress",
              "type": "address"
            },
            {
              "internalType": "address",
              "name": "zroPaymentAddress",
              "type": "address"
            },
            {
              "internalType": "bytes",
              "name": "adapterParams",
              "type": "bytes"
            }
          ],
          "internalType": "struct ICommonOFT.LzCallParams",
          "name": "_callParams",
          "type": "tuple"
        }
      ],
      "name": "sendFrom",
      "outputs": [],
      "stateMutability": "payable",
      "type": "function"
    },
    {
      "inputs": [
        {
          "internalType": "uint16",
          "name": "_version",
          "type": "uint16"
        },
        {
          "internalType": "uint16",
          "name": "_chainId",
          "type": "uint16"
        },
        {
          "internalType": "uint256",
          "name": "_configType",
          "type": "uint256"
        },
        {
          "internalType": "bytes",
          "name": "_config",
          "type": "bytes"
        }
      ],
      "name": "setConfig",
      "outputs": [],
      "stateMutability": "nonpayable",
      "type": "function"
    },
    {
      "inputs": [
        {
          "internalType": "uint16",
          "name": "_dstChainId",
          "type": "uint16"
        },
        {
          "internalType": "uint16",
          "name": "_packetType",
          "type": "uint16"
        },
        {
          "internalType": "uint256",
          "name": "_minGas",
          "type": "uint256"
        }
      ],
      "name": "setMinDstGas",
      "outputs": [],
      "stateMutability": "nonpayable",
      "type": "function"
    },
    {
      "inputs": [
        {
          "internalType": "address",
          "name": "_precrime",
          "type": "address"
        }
      ],
      "name": "setPrecrime",
      "outputs": [],
      "stateMutability": "nonpayable",
      "type": "function"
    },
    {
      "inputs": [
        {
          "internalType": "uint16",
          "name": "_version",
          "type": "uint16"
        }
      ],
      "name": "setReceiveVersion",
      "outputs": [],
      "stateMutability": "nonpayable",
      "type": "function"
    },
    {
      "inputs": [
        {
          "internalType": "uint16",
          "name": "_version",
          "type": "uint16"
        }
      ],
      "name": "setSendVersion",
      "outputs": [],
      "stateMutability": "nonpayable",
      "type": "function"
    },
    {
      "inputs": [
        {
          "internalType": "uint16",
          "name": "_srcChainId",
          "type": "uint16"
        },
        {
          "internalType": "bytes",
          "name": "_path",
          "type": "bytes"
        }
      ],
      "name": "setTrustedRemote",
      "outputs": [],
      "stateMutability": "nonpayable",
      "type": "function"
    },
    {
      "inputs": [
        {
          "internalType": "uint16",
          "name": "_remoteChainId",
          "type": "uint16"
        },
        {
          "internalType": "bytes",
          "name": "_remoteAddress",
          "type": "bytes"
        }
      ],
      "name": "setTrustedRemoteAddress",
      "outputs": [],
      "stateMutability": "nonpayable",
      "type": "function"
    },
    {
      "inputs": [
        {
          "internalType": "bool",
          "name": "_useCustomAdapterParams",
          "type": "bool"
        }
      ],
      "name": "setUseCustomAdapterParams",
      "outputs": [],
      "stateMutability": "nonpayable",
      "type": "function"
    },
    {
      "inputs": [],
      "name": "sharedDecimals",
      "outputs": [
        {
          "internalType": "uint8",
          "name": "",
          "type": "uint8"
        }
      ],
      "stateMutability": "view",
      "type": "function"
    },
    {
      "inputs": [
        {
          "internalType": "bytes4",
          "name": "interfaceId",
          "type": "bytes4"
        }
      ],
      "name": "supportsInterface",
      "outputs": [
        {
          "internalType": "bool",
          "name": "",
          "type": "bool"
        }
      ],
      "stateMutability": "view",
      "type": "function"
    },
    {
      "inputs": [],
      "name": "symbol",
      "outputs": [
        {
          "internalType": "string",
          "name": "",
          "type": "string"
        }
      ],
      "stateMutability": "view",
      "type": "function"
    },
    {
      "inputs": [],
      "name": "token",
      "outputs": [
        {
          "internalType": "address",
          "name": "",
          "type": "address"
        }
      ],
      "stateMutability": "view",
      "type": "function"
    },
    {
      "inputs": [],
      "name": "totalSupply",
      "outputs": [
        {
          "internalType": "uint256",
          "name": "",
          "type": "uint256"
        }
      ],
      "stateMutability": "view",
      "type": "function"
    },
    {
      "inputs": [
        {
          "internalType": "address",
          "name": "to",
          "type": "address"
        },
        {
          "internalType": "uint256",
          "name": "amount",
          "type": "uint256"
        }
      ],
      "name": "transfer",
      "outputs": [
        {
          "internalType": "bool",
          "name": "",
          "type": "bool"
        }
      ],
      "stateMutability": "nonpayable",
      "type": "function"
    },
    {
      "inputs": [
        {
          "internalType": "address",
          "name": "from",
          "type": "address"
        },
        {
          "internalType": "address",
          "name": "to",
          "type": "address"
        },
        {
          "internalType": "uint256",
          "name": "amount",
          "type": "uint256"
        }
      ],
      "name": "transferFrom",
      "outputs": [
        {
          "internalType": "bool",
          "name": "",
          "type": "bool"
        }
      ],
      "stateMutability": "nonpayable",
      "type": "function"
    },
    {
      "inputs": [
        {
          "internalType": "address",
          "name": "newOwner",
          "type": "address"
        }
      ],
      "name": "transferOwnership",
      "outputs": [],
      "stateMutability": "nonpayable",
      "type": "function"
    },
    {
      "inputs": [
        {
          "internalType": "uint16",
          "name": "",
          "type": "uint16"
        }
      ],
      "name": "trustedRemoteLookup",
      "outputs": [
        {
          "internalType": "bytes",
          "name": "",
          "type": "bytes"
        }
      ],
      "stateMutability": "view",
      "type": "function"
    },
    {
      "inputs": [],
      "name": "useCustomAdapterParams",
      "outputs": [
        {
          "internalType": "bool",
          "name": "",
          "type": "bool"
        }
      ],
      "stateMutability": "view",
      "type": "function"
    }
  ],
  "bytecode": "0x60e06040523480156200001157600080fd5b50604051620048133803806200481383398101604081905262000034916200023f565b8383838381818080620000473362000125565b6001600160a01b0316608052505060ff1660a05250600a90506200006c838262000372565b50600b6200007b828262000372565b5050506000620000906200017560201b60201c565b90508060ff168360ff161115620000fd5760405162461bcd60e51b815260206004820152602760248201527f4f46543a20736861726564446563696d616c73206d757374206265203c3d20646044820152666563696d616c7360c81b606482015260840160405180910390fd5b62000109838262000454565b6200011690600a62000573565b60c052506200058b9350505050565b600080546001600160a01b038381166001600160a01b0319831681178455604051919092169283917f8be0079c531659141344cd1fd0a4f28419497f9722a3daafe3b4186f6b6457e09190a35050565b601290565b634e487b7160e01b600052604160045260246000fd5b600082601f830112620001a257600080fd5b81516001600160401b0380821115620001bf57620001bf6200017a565b604051601f8301601f19908116603f01168101908282118183101715620001ea57620001ea6200017a565b816040528381526020925086838588010111156200020757600080fd5b600091505b838210156200022b57858201830151818301840152908201906200020c565b600093810190920192909252949350505050565b600080600080608085870312156200025657600080fd5b84516001600160401b03808211156200026e57600080fd5b6200027c8883890162000190565b955060208701519150808211156200029357600080fd5b50620002a28782880162000190565b935050604085015160ff81168114620002ba57600080fd5b60608601519092506001600160a01b0381168114620002d857600080fd5b939692955090935050565b600181811c90821680620002f857607f821691505b6020821081036200031957634e487b7160e01b600052602260045260246000fd5b50919050565b601f8211156200036d57600081815260208120601f850160051c81016020861015620003485750805b601f850160051c820191505b81811015620003695782815560010162000354565b5050505b505050565b81516001600160401b038111156200038e576200038e6200017a565b620003a6816200039f8454620002e3565b846200031f565b602080601f831160018114620003de5760008415620003c55750858301515b600019600386901b1c1916600185901b17855562000369565b600085815260208120601f198616915b828110156200040f57888601518255948401946001909101908401620003ee565b50858210156200042e5787850151600019600388901b60f8161c191681555b5050505050600190811b01905550565b634e487b7160e01b600052601160045260246000fd5b60ff82811682821603908111156200047057620004706200043e565b92915050565b600181815b80851115620004b75781600019048211156200049b576200049b6200043e565b80851615620004a957918102915b93841c93908002906200047b565b509250929050565b600082620004d05750600162000470565b81620004df5750600062000470565b8160018114620004f85760028114620005035762000523565b600191505062000470565b60ff8411156200051757620005176200043e565b50506001821b62000470565b5060208310610133831016604e8410600b841016171562000548575081810a62000470565b62000554838362000476565b80600019048211156200056b576200056b6200043e565b029392505050565b60006200058460ff841683620004bf565b9392505050565b60805160a05160c05161420b620006086000396000818161264c01528181612a460152612d17015260006105a201526000818161077c0152818161091601528181610c2e01528181610ccf01528181610e8c015281816114e901528181611ab301528181611fb7015281816124380152612bce015261420b6000f3fe6080604052600436106102925760003560e01c80638da5cb5b1161015a578063cbed8b9c116100c1578063eaffd49a1161007a578063eaffd49a14610866578063eb8d72b714610886578063ed629c5c146108a6578063f2fde38b146108c0578063f5ecbdbc146108e0578063fc0c546a1461090057600080fd5b8063cbed8b9c146107be578063d1deba1f146107de578063dd62ed3e146107f1578063df2a5b3b14610811578063e6a20ae614610831578063eab45d9c1461084657600080fd5b8063a457c2d711610113578063a457c2d7146106ea578063a4c51df51461070a578063a6c3d1651461072a578063a9059cbb1461074a578063b353aaa71461076a578063baf3292d1461079e57600080fd5b80638da5cb5b146105fc5780639358928b1461062e578063950c8a741461064357806395d89b41146106635780639bdb9812146106785780639f38369a146106ca57600080fd5b806342d65a8d116101fe57806370a08231116101b757806370a0823114610512578063715018a6146105485780637533d7881461055d57806376203b481461057d578063857749b0146105905780638cfd8f5c146105c457600080fd5b806342d65a8d1461044657806344770515146104665780634c42899a1461047b5780635b8c41e61461049057806366ad5c8a146104df578063695ef6bf146104ff57600080fd5b806318160ddd1161025057806318160ddd1461037057806323b872dd1461038f578063313ce567146103af578063365260b4146103d157806339509351146104065780633d8b38f61461042657600080fd5b80621d35671461029757806301ffc9a7146102b957806306fdde03146102ee57806307e0db1714610310578063095ea7b31461033057806310ddb13714610350575b600080fd5b3480156102a357600080fd5b506102b76102b23660046132d5565b610913565b005b3480156102c557600080fd5b506102d96102d4366004613368565b610b44565b60405190151581526020015b60405180910390f35b3480156102fa57600080fd5b50610303610b7b565b6040516102e591906133e2565b34801561031c57600080fd5b506102b761032b3660046133f5565b610c0d565b34801561033c57600080fd5b506102d961034b366004613425565b610c96565b34801561035c57600080fd5b506102b761036b3660046133f5565b610cae565b34801561037c57600080fd5b506009545b6040519081526020016102e5565b34801561039b57600080fd5b506102d96103aa366004613451565b610d06565b3480156103bb57600080fd5b5060125b60405160ff90911681526020016102e5565b3480156103dd57600080fd5b506103f16103ec3660046134a2565b610d2a565b604080519283526020830191909152016102e5565b34801561041257600080fd5b506102d9610421366004613425565b610d7f565b34801561043257600080fd5b506102d9610441366004613507565b610da1565b34801561045257600080fd5b506102b7610461366004613507565b610e6d565b34801561047257600080fd5b50610381600081565b34801561048757600080fd5b506103bf600081565b34801561049c57600080fd5b506103816104ab3660046135c6565b6004602090815260009384526040808520845180860184018051928152908401958401959095209452929052825290205481565b3480156104eb57600080fd5b506102b76104fa3660046132d5565b610ef3565b6102b761050d36600461367e565b610fcf565b34801561051e57600080fd5b5061038161052d3660046136f1565b6001600160a01b031660009081526007602052604090205490565b34801561055457600080fd5b506102b761103a565b34801561056957600080fd5b506103036105783660046133f5565b61104e565b6102b761058b36600461370e565b6110e8565b34801561059c57600080fd5b506103bf7f000000000000000000000000000000000000000000000000000000000000000081565b3480156105d057600080fd5b506103816105df3660046137c0565b600260209081526000928352604080842090915290825290205481565b34801561060857600080fd5b506000546001600160a01b03165b6040516001600160a01b0390911681526020016102e5565b34801561063a57600080fd5b50610381611197565b34801561064f57600080fd5b50600354610616906001600160a01b031681565b34801561066f57600080fd5b506103036111a7565b34801561068457600080fd5b506102d96106933660046135c6565b6006602090815260009384526040808520845180860184018051928152908401958401959095209452929052825290205460ff1681565b3480156106d657600080fd5b506103036106e53660046133f5565b6111b6565b3480156106f657600080fd5b506102d9610705366004613425565b6112cc565b34801561071657600080fd5b506103f16107253660046137f3565b611347565b34801561073657600080fd5b506102b7610745366004613507565b6113d6565b34801561075657600080fd5b506102d9610765366004613425565b61145f565b34801561077657600080fd5b506106167f000000000000000000000000000000000000000000000000000000000000000081565b3480156107aa57600080fd5b506102b76107b93660046136f1565b61146d565b3480156107ca57600080fd5b506102b76107d93660046138ac565b6114ca565b6102b76107ec3660046132d5565b611554565b3480156107fd57600080fd5b5061038161080c36600461391a565b61176a565b34801561081d57600080fd5b506102b761082c366004613953565b611795565b34801561083d57600080fd5b506103bf600181565b34801561085257600080fd5b506102b761086136600461398f565b611847565b34801561087257600080fd5b506102b76108813660046139aa565b611890565b34801561089257600080fd5b506102b76108a1366004613507565b6119af565b3480156108b257600080fd5b506005546102d99060ff1681565b3480156108cc57600080fd5b506102b76108db3660046136f1565b611a09565b3480156108ec57600080fd5b506103036108fb366004613a72565b611a82565b34801561090c57600080fd5b5030610616565b337f00000000000000000000000000000000000000000000000000000000000000006001600160a01b0316146109905760405162461bcd60e51b815260206004820152601e60248201527f4c7a4170703a20696e76616c696420656e64706f696e742063616c6c6572000060448201526064015b60405180910390fd5b61ffff8616600090815260016020526040812080546109ae90613abf565b80601f01602080910402602001604051908101604052809291908181526020018280546109da90613abf565b8015610a275780601f106109fc57610100808354040283529160200191610a27565b820191906000526020600020905b815481529060010190602001808311610a0a57829003601f168201915b50505050509050805186869050148015610a42575060008151115b8015610a6a575080516020820120604051610a609088908890613af3565b6040518091039020145b610ac55760405162461bcd60e51b815260206004820152602660248201527f4c7a4170703a20696e76616c696420736f757263652073656e64696e6720636f6044820152651b9d1c9858dd60d21b6064820152608401610987565b610b3b8787878080601f01602080910402602001604051908101604052809392919081815260200183838082843760009201919091525050604080516020601f8a018190048102820181019092528881528a935091508890889081908401838280828437600092019190915250611b3392505050565b50505050505050565b60006001600160e01b03198216631f7ecdf760e01b1480610b7557506301ffc9a760e01b6001600160e01b03198316145b92915050565b6060600a8054610b8a90613abf565b80601f0160208091040260200160405190810160405280929190818152602001828054610bb690613abf565b8015610c035780601f10610bd857610100808354040283529160200191610c03565b820191906000526020600020905b815481529060010190602001808311610be657829003601f168201915b5050505050905090565b610c15611bac565b6040516307e0db1760e01b815261ffff821660048201527f00000000000000000000000000000000000000000000000000000000000000006001600160a01b0316906307e0db17906024015b600060405180830381600087803b158015610c7b57600080fd5b505af1158015610c8f573d6000803e3d6000fd5b5050505050565b600033610ca4818585611c06565b5060019392505050565b610cb6611bac565b6040516310ddb13760e01b815261ffff821660048201527f00000000000000000000000000000000000000000000000000000000000000006001600160a01b0316906310ddb13790602401610c61565b600033610d14858285611d2a565b610d1f858585611da4565b506001949350505050565b600080610d708888888888888080601f016020809104026020016040519081016040528093929190818152602001838380828437600092019190915250611f4f92505050565b91509150965096945050505050565b600033610ca4818585610d92838361176a565b610d9c9190613b19565b611c06565b61ffff831660009081526001602052604081208054829190610dc290613abf565b80601f0160208091040260200160405190810160405280929190818152602001828054610dee90613abf565b8015610e3b5780601f10610e1057610100808354040283529160200191610e3b565b820191906000526020600020905b815481529060010190602001808311610e1e57829003601f168201915b505050505090508383604051610e52929190613af3565b60405180910390208180519060200120149150509392505050565b610e75611bac565b6040516342d65a8d60e01b81526001600160a01b037f000000000000000000000000000000000000000000000000000000000000000016906342d65a8d90610ec590869086908690600401613b55565b600060405180830381600087803b158015610edf57600080fd5b505af1158015610b3b573d6000803e3d6000fd5b333014610f515760405162461bcd60e51b815260206004820152602660248201527f4e6f6e626c6f636b696e674c7a4170703a2063616c6c6572206d7573742062656044820152650204c7a4170760d41b6064820152608401610987565b610fc78686868080601f01602080910402602001604051908101604052809392919081815260200183838082843760009201919091525050604080516020601f89018190048102820181019092528781528993509150879087908190840183828082843760009201919091525061204392505050565b505050505050565b610fc785858585610fe360208701876136f1565b610ff360408801602089016136f1565b6110006040890189613b73565b8080601f0160208091040260200160405190810160405280939291908181526020018383808284376000920191909152506120ca92505050565b611042611bac565b61104c60006121b2565b565b6001602052600090815260409020805461106790613abf565b80601f016020809104026020016040519081016040528092919081815260200182805461109390613abf565b80156110e05780601f106110b5576101008083540402835291602001916110e0565b820191906000526020600020905b8154815290600101906020018083116110c357829003601f168201915b505050505081565b61118c8888888888888080601f0160208091040260200160405190810160405280939291908181526020018383808284376000920191909152508a925061113591505060208901896136f1565b61114560408a0160208b016136f1565b61115260408b018b613b73565b8080601f01602080910402602001604051908101604052809392919081815260200183838082843760009201919091525061220292505050565b505050505050505050565b60006111a260095490565b905090565b6060600b8054610b8a90613abf565b61ffff81166000908152600160205260408120805460609291906111d990613abf565b80601f016020809104026020016040519081016040528092919081815260200182805461120590613abf565b80156112525780601f1061122757610100808354040283529160200191611252565b820191906000526020600020905b81548152906001019060200180831161123557829003601f168201915b5050505050905080516000036112aa5760405162461bcd60e51b815260206004820152601d60248201527f4c7a4170703a206e6f20747275737465642070617468207265636f72640000006044820152606401610987565b6112c56000601483516112bd9190613bb9565b8391906122fe565b9392505050565b600033816112da828661176a565b90508381101561133a5760405162461bcd60e51b815260206004820152602560248201527f45524332303a2064656372656173656420616c6c6f77616e63652062656c6f77604482015264207a65726f60d81b6064820152608401610987565b610d1f8286868403611c06565b6000806113c48b8b8b8b8b8080601f01602080910402602001604051908101604052809392919081815260200183838082843760009201919091525050604080516020601f8d018190048102820181019092528b81528e93508d9250908c908c908190840183828082843760009201919091525061240b92505050565b91509150995099975050505050505050565b6113de611bac565b8181306040516020016113f393929190613bcc565b60408051601f1981840301815291815261ffff851660009081526001602052209061141e9082613c38565b507f8c0400cfe2d1199b1a725c78960bcc2a344d869b80590d0f2bd005db15a572ce83838360405161145293929190613b55565b60405180910390a1505050565b600033610ca4818585611da4565b611475611bac565b600380546001600160a01b0319166001600160a01b0383169081179091556040519081527f5db758e995a17ec1ad84bdef7e8c3293a0bd6179bcce400dff5d4c3d87db726b906020015b60405180910390a150565b6114d2611bac565b6040516332fb62e760e21b81526001600160a01b037f0000000000000000000000000000000000000000000000000000000000000000169063cbed8b9c906115269088908890889088908890600401613cf7565b600060405180830381600087803b15801561154057600080fd5b505af115801561118c573d6000803e3d6000fd5b61ffff861660009081526004602052604080822090516115779088908890613af3565b90815260408051602092819003830190206001600160401b038716600090815292529020549050806115f75760405162461bcd60e51b815260206004820152602360248201527f4e6f6e626c6f636b696e674c7a4170703a206e6f2073746f726564206d65737360448201526261676560e81b6064820152608401610987565b808383604051611608929190613af3565b6040518091039020146116675760405162461bcd60e51b815260206004820152602160248201527f4e6f6e626c6f636b696e674c7a4170703a20696e76616c6964207061796c6f616044820152601960fa1b6064820152608401610987565b61ffff8716600090815260046020526040808220905161168a9089908990613af3565b90815260408051602092819003830181206001600160401b038916600090815290845282902093909355601f88018290048202830182019052868252611722918991899089908190840183828082843760009201919091525050604080516020601f8a018190048102820181019092528881528a93509150889088908190840183828082843760009201919091525061204392505050565b7fc264d91f3adc5588250e1551f547752ca0cfa8f6b530d243b9f9f4cab10ea8e58787878785604051611759959493929190613d30565b60405180910390a150505050505050565b6001600160a01b03918216600090815260086020908152604080832093909416825291909152205490565b61179d611bac565b600081116117e55760405162461bcd60e51b81526020600482015260156024820152744c7a4170703a20696e76616c6964206d696e47617360581b6044820152606401610987565b61ffff83811660008181526002602090815260408083209487168084529482529182902085905581519283528201929092529081018290527f9d5c7c0b934da8fefa9c7760c98383778a12dfbfc0c3b3106518f43fb9508ac090606001611452565b61184f611bac565b6005805460ff19168215159081179091556040519081527f1584ad594a70cbe1e6515592e1272a987d922b097ead875069cebe8b40c004a4906020016114bf565b3330146118df5760405162461bcd60e51b815260206004820152601f60248201527f4f4654436f72653a2063616c6c6572206d757374206265204f4654436f7265006044820152606401610987565b6118ea3086866124c6565b9350846001600160a01b03168a61ffff167fbf551ec93859b170f9b2141bd9298bf3f64322c6f7beb2543a0cb669834118bf8660405161192c91815260200190565b60405180910390a3604051633fe79aed60e11b81526001600160a01b03861690637fcf35da908390611970908e908e908e908e908e908d908d908d90600401613d6b565b600060405180830381600088803b15801561198a57600080fd5b5087f115801561199e573d6000803e3d6000fd5b505050505050505050505050505050565b6119b7611bac565b61ffff831660009081526001602052604090206119d5828483613dc6565b507ffa41487ad5d6728f0b19276fa1eddc16558578f5109fc39d2dc33c3230470dab83838360405161145293929190613b55565b611a11611bac565b6001600160a01b038116611a765760405162461bcd60e51b815260206004820152602660248201527f4f776e61626c653a206e6577206f776e657220697320746865207a65726f206160448201526564647265737360d01b6064820152608401610987565b611a7f816121b2565b50565b604051633d7b2f6f60e21b815261ffff808616600483015284166024820152306044820152606481018290526060907f00000000000000000000000000000000000000000000000000000000000000006001600160a01b03169063f5ecbdbc90608401600060405180830381865afa158015611b02573d6000803e3d6000fd5b505050506040513d6000823e601f3d908101601f19168201604052611b2a9190810190613e85565b95945050505050565b600080611b965a60966366ad5c8a60e01b89898989604051602401611b5b9493929190613ef2565b60408051601f198184030181529190526020810180516001600160e01b03166001600160e01b03199093169290921790915230929190612518565b9150915081610fc757610fc786868686856125a2565b6000546001600160a01b0316331461104c5760405162461bcd60e51b815260206004820181905260248201527f4f776e61626c653a2063616c6c6572206973206e6f7420746865206f776e65726044820152606401610987565b6001600160a01b038316611c685760405162461bcd60e51b8152602060048201526024808201527f45524332303a20617070726f76652066726f6d20746865207a65726f206164646044820152637265737360e01b6064820152608401610987565b6001600160a01b038216611cc95760405162461bcd60e51b815260206004820152602260248201527f45524332303a20617070726f766520746f20746865207a65726f206164647265604482015261737360f01b6064820152608401610987565b6001600160a01b0383811660008181526008602090815260408083209487168084529482529182902085905590518481527f8c5be1e5ebec7d5bd14f71427d1e84f3dd0314c0f7b2291e5b200ac8c7c3b925910160405180910390a3505050565b6000611d36848461176a565b90506000198114611d9e5781811015611d915760405162461bcd60e51b815260206004820152601d60248201527f45524332303a20696e73756666696369656e7420616c6c6f77616e63650000006044820152606401610987565b611d9e8484848403611c06565b50505050565b6001600160a01b038316611e085760405162461bcd60e51b815260206004820152602560248201527f45524332303a207472616e736665722066726f6d20746865207a65726f206164604482015264647265737360d81b6064820152608401610987565b6001600160a01b038216611e6a5760405162461bcd60e51b815260206004820152602360248201527f45524332303a207472616e7366657220746f20746865207a65726f206164647260448201526265737360e81b6064820152608401610987565b6001600160a01b03831660009081526007602052604090205481811015611ee25760405162461bcd60e51b815260206004820152602660248201527f45524332303a207472616e7366657220616d6f756e7420657863656564732062604482015265616c616e636560d01b6064820152608401610987565b6001600160a01b0380851660008181526007602052604080822086860390559286168082529083902080548601905591517fddf252ad1be2c89b69c2b068fc378daa952ba7f163c4a11628f55a4df523b3ef90611f429086815260200190565b60405180910390a3611d9e565b6000806000611f9d87611f6188612644565b6040805160006020820152602181019390935260c09190911b6001600160c01b0319166041830152805160298184030181526049909201905290565b60405163040a7bb160e41b81529091506001600160a01b037f000000000000000000000000000000000000000000000000000000000000000016906340a7bb1090611ff4908b90309086908b908b90600401613f30565b6040805180830381865afa158015612010573d6000803e3d6000fd5b505050506040513d601f19601f820116820180604052508101906120349190613f84565b92509250509550959350505050565b600061204f82826126ca565b905060ff811661206a5761206585858585612726565b610c8f565b60001960ff82160161208257612065858585856127b6565b60405162461bcd60e51b815260206004820152601c60248201527f4f4654436f72653a20756e6b6e6f776e207061636b65742074797065000000006044820152606401610987565b60006120d8878284816129c4565b6120e185612a3e565b5090506120f088888884612a7e565b90506000811161213e5760405162461bcd60e51b815260206004820152601960248201527813d19510dbdc994e88185b5bdd5b9d081d1bdbc81cdb585b1b603a1b6044820152606401610987565b600061214d87611f6184612644565b905061215d888287878734612ab0565b86896001600160a01b03168961ffff167fd81fc9b8523134ed613870ed029d6170cbb73aa6a6bc311b9a642689fb9df59a8560405161219e91815260200190565b60405180910390a450979650505050505050565b600080546001600160a01b038381166001600160a01b0319831681178455604051919092169283917f8be0079c531659141344cd1fd0a4f28419497f9722a3daafe3b4186f6b6457e09190a35050565b600061221a896001846001600160401b0389166129c4565b61222387612a3e565b5090506122328a8a8a84612a7e565b9050600081116122805760405162461bcd60e51b815260206004820152601960248201527813d19510dbdc994e88185b5bdd5b9d081d1bdbc81cdb585b1b603a1b6044820152606401610987565b6000612297338a61229085612644565b8a8a612c4a565b90506122a78a8287878734612ab0565b888b6001600160a01b03168b61ffff167fd81fc9b8523134ed613870ed029d6170cbb73aa6a6bc311b9a642689fb9df59a856040516122e891815260200190565b60405180910390a4509998505050505050505050565b60608161230c81601f613b19565b101561234b5760405162461bcd60e51b815260206004820152600e60248201526d736c6963655f6f766572666c6f7760901b6044820152606401610987565b6123558284613b19565b845110156123995760405162461bcd60e51b8152602060048201526011602482015270736c6963655f6f75744f66426f756e647360781b6044820152606401610987565b6060821580156123b85760405191506000825260208201604052612402565b6040519150601f8416801560200281840101858101878315602002848b0101015b818310156123f15780518352602092830192016123d9565b5050858452601f01601f1916604052505b50949350505050565b600080600061241e338a6122908b612644565b60405163040a7bb160e41b81529091506001600160a01b037f000000000000000000000000000000000000000000000000000000000000000016906340a7bb1090612475908d90309086908b908b90600401613f30565b6040805180830381865afa158015612491573d6000803e3d6000fd5b505050506040513d601f19601f820116820180604052508101906124b59190613f84565b925092505097509795505050505050565b600033306001600160a01b038616148015906124f45750806001600160a01b0316856001600160a01b031614155b1561250457612504858285611d2a565b61250f858585611da4565b50909392505050565b6000606060008060008661ffff166001600160401b0381111561253d5761253d613559565b6040519080825280601f01601f191660200182016040528015612567576020820181803683370190505b50905060008087516020890160008d8df191503d925086831115612589578692505b828152826000602083013e909890975095505050505050565b8180519060200120600460008761ffff1661ffff168152602001908152602001600020856040516125d39190613fa8565b9081526040805191829003602090810183206001600160401b0388166000908152915220919091557fe183f33de2837795525b4792ca4cd60535bd77c53b7e7030060bfcf5734d6b0c906126309087908790879087908790613fc4565b60405180910390a15050505050565b505050565b6000806126717f00000000000000000000000000000000000000000000000000000000000000008461402c565b90506001600160401b03811115610b755760405162461bcd60e51b815260206004820152601a60248201527f4f4654436f72653a20616d6f756e745344206f766572666c6f770000000000006044820152606401610987565b60006126d7826001613b19565b8351101561271d5760405162461bcd60e51b8152602060048201526013602482015272746f55696e74385f6f75744f66426f756e647360681b6044820152606401610987565b50016001015190565b60008061273283612c8b565b90925090506001600160a01b03821661274b5761dead91505b600061275682612d10565b9050612763878483612d45565b9050826001600160a01b03168761ffff167fbf551ec93859b170f9b2141bd9298bf3f64322c6f7beb2543a0cb669834118bf836040516127a591815260200190565b60405180910390a350505050505050565b60008060008060006127c786612d58565b945094509450945094506000600660008b61ffff1661ffff168152602001908152602001600020896040516127fc9190613fa8565b90815260408051602092819003830190206001600160401b038b166000908152925281205460ff16915061282f85612d10565b90508161289d576128418b3083612d45565b61ffff8c16600090815260066020526040908190209051919250600191612869908d90613fa8565b90815260408051602092819003830190206001600160401b038d16600090815292529020805460ff19169115159190911790555b6001600160a01b0386163b6128f4576040516001600160a01b03871681527f9aedf5fdba8716db3b6705ca00150643309995d4f818a249ed6dde6677e7792d9060200160405180910390a150505050505050611d9e565b8a8a8a8a8a8a868a60008a612912578b6001600160401b0316612914565b5a5b90506000806129465a609663eaffd49a60e01b8e8e8e8d8d8d8d8d604051602401611b5b989796959493929190614040565b91509150811561299f578751602089012060405161ffff8d16907fb8890edbfc1c74692f527444645f95489c3703cc2df42e4a366f5d06fa6cd88490612991908e908e9086906140b4565b60405180910390a2506129ac565b6129ac8b8b8b8b856125a2565b50505050505050505050505050505050505050505050565b60055460ff16156129e0576129db84848484612e0f565b611d9e565b815115611d9e5760405162461bcd60e51b815260206004820152602660248201527f4f4654436f72653a205f61646170746572506172616d73206d7573742062652060448201526532b6b83a3c9760d11b6064820152608401610987565b600080612a6b7f0000000000000000000000000000000000000000000000000000000000000000846140e2565b9050612a778184613bb9565b9150915091565b6000336001600160a01b0386168114612a9c57612a9c868285611d2a565b612aa68684612eee565b5090949350505050565b61ffff861660009081526001602052604081208054612ace90613abf565b80601f0160208091040260200160405190810160405280929190818152602001828054612afa90613abf565b8015612b475780601f10612b1c57610100808354040283529160200191612b47565b820191906000526020600020905b815481529060010190602001808311612b2a57829003601f168201915b505050505090508051600003612bb85760405162461bcd60e51b815260206004820152603060248201527f4c7a4170703a2064657374696e6174696f6e20636861696e206973206e6f742060448201526f61207472757374656420736f7572636560801b6064820152608401610987565b60405162c5803160e81b81526001600160a01b037f0000000000000000000000000000000000000000000000000000000000000000169063c5803100908490612c0f908b9086908c908c908c908c906004016140f6565b6000604051808303818588803b158015612c2857600080fd5b505af1158015612c3c573d6000803e3d6000fd5b505050505050505050505050565b6060600185856001600160a01b0389168587604051602001612c719695949392919061415d565b604051602081830303815290604052905095945050505050565b60008080612c9984826126ca565b60ff16148015612caa575082516029145b612cf15760405162461bcd60e51b815260206004820152601860248201527713d19510dbdc994e881a5b9d985b1a59081c185e5b1bd85960421b6044820152606401610987565b612cfc83600d613022565b9150612d09836021613087565b9050915091565b6000610b757f00000000000000000000000000000000000000000000000000000000000000006001600160401b0384166141be565b6000612d5183836130e4565b5092915050565b600080806060816001612d6b87836126ca565b60ff1614612db65760405162461bcd60e51b815260206004820152601860248201527713d19510dbdc994e881a5b9d985b1a59081c185e5b1bd85960421b6044820152606401610987565b612dc186600d613022565b9350612dce866021613087565b9250612ddb8660296131a5565b9450612de8866049613087565b9050612e046051808851612dfc9190613bb9565b8891906122fe565b915091939590929450565b6000612e1a83613203565b61ffff808716600090815260026020908152604080832093891683529290529081205491925090612e4c908490613b19565b905060008111612e9e5760405162461bcd60e51b815260206004820152601a60248201527f4c7a4170703a206d696e4761734c696d6974206e6f74207365740000000000006044820152606401610987565b80821015610fc75760405162461bcd60e51b815260206004820152601b60248201527f4c7a4170703a20676173206c696d697420697320746f6f206c6f7700000000006044820152606401610987565b6001600160a01b038216612f4e5760405162461bcd60e51b815260206004820152602160248201527f45524332303a206275726e2066726f6d20746865207a65726f206164647265736044820152607360f81b6064820152608401610987565b6001600160a01b03821660009081526007602052604090205481811015612fc25760405162461bcd60e51b815260206004820152602260248201527f45524332303a206275726e20616d6f756e7420657863656564732062616c616e604482015261636560f01b6064820152608401610987565b6001600160a01b03831660008181526007602090815260408083208686039055600980548790039055518581529192917fddf252ad1be2c89b69c2b068fc378daa952ba7f163c4a11628f55a4df523b3ef910160405180910390a3505050565b600061302f826014613b19565b835110156130775760405162461bcd60e51b8152602060048201526015602482015274746f416464726573735f6f75744f66426f756e647360581b6044820152606401610987565b500160200151600160601b900490565b6000613094826008613b19565b835110156130db5760405162461bcd60e51b8152602060048201526014602482015273746f55696e7436345f6f75744f66426f756e647360601b6044820152606401610987565b50016008015190565b6001600160a01b03821661313a5760405162461bcd60e51b815260206004820152601f60248201527f45524332303a206d696e7420746f20746865207a65726f2061646472657373006044820152606401610987565b806009600082825461314c9190613b19565b90915550506001600160a01b0382166000818152600760209081526040808320805486019055518481527fddf252ad1be2c89b69c2b068fc378daa952ba7f163c4a11628f55a4df523b3ef910160405180910390a35050565b60006131b2826020613b19565b835110156131fa5760405162461bcd60e51b8152602060048201526015602482015274746f427974657333325f6f75744f66426f756e647360581b6044820152606401610987565b50016020015190565b60006022825110156132575760405162461bcd60e51b815260206004820152601c60248201527f4c7a4170703a20696e76616c69642061646170746572506172616d73000000006044820152606401610987565b506022015190565b803561ffff8116811461327157600080fd5b919050565b60008083601f84011261328857600080fd5b5081356001600160401b0381111561329f57600080fd5b6020830191508360208285010111156132b757600080fd5b9250929050565b80356001600160401b038116811461327157600080fd5b600080600080600080608087890312156132ee57600080fd5b6132f78761325f565b955060208701356001600160401b038082111561331357600080fd5b61331f8a838b01613276565b909750955085915061333360408a016132be565b9450606089013591508082111561334957600080fd5b5061335689828a01613276565b979a9699509497509295939492505050565b60006020828403121561337a57600080fd5b81356001600160e01b0319811681146112c557600080fd5b60005b838110156133ad578181015183820152602001613395565b50506000910152565b600081518084526133ce816020860160208601613392565b601f01601f19169290920160200192915050565b6020815260006112c560208301846133b6565b60006020828403121561340757600080fd5b6112c58261325f565b6001600160a01b0381168114611a7f57600080fd5b6000806040838503121561343857600080fd5b823561344381613410565b946020939093013593505050565b60008060006060848603121561346657600080fd5b833561347181613410565b9250602084013561348181613410565b929592945050506040919091013590565b8035801515811461327157600080fd5b60008060008060008060a087890312156134bb57600080fd5b6134c48761325f565b955060208701359450604087013593506134e060608801613492565b925060808701356001600160401b038111156134fb57600080fd5b61335689828a01613276565b60008060006040848603121561351c57600080fd5b6135258461325f565b925060208401356001600160401b0381111561354057600080fd5b61354c86828701613276565b9497909650939450505050565b634e487b7160e01b600052604160045260246000fd5b604051601f8201601f191681016001600160401b038111828210171561359757613597613559565b604052919050565b60006001600160401b038211156135b8576135b8613559565b50601f01601f191660200190565b6000806000606084860312156135db57600080fd5b6135e48461325f565b925060208401356001600160401b038111156135ff57600080fd5b8401601f8101861361361057600080fd5b803561362361361e8261359f565b61356f565b81815287602083850101111561363857600080fd5b8160208401602083013760006020838301015280945050505061365d604085016132be565b90509250925092565b60006060828403121561367857600080fd5b50919050565b600080600080600060a0868803121561369657600080fd5b85356136a181613410565b94506136af6020870161325f565b9350604086013592506060860135915060808601356001600160401b038111156136d857600080fd5b6136e488828901613666565b9150509295509295909350565b60006020828403121561370357600080fd5b81356112c581613410565b60008060008060008060008060e0898b03121561372a57600080fd5b883561373581613410565b975061374360208a0161325f565b9650604089013595506060890135945060808901356001600160401b038082111561376d57600080fd5b6137798c838d01613276565b909650945084915061378d60a08c016132be565b935060c08b01359150808211156137a357600080fd5b506137b08b828c01613666565b9150509295985092959890939650565b600080604083850312156137d357600080fd5b6137dc8361325f565b91506137ea6020840161325f565b90509250929050565b600080600080600080600080600060e08a8c03121561381157600080fd5b61381a8a61325f565b985060208a0135975060408a0135965060608a01356001600160401b038082111561384457600080fd5b6138508d838e01613276565b909850965086915061386460808d016132be565b955061387260a08d01613492565b945060c08c013591508082111561388857600080fd5b506138958c828d01613276565b915080935050809150509295985092959850929598565b6000806000806000608086880312156138c457600080fd5b6138cd8661325f565b94506138db6020870161325f565b93506040860135925060608601356001600160401b038111156138fd57600080fd5b61390988828901613276565b969995985093965092949392505050565b6000806040838503121561392d57600080fd5b823561393881613410565b9150602083013561394881613410565b809150509250929050565b60008060006060848603121561396857600080fd5b6139718461325f565b925061397f6020850161325f565b9150604084013590509250925092565b6000602082840312156139a157600080fd5b6112c582613492565b6000806000806000806000806000806101008b8d0312156139ca57600080fd5b6139d38b61325f565b995060208b01356001600160401b03808211156139ef57600080fd5b6139fb8e838f01613276565b909b509950899150613a0f60408e016132be565b985060608d0135975060808d01359150613a2882613410565b90955060a08c0135945060c08c01359080821115613a4557600080fd5b50613a528d828e01613276565b9150809450508092505060e08b013590509295989b9194979a5092959850565b60008060008060808587031215613a8857600080fd5b613a918561325f565b9350613a9f6020860161325f565b92506040850135613aaf81613410565b9396929550929360600135925050565b600181811c90821680613ad357607f821691505b60208210810361367857634e487b7160e01b600052602260045260246000fd5b8183823760009101908152919050565b634e487b7160e01b600052601160045260246000fd5b80820180821115610b7557610b75613b03565b81835281816020850137506000828201602090810191909152601f909101601f19169091010190565b61ffff84168152604060208201526000611b2a604083018486613b2c565b6000808335601e19843603018112613b8a57600080fd5b8301803591506001600160401b03821115613ba457600080fd5b6020019150368190038213156132b757600080fd5b81810381811115610b7557610b75613b03565b8284823760609190911b6bffffffffffffffffffffffff19169101908152601401919050565b601f82111561263f57600081815260208120601f850160051c81016020861015613c195750805b601f850160051c820191505b81811015610fc757828155600101613c25565b81516001600160401b03811115613c5157613c51613559565b613c6581613c5f8454613abf565b84613bf2565b602080601f831160018114613c9a5760008415613c825750858301515b600019600386901b1c1916600185901b178555610fc7565b600085815260208120601f198616915b82811015613cc957888601518255948401946001909101908401613caa565b5085821015613ce75787850151600019600388901b60f8161c191681555b5050505050600190811b01905550565b600061ffff808816835280871660208401525084604083015260806060830152613d25608083018486613b2c565b979650505050505050565b61ffff86168152608060208201526000613d4e608083018688613b2c565b6001600160401b0394909416604083015250606001529392505050565b61ffff8916815260c060208201526000613d8960c08301898b613b2c565b6001600160401b038816604084015286606084015285608084015282810360a0840152613db7818587613b2c565b9b9a5050505050505050505050565b6001600160401b03831115613ddd57613ddd613559565b613df183613deb8354613abf565b83613bf2565b6000601f841160018114613e255760008515613e0d5750838201355b600019600387901b1c1916600186901b178355610c8f565b600083815260209020601f19861690835b82811015613e565786850135825560209485019460019092019101613e36565b5086821015613e735760001960f88860031b161c19848701351681555b505060018560011b0183555050505050565b600060208284031215613e9757600080fd5b81516001600160401b03811115613ead57600080fd5b8201601f81018413613ebe57600080fd5b8051613ecc61361e8261359f565b818152856020838501011115613ee157600080fd5b611b2a826020830160208601613392565b61ffff85168152608060208201526000613f0f60808301866133b6565b6001600160401b03851660408401528281036060840152613d2581856133b6565b61ffff861681526001600160a01b038516602082015260a060408201819052600090613f5e908301866133b6565b84151560608401528281036080840152613f7881856133b6565b98975050505050505050565b60008060408385031215613f9757600080fd5b505080516020909101519092909150565b60008251613fba818460208701613392565b9190910192915050565b61ffff8616815260a060208201526000613fe160a08301876133b6565b6001600160401b0386166040840152828103606084015261400281866133b6565b90508281036080840152613f7881856133b6565b634e487b7160e01b600052601260045260246000fd5b60008261403b5761403b614016565b500490565b600061010061ffff8b16835280602084015261405e8184018b6133b6565b6001600160401b038a166040850152606084018990526001600160a01b038816608085015260a0840187905283810360c0850152905061409e81866133b6565b9150508260e08301529998505050505050505050565b6060815260006140c760608301866133b6565b6001600160401b039490941660208301525060400152919050565b6000826140f1576140f1614016565b500690565b61ffff8716815260c06020820152600061411360c08301886133b6565b828103604084015261412581886133b6565b6001600160a01b0387811660608601528616608085015283810360a0850152905061415081856133b6565b9998505050505050505050565b60ff60f81b8760f81b16815285600182015260006001600160401b0360c01b808760c01b166021840152856029840152808560c01b1660498401525082516141ac816051850160208701613392565b91909101605101979650505050505050565b8082028115828204841417610b7557610b75613b0356fea264697066735822122069669a38c84cb0503047fab9c8687b3302b9f5200ab3592c0455b7e15f18b68064736f6c63430008110033",
  "linkReferences": {},
  "deployedLinkReferences": {}
}