{
  "_format": "hh-sol-artifact-1",
  "contractName": "Main",
  "sourceName": "contracts/Main.sol",
  "abi": [
    {
      "inputs": [
        {
          "internalType": "uint256",
          "name": "_fee",
          "type": "uint256"
        },
        {
          "internalType": "address",
          "name": "_endpoint",
          "type": "address"
        }
      ],
      "stateMutability": "nonpayable",
      "type": "constructor"
    },
    {
      "anonymous": false,
      "inputs": [
        {
          "indexed": true,
          "internalType": "address",
          "name": "owner",
          "type": "address"
        },
        {
          "indexed": true,
          "internalType": "address",
          "name": "spender",
          "type": "address"
        },
        {
          "indexed": false,
          "internalType": "uint256",
          "name": "value",
          "type": "uint256"
        }
      ],
      "name": "Approval",
      "type": "event"
    },
    {
      "anonymous": false,
      "inputs": [
        {
          "indexed": true,
          "internalType": "uint16",
          "name": "_srcChainId",
          "type": "uint16"
        },
        {
          "indexed": false,
          "internalType": "bytes",
          "name": "_srcAddress",
          "type": "bytes"
        },
        {
          "indexed": false,
          "internalType": "uint64",
          "name": "_nonce",
          "type": "uint64"
        },
        {
          "indexed": false,
          "internalType": "bytes32",
          "name": "_hash",
          "type": "bytes32"
        }
      ],
      "name": "CallOFTReceivedSuccess",
      "type": "event"
    },
    {
      "anonymous": false,
      "inputs": [
        {
          "indexed": false,
          "internalType": "uint16",
          "name": "_srcChainId",
          "type": "uint16"
        },
        {
          "indexed": false,
          "internalType": "bytes",
          "name": "_srcAddress",
          "type": "bytes"
        },
        {
          "indexed": false,
          "internalType": "uint64",
          "name": "_nonce",
          "type": "uint64"
        },
        {
          "indexed": false,
          "internalType": "bytes",
          "name": "_payload",
          "type": "bytes"
        },
        {
          "indexed": false,
          "internalType": "bytes",
          "name": "_reason",
          "type": "bytes"
        }
      ],
      "name": "MessageFailed",
      "type": "event"
    },
    {
      "anonymous": false,
      "inputs": [
        {
          "indexed": true,
          "internalType": "address",
          "name": "user",
          "type": "address"
        },
        {
          "indexed": false,
          "internalType": "uint256",
          "name": "rewardAmount",
          "type": "uint256"
        }
      ],
      "name": "MintClaimed",
      "type": "event"
    },
    {
      "anonymous": false,
      "inputs": [
        {
          "indexed": false,
          "internalType": "address",
          "name": "_address",
          "type": "address"
        }
      ],
      "name": "NonContractAddress",
      "type": "event"
    },
    {
      "anonymous": false,
      "inputs": [
        {
          "indexed": true,
          "internalType": "address",
          "name": "previousOwner",
          "type": "address"
        },
        {
          "indexed": true,
          "internalType": "address",
          "name": "newOwner",
          "type": "address"
        }
      ],
      "name": "OwnershipTransferred",
      "type": "event"
    },
    {
      "anonymous": false,
      "inputs": [
        {
          "indexed": true,
          "internalType": "address",
          "name": "user",
          "type": "address"
        },
        {
          "indexed": false,
          "internalType": "uint256",
          "name": "term",
          "type": "uint256"
        },
        {
          "indexed": false,
          "internalType": "uint256",
          "name": "rank",
          "type": "uint256"
        }
      ],
      "name": "RankClaimed",
      "type": "event"
    },
    {
      "anonymous": false,
      "inputs": [
        {
          "indexed": true,
          "internalType": "uint16",
          "name": "_srcChainId",
          "type": "uint16"
        },
        {
          "indexed": true,
          "internalType": "address",
          "name": "_to",
          "type": "address"
        },
        {
          "indexed": false,
          "internalType": "uint256",
          "name": "_amount",
          "type": "uint256"
        }
      ],
      "name": "ReceiveFromChain",
      "type": "event"
    },
    {
      "anonymous": false,
      "inputs": [
        {
          "indexed": true,
          "internalType": "address",
          "name": "user",
          "type": "address"
        },
        {
          "indexed": true,
          "internalType": "address",
          "name": "xenContract",
          "type": "address"
        },
        {
          "indexed": true,
          "internalType": "address",
          "name": "tokenContract",
          "type": "address"
        },
        {
          "indexed": false,
          "internalType": "uint256",
          "name": "xenAmount",
          "type": "uint256"
        },
        {
          "indexed": false,
          "internalType": "uint256",
          "name": "tokenAmount",
          "type": "uint256"
        }
      ],
      "name": "Redeemed",
      "type": "event"
    },
    {
      "anonymous": false,
      "inputs": [
        {
          "indexed": false,
          "internalType": "uint16",
          "name": "_srcChainId",
          "type": "uint16"
        },
        {
          "indexed": false,
          "internalType": "bytes",
          "name": "_srcAddress",
          "type": "bytes"
        },
        {
          "indexed": false,
          "internalType": "uint64",
          "name": "_nonce",
          "type": "uint64"
        },
        {
          "indexed": false,
          "internalType": "bytes32",
          "name": "_payloadHash",
          "type": "bytes32"
        }
      ],
      "name": "RetryMessageSuccess",
      "type": "event"
    },
    {
      "anonymous": false,
      "inputs": [
        {
          "indexed": true,
          "internalType": "uint16",
          "name": "_dstChainId",
          "type": "uint16"
        },
        {
          "indexed": true,
          "internalType": "address",
          "name": "_from",
          "type": "address"
        },
        {
          "indexed": true,
          "internalType": "bytes32",
          "name": "_toAddress",
          "type": "bytes32"
        },
        {
          "indexed": false,
          "internalType": "uint256",
          "name": "_amount",
          "type": "uint256"
        }
      ],
      "name": "SendToChain",
      "type": "event"
    },
    {
      "anonymous": false,
      "inputs": [
        {
          "indexed": false,
          "internalType": "uint16",
          "name": "_dstChainId",
          "type": "uint16"
        },
        {
          "indexed": false,
          "internalType": "uint16",
          "name": "_type",
          "type": "uint16"
        },
        {
          "indexed": false,
          "internalType": "uint256",
          "name": "_minDstGas",
          "type": "uint256"
        }
      ],
      "name": "SetMinDstGas",
      "type": "event"
    },
    {
      "anonymous": false,
      "inputs": [
        {
          "indexed": false,
          "internalType": "address",
          "name": "precrime",
          "type": "address"
        }
      ],
      "name": "SetPrecrime",
      "type": "event"
    },
    {
      "anonymous": false,
      "inputs": [
        {
          "indexed": false,
          "internalType": "uint16",
          "name": "_remoteChainId",
          "type": "uint16"
        },
        {
          "indexed": false,
          "internalType": "bytes",
          "name": "_path",
          "type": "bytes"
        }
      ],
      "name": "SetTrustedRemote",
      "type": "event"
    },
    {
      "anonymous": false,
      "inputs": [
        {
          "indexed": false,
          "internalType": "uint16",
          "name": "_remoteChainId",
          "type": "uint16"
        },
        {
          "indexed": false,
          "internalType": "bytes",
          "name": "_remoteAddress",
          "type": "bytes"
        }
      ],
      "name": "SetTrustedRemoteAddress",
      "type": "event"
    },
    {
      "anonymous": false,
      "inputs": [
        {
          "indexed": false,
          "internalType": "bool",
          "name": "_useCustomAdapterParams",
          "type": "bool"
        }
      ],
      "name": "SetUseCustomAdapterParams",
      "type": "event"
    },
    {
      "anonymous": false,
      "inputs": [
        {
          "indexed": true,
          "internalType": "address",
          "name": "user",
          "type": "address"
        },
        {
          "indexed": false,
          "internalType": "uint256",
          "name": "amount",
          "type": "uint256"
        },
        {
          "indexed": false,
          "internalType": "uint256",
          "name": "term",
          "type": "uint256"
        }
      ],
      "name": "Staked",
      "type": "event"
    },
    {
      "anonymous": false,
      "inputs": [
        {
          "indexed": true,
          "internalType": "address",
          "name": "from",
          "type": "address"
        },
        {
          "indexed": true,
          "internalType": "address",
          "name": "to",
          "type": "address"
        },
        {
          "indexed": false,
          "internalType": "uint256",
          "name": "value",
          "type": "uint256"
        }
      ],
      "name": "Transfer",
      "type": "event"
    },
    {
      "anonymous": false,
      "inputs": [
        {
          "indexed": true,
          "internalType": "address",
          "name": "user",
          "type": "address"
        },
        {
          "indexed": false,
          "internalType": "uint256",
          "name": "amount",
          "type": "uint256"
        },
        {
          "indexed": false,
          "internalType": "uint256",
          "name": "reward",
          "type": "uint256"
        }
      ],
      "name": "Withdrawn",
      "type": "event"
    },
    {
      "inputs": [],
      "name": "DAYS_IN_YEAR",
      "outputs": [
        {
          "internalType": "uint256",
          "name": "",
          "type": "uint256"
        }
      ],
      "stateMutability": "view",
      "type": "function"
    },
    {
      "inputs": [],
      "name": "EAA_PM_START",
      "outputs": [
        {
          "internalType": "uint256",
          "name": "",
          "type": "uint256"
        }
      ],
      "stateMutability": "view",
      "type": "function"
    },
    {
      "inputs": [],
      "name": "EAA_PM_STEP",
      "outputs": [
        {
          "internalType": "uint256",
          "name": "",
          "type": "uint256"
        }
      ],
      "stateMutability": "view",
      "type": "function"
    },
    {
      "inputs": [],
      "name": "EAA_RANK_STEP",
      "outputs": [
        {
          "internalType": "uint256",
          "name": "",
          "type": "uint256"
        }
      ],
      "stateMutability": "view",
      "type": "function"
    },
    {
      "inputs": [],
      "name": "GENESIS_RANK",
      "outputs": [
        {
          "internalType": "uint256",
          "name": "",
          "type": "uint256"
        }
      ],
      "stateMutability": "view",
      "type": "function"
    },
    {
      "inputs": [],
      "name": "MAX_PENALTY_PCT",
      "outputs": [
        {
          "internalType": "uint256",
          "name": "",
          "type": "uint256"
        }
      ],
      "stateMutability": "view",
      "type": "function"
    },
    {
      "inputs": [],
      "name": "MAX_TERM_END",
      "outputs": [
        {
          "internalType": "uint256",
          "name": "",
          "type": "uint256"
        }
      ],
      "stateMutability": "view",
      "type": "function"
    },
    {
      "inputs": [],
      "name": "MAX_TERM_START",
      "outputs": [
        {
          "internalType": "uint256",
          "name": "",
          "type": "uint256"
        }
      ],
      "stateMutability": "view",
      "type": "function"
    },
    {
      "inputs": [],
      "name": "MIN_TERM",
      "outputs": [
        {
          "internalType": "uint256",
          "name": "",
          "type": "uint256"
        }
      ],
      "stateMutability": "view",
      "type": "function"
    },
    {
      "inputs": [],
      "name": "NO_EXTRA_GAS",
      "outputs": [
        {
          "internalType": "uint256",
          "name": "",
          "type": "uint256"
        }
      ],
      "stateMutability": "view",
      "type": "function"
    },
    {
      "inputs": [],
      "name": "PT_SEND",
      "outputs": [
        {
          "internalType": "uint8",
          "name": "",
          "type": "uint8"
        }
      ],
      "stateMutability": "view",
      "type": "function"
    },
    {
      "inputs": [],
      "name": "PT_SEND_AND_CALL",
      "outputs": [
        {
          "internalType": "uint8",
          "name": "",
          "type": "uint8"
        }
      ],
      "stateMutability": "view",
      "type": "function"
    },
    {
      "inputs": [],
      "name": "REWARD_AMPLIFIER_END",
      "outputs": [
        {
          "internalType": "uint256",
          "name": "",
          "type": "uint256"
        }
      ],
      "stateMutability": "view",
      "type": "function"
    },
    {
      "inputs": [],
      "name": "REWARD_AMPLIFIER_START",
      "outputs": [
        {
          "internalType": "uint256",
          "name": "",
          "type": "uint256"
        }
      ],
      "stateMutability": "view",
      "type": "function"
    },
    {
      "inputs": [],
      "name": "SECONDS_IN_DAY",
      "outputs": [
        {
          "internalType": "uint256",
          "name": "",
          "type": "uint256"
        }
      ],
      "stateMutability": "view",
      "type": "function"
    },
    {
      "inputs": [],
      "name": "TERM_AMPLIFIER",
      "outputs": [
        {
          "internalType": "uint256",
          "name": "",
          "type": "uint256"
        }
      ],
      "stateMutability": "view",
      "type": "function"
    },
    {
      "inputs": [],
      "name": "TERM_AMPLIFIER_THRESHOLD",
      "outputs": [
        {
          "internalType": "uint256",
          "name": "",
          "type": "uint256"
        }
      ],
      "stateMutability": "view",
      "type": "function"
    },
    {
      "inputs": [],
      "name": "WITHDRAWAL_WINDOW_DAYS",
      "outputs": [
        {
          "internalType": "uint256",
          "name": "",
          "type": "uint256"
        }
      ],
      "stateMutability": "view",
      "type": "function"
    },
    {
      "inputs": [],
      "name": "XEX_APY_DAYS_STEP",
      "outputs": [
        {
          "internalType": "uint256",
          "name": "",
          "type": "uint256"
        }
      ],
      "stateMutability": "view",
      "type": "function"
    },
    {
      "inputs": [],
      "name": "XEX_APY_END",
      "outputs": [
        {
          "internalType": "uint256",
          "name": "",
          "type": "uint256"
        }
      ],
      "stateMutability": "view",
      "type": "function"
    },
    {
      "inputs": [],
      "name": "XEX_APY_START",
      "outputs": [
        {
          "internalType": "uint256",
          "name": "",
          "type": "uint256"
        }
      ],
      "stateMutability": "view",
      "type": "function"
    },
    {
      "inputs": [],
      "name": "XEX_MIN_BURN",
      "outputs": [
        {
          "internalType": "uint256",
          "name": "",
          "type": "uint256"
        }
      ],
      "stateMutability": "view",
      "type": "function"
    },
    {
      "inputs": [],
      "name": "XEX_MIN_STAKE",
      "outputs": [
        {
          "internalType": "uint256",
          "name": "",
          "type": "uint256"
        }
      ],
      "stateMutability": "view",
      "type": "function"
    },
    {
      "inputs": [],
      "name": "activeMinters",
      "outputs": [
        {
          "internalType": "uint256",
          "name": "",
          "type": "uint256"
        }
      ],
      "stateMutability": "view",
      "type": "function"
    },
    {
      "inputs": [],
      "name": "activeStakes",
      "outputs": [
        {
          "internalType": "uint256",
          "name": "",
          "type": "uint256"
        }
      ],
      "stateMutability": "view",
      "type": "function"
    },
    {
      "inputs": [
        {
          "internalType": "address",
          "name": "owner",
          "type": "address"
        },
        {
          "internalType": "address",
          "name": "spender",
          "type": "address"
        }
      ],
      "name": "allowance",
      "outputs": [
        {
          "internalType": "uint256",
          "name": "",
          "type": "uint256"
        }
      ],
      "stateMutability": "view",
      "type": "function"
    },
    {
      "inputs": [
        {
          "internalType": "address",
          "name": "spender",
          "type": "address"
        },
        {
          "internalType": "uint256",
          "name": "amount",
          "type": "uint256"
        }
      ],
      "name": "approve",
      "outputs": [
        {
          "internalType": "bool",
          "name": "",
          "type": "bool"
        }
      ],
      "stateMutability": "nonpayable",
      "type": "function"
    },
    {
      "inputs": [
        {
          "internalType": "address",
          "name": "account",
          "type": "address"
        }
      ],
      "name": "balanceOf",
      "outputs": [
        {
          "internalType": "uint256",
          "name": "",
          "type": "uint256"
        }
      ],
      "stateMutability": "view",
      "type": "function"
    },
    {
      "inputs": [
        {
          "internalType": "uint16",
          "name": "_srcChainId",
          "type": "uint16"
        },
        {
          "internalType": "bytes",
          "name": "_srcAddress",
          "type": "bytes"
        },
        {
          "internalType": "uint64",
          "name": "_nonce",
          "type": "uint64"
        },
        {
          "internalType": "bytes32",
          "name": "_from",
          "type": "bytes32"
        },
        {
          "internalType": "address",
          "name": "_to",
          "type": "address"
        },
        {
          "internalType": "uint256",
          "name": "_amount",
          "type": "uint256"
        },
        {
          "internalType": "bytes",
          "name": "_payload",
          "type": "bytes"
        },
        {
          "internalType": "uint256",
          "name": "_gasForCall",
          "type": "uint256"
        }
      ],
      "name": "callOnOFTReceived",
      "outputs": [],
      "stateMutability": "nonpayable",
      "type": "function"
    },
    {
      "inputs": [],
      "name": "circulatingSupply",
      "outputs": [
        {
          "internalType": "uint256",
          "name": "",
          "type": "uint256"
        }
      ],
      "stateMutability": "view",
      "type": "function"
    },
    {
      "inputs": [],
      "name": "claimMintReward",
      "outputs": [],
      "stateMutability": "payable",
      "type": "function"
    },
    {
      "inputs": [
        {
          "internalType": "uint256",
          "name": "pct",
          "type": "uint256"
        },
        {
          "internalType": "uint256",
          "name": "term",
          "type": "uint256"
        }
      ],
      "name": "claimMintRewardAndStake",
      "outputs": [],
      "stateMutability": "payable",
      "type": "function"
    },
    {
      "inputs": [
        {
          "internalType": "uint256",
          "name": "term",
          "type": "uint256"
        }
      ],
      "name": "claimRank",
      "outputs": [],
      "stateMutability": "nonpayable",
      "type": "function"
    },
    {
      "inputs": [
        {
          "internalType": "uint16",
          "name": "",
          "type": "uint16"
        },
        {
          "internalType": "bytes",
          "name": "",
          "type": "bytes"
        },
        {
          "internalType": "uint64",
          "name": "",
          "type": "uint64"
        }
      ],
      "name": "creditedPackets",
      "outputs": [
        {
          "internalType": "bool",
          "name": "",
          "type": "bool"
        }
      ],
      "stateMutability": "view",
      "type": "function"
    },
    {
      "inputs": [],
      "name": "decimals",
      "outputs": [
        {
          "internalType": "uint8",
          "name": "",
          "type": "uint8"
        }
      ],
      "stateMutability": "view",
      "type": "function"
    },
    {
      "inputs": [
        {
          "internalType": "address",
          "name": "spender",
          "type": "address"
        },
        {
          "internalType": "uint256",
          "name": "subtractedValue",
          "type": "uint256"
        }
      ],
      "name": "decreaseAllowance",
      "outputs": [
        {
          "internalType": "bool",
          "name": "",
          "type": "bool"
        }
      ],
      "stateMutability": "nonpayable",
      "type": "function"
    },
    {
      "inputs": [
        {
          "internalType": "uint16",
          "name": "_dstChainId",
          "type": "uint16"
        },
        {
          "internalType": "bytes32",
          "name": "_toAddress",
          "type": "bytes32"
        },
        {
          "internalType": "uint256",
          "name": "_amount",
          "type": "uint256"
        },
        {
          "internalType": "bytes",
          "name": "_payload",
          "type": "bytes"
        },
        {
          "internalType": "uint64",
          "name": "_dstGasForCall",
          "type": "uint64"
        },
        {
          "internalType": "bool",
          "name": "_useZro",
          "type": "bool"
        },
        {
          "internalType": "bytes",
          "name": "_adapterParams",
          "type": "bytes"
        }
      ],
      "name": "estimateSendAndCallFee",
      "outputs": [
        {
          "internalType": "uint256",
          "name": "nativeFee",
          "type": "uint256"
        },
        {
          "internalType": "uint256",
          "name": "zroFee",
          "type": "uint256"
        }
      ],
      "stateMutability": "view",
      "type": "function"
    },
    {
      "inputs": [
        {
          "internalType": "uint16",
          "name": "_dstChainId",
          "type": "uint16"
        },
        {
          "internalType": "bytes32",
          "name": "_toAddress",
          "type": "bytes32"
        },
        {
          "internalType": "uint256",
          "name": "_amount",
          "type": "uint256"
        },
        {
          "internalType": "bool",
          "name": "_useZro",
          "type": "bool"
        },
        {
          "internalType": "bytes",
          "name": "_adapterParams",
          "type": "bytes"
        }
      ],
      "name": "estimateSendFee",
      "outputs": [
        {
          "internalType": "uint256",
          "name": "nativeFee",
          "type": "uint256"
        },
        {
          "internalType": "uint256",
          "name": "zroFee",
          "type": "uint256"
        }
      ],
      "stateMutability": "view",
      "type": "function"
    },
    {
      "inputs": [
        {
          "internalType": "uint16",
          "name": "",
          "type": "uint16"
        },
        {
          "internalType": "bytes",
          "name": "",
          "type": "bytes"
        },
        {
          "internalType": "uint64",
          "name": "",
          "type": "uint64"
        }
      ],
      "name": "failedMessages",
      "outputs": [
        {
          "internalType": "bytes32",
          "name": "",
          "type": "bytes32"
        }
      ],
      "stateMutability": "view",
      "type": "function"
    },
    {
      "inputs": [],
      "name": "fee",
      "outputs": [
        {
          "internalType": "uint256",
          "name": "",
          "type": "uint256"
        }
      ],
      "stateMutability": "view",
      "type": "function"
    },
    {
      "inputs": [
        {
          "internalType": "uint16",
          "name": "_srcChainId",
          "type": "uint16"
        },
        {
          "internalType": "bytes",
          "name": "_srcAddress",
          "type": "bytes"
        }
      ],
      "name": "forceResumeReceive",
      "outputs": [],
      "stateMutability": "nonpayable",
      "type": "function"
    },
    {
      "inputs": [],
      "name": "genesisTs",
      "outputs": [
        {
          "internalType": "uint256",
          "name": "",
          "type": "uint256"
        }
      ],
      "stateMutability": "view",
      "type": "function"
    },
    {
      "inputs": [
        {
          "internalType": "uint16",
          "name": "_version",
          "type": "uint16"
        },
        {
          "internalType": "uint16",
          "name": "_chainId",
          "type": "uint16"
        },
        {
          "internalType": "address",
          "name": "",
          "type": "address"
        },
        {
          "internalType": "uint256",
          "name": "_configType",
          "type": "uint256"
        }
      ],
      "name": "getConfig",
      "outputs": [
        {
          "internalType": "bytes",
          "name": "",
          "type": "bytes"
        }
      ],
      "stateMutability": "view",
      "type": "function"
    },
    {
      "inputs": [],
      "name": "getCurrentAMP",
      "outputs": [
        {
          "internalType": "uint256",
          "name": "",
          "type": "uint256"
        }
      ],
      "stateMutability": "view",
      "type": "function"
    },
    {
      "inputs": [],
      "name": "getCurrentAPY",
      "outputs": [
        {
          "internalType": "uint256",
          "name": "",
          "type": "uint256"
        }
      ],
      "stateMutability": "view",
      "type": "function"
    },
    {
      "inputs": [],
      "name": "getCurrentEAAR",
      "outputs": [
        {
          "internalType": "uint256",
          "name": "",
          "type": "uint256"
        }
      ],
      "stateMutability": "view",
      "type": "function"
    },
    {
      "inputs": [],
      "name": "getCurrentMaxTerm",
      "outputs": [
        {
          "internalType": "uint256",
          "name": "",
          "type": "uint256"
        }
      ],
      "stateMutability": "view",
      "type": "function"
    },
    {
      "inputs": [
        {
          "internalType": "uint256",
          "name": "rankDelta",
          "type": "uint256"
        },
        {
          "internalType": "uint256",
          "name": "amplifier",
          "type": "uint256"
        },
        {
          "internalType": "uint256",
          "name": "term",
          "type": "uint256"
        },
        {
          "internalType": "uint256",
          "name": "eaa",
          "type": "uint256"
        }
      ],
      "name": "getGrossReward",
      "outputs": [
        {
          "internalType": "uint256",
          "name": "",
          "type": "uint256"
        }
      ],
      "stateMutability": "pure",
      "type": "function"
    },
    {
      "inputs": [
        {
          "internalType": "uint16",
          "name": "_remoteChainId",
          "type": "uint16"
        }
      ],
      "name": "getTrustedRemoteAddress",
      "outputs": [
        {
          "internalType": "bytes",
          "name": "",
          "type": "bytes"
        }
      ],
      "stateMutability": "view",
      "type": "function"
    },
    {
      "inputs": [],
      "name": "getUserMint",
      "outputs": [
        {
          "components": [
            {
              "internalType": "address",
              "name": "user",
              "type": "address"
            },
            {
              "internalType": "uint256",
              "name": "term",
              "type": "uint256"
            },
            {
              "internalType": "uint256",
              "name": "maturityTs",
              "type": "uint256"
            },
            {
              "internalType": "uint256",
              "name": "rank",
              "type": "uint256"
            },
            {
              "internalType": "uint256",
              "name": "amplifier",
              "type": "uint256"
            },
            {
              "internalType": "uint256",
              "name": "eaaRate",
              "type": "uint256"
            }
          ],
          "internalType": "struct Main.MintInfo",
          "name": "",
          "type": "tuple"
        }
      ],
      "stateMutability": "view",
      "type": "function"
    },
    {
      "inputs": [],
      "name": "getUserStake",
      "outputs": [
        {
          "components": [
            {
              "internalType": "uint256",
              "name": "term",
              "type": "uint256"
            },
            {
              "internalType": "uint256",
              "name": "maturityTs",
              "type": "uint256"
            },
            {
              "internalType": "uint256",
              "name": "amount",
              "type": "uint256"
            },
            {
              "internalType": "uint256",
              "name": "apy",
              "type": "uint256"
            }
          ],
          "internalType": "struct Main.StakeInfo",
          "name": "",
          "type": "tuple"
        }
      ],
      "stateMutability": "view",
      "type": "function"
    },
    {
      "inputs": [],
      "name": "globalRank",
      "outputs": [
        {
          "internalType": "uint256",
          "name": "",
          "type": "uint256"
        }
      ],
      "stateMutability": "view",
      "type": "function"
    },
    {
      "inputs": [
        {
          "internalType": "address",
          "name": "spender",
          "type": "address"
        },
        {
          "internalType": "uint256",
          "name": "addedValue",
          "type": "uint256"
        }
      ],
      "name": "increaseAllowance",
      "outputs": [
        {
          "internalType": "bool",
          "name": "",
          "type": "bool"
        }
      ],
      "stateMutability": "nonpayable",
      "type": "function"
    },
    {
      "inputs": [
        {
          "internalType": "uint16",
          "name": "_srcChainId",
          "type": "uint16"
        },
        {
          "internalType": "bytes",
          "name": "_srcAddress",
          "type": "bytes"
        }
      ],
      "name": "isTrustedRemote",
      "outputs": [
        {
          "internalType": "bool",
          "name": "",
          "type": "bool"
        }
      ],
      "stateMutability": "view",
      "type": "function"
    },
    {
      "inputs": [],
      "name": "lzEndpoint",
      "outputs": [
        {
          "internalType": "contract ILayerZeroEndpoint",
          "name": "",
          "type": "address"
        }
      ],
      "stateMutability": "view",
      "type": "function"
    },
    {
      "inputs": [
        {
          "internalType": "uint16",
          "name": "_srcChainId",
          "type": "uint16"
        },
        {
          "internalType": "bytes",
          "name": "_srcAddress",
          "type": "bytes"
        },
        {
          "internalType": "uint64",
          "name": "_nonce",
          "type": "uint64"
        },
        {
          "internalType": "bytes",
          "name": "_payload",
          "type": "bytes"
        }
      ],
      "name": "lzReceive",
      "outputs": [],
      "stateMutability": "nonpayable",
      "type": "function"
    },
    {
      "inputs": [
        {
          "internalType": "uint16",
          "name": "",
          "type": "uint16"
        },
        {
          "internalType": "uint16",
          "name": "",
          "type": "uint16"
        }
      ],
      "name": "minDstGasLookup",
      "outputs": [
        {
          "internalType": "uint256",
          "name": "",
          "type": "uint256"
        }
      ],
      "stateMutability": "view",
      "type": "function"
    },
    {
      "inputs": [],
      "name": "name",
      "outputs": [
        {
          "internalType": "string",
          "name": "",
          "type": "string"
        }
      ],
      "stateMutability": "view",
      "type": "function"
    },
    {
      "inputs": [
        {
          "internalType": "uint16",
          "name": "_srcChainId",
          "type": "uint16"
        },
        {
          "internalType": "bytes",
          "name": "_srcAddress",
          "type": "bytes"
        },
        {
          "internalType": "uint64",
          "name": "_nonce",
          "type": "uint64"
        },
        {
          "internalType": "bytes",
          "name": "_payload",
          "type": "bytes"
        }
      ],
      "name": "nonblockingLzReceive",
      "outputs": [],
      "stateMutability": "nonpayable",
      "type": "function"
    },
    {
      "inputs": [],
      "name": "owner",
      "outputs": [
        {
          "internalType": "address",
          "name": "",
          "type": "address"
        }
      ],
      "stateMutability": "view",
      "type": "function"
    },
    {
      "inputs": [],
      "name": "precrime",
      "outputs": [
        {
          "internalType": "address",
          "name": "",
          "type": "address"
        }
      ],
      "stateMutability": "view",
      "type": "function"
    },
    {
      "inputs": [],
      "name": "renounceOwnership",
      "outputs": [],
      "stateMutability": "nonpayable",
      "type": "function"
    },
    {
      "inputs": [
        {
          "internalType": "uint16",
          "name": "_srcChainId",
          "type": "uint16"
        },
        {
          "internalType": "bytes",
          "name": "_srcAddress",
          "type": "bytes"
        },
        {
          "internalType": "uint64",
          "name": "_nonce",
          "type": "uint64"
        },
        {
          "internalType": "bytes",
          "name": "_payload",
          "type": "bytes"
        }
      ],
      "name": "retryMessage",
      "outputs": [],
      "stateMutability": "payable",
      "type": "function"
    },
    {
      "inputs": [
        {
          "internalType": "address",
          "name": "_from",
          "type": "address"
        },
        {
          "internalType": "uint16",
          "name": "_dstChainId",
          "type": "uint16"
        },
        {
          "internalType": "bytes32",
          "name": "_toAddress",
          "type": "bytes32"
        },
        {
          "internalType": "uint256",
          "name": "_amount",
          "type": "uint256"
        },
        {
          "internalType": "bytes",
          "name": "_payload",
          "type": "bytes"
        },
        {
          "internalType": "uint64",
          "name": "_dstGasForCall",
          "type": "uint64"
        },
        {
          "components": [
            {
              "internalType": "address payable",
              "name": "refundAddress",
              "type": "address"
            },
            {
              "internalType": "address",
              "name": "zroPaymentAddress",
              "type": "address"
            },
            {
              "internalType": "bytes",
              "name": "adapterParams",
              "type": "bytes"
            }
          ],
          "internalType": "struct ICommonOFT.LzCallParams",
          "name": "_callParams",
          "type": "tuple"
        }
      ],
      "name": "sendAndCall",
      "outputs": [],
      "stateMutability": "payable",
      "type": "function"
    },
    {
      "inputs": [
        {
          "internalType": "address",
          "name": "_from",
          "type": "address"
        },
        {
          "internalType": "uint16",
          "name": "_dstChainId",
          "type": "uint16"
        },
        {
          "internalType": "bytes32",
          "name": "_toAddress",
          "type": "bytes32"
        },
        {
          "internalType": "uint256",
          "name": "_amount",
          "type": "uint256"
        },
        {
          "components": [
            {
              "internalType": "address payable",
              "name": "refundAddress",
              "type": "address"
            },
            {
              "internalType": "address",
              "name": "zroPaymentAddress",
              "type": "address"
            },
            {
              "internalType": "bytes",
              "name": "adapterParams",
              "type": "bytes"
            }
          ],
          "internalType": "struct ICommonOFT.LzCallParams",
          "name": "_callParams",
          "type": "tuple"
        }
      ],
      "name": "sendFrom",
      "outputs": [],
      "stateMutability": "payable",
      "type": "function"
    },
    {
      "inputs": [
        {
          "internalType": "uint16",
          "name": "_version",
          "type": "uint16"
        },
        {
          "internalType": "uint16",
          "name": "_chainId",
          "type": "uint16"
        },
        {
          "internalType": "uint256",
          "name": "_configType",
          "type": "uint256"
        },
        {
          "internalType": "bytes",
          "name": "_config",
          "type": "bytes"
        }
      ],
      "name": "setConfig",
      "outputs": [],
      "stateMutability": "nonpayable",
      "type": "function"
    },
    {
      "inputs": [
        {
          "internalType": "address",
          "name": "_endpoint",
          "type": "address"
        }
      ],
      "name": "setEndpoint",
      "outputs": [],
      "stateMutability": "nonpayable",
      "type": "function"
    },
    {
      "inputs": [
        {
          "internalType": "uint16",
          "name": "_dstChainId",
          "type": "uint16"
        },
        {
          "internalType": "uint16",
          "name": "_packetType",
          "type": "uint16"
        },
        {
          "internalType": "uint256",
          "name": "_minGas",
          "type": "uint256"
        }
      ],
      "name": "setMinDstGas",
      "outputs": [],
      "stateMutability": "nonpayable",
      "type": "function"
    },
    {
      "inputs": [
        {
          "internalType": "address",
          "name": "_precrime",
          "type": "address"
        }
      ],
      "name": "setPrecrime",
      "outputs": [],
      "stateMutability": "nonpayable",
      "type": "function"
    },
    {
      "inputs": [
        {
          "internalType": "uint16",
          "name": "_version",
          "type": "uint16"
        }
      ],
      "name": "setReceiveVersion",
      "outputs": [],
      "stateMutability": "nonpayable",
      "type": "function"
    },
    {
      "inputs": [
        {
          "internalType": "uint16",
          "name": "_version",
          "type": "uint16"
        }
      ],
      "name": "setSendVersion",
      "outputs": [],
      "stateMutability": "nonpayable",
      "type": "function"
    },
    {
      "inputs": [
        {
          "internalType": "address",
          "name": "_treasure",
          "type": "address"
        }
      ],
      "name": "setTreasure",
      "outputs": [],
      "stateMutability": "nonpayable",
      "type": "function"
    },
    {
      "inputs": [
        {
          "internalType": "uint16",
          "name": "_srcChainId",
          "type": "uint16"
        },
        {
          "internalType": "bytes",
          "name": "_path",
          "type": "bytes"
        }
      ],
      "name": "setTrustedRemote",
      "outputs": [],
      "stateMutability": "nonpayable",
      "type": "function"
    },
    {
      "inputs": [
        {
          "internalType": "uint16",
          "name": "_remoteChainId",
          "type": "uint16"
        },
        {
          "internalType": "bytes",
          "name": "_remoteAddress",
          "type": "bytes"
        }
      ],
      "name": "setTrustedRemoteAddress",
      "outputs": [],
      "stateMutability": "nonpayable",
      "type": "function"
    },
    {
      "inputs": [
        {
          "internalType": "bool",
          "name": "_useCustomAdapterParams",
          "type": "bool"
        }
      ],
      "name": "setUseCustomAdapterParams",
      "outputs": [],
      "stateMutability": "nonpayable",
      "type": "function"
    },
    {
      "inputs": [],
      "name": "sharedDecimals",
      "outputs": [
        {
          "internalType": "uint8",
          "name": "",
          "type": "uint8"
        }
      ],
      "stateMutability": "view",
      "type": "function"
    },
    {
      "inputs": [
        {
          "internalType": "uint256",
          "name": "amount",
          "type": "uint256"
        },
        {
          "internalType": "uint256",
          "name": "term",
          "type": "uint256"
        }
      ],
      "name": "stake",
      "outputs": [],
      "stateMutability": "payable",
      "type": "function"
    },
    {
      "inputs": [
        {
          "internalType": "bytes4",
          "name": "interfaceId",
          "type": "bytes4"
        }
      ],
      "name": "supportsInterface",
      "outputs": [
        {
          "internalType": "bool",
          "name": "",
          "type": "bool"
        }
      ],
      "stateMutability": "view",
      "type": "function"
    },
    {
      "inputs": [],
      "name": "symbol",
      "outputs": [
        {
          "internalType": "string",
          "name": "",
          "type": "string"
        }
      ],
      "stateMutability": "view",
      "type": "function"
    },
    {
      "inputs": [],
      "name": "token",
      "outputs": [
        {
          "internalType": "address",
          "name": "",
          "type": "address"
        }
      ],
      "stateMutability": "view",
      "type": "function"
    },
    {
      "inputs": [],
      "name": "totalSupply",
      "outputs": [
        {
          "internalType": "uint256",
          "name": "",
          "type": "uint256"
        }
      ],
      "stateMutability": "view",
      "type": "function"
    },
    {
      "inputs": [],
      "name": "totalXenStaked",
      "outputs": [
        {
          "internalType": "uint256",
          "name": "",
          "type": "uint256"
        }
      ],
      "stateMutability": "view",
      "type": "function"
    },
    {
      "inputs": [
        {
          "internalType": "address",
          "name": "to",
          "type": "address"
        },
        {
          "internalType": "uint256",
          "name": "amount",
          "type": "uint256"
        }
      ],
      "name": "transfer",
      "outputs": [
        {
          "internalType": "bool",
          "name": "",
          "type": "bool"
        }
      ],
      "stateMutability": "nonpayable",
      "type": "function"
    },
    {
      "inputs": [
        {
          "internalType": "address",
          "name": "from",
          "type": "address"
        },
        {
          "internalType": "address",
          "name": "to",
          "type": "address"
        },
        {
          "internalType": "uint256",
          "name": "amount",
          "type": "uint256"
        }
      ],
      "name": "transferFrom",
      "outputs": [
        {
          "internalType": "bool",
          "name": "",
          "type": "bool"
        }
      ],
      "stateMutability": "nonpayable",
      "type": "function"
    },
    {
      "inputs": [
        {
          "internalType": "address",
          "name": "newOwner",
          "type": "address"
        }
      ],
      "name": "transferOwnership",
      "outputs": [],
      "stateMutability": "nonpayable",
      "type": "function"
    },
    {
      "inputs": [],
      "name": "treasure",
      "outputs": [
        {
          "internalType": "address",
          "name": "",
          "type": "address"
        }
      ],
      "stateMutability": "view",
      "type": "function"
    },
    {
      "inputs": [
        {
          "internalType": "uint16",
          "name": "",
          "type": "uint16"
        }
      ],
      "name": "trustedRemoteLookup",
      "outputs": [
        {
          "internalType": "bytes",
          "name": "",
          "type": "bytes"
        }
      ],
      "stateMutability": "view",
      "type": "function"
    },
    {
      "inputs": [],
      "name": "useCustomAdapterParams",
      "outputs": [
        {
          "internalType": "bool",
          "name": "",
          "type": "bool"
        }
      ],
      "stateMutability": "view",
      "type": "function"
    },
    {
      "inputs": [
        {
          "internalType": "address",
          "name": "",
          "type": "address"
        }
      ],
      "name": "userBurns",
      "outputs": [
        {
          "internalType": "uint256",
          "name": "",
          "type": "uint256"
        }
      ],
      "stateMutability": "view",
      "type": "function"
    },
    {
      "inputs": [
        {
          "internalType": "address",
          "name": "",
          "type": "address"
        }
      ],
      "name": "userMints",
      "outputs": [
        {
          "internalType": "address",
          "name": "user",
          "type": "address"
        },
        {
          "internalType": "uint256",
          "name": "term",
          "type": "uint256"
        },
        {
          "internalType": "uint256",
          "name": "maturityTs",
          "type": "uint256"
        },
        {
          "internalType": "uint256",
          "name": "rank",
          "type": "uint256"
        },
        {
          "internalType": "uint256",
          "name": "amplifier",
          "type": "uint256"
        },
        {
          "internalType": "uint256",
          "name": "eaaRate",
          "type": "uint256"
        }
      ],
      "stateMutability": "view",
      "type": "function"
    },
    {
      "inputs": [
        {
          "internalType": "address",
          "name": "",
          "type": "address"
        }
      ],
      "name": "userStakes",
      "outputs": [
        {
          "internalType": "uint256",
          "name": "term",
          "type": "uint256"
        },
        {
          "internalType": "uint256",
          "name": "maturityTs",
          "type": "uint256"
        },
        {
          "internalType": "uint256",
          "name": "amount",
          "type": "uint256"
        },
        {
          "internalType": "uint256",
          "name": "apy",
          "type": "uint256"
        }
      ],
      "stateMutability": "view",
      "type": "function"
    },
    {
      "inputs": [],
      "name": "withdraw",
      "outputs": [],
      "stateMutability": "payable",
      "type": "function"
    }
  ],
  "bytecode": "0x60e06040526001600f553480156200001657600080fd5b5060405162005f9638038062005f968339810160408190526200003991620002b3565b6040518060400160405280600b81526020016a546573742043727970746f60a81b81525060405180604001604052806004815260200163151154d560e21b815250600883858484848481818080620000a06200009a6200016d60201b60201c565b62000171565b600180546001600160a01b0319166001600160a01b0392909216919091179055505060ff1660805250600d9050620000d9838262000396565b50600e620000e8828262000396565b5050506000620000fd620001c160201b60201c565b90508060ff168460ff1611156200011357600080fd5b6200011f848262000478565b6200012c90600a62000597565b60a052506009555050600880546001600160a01b031916339081179091554260c0526200016592509050670de0b6b3a7640000620001c6565b5050620005c5565b3390565b600080546001600160a01b038381166001600160a01b0319831681178455604051919092169283917f8be0079c531659141344cd1fd0a4f28419497f9722a3daafe3b4186f6b6457e09190a35050565b601290565b6001600160a01b038216620002215760405162461bcd60e51b815260206004820152601f60248201527f45524332303a206d696e7420746f20746865207a65726f206164647265737300604482015260640160405180910390fd5b80600c6000828254620002359190620005af565b90915550506001600160a01b0382166000908152600a60205260408120805483929062000264908490620005af565b90915550506040518181526001600160a01b038316906000907fddf252ad1be2c89b69c2b068fc378daa952ba7f163c4a11628f55a4df523b3ef9060200160405180910390a35050565b505050565b60008060408385031215620002c757600080fd5b825160208401519092506001600160a01b0381168114620002e757600080fd5b809150509250929050565b634e487b7160e01b600052604160045260246000fd5b600181811c908216806200031d57607f821691505b6020821081036200033e57634e487b7160e01b600052602260045260246000fd5b50919050565b601f821115620002ae57600081815260208120601f850160051c810160208610156200036d5750805b601f850160051c820191505b818110156200038e5782815560010162000379565b505050505050565b81516001600160401b03811115620003b257620003b2620002f2565b620003ca81620003c3845462000308565b8462000344565b602080601f831160018114620004025760008415620003e95750858301515b600019600386901b1c1916600185901b1785556200038e565b600085815260208120601f198616915b82811015620004335788860151825594840194600190910190840162000412565b5085821015620004525787850151600019600388901b60f8161c191681555b5050505050600190811b01905550565b634e487b7160e01b600052601160045260246000fd5b60ff828116828216039081111562000494576200049462000462565b92915050565b600181815b80851115620004db578160001904821115620004bf57620004bf62000462565b80851615620004cd57918102915b93841c93908002906200049f565b509250929050565b600082620004f45750600162000494565b81620005035750600062000494565b81600181146200051c5760028114620005275762000547565b600191505062000494565b60ff8411156200053b576200053b62000462565b50506001821b62000494565b5060208310610133831016604e8410600b84101617156200056c575081810a62000494565b6200057883836200049a565b80600019048211156200058f576200058f62000462565b029392505050565b6000620005a860ff841683620004e3565b9392505050565b8082018082111562000494576200049462000462565b60805160a05160c0516159936200060360003960008181610dc0015281816138f001526139530152600061450d0152600061090201526159936000f3fe6080604052600436106104065760003560e01c80621d35671461040b57806301ffc9a71461042d5780630237893214610462578063069612a51461048657806306fdde031461049c57806307e0db17146104be578063095ea7b3146104de5780630bfae56b146104fe5780630f2e12281461051357806310ddb1371461052857806316f9c8fd1461054857806318160ddd146105905780631c244082146105a55780631c6f212e146105bb5780631d3cd2a6146105d057806323b872dd146105f0578063313ce56714610610578063323ac7d814610632578063365260b41461064757806339509351146106755780633ccfd60b146106955780633d8b38f61461069d57806342d65a8d146106bd57806344770515146106dd57806345125715146106f2578063471191a1146107075780634c42899a1461071c57806352c7f8dc14610731578063543d3652146105bb5780635b8c41e6146107395780635bccb4c41461078857806361a52a361461079b57806366ad5c8a146107b2578063695ef6bf146107d25780637010d7a1146107e557806370a082311461084a578063715018a61461088057806372475f94146108955780637533d788146108aa57806376203b48146108ca5780637b0472f0146108dd578063857749b0146108f057806385eb8321146106dd5780638979c87c1461092457806389fb998f146106dd5780638cfd8f5c146109395780638da5cb5b146109715780638da7ad2314610993578063909a2ff6146109f55780639358928b14610a0b578063950c8a7414610a2057806395d89b4114610a40578063962ca49614610a555780639920245414610a6a5780639bdb981214610a7f5780639f38369a14610ad15780639ff054df14610af1578063a457c2d714610b11578063a4c51df514610b31578063a6c3d16514610b51578063a9059cbb14610b71578063b0fd1fc214610b91578063b21d35f214610bb1578063b353aaa714610bc7578063b4800cdc14610be7578063baf3292d14610bfd578063bcfe394f146105bb578063c0c6525914610c1d578063c56f0bab14610c32578063cbed8b9c14610c47578063ce653d5f14610c67578063d1deba1f14610c94578063dbbb415514610ca7578063dd62ed3e14610cc7578063ddca3f4314610ce7578063df28233114610cfd578063df2a5b3b14610d8e578063e3af6d0a14610dae578063e520fc7e14610de2578063e54f57c014610e02578063e6a20ae614610e17578063e81917b414610e2c578063eab45d9c14610e42578063eaffd49a14610e62578063eb8d72b714610e82578063ed2f236914610ea2578063ed629c5c14610eb8578063f060482914610ed2578063f2fde38b14610ee7578063f340faed14610f07578063f5ecbdbc14610f1e578063fc0c546a14610f3e575b600080fd5b34801561041757600080fd5b5061042b6104263660046148ea565b610f51565b005b34801561043957600080fd5b5061044d61044836600461497d565b61116d565b60405190151581526020015b60405180910390f35b34801561046e57600080fd5b5061047861016d81565b604051908152602001610459565b34801561049257600080fd5b5061047860125481565b3480156104a857600080fd5b506104b16111a4565b60405161045991906149f7565b3480156104ca57600080fd5b5061042b6104d9366004614a0a565b611236565b3480156104ea57600080fd5b5061044d6104f9366004614a3a565b6112a3565b34801561050a57600080fd5b506104786112bb565b34801561051f57600080fd5b50610478606381565b34801561053457600080fd5b5061042b610543366004614a0a565b6112cc565b34801561055457600080fd5b5061055d611308565b60405161045991908151815260208083015190820152604080830151908201526060918201519181019190915260800190565b34801561059c57600080fd5b50600c54610478565b3480156105b157600080fd5b50610478600f5481565b3480156105c757600080fd5b50610478600181565b3480156105dc57600080fd5b5061042b6105eb366004614a66565b611379565b3480156105fc57600080fd5b5061044d61060b366004614a83565b6113a3565b34801561061c57600080fd5b5060125b60405160ff9091168152602001610459565b34801561063e57600080fd5b50610478602381565b34801561065357600080fd5b50610667610662366004614ad4565b6113c7565b604051610459929190614b39565b34801561068157600080fd5b5061044d610690366004614a3a565b61141c565b61042b61143e565b3480156106a957600080fd5b5061044d6106b8366004614b47565b611605565b3480156106c957600080fd5b5061042b6106d8366004614b47565b6116d1565b3480156106e957600080fd5b50610478600081565b3480156106fe57600080fd5b5061047861173b565b34801561071357600080fd5b50610478600281565b34801561072857600080fd5b50610620600081565b61042b61174a565b34801561074557600080fd5b50610478610754366004614c06565b6005602090815260009384526040808520845180860184018051928152908401958401959095209452929052825290205481565b61042b610796366004614ca6565b6118dc565b3480156107a757600080fd5b506104786201518081565b3480156107be57600080fd5b5061042b6107cd3660046148ea565b611b6f565b61042b6107e0366004614ce0565b611bf9565b3480156107f157600080fd5b506107fa611d02565b604051610459919081516001600160a01b031681526020808301519082015260408083015190820152606080830151908201526080808301519082015260a0918201519181019190915260c00190565b34801561085657600080fd5b50610478610865366004614a66565b6001600160a01b03166000908152600a602052604090205490565b34801561088c57600080fd5b5061042b611da7565b3480156108a157600080fd5b50610478600f81565b3480156108b657600080fd5b506104b16108c5366004614a0a565b611dbb565b61042b6108d8366004614d53565b611e55565b61042b6108eb366004614ca6565b611fa3565b3480156108fc57600080fd5b506106207f000000000000000000000000000000000000000000000000000000000000000081565b34801561093057600080fd5b5061047861210a565b34801561094557600080fd5b50610478610954366004614e05565b600360209081526000928352604080842090915290825290205481565b34801561097d57600080fd5b50610986612114565b6040516104599190614e38565b34801561099f57600080fd5b506109d56109ae366004614a66565b60146020526000908152604090208054600182015460028301546003909301549192909184565b604080519485526020850193909352918301526060820152608001610459565b348015610a0157600080fd5b506104786103e881565b348015610a1757600080fd5b50610478612123565b348015610a2c57600080fd5b50600454610986906001600160a01b031681565b348015610a4c57600080fd5b506104b161212e565b348015610a6157600080fd5b5061047861213d565b348015610a7657600080fd5b50610478612147565b348015610a8b57600080fd5b5061044d610a9a366004614c06565b6007602090815260009384526040808520845180860184018051928152908401958401959095209452929052825290205460ff1681565b348015610add57600080fd5b506104b1610aec366004614a0a565b612151565b348015610afd57600080fd5b5061042b610b0c366004614e4c565b612267565b348015610b1d57600080fd5b5061044d610b2c366004614a3a565b612406565b348015610b3d57600080fd5b50610667610b4c366004614e65565b612481565b348015610b5d57600080fd5b5061042b610b6c366004614b47565b612510565b348015610b7d57600080fd5b5061044d610b8c366004614a3a565b612599565b348015610b9d57600080fd5b50610478610bac366004614f1e565b6125a7565b348015610bbd57600080fd5b5061047861026081565b348015610bd357600080fd5b50600154610986906001600160a01b031681565b348015610bf357600080fd5b5061047860105481565b348015610c0957600080fd5b5061042b610c18366004614a66565b612636565b348015610c2957600080fd5b50610478612694565b348015610c3e57600080fd5b50610478600781565b348015610c5357600080fd5b5061042b610c62366004614f50565b6126a3565b348015610c7357600080fd5b50610478610c82366004614a66565b60156020526000908152604090205481565b61042b610ca23660046148ea565b61271c565b348015610cb357600080fd5b5061042b610cc2366004614a66565b612896565b348015610cd357600080fd5b50610478610ce2366004614fbe565b6128d6565b348015610cf357600080fd5b5061047860095481565b348015610d0957600080fd5b50610d57610d18366004614a66565b6013602052600090815260409020805460018201546002830154600384015460048501546005909501546001600160a01b039094169492939192909186565b604080516001600160a01b0390971687526020870195909552938501929092526060840152608083015260a082015260c001610459565b348015610d9a57600080fd5b5061042b610da9366004614ff7565b612901565b348015610dba57600080fd5b506104787f000000000000000000000000000000000000000000000000000000000000000081565b348015610dee57600080fd5b50600854610986906001600160a01b031681565b348015610e0e57600080fd5b50610478605a81565b348015610e2357600080fd5b50610620600181565b348015610e3857600080fd5b506104786102da81565b348015610e4e57600080fd5b5061042b610e5d366004615033565b6129b3565b348015610e6e57600080fd5b5061042b610e7d36600461504e565b6129fc565b348015610e8e57600080fd5b5061042b610e9d366004614b47565b612ac6565b348015610eae57600080fd5b5061047860115481565b348015610ec457600080fd5b5060065461044d9060ff1681565b348015610ede57600080fd5b50610478612b20565b348015610ef357600080fd5b5061042b610f02366004614a66565b612b39565b348015610f1357600080fd5b50610478620186a081565b348015610f2a57600080fd5b506104b1610f39366004615116565b612bb2565b348015610f4a57600080fd5b5030610986565b6001546001600160a01b0316336001600160a01b031614610fb95760405162461bcd60e51b815260206004820152601e60248201527f4c7a4170703a20696e76616c696420656e64706f696e742063616c6c6572000060448201526064015b60405180910390fd5b61ffff861660009081526002602052604081208054610fd790615163565b80601f016020809104026020016040519081016040528092919081815260200182805461100390615163565b80156110505780601f1061102557610100808354040283529160200191611050565b820191906000526020600020905b81548152906001019060200180831161103357829003601f168201915b5050505050905080518686905014801561106b575060008151115b80156110935750805160208201206040516110899088908890615197565b6040518091039020145b6110ee5760405162461bcd60e51b815260206004820152602660248201527f4c7a4170703a20696e76616c696420736f757263652073656e64696e6720636f6044820152651b9d1c9858dd60d21b6064820152608401610fb0565b6111648787878080601f01602080910402602001604051908101604052809392919081815260200183838082843760009201919091525050604080516020601f8a018190048102820181019092528881528a935091508890889081908401838280828437600092019190915250612c4592505050565b50505050505050565b60006001600160e01b03198216631f7ecdf760e01b148061119e57506301ffc9a760e01b6001600160e01b03198316145b92915050565b6060600d80546111b390615163565b80601f01602080910402602001604051908101604052809291908181526020018280546111df90615163565b801561122c5780601f106112015761010080835404028352916020019161122c565b820191906000526020600020905b81548152906001019060200180831161120f57829003601f168201915b5050505050905090565b61123e612cbe565b6001546040516307e0db1760e01b815261ffff831660048201526001600160a01b03909116906307e0db17906024015b600060405180830381600087803b15801561128857600080fd5b505af115801561129c573d6000803e3d6000fd5b5050505050565b6000336112b1818585612d1d565b5060019392505050565b6112c96201518060646151bd565b81565b6112d4612cbe565b6001546040516310ddb13760e01b815261ffff831660048201526001600160a01b03909116906310ddb1379060240161126e565b6113336040518060800160405280600081526020016000815260200160008152602001600081525090565b5033600090815260146020908152604091829020825160808101845281548152600182015492810192909252600281015492820192909252600390910154606082015290565b611381612cbe565b600880546001600160a01b0319166001600160a01b0392909216919091179055565b6000336113b1858285612e42565b6113bc858585612ebc565b506001949350505050565b60008061140d8888888888888080601f01602080910402602001604051908101604052809392919081815260200183838082843760009201919091525061307892505050565b91509150965096945050505050565b6000336112b181858561142f83836128d6565b61143991906151d4565b612d1d565b60095434101561144d57600080fd5b60003411801561145f57506000600954115b156114c8576008546009546040516000926001600160a01b031691908381818185875af1925050503d80600081146114b3576040519150601f19603f3d011682016040523d82523d6000602084013e6114b8565b606091505b50509050806114c657600080fd5b505b3360009081526014602090815260409182902082516080810184528154815260018201549281019290925260028101549282018390526003015460608201529061151157600080fd5b600061152f826040015183600001518460200151856060015161314e565b601180549192506000611541836151e7565b919050555081604001516012600082825461155c91906151fe565b9091555061157b90503382846040015161157691906151d4565b6131ac565b600854611596906001600160a01b0316611576606484615227565b336001600160a01b03167f92ccf450a286a957af52509bc1c9939d1a6a481783e142e41e2499f0bb66ebc68360400151836040516115d5929190614b39565b60405180910390a25050336000908152601460205260408120818155600181018290556002810182905560030155565b61ffff83166000908152600260205260408120805482919061162690615163565b80601f016020809104026020016040519081016040528092919081815260200182805461165290615163565b801561169f5780601f106116745761010080835404028352916020019161169f565b820191906000526020600020905b81548152906001019060200180831161168257829003601f168201915b5050505050905083836040516116b6929190615197565b60405180910390208180519060200120149150509392505050565b6116d9612cbe565b6001546040516342d65a8d60e01b81526001600160a01b03909116906342d65a8d9061170d90869086908690600401615264565b600060405180830381600087803b15801561172757600080fd5b505af1158015611164573d6000803e3d6000fd5b6000611745613279565b905090565b60095434101561175957600080fd5b60003411801561176b57506000600954115b156117d4576008546009546040516000926001600160a01b031691908381818185875af1925050503d80600081146117bf576040519150601f19603f3d011682016040523d82523d6000602084013e6117c4565b606091505b50509050806117d257600080fd5b505b33600090815260136020908152604091829020825160c08101845281546001600160a01b031681526001820154928101929092526002810154928201929092526003820154606082018190526004830154608083015260059092015460a08201529061183f57600080fd5b8060400151421161184f57600080fd5b600061187282606001518360200151846040015185608001518660a00151613378565b61188490670de0b6b3a76400006151bd565b9050611891335b826131ac565b6008546118ac906001600160a01b0316611576606484615227565b6118b461346f565b60405181815233906000805160206158de833981519152906020015b60405180910390a25050565b6009543410156118eb57600080fd5b6000341180156118fd57506000600954115b15611966576008546009546040516000926001600160a01b031691908381818185875af1925050503d8060008114611951576040519150601f19603f3d011682016040523d82523d6000602084013e611956565b606091505b505090508061196457600080fd5b505b33600090815260136020908152604091829020825160c08101845281546001600160a01b03168152600182015492810192909252600281015492820192909252600382015460608201526004820154608082015260059091015460a0820152606583106119d257600080fd5b60008160600151116119e357600080fd5b806040015142116119f357600080fd5b6000611a1682606001518360200151846040015185608001518660a00151613378565b611a2890670de0b6b3a76400006151bd565b905060006064611a3886846151bd565b611a429190615227565b90506000611a5082846151fe565b9050611a5b3361188b565b600854611a76906001600160a01b0316611576606486615227565b611a7e61346f565b60405183815233906000805160206158de8339815191529060200160405180910390a260008211611aae57600080fd5b6001611abd62015180826151bd565b611ac791906151fe565b611ad462015180876151bd565b11611ade57600080fd5b611aed620151806103e86151bd565b611af89060016151d4565b611b0562015180876151bd565b10611b0f57600080fd5b3360009081526014602052604090206002015415611b2c57600080fd5b611b3682866134c3565b336001600160a01b03166000805160206158be8339815191528387604051611b5f929190614b39565b60405180910390a2505050505050565b333014611b7b57600080fd5b611bf18686868080601f01602080910402602001604051908101604052809392919081815260200183838082843760009201919091525050604080516020601f89018190048102820181019092528781528993509150879087908190840183828082843760009201919091525061356692505050565b505050505050565b600954341015611c0857600080fd5b600034118015611c1a57506000600954115b15611c83576008546009546040516000926001600160a01b031691908381818185875af1925050503d8060008114611c6e576040519150601f19603f3d011682016040523d82523d6000602084013e611c73565b606091505b5050905080611c8157600080fd5b505b600060095434611c9391906151fe565b905061116486868686611ca96020880188614a66565b611cb96040890160208a01614a66565b611cc660408a018a615282565b8080601f0160208091040260200160405190810160405280939291908181526020018383808284376000920191909152508b92506135c7915050565b611d446040518060c0016040528060006001600160a01b0316815260200160008152602001600081526020016000815260200160008152602001600081525090565b5033600090815260136020908152604091829020825160c08101845281546001600160a01b03168152600182015492810192909252600281015492820192909252600382015460608201526004820154608082015260059091015460a082015290565b611daf612cbe565b611db9600061365f565b565b60026020526000908152604090208054611dd490615163565b80601f0160208091040260200160405190810160405280929190818152602001828054611e0090615163565b8015611e4d5780601f10611e2257610100808354040283529160200191611e4d565b820191906000526020600020905b815481529060010190602001808311611e3057829003601f168201915b505050505081565b600954341015611e6457600080fd5b600034118015611e7657506000600954115b15611edf576008546009546040516000926001600160a01b031691908381818185875af1925050503d8060008114611eca576040519150601f19603f3d011682016040523d82523d6000602084013e611ecf565b606091505b5050905080611edd57600080fd5b505b600060095434611eef91906151fe565b9050611f978989898989898080601f0160208091040260200160405190810160405280939291908181526020018383808284376000920191909152508b9250611f3e91505060208a018a614a66565b611f4e60408b0160208c01614a66565b611f5b60408c018c615282565b8080601f0160208091040260200160405190810160405280939291908181526020018383808284376000920191909152508d92506136af915050565b50505050505050505050565b600954341015611fb257600080fd5b600034118015611fc457506000600954115b1561202d576008546009546040516000926001600160a01b031691908381818185875af1925050503d8060008114612018576040519150601f19603f3d011682016040523d82523d6000602084013e61201d565b606091505b505090508061202b57600080fd5b505b8161203733610865565b101561204257600080fd5b6000821161204f57600080fd5b600161205e62015180826151bd565b61206891906151fe565b61207562015180836151bd565b1161207f57600080fd5b61208e620151806103e86151bd565b6120999060016151d4565b6120a662015180836151bd565b106120b057600080fd5b33600090815260146020526040902060020154156120cd57600080fd5b6120d7338361375b565b6120e182826134c3565b336001600160a01b03166000805160206158be83398151915283836040516118d0929190614b39565b6000611745613894565b6000546001600160a01b031690565b6000611745600c5490565b6060600e80546111b390615163565b60006117456138da565b6000611745613947565b61ffff811660009081526002602052604081208054606092919061217490615163565b80601f01602080910402602001604051908101604052809291908181526020018280546121a090615163565b80156121ed5780601f106121c2576101008083540402835291602001916121ed565b820191906000526020600020905b8154815290600101906020018083116121d057829003601f168201915b5050505050905080516000036122455760405162461bcd60e51b815260206004820152601d60248201527f4c7a4170703a206e6f20747275737465642070617468207265636f72640000006044820152606401610fb0565b61226060006014835161225891906151fe565b839190613a1c565b9392505050565b600061227662015180836151bd565b9050600161228762015180826151bd565b61229191906151fe565b811161229c57600080fd5b6122a4613279565b6122af9060016151d4565b81106122ba57600080fd5b33600090815260136020526040902060030154156122d757600080fd5b60006040518060c001604052806122eb3390565b6001600160a01b031681526020810185905260400161230a84426151d4565b8152602001600f54815260200161231f613947565b815260200161232c613894565b9052336000908152601360209081526040808320845181546001600160a01b0319166001600160a01b039091161781559184015160018301558301516002820155606083015160038201556080830151600482015560a0830151600590910155601080549293509061239d836152c8565b91905055506123a93390565b6001600160a01b03167fe9149e1b5059238baed02fa659dbf4bd932fbcf760a431330df4d934bc942f3784600f60008154809291906123e7906152c8565b919050556040516123f9929190614b39565b60405180910390a2505050565b6000338161241482866128d6565b9050838110156124745760405162461bcd60e51b815260206004820152602560248201527f45524332303a2064656372656173656420616c6c6f77616e63652062656c6f77604482015264207a65726f60d81b6064820152608401610fb0565b6113bc8286868403612d1d565b6000806124fe8b8b8b8b8b8080601f01602080910402602001604051908101604052809392919081815260200183838082843760009201919091525050604080516020601f8d018190048102820181019092528b81528e93508d9250908c908c9081908401838280828437600092019190915250613b2992505050565b91509150995099975050505050505050565b612518612cbe565b81813060405160200161252d939291906152e1565b60408051601f1981840301815291815261ffff8516600090815260026020522090612558908261535d565b507f8c0400cfe2d1199b1a725c78960bcc2a344d869b80590d0f2bd005db15a572ce83838360405161258c93929190615264565b60405180910390a1505050565b6000336112b1818585612ebc565b6000806125be6125b687613bcd565b600f0b613bea565b905060006125fa6125ce85613bcd565b6125f16125da88613bcd565b6125f16125e68b613bcd565b600f88900b90613cc4565b600f0b90613cc4565b905061262061261861260d6103e8613bcd565b600f84900b90613cfb565b600f0b613d52565b6001600160401b0316925050505b949350505050565b61263e612cbe565b600480546001600160a01b0319166001600160a01b0383161790556040517f5db758e995a17ec1ad84bdef7e8c3293a0bd6179bcce400dff5d4c3d87db726b90612689908390614e38565b60405180910390a150565b6112c9620151806103e86151bd565b6126ab612cbe565b6001546040516332fb62e760e21b81526001600160a01b039091169063cbed8b9c906126e39088908890889088908890600401615416565b600060405180830381600087803b1580156126fd57600080fd5b505af1158015612711573d6000803e3d6000fd5b505050505050505050565b61ffff8616600090815260056020526040808220905161273f9088908890615197565b90815260408051602092819003830190206001600160401b0387166000908152925290205490508061277057600080fd5b808383604051612781929190615197565b60405180910390201461279357600080fd5b61ffff871660009081526005602052604080822090516127b69089908990615197565b90815260408051602092819003830181206001600160401b038916600090815290845282902093909355601f8801829004820283018201905286825261284e918991899089908190840183828082843760009201919091525050604080516020601f8a018190048102820181019092528881528a93509150889088908190840183828082843760009201919091525061356692505050565b7fc264d91f3adc5588250e1551f547752ca0cfa8f6b530d243b9f9f4cab10ea8e5878787878560405161288595949392919061544f565b60405180910390a150505050505050565b61289e612cbe565b6001546001600160a01b0316156128b457600080fd5b600180546001600160a01b0319166001600160a01b0392909216919091179055565b6001600160a01b039182166000908152600b6020908152604080832093909416825291909152205490565b612909612cbe565b600081116129515760405162461bcd60e51b81526020600482015260156024820152744c7a4170703a20696e76616c6964206d696e47617360581b6044820152606401610fb0565b61ffff83811660008181526003602090815260408083209487168084529482529182902085905581519283528201929092529081018290527f9d5c7c0b934da8fefa9c7760c98383778a12dfbfc0c3b3106518f43fb9508ac09060600161258c565b6129bb612cbe565b6006805460ff19168215159081179091556040519081527f1584ad594a70cbe1e6515592e1272a987d922b097ead875069cebe8b40c004a490602001612689565b333014612a0857600080fd5b612a13308686613d6e565b9350846001600160a01b03168a61ffff1660008051602061591e83398151915286604051612a4391815260200190565b60405180910390a3604051633fe79aed60e11b81526001600160a01b03861690637fcf35da908390612a87908e908e908e908e908e908d908d908d9060040161548a565b600060405180830381600088803b158015612aa157600080fd5b5087f1158015612ab5573d6000803e3d6000fd5b505050505050505050505050505050565b612ace612cbe565b61ffff83166000908152600260205260409020612aec8284836154d8565b507ffa41487ad5d6728f0b19276fa1eddc16558578f5109fc39d2dc33c3230470dab83838360405161258c93929190615264565b6001612b2f62015180826151bd565b6112c991906151fe565b612b41612cbe565b6001600160a01b038116612ba65760405162461bcd60e51b815260206004820152602660248201527f4f776e61626c653a206e6577206f776e657220697320746865207a65726f206160448201526564647265737360d01b6064820152608401610fb0565b612baf8161365f565b50565b600154604051633d7b2f6f60e21b815261ffff808716600483015285166024820152306044820152606481018390526060916001600160a01b03169063f5ecbdbc90608401600060405180830381865afa158015612c14573d6000803e3d6000fd5b505050506040513d6000823e601f3d908101601f19168201604052612c3c9190810190615591565b95945050505050565b600080612ca85a60966366ad5c8a60e01b89898989604051602401612c6d94939291906155fe565b60408051601f198184030181529190526020810180516001600160e01b03166001600160e01b03199093169290921790915230929190613dc0565b9150915081611bf157611bf18686868685613e4a565b33612cc7612114565b6001600160a01b031614611db95760405162461bcd60e51b815260206004820181905260248201527f4f776e61626c653a2063616c6c6572206973206e6f7420746865206f776e65726044820152606401610fb0565b6001600160a01b038316612d7f5760405162461bcd60e51b8152602060048201526024808201527f45524332303a20617070726f76652066726f6d20746865207a65726f206164646044820152637265737360e01b6064820152608401610fb0565b6001600160a01b038216612de05760405162461bcd60e51b815260206004820152602260248201527f45524332303a20617070726f766520746f20746865207a65726f206164647265604482015261737360f01b6064820152608401610fb0565b6001600160a01b038381166000818152600b602090815260408083209487168084529482529182902085905590518481527f8c5be1e5ebec7d5bd14f71427d1e84f3dd0314c0f7b2291e5b200ac8c7c3b92591015b60405180910390a3505050565b6000612e4e84846128d6565b90506000198114612eb65781811015612ea95760405162461bcd60e51b815260206004820152601d60248201527f45524332303a20696e73756666696369656e7420616c6c6f77616e63650000006044820152606401610fb0565b612eb68484848403612d1d565b50505050565b6001600160a01b038316612f205760405162461bcd60e51b815260206004820152602560248201527f45524332303a207472616e736665722066726f6d20746865207a65726f206164604482015264647265737360d81b6064820152608401610fb0565b6001600160a01b038216612f825760405162461bcd60e51b815260206004820152602360248201527f45524332303a207472616e7366657220746f20746865207a65726f206164647260448201526265737360e81b6064820152608401610fb0565b6001600160a01b0383166000908152600a602052604090205481811015612ffa5760405162461bcd60e51b815260206004820152602660248201527f45524332303a207472616e7366657220616d6f756e7420657863656564732062604482015265616c616e636560d01b6064820152608401610fb0565b6001600160a01b038085166000908152600a60205260408082208585039055918516815290812080548492906130319084906151d4565b92505081905550826001600160a01b0316846001600160a01b031660008051602061593e8339815191528460405161306b91815260200190565b60405180910390a3612eb6565b60008060006130c68761308a88613ee7565b6040805160006020820152602181019390935260c09190911b6001600160c01b0319166041830152805160298184030181526049909201905290565b60015460405163040a7bb160e41b81529192506001600160a01b0316906340a7bb10906130ff908b90309086908b908b9060040161563c565b6040805180830381865afa15801561311b573d6000803e3d6000fd5b505050506040513d601f19601f8201168201806040525081019061313f9190615690565b92509250509550959350505050565b6000824211156131a157600061016d61316786856151bd565b61317490620f42406151bd565b61317e9190615227565b90506305f5e10061318f82886151bd565b6131999190615227565b91505061262e565b506000949350505050565b6001600160a01b0382166132025760405162461bcd60e51b815260206004820152601f60248201527f45524332303a206d696e7420746f20746865207a65726f2061646472657373006044820152606401610fb0565b80600c600082825461321491906151d4565b90915550506001600160a01b0382166000908152600a6020526040812080548392906132419084906151d4565b90915550506040518181526001600160a01b0383169060009060008051602061593e8339815191529060200160405180910390a35050565b6000610260600f54111561336a5760006132a7612618613299600f613bcd565b6125f16125b6600f54613bcd565b6001600160401b0316905060006132c162015180836151bd565b6132cf6201518060646151bd565b6132d991906151d4565b905073__$6ad30996409d058139477db06ae39abaac$__637ae2b5c782613305620151806103e86151bd565b6040518363ffffffff1660e01b8152600401613322929190614b39565b602060405180830381865af415801561333f573d6000803e3d6000fd5b505050506040513d601f19601f8201168201806040525081019061336391906156b4565b9250505090565b6117456201518060646151bd565b60008061338585426151fe565b9050600061339282613f12565b9050600073__$6ad30996409d058139477db06ae39abaac$__636d5433e68a600f546133be91906151fe565b60026040518363ffffffff1660e01b81526004016133dd929190614b39565b602060405180830381865af41580156133fa573d6000803e3d6000fd5b505050506040513d601f19601f8201168201806040525081019061341e91906156b4565b9050600061342e866103e86151d4565b9050600061343e83898c856125a7565b9050606461344c85826151fe565b61345690836151bd565b6134609190615227565b9b9a5050505050505050505050565b33600090815260136020526040812080546001600160a01b03191681556001810182905560028101829055600381018290556004810182905560050181905560108054916134bc836151e7565b9190505550565b604051806080016040528082815260200162015180836134e391906151bd565b6134ed90426151d4565b81526020018381526020016135006138da565b90523360009081526014602090815260408083208451815591840151600183015583015160028201556060909201516003909201919091556011805491613546836152c8565b9190505550816012600082825461355d91906151d4565b90915550505050565b60006135728282613fe7565b905060ff811661358d5761358885858585614043565b61129c565b60001960ff8216016135a557613588858585856140c1565b60405162461bcd60e51b81526020600482015260006024820152604401610fb0565b60006135d5888285816142ca565b6135de866142f2565b5090506135ed8989898461431a565b9050600081116135fc57600080fd5b600061360b8861308a84613ee7565b905061361b89828888888861434c565b878a6001600160a01b03168a61ffff166000805160206158fe8339815191528560405161364a91815260200190565b60405180910390a45098975050505050505050565b600080546001600160a01b038381166001600160a01b0319831681178455604051919092169283917f8be0079c531659141344cd1fd0a4f28419497f9722a3daafe3b4186f6b6457e09190a35050565b60006136c78a6001856001600160401b038a166142ca565b6136d0886142f2565b5090506136df8b8b8b8461431a565b9050600081116136ee57600080fd5b6000613705338b6136fe85613ee7565b8b8b6144ca565b90506137158b828888888861434c565b898c6001600160a01b03168c61ffff166000805160206158fe8339815191528560405161374491815260200190565b60405180910390a4509a9950505050505050505050565b6001600160a01b0382166137bb5760405162461bcd60e51b815260206004820152602160248201527f45524332303a206275726e2066726f6d20746865207a65726f206164647265736044820152607360f81b6064820152608401610fb0565b6001600160a01b0382166000908152600a60205260409020548181101561382f5760405162461bcd60e51b815260206004820152602260248201527f45524332303a206275726e20616d6f756e7420657863656564732062616c616e604482015261636560f01b6064820152608401610fb0565b6001600160a01b0383166000908152600a602052604081208383039055600c805484929061385e9084906151fe565b90915550506040518281526000906001600160a01b0385169060008051602061593e83398151915290602001612e35565b505050565b600080620186a0600f5460016138aa91906151bd565b6138b49190615227565b90506103e88111156138c857600091505090565b6138d4816103e86151fe565b91505090565b6000806138eb605a620151806151bd565b6139157f0000000000000000000000000000000000000000000000000000000000000000426151fe565b61391f9190615227565b90508061392e600260236151fe565b101561393c57600291505090565b6138d48160236151fe565b600080620151806139787f0000000000000000000000000000000000000000000000000000000000000000426151fe565b6139829190615227565b90506102da811015613a145773__$6ad30996409d058139477db06ae39abaac$__636d5433e66139b4836102da6151fe565b60016040518363ffffffff1660e01b81526004016139d3929190614b39565b602060405180830381865af41580156139f0573d6000803e3d6000fd5b505050506040513d601f19601f820116820180604052508101906138d491906156b4565b600191505090565b606081613a2a81601f6151d4565b1015613a695760405162461bcd60e51b815260206004820152600e60248201526d736c6963655f6f766572666c6f7760901b6044820152606401610fb0565b613a7382846151d4565b84511015613ab75760405162461bcd60e51b8152602060048201526011602482015270736c6963655f6f75744f66426f756e647360781b6044820152606401610fb0565b606082158015613ad65760405191506000825260208201604052613b20565b6040519150601f8416801560200281840101858101878315602002848b0101015b81831015613b0f578051835260209283019201613af7565b5050858452601f01601f1916604052505b50949350505050565b6000806000613b43338a613b3c8b613ee7565b8a8a6144ca565b60015460405163040a7bb160e41b81529192506001600160a01b0316906340a7bb1090613b7c908d90309086908b908b9060040161563c565b6040805180830381865afa158015613b98573d6000803e3d6000fd5b505050506040513d601f19601f82011682018060405250810190613bbc9190615690565b925092505097509795505050505050565b600060016001603f1b03821115613be357600080fd5b5060401b90565b60008082600f0b13613bfb57600080fd5b6000600f83900b600160401b8112613c15576040918201911d5b600160201b8112613c28576020918201911d5b620100008112613c3a576010918201911d5b6101008112613c4b576008918201911d5b60108112613c5b576004918201911d5b60048112613c6b576002918201911d5b60028112613c7a576001820191505b603f19820160401b600f85900b607f8490031b6001603f1b5b6000811315613cb95790800260ff81901c8281029390930192607f011c9060011d613c93565b509095945050505050565b6000600f83810b9083900b0260401d60016001607f1b03198112801590613cf2575060016001607f1b038113155b61226057600080fd5b600081600f0b600003613d0d57600080fd5b600082600f0b604085600f0b901b81613d2857613d28615211565b05905060016001607f1b03198112801590613cf2575060016001607f1b0381131561226057600080fd5b60008082600f0b1215613d6457600080fd5b50600f0b60401d90565b600033306001600160a01b03861614801590613d9c5750806001600160a01b0316856001600160a01b031614155b15613dac57613dac858285612e42565b613db7858585612ebc565b50909392505050565b6000606060008060008661ffff166001600160401b03811115613de557613de5614b99565b6040519080825280601f01601f191660200182016040528015613e0f576020820181803683370190505b50905060008087516020890160008d8df191503d925086831115613e31578692505b828152826000602083013e909890975095505050505050565b8180519060200120600560008761ffff1661ffff16815260200190815260200160002085604051613e7b91906156cd565b9081526040805191829003602090810183206001600160401b0388166000908152915220919091557fe183f33de2837795525b4792ca4cd60535bd77c53b7e7030060bfcf5734d6b0c90613ed890879087908790879087906156e9565b60405180910390a15050505050565b600080613ef261450b565b613efc9084615227565b90506001600160401b0381111561119e57600080fd5b600080613f226201518084615227565b9050613f30600160076151fe565b811115613f405750606392915050565b600060016007613f518460036151d4565b6001901b613f5f9190615227565b613f6991906151fe565b604051637ae2b5c760e01b815290915073__$6ad30996409d058139477db06ae39abaac$__90637ae2b5c790613fa6908490606390600401614b39565b602060405180830381865af4158015613fc3573d6000803e3d6000fd5b505050506040513d601f19601f8201168201806040525081019061262e91906156b4565b6000613ff48260016151d4565b8351101561403a5760405162461bcd60e51b8152602060048201526013602482015272746f55696e74385f6f75744f66426f756e647360681b6044820152606401610fb0565b50016001015190565b60008061404f8361452f565b90925090506001600160a01b0382166140685761dead91505b600061407382614576565b9050614080878483614593565b9050826001600160a01b03168761ffff1660008051602061591e833981519152836040516140b091815260200190565b60405180910390a350505050505050565b60008060008060006140d2866145a6565b945094509450945094506000600760008b61ffff1661ffff1681526020019081526020016000208960405161410791906156cd565b90815260408051602092819003830190206001600160401b038b166000908152925281205460ff16915061413a85614576565b9050816141a85761414c8b3083614593565b61ffff8c16600090815260076020526040908190209051919250600191614174908d906156cd565b90815260408051602092819003830190206001600160401b038d16600090815292529020805460ff19169115159190911790555b6001600160a01b0386163b6141fa577f9aedf5fdba8716db3b6705ca00150643309995d4f818a249ed6dde6677e7792d866040516141e69190614e38565b60405180910390a150505050505050612eb6565b8a8a8a8a8a8a868a60008a614218578b6001600160401b031661421a565b5a5b905060008061424c5a609663eaffd49a60e01b8e8e8e8d8d8d8d8d604051602401612c6d98979695949392919061573b565b9150915081156142a5578751602089012060405161ffff8d16907fb8890edbfc1c74692f527444645f95489c3703cc2df42e4a366f5d06fa6cd88490614297908e908e9086906157af565b60405180910390a2506142b2565b6142b28b8b8b8b85613e4a565b50505050505050505050505050505050505050505050565b60065460ff16156142e6576142e18484848461461f565b612eb6565b815115612eb657600080fd5b6000806142fd61450b565b61430790846157dd565b905061431381846151fe565b9150915091565b6000336001600160a01b038616811461433857614338868285612e42565b614342868461375b565b5090949350505050565b61ffff86166000908152600260205260408120805461436a90615163565b80601f016020809104026020016040519081016040528092919081815260200182805461439690615163565b80156143e35780601f106143b8576101008083540402835291602001916143e3565b820191906000526020600020905b8154815290600101906020018083116143c657829003601f168201915b5050505050905080516000036144545760405162461bcd60e51b815260206004820152603060248201527f4c7a4170703a2064657374696e6174696f6e20636861696e206973206e6f742060448201526f61207472757374656420736f7572636560801b6064820152608401610fb0565b60015460405162c5803160e81b81526001600160a01b039091169063c580310090849061448f908b9086908c908c908c908c906004016157f1565b6000604051808303818588803b1580156144a857600080fd5b505af11580156144bc573d6000803e3d6000fd5b505050505050505050505050565b6060600185856001600160a01b03891685876040516020016144f196959493929190615858565b604051602081830303815290604052905095945050505050565b7f000000000000000000000000000000000000000000000000000000000000000090565b6000808061453d8482613fe7565b60ff1614801561454e575082516029145b61455757600080fd5b61456283600d6146f9565b915061456f83602161475e565b9050915091565b600061458061450b565b61119e906001600160401b0384166151bd565b600061459f83836131ac565b5092915050565b6000808060608160016145b98783613fe7565b60ff16146145c657600080fd5b6145d186600d6146f9565b93506145de86602161475e565b92506145eb8660296147bb565b94506145f886604961475e565b9050614614605180885161460c91906151fe565b889190613a1c565b915091939590929450565b600061462a83614819565b61ffff80871660009081526003602090815260408083209389168352929052908120549192509061465c9084906151d4565b9050600081116146ab5760405162461bcd60e51b815260206004820152601a602482015279131e905c1c0e881b5a5b91d85cd31a5b5a5d081b9bdd081cd95d60321b6044820152606401610fb0565b80821015611bf15760405162461bcd60e51b815260206004820152601b60248201527a4c7a4170703a20676173206c696d697420697320746f6f206c6f7760281b6044820152606401610fb0565b60006147068260146151d4565b8351101561474e5760405162461bcd60e51b8152602060048201526015602482015274746f416464726573735f6f75744f66426f756e647360581b6044820152606401610fb0565b500160200151600160601b900490565b600061476b8260086151d4565b835110156147b25760405162461bcd60e51b8152602060048201526014602482015273746f55696e7436345f6f75744f66426f756e647360601b6044820152606401610fb0565b50016008015190565b60006147c88260206151d4565b835110156148105760405162461bcd60e51b8152602060048201526015602482015274746f427974657333325f6f75744f66426f756e647360581b6044820152606401610fb0565b50016020015190565b600060228251101561486c5760405162461bcd60e51b815260206004820152601c60248201527b4c7a4170703a20696e76616c69642061646170746572506172616d7360201b6044820152606401610fb0565b506022015190565b803561ffff8116811461488657600080fd5b919050565b60008083601f84011261489d57600080fd5b5081356001600160401b038111156148b457600080fd5b6020830191508360208285010111156148cc57600080fd5b9250929050565b80356001600160401b038116811461488657600080fd5b6000806000806000806080878903121561490357600080fd5b61490c87614874565b955060208701356001600160401b038082111561492857600080fd5b6149348a838b0161488b565b909750955085915061494860408a016148d3565b9450606089013591508082111561495e57600080fd5b5061496b89828a0161488b565b979a9699509497509295939492505050565b60006020828403121561498f57600080fd5b81356001600160e01b03198116811461226057600080fd5b60005b838110156149c25781810151838201526020016149aa565b50506000910152565b600081518084526149e38160208601602086016149a7565b601f01601f19169290920160200192915050565b60208152600061226060208301846149cb565b600060208284031215614a1c57600080fd5b61226082614874565b6001600160a01b0381168114612baf57600080fd5b60008060408385031215614a4d57600080fd5b8235614a5881614a25565b946020939093013593505050565b600060208284031215614a7857600080fd5b813561226081614a25565b600080600060608486031215614a9857600080fd5b8335614aa381614a25565b92506020840135614ab381614a25565b929592945050506040919091013590565b8035801515811461488657600080fd5b60008060008060008060a08789031215614aed57600080fd5b614af687614874565b95506020870135945060408701359350614b1260608801614ac4565b925060808701356001600160401b03811115614b2d57600080fd5b61496b89828a0161488b565b918252602082015260400190565b600080600060408486031215614b5c57600080fd5b614b6584614874565b925060208401356001600160401b03811115614b8057600080fd5b614b8c8682870161488b565b9497909650939450505050565b634e487b7160e01b600052604160045260246000fd5b604051601f8201601f191681016001600160401b0381118282101715614bd757614bd7614b99565b604052919050565b60006001600160401b03821115614bf857614bf8614b99565b50601f01601f191660200190565b600080600060608486031215614c1b57600080fd5b614c2484614874565b925060208401356001600160401b03811115614c3f57600080fd5b8401601f81018613614c5057600080fd5b8035614c63614c5e82614bdf565b614baf565b818152876020838501011115614c7857600080fd5b81602084016020830137600060208383010152809450505050614c9d604085016148d3565b90509250925092565b60008060408385031215614cb957600080fd5b50508035926020909101359150565b600060608284031215614cda57600080fd5b50919050565b600080600080600060a08688031215614cf857600080fd5b8535614d0381614a25565b9450614d1160208701614874565b9350604086013592506060860135915060808601356001600160401b03811115614d3a57600080fd5b614d4688828901614cc8565b9150509295509295909350565b60008060008060008060008060e0898b031215614d6f57600080fd5b8835614d7a81614a25565b9750614d8860208a01614874565b9650604089013595506060890135945060808901356001600160401b0380821115614db257600080fd5b614dbe8c838d0161488b565b9096509450849150614dd260a08c016148d3565b935060c08b0135915080821115614de857600080fd5b50614df58b828c01614cc8565b9150509295985092959890939650565b60008060408385031215614e1857600080fd5b614e2183614874565b9150614e2f60208401614874565b90509250929050565b6001600160a01b0391909116815260200190565b600060208284031215614e5e57600080fd5b5035919050565b600080600080600080600080600060e08a8c031215614e8357600080fd5b614e8c8a614874565b985060208a0135975060408a0135965060608a01356001600160401b0380821115614eb657600080fd5b614ec28d838e0161488b565b9098509650869150614ed660808d016148d3565b9550614ee460a08d01614ac4565b945060c08c0135915080821115614efa57600080fd5b50614f078c828d0161488b565b915080935050809150509295985092959850929598565b60008060008060808587031215614f3457600080fd5b5050823594602084013594506040840135936060013592509050565b600080600080600060808688031215614f6857600080fd5b614f7186614874565b9450614f7f60208701614874565b93506040860135925060608601356001600160401b03811115614fa157600080fd5b614fad8882890161488b565b969995985093965092949392505050565b60008060408385031215614fd157600080fd5b8235614fdc81614a25565b91506020830135614fec81614a25565b809150509250929050565b60008060006060848603121561500c57600080fd5b61501584614874565b925061502360208501614874565b9150604084013590509250925092565b60006020828403121561504557600080fd5b61226082614ac4565b6000806000806000806000806000806101008b8d03121561506e57600080fd5b6150778b614874565b995060208b01356001600160401b038082111561509357600080fd5b61509f8e838f0161488b565b909b5099508991506150b360408e016148d3565b985060608d0135975060808d013591506150cc82614a25565b90955060a08c0135945060c08c013590808211156150e957600080fd5b506150f68d828e0161488b565b9150809450508092505060e08b013590509295989b9194979a5092959850565b6000806000806080858703121561512c57600080fd5b61513585614874565b935061514360208601614874565b9250604085013561515381614a25565b9396929550929360600135925050565b600181811c9082168061517757607f821691505b602082108103614cda57634e487b7160e01b600052602260045260246000fd5b8183823760009101908152919050565b634e487b7160e01b600052601160045260246000fd5b808202811582820484141761119e5761119e6151a7565b8082018082111561119e5761119e6151a7565b6000816151f6576151f66151a7565b506000190190565b8181038181111561119e5761119e6151a7565b634e487b7160e01b600052601260045260246000fd5b60008261523657615236615211565b500490565b81835281816020850137506000828201602090810191909152601f909101601f19169091010190565b61ffff84168152604060208201526000612c3c60408301848661523b565b6000808335601e1984360301811261529957600080fd5b8301803591506001600160401b038211156152b357600080fd5b6020019150368190038213156148cc57600080fd5b6000600182016152da576152da6151a7565b5060010190565b8284823760609190911b6001600160601b0319169101908152601401919050565b601f82111561388f57600081815260208120601f850160051c810160208610156153295750805b601f850160051c820191505b81811015611bf157828155600101615335565b600019600383901b1c191660019190911b1790565b81516001600160401b0381111561537657615376614b99565b61538a816153848454615163565b84615302565b602080601f8311600181146153b957600084156153a75750858301515b6153b18582615348565b865550611bf1565b600085815260208120601f198616915b828110156153e8578886015182559484019460019091019084016153c9565b50858210156154065787850151600019600388901b60f8161c191681555b5050505050600190811b01905550565b600061ffff80881683528087166020840152508460408301526080606083015261544460808301848661523b565b979650505050505050565b61ffff8616815260806020820152600061546d60808301868861523b565b6001600160401b0394909416604083015250606001529392505050565b61ffff8916815260c0602082015260006154a860c08301898b61523b565b6001600160401b0388166040840152606083018790526080830186905282810360a084015261346081858761523b565b6001600160401b038311156154ef576154ef614b99565b615503836154fd8354615163565b83615302565b6000601f841160018114615531576000851561551f5750838201355b6155298682615348565b84555061129c565b600083815260209020601f19861690835b828110156155625786850135825560209485019460019092019101615542565b508682101561557f5760001960f88860031b161c19848701351681555b505060018560011b0183555050505050565b6000602082840312156155a357600080fd5b81516001600160401b038111156155b957600080fd5b8201601f810184136155ca57600080fd5b80516155d8614c5e82614bdf565b8181528560208385010111156155ed57600080fd5b612c3c8260208301602086016149a7565b61ffff8516815260806020820152600061561b60808301866149cb565b6001600160401b0385166040840152828103606084015261544481856149cb565b61ffff861681526001600160a01b038516602082015260a06040820181905260009061566a908301866149cb565b8415156060840152828103608084015261568481856149cb565b98975050505050505050565b600080604083850312156156a357600080fd5b505080516020909101519092909150565b6000602082840312156156c657600080fd5b5051919050565b600082516156df8184602087016149a7565b9190910192915050565b61ffff8616815260a06020820152600061570660a08301876149cb565b6001600160401b0386166040840152828103606084015261572781866149cb565b9050828103608084015261568481856149cb565b600061010061ffff8b1683528060208401526157598184018b6149cb565b6001600160401b038a166040850152606084018990526001600160a01b038816608085015260a0840187905283810360c0850152905061579981866149cb565b9150508260e08301529998505050505050505050565b6060815260006157c260608301866149cb565b6001600160401b039490941660208301525060400152919050565b6000826157ec576157ec615211565b500690565b61ffff8716815260c06020820152600061580e60c08301886149cb565b828103604084015261582081886149cb565b6001600160a01b0387811660608601528616608085015283810360a0850152905061584b81856149cb565b9998505050505050505050565b6001600160f81b031960f888901b168152600181018690526001600160c01b031960c086811b821660218401526029830186905284901b16604982015281516000906158ab8160518501602087016149a7565b9190910160510197965050505050505056fe1449c6dd7851abc30abf37f57715f492010519147cc2652fbc38202c18a6ee90d74752b13281df13701575f3a507e9b1242e0b5fb040143211c481c1fce573a6d81fc9b8523134ed613870ed029d6170cbb73aa6a6bc311b9a642689fb9df59abf551ec93859b170f9b2141bd9298bf3f64322c6f7beb2543a0cb669834118bfddf252ad1be2c89b69c2b068fc378daa952ba7f163c4a11628f55a4df523b3efa26469706673582212205d55648e7e05375212c5048483476f56e33542d854b468ed02f8bbf3e3430ca364736f6c63430008110033",
  "linkReferences": {
    "contracts/Math.sol": {
      "Math": [
        {
          "length": 20,
          "start": 14560
        },
        {
          "length": 20,
          "start": 14747
        },
        {
          "length": 20,
          "start": 16275
        },
        {
          "length": 20,
          "start": 17790
        }
      ]
    }
  },
  "deployedLinkReferences": {
    "contracts/Math.sol": {
      "Math": [
        {
          "length": 20,
          "start": 13021
        },
        {
          "length": 20,
          "start": 13208
        },
        {
          "length": 20,
          "start": 14736
        },
        {
          "length": 20,
          "start": 16251
        }
      ]
    }
  }
}