{
  "_format": "hh-sol-artifact-1",
  "contractName": "Main",
  "sourceName": "contracts/Main.sol",
  "abi": [
    {
      "inputs": [
        {
          "internalType": "uint256",
          "name": "_fee",
          "type": "uint256"
        },
        {
          "internalType": "address",
          "name": "_endpoint",
          "type": "address"
        }
      ],
      "stateMutability": "nonpayable",
      "type": "constructor"
    },
    {
      "anonymous": false,
      "inputs": [
        {
          "indexed": true,
          "internalType": "address",
          "name": "owner",
          "type": "address"
        },
        {
          "indexed": true,
          "internalType": "address",
          "name": "spender",
          "type": "address"
        },
        {
          "indexed": false,
          "internalType": "uint256",
          "name": "value",
          "type": "uint256"
        }
      ],
      "name": "Approval",
      "type": "event"
    },
    {
      "anonymous": false,
      "inputs": [
        {
          "indexed": true,
          "internalType": "uint16",
          "name": "_srcChainId",
          "type": "uint16"
        },
        {
          "indexed": false,
          "internalType": "bytes",
          "name": "_srcAddress",
          "type": "bytes"
        },
        {
          "indexed": false,
          "internalType": "uint64",
          "name": "_nonce",
          "type": "uint64"
        },
        {
          "indexed": false,
          "internalType": "bytes32",
          "name": "_hash",
          "type": "bytes32"
        }
      ],
      "name": "CallOFTReceivedSuccess",
      "type": "event"
    },
    {
      "anonymous": false,
      "inputs": [
        {
          "indexed": false,
          "internalType": "uint16",
          "name": "_srcChainId",
          "type": "uint16"
        },
        {
          "indexed": false,
          "internalType": "bytes",
          "name": "_srcAddress",
          "type": "bytes"
        },
        {
          "indexed": false,
          "internalType": "uint64",
          "name": "_nonce",
          "type": "uint64"
        },
        {
          "indexed": false,
          "internalType": "bytes",
          "name": "_payload",
          "type": "bytes"
        },
        {
          "indexed": false,
          "internalType": "bytes",
          "name": "_reason",
          "type": "bytes"
        }
      ],
      "name": "MessageFailed",
      "type": "event"
    },
    {
      "anonymous": false,
      "inputs": [
        {
          "indexed": true,
          "internalType": "address",
          "name": "user",
          "type": "address"
        },
        {
          "indexed": false,
          "internalType": "uint256",
          "name": "rewardAmount",
          "type": "uint256"
        }
      ],
      "name": "MintClaimed",
      "type": "event"
    },
    {
      "anonymous": false,
      "inputs": [
        {
          "indexed": false,
          "internalType": "address",
          "name": "_address",
          "type": "address"
        }
      ],
      "name": "NonContractAddress",
      "type": "event"
    },
    {
      "anonymous": false,
      "inputs": [
        {
          "indexed": true,
          "internalType": "address",
          "name": "previousOwner",
          "type": "address"
        },
        {
          "indexed": true,
          "internalType": "address",
          "name": "newOwner",
          "type": "address"
        }
      ],
      "name": "OwnershipTransferred",
      "type": "event"
    },
    {
      "anonymous": false,
      "inputs": [
        {
          "indexed": true,
          "internalType": "address",
          "name": "user",
          "type": "address"
        },
        {
          "indexed": false,
          "internalType": "uint256",
          "name": "term",
          "type": "uint256"
        },
        {
          "indexed": false,
          "internalType": "uint256",
          "name": "rank",
          "type": "uint256"
        }
      ],
      "name": "RankClaimed",
      "type": "event"
    },
    {
      "anonymous": false,
      "inputs": [
        {
          "indexed": true,
          "internalType": "uint16",
          "name": "_srcChainId",
          "type": "uint16"
        },
        {
          "indexed": true,
          "internalType": "address",
          "name": "_to",
          "type": "address"
        },
        {
          "indexed": false,
          "internalType": "uint256",
          "name": "_amount",
          "type": "uint256"
        }
      ],
      "name": "ReceiveFromChain",
      "type": "event"
    },
    {
      "anonymous": false,
      "inputs": [
        {
          "indexed": true,
          "internalType": "address",
          "name": "user",
          "type": "address"
        },
        {
          "indexed": true,
          "internalType": "address",
          "name": "xenContract",
          "type": "address"
        },
        {
          "indexed": true,
          "internalType": "address",
          "name": "tokenContract",
          "type": "address"
        },
        {
          "indexed": false,
          "internalType": "uint256",
          "name": "xenAmount",
          "type": "uint256"
        },
        {
          "indexed": false,
          "internalType": "uint256",
          "name": "tokenAmount",
          "type": "uint256"
        }
      ],
      "name": "Redeemed",
      "type": "event"
    },
    {
      "anonymous": false,
      "inputs": [
        {
          "indexed": false,
          "internalType": "uint16",
          "name": "_srcChainId",
          "type": "uint16"
        },
        {
          "indexed": false,
          "internalType": "bytes",
          "name": "_srcAddress",
          "type": "bytes"
        },
        {
          "indexed": false,
          "internalType": "uint64",
          "name": "_nonce",
          "type": "uint64"
        },
        {
          "indexed": false,
          "internalType": "bytes32",
          "name": "_payloadHash",
          "type": "bytes32"
        }
      ],
      "name": "RetryMessageSuccess",
      "type": "event"
    },
    {
      "anonymous": false,
      "inputs": [
        {
          "indexed": true,
          "internalType": "uint16",
          "name": "_dstChainId",
          "type": "uint16"
        },
        {
          "indexed": true,
          "internalType": "address",
          "name": "_from",
          "type": "address"
        },
        {
          "indexed": true,
          "internalType": "bytes32",
          "name": "_toAddress",
          "type": "bytes32"
        },
        {
          "indexed": false,
          "internalType": "uint256",
          "name": "_amount",
          "type": "uint256"
        }
      ],
      "name": "SendToChain",
      "type": "event"
    },
    {
      "anonymous": false,
      "inputs": [
        {
          "indexed": false,
          "internalType": "uint16",
          "name": "_dstChainId",
          "type": "uint16"
        },
        {
          "indexed": false,
          "internalType": "uint16",
          "name": "_type",
          "type": "uint16"
        },
        {
          "indexed": false,
          "internalType": "uint256",
          "name": "_minDstGas",
          "type": "uint256"
        }
      ],
      "name": "SetMinDstGas",
      "type": "event"
    },
    {
      "anonymous": false,
      "inputs": [
        {
          "indexed": false,
          "internalType": "address",
          "name": "precrime",
          "type": "address"
        }
      ],
      "name": "SetPrecrime",
      "type": "event"
    },
    {
      "anonymous": false,
      "inputs": [
        {
          "indexed": false,
          "internalType": "uint16",
          "name": "_remoteChainId",
          "type": "uint16"
        },
        {
          "indexed": false,
          "internalType": "bytes",
          "name": "_path",
          "type": "bytes"
        }
      ],
      "name": "SetTrustedRemote",
      "type": "event"
    },
    {
      "anonymous": false,
      "inputs": [
        {
          "indexed": false,
          "internalType": "uint16",
          "name": "_remoteChainId",
          "type": "uint16"
        },
        {
          "indexed": false,
          "internalType": "bytes",
          "name": "_remoteAddress",
          "type": "bytes"
        }
      ],
      "name": "SetTrustedRemoteAddress",
      "type": "event"
    },
    {
      "anonymous": false,
      "inputs": [
        {
          "indexed": false,
          "internalType": "bool",
          "name": "_useCustomAdapterParams",
          "type": "bool"
        }
      ],
      "name": "SetUseCustomAdapterParams",
      "type": "event"
    },
    {
      "anonymous": false,
      "inputs": [
        {
          "indexed": true,
          "internalType": "address",
          "name": "user",
          "type": "address"
        },
        {
          "indexed": false,
          "internalType": "uint256",
          "name": "amount",
          "type": "uint256"
        },
        {
          "indexed": false,
          "internalType": "uint256",
          "name": "term",
          "type": "uint256"
        }
      ],
      "name": "Staked",
      "type": "event"
    },
    {
      "anonymous": false,
      "inputs": [
        {
          "indexed": true,
          "internalType": "address",
          "name": "from",
          "type": "address"
        },
        {
          "indexed": true,
          "internalType": "address",
          "name": "to",
          "type": "address"
        },
        {
          "indexed": false,
          "internalType": "uint256",
          "name": "value",
          "type": "uint256"
        }
      ],
      "name": "Transfer",
      "type": "event"
    },
    {
      "anonymous": false,
      "inputs": [
        {
          "indexed": true,
          "internalType": "address",
          "name": "user",
          "type": "address"
        },
        {
          "indexed": false,
          "internalType": "uint256",
          "name": "amount",
          "type": "uint256"
        },
        {
          "indexed": false,
          "internalType": "uint256",
          "name": "reward",
          "type": "uint256"
        }
      ],
      "name": "Withdrawn",
      "type": "event"
    },
    {
      "inputs": [],
      "name": "DAYS_IN_YEAR",
      "outputs": [
        {
          "internalType": "uint256",
          "name": "",
          "type": "uint256"
        }
      ],
      "stateMutability": "view",
      "type": "function"
    },
    {
      "inputs": [],
      "name": "EAA_PM_START",
      "outputs": [
        {
          "internalType": "uint256",
          "name": "",
          "type": "uint256"
        }
      ],
      "stateMutability": "view",
      "type": "function"
    },
    {
      "inputs": [],
      "name": "EAA_PM_STEP",
      "outputs": [
        {
          "internalType": "uint256",
          "name": "",
          "type": "uint256"
        }
      ],
      "stateMutability": "view",
      "type": "function"
    },
    {
      "inputs": [],
      "name": "EAA_RANK_STEP",
      "outputs": [
        {
          "internalType": "uint256",
          "name": "",
          "type": "uint256"
        }
      ],
      "stateMutability": "view",
      "type": "function"
    },
    {
      "inputs": [],
      "name": "GENESIS_RANK",
      "outputs": [
        {
          "internalType": "uint256",
          "name": "",
          "type": "uint256"
        }
      ],
      "stateMutability": "view",
      "type": "function"
    },
    {
      "inputs": [],
      "name": "MAX_PENALTY_PCT",
      "outputs": [
        {
          "internalType": "uint256",
          "name": "",
          "type": "uint256"
        }
      ],
      "stateMutability": "view",
      "type": "function"
    },
    {
      "inputs": [],
      "name": "MAX_TERM_END",
      "outputs": [
        {
          "internalType": "uint256",
          "name": "",
          "type": "uint256"
        }
      ],
      "stateMutability": "view",
      "type": "function"
    },
    {
      "inputs": [],
      "name": "MAX_TERM_START",
      "outputs": [
        {
          "internalType": "uint256",
          "name": "",
          "type": "uint256"
        }
      ],
      "stateMutability": "view",
      "type": "function"
    },
    {
      "inputs": [],
      "name": "MIN_TERM",
      "outputs": [
        {
          "internalType": "uint256",
          "name": "",
          "type": "uint256"
        }
      ],
      "stateMutability": "view",
      "type": "function"
    },
    {
      "inputs": [],
      "name": "NO_EXTRA_GAS",
      "outputs": [
        {
          "internalType": "uint256",
          "name": "",
          "type": "uint256"
        }
      ],
      "stateMutability": "view",
      "type": "function"
    },
    {
      "inputs": [],
      "name": "PT_SEND",
      "outputs": [
        {
          "internalType": "uint8",
          "name": "",
          "type": "uint8"
        }
      ],
      "stateMutability": "view",
      "type": "function"
    },
    {
      "inputs": [],
      "name": "PT_SEND_AND_CALL",
      "outputs": [
        {
          "internalType": "uint8",
          "name": "",
          "type": "uint8"
        }
      ],
      "stateMutability": "view",
      "type": "function"
    },
    {
      "inputs": [],
      "name": "REWARD_AMPLIFIER_END",
      "outputs": [
        {
          "internalType": "uint256",
          "name": "",
          "type": "uint256"
        }
      ],
      "stateMutability": "view",
      "type": "function"
    },
    {
      "inputs": [],
      "name": "REWARD_AMPLIFIER_START",
      "outputs": [
        {
          "internalType": "uint256",
          "name": "",
          "type": "uint256"
        }
      ],
      "stateMutability": "view",
      "type": "function"
    },
    {
      "inputs": [],
      "name": "SECONDS_IN_DAY",
      "outputs": [
        {
          "internalType": "uint256",
          "name": "",
          "type": "uint256"
        }
      ],
      "stateMutability": "view",
      "type": "function"
    },
    {
      "inputs": [],
      "name": "TERM_AMPLIFIER",
      "outputs": [
        {
          "internalType": "uint256",
          "name": "",
          "type": "uint256"
        }
      ],
      "stateMutability": "view",
      "type": "function"
    },
    {
      "inputs": [],
      "name": "TERM_AMPLIFIER_THRESHOLD",
      "outputs": [
        {
          "internalType": "uint256",
          "name": "",
          "type": "uint256"
        }
      ],
      "stateMutability": "view",
      "type": "function"
    },
    {
      "inputs": [],
      "name": "WITHDRAWAL_WINDOW_DAYS",
      "outputs": [
        {
          "internalType": "uint256",
          "name": "",
          "type": "uint256"
        }
      ],
      "stateMutability": "view",
      "type": "function"
    },
    {
      "inputs": [],
      "name": "XEX_APY_DAYS_STEP",
      "outputs": [
        {
          "internalType": "uint256",
          "name": "",
          "type": "uint256"
        }
      ],
      "stateMutability": "view",
      "type": "function"
    },
    {
      "inputs": [],
      "name": "XEX_APY_END",
      "outputs": [
        {
          "internalType": "uint256",
          "name": "",
          "type": "uint256"
        }
      ],
      "stateMutability": "view",
      "type": "function"
    },
    {
      "inputs": [],
      "name": "XEX_APY_START",
      "outputs": [
        {
          "internalType": "uint256",
          "name": "",
          "type": "uint256"
        }
      ],
      "stateMutability": "view",
      "type": "function"
    },
    {
      "inputs": [],
      "name": "XEX_MIN_BURN",
      "outputs": [
        {
          "internalType": "uint256",
          "name": "",
          "type": "uint256"
        }
      ],
      "stateMutability": "view",
      "type": "function"
    },
    {
      "inputs": [],
      "name": "XEX_MIN_STAKE",
      "outputs": [
        {
          "internalType": "uint256",
          "name": "",
          "type": "uint256"
        }
      ],
      "stateMutability": "view",
      "type": "function"
    },
    {
      "inputs": [],
      "name": "activeMinters",
      "outputs": [
        {
          "internalType": "uint256",
          "name": "",
          "type": "uint256"
        }
      ],
      "stateMutability": "view",
      "type": "function"
    },
    {
      "inputs": [],
      "name": "activeStakes",
      "outputs": [
        {
          "internalType": "uint256",
          "name": "",
          "type": "uint256"
        }
      ],
      "stateMutability": "view",
      "type": "function"
    },
    {
      "inputs": [
        {
          "internalType": "address",
          "name": "owner",
          "type": "address"
        },
        {
          "internalType": "address",
          "name": "spender",
          "type": "address"
        }
      ],
      "name": "allowance",
      "outputs": [
        {
          "internalType": "uint256",
          "name": "",
          "type": "uint256"
        }
      ],
      "stateMutability": "view",
      "type": "function"
    },
    {
      "inputs": [
        {
          "internalType": "address",
          "name": "spender",
          "type": "address"
        },
        {
          "internalType": "uint256",
          "name": "amount",
          "type": "uint256"
        }
      ],
      "name": "approve",
      "outputs": [
        {
          "internalType": "bool",
          "name": "",
          "type": "bool"
        }
      ],
      "stateMutability": "nonpayable",
      "type": "function"
    },
    {
      "inputs": [
        {
          "internalType": "address",
          "name": "account",
          "type": "address"
        }
      ],
      "name": "balanceOf",
      "outputs": [
        {
          "internalType": "uint256",
          "name": "",
          "type": "uint256"
        }
      ],
      "stateMutability": "view",
      "type": "function"
    },
    {
      "inputs": [
        {
          "internalType": "uint16",
          "name": "_srcChainId",
          "type": "uint16"
        },
        {
          "internalType": "bytes",
          "name": "_srcAddress",
          "type": "bytes"
        },
        {
          "internalType": "uint64",
          "name": "_nonce",
          "type": "uint64"
        },
        {
          "internalType": "bytes32",
          "name": "_from",
          "type": "bytes32"
        },
        {
          "internalType": "address",
          "name": "_to",
          "type": "address"
        },
        {
          "internalType": "uint256",
          "name": "_amount",
          "type": "uint256"
        },
        {
          "internalType": "bytes",
          "name": "_payload",
          "type": "bytes"
        },
        {
          "internalType": "uint256",
          "name": "_gasForCall",
          "type": "uint256"
        }
      ],
      "name": "callOnOFTReceived",
      "outputs": [],
      "stateMutability": "nonpayable",
      "type": "function"
    },
    {
      "inputs": [],
      "name": "circulatingSupply",
      "outputs": [
        {
          "internalType": "uint256",
          "name": "",
          "type": "uint256"
        }
      ],
      "stateMutability": "view",
      "type": "function"
    },
    {
      "inputs": [],
      "name": "claimMintReward",
      "outputs": [],
      "stateMutability": "payable",
      "type": "function"
    },
    {
      "inputs": [
        {
          "internalType": "uint256",
          "name": "pct",
          "type": "uint256"
        },
        {
          "internalType": "uint256",
          "name": "term",
          "type": "uint256"
        }
      ],
      "name": "claimMintRewardAndStake",
      "outputs": [],
      "stateMutability": "payable",
      "type": "function"
    },
    {
      "inputs": [
        {
          "internalType": "uint256",
          "name": "term",
          "type": "uint256"
        }
      ],
      "name": "claimRank",
      "outputs": [],
      "stateMutability": "nonpayable",
      "type": "function"
    },
    {
      "inputs": [
        {
          "internalType": "uint16",
          "name": "",
          "type": "uint16"
        },
        {
          "internalType": "bytes",
          "name": "",
          "type": "bytes"
        },
        {
          "internalType": "uint64",
          "name": "",
          "type": "uint64"
        }
      ],
      "name": "creditedPackets",
      "outputs": [
        {
          "internalType": "bool",
          "name": "",
          "type": "bool"
        }
      ],
      "stateMutability": "view",
      "type": "function"
    },
    {
      "inputs": [],
      "name": "decimals",
      "outputs": [
        {
          "internalType": "uint8",
          "name": "",
          "type": "uint8"
        }
      ],
      "stateMutability": "view",
      "type": "function"
    },
    {
      "inputs": [
        {
          "internalType": "address",
          "name": "spender",
          "type": "address"
        },
        {
          "internalType": "uint256",
          "name": "subtractedValue",
          "type": "uint256"
        }
      ],
      "name": "decreaseAllowance",
      "outputs": [
        {
          "internalType": "bool",
          "name": "",
          "type": "bool"
        }
      ],
      "stateMutability": "nonpayable",
      "type": "function"
    },
    {
      "inputs": [
        {
          "internalType": "uint16",
          "name": "_dstChainId",
          "type": "uint16"
        },
        {
          "internalType": "bytes32",
          "name": "_toAddress",
          "type": "bytes32"
        },
        {
          "internalType": "uint256",
          "name": "_amount",
          "type": "uint256"
        },
        {
          "internalType": "bytes",
          "name": "_payload",
          "type": "bytes"
        },
        {
          "internalType": "uint64",
          "name": "_dstGasForCall",
          "type": "uint64"
        },
        {
          "internalType": "bool",
          "name": "_useZro",
          "type": "bool"
        },
        {
          "internalType": "bytes",
          "name": "_adapterParams",
          "type": "bytes"
        }
      ],
      "name": "estimateSendAndCallFee",
      "outputs": [
        {
          "internalType": "uint256",
          "name": "nativeFee",
          "type": "uint256"
        },
        {
          "internalType": "uint256",
          "name": "zroFee",
          "type": "uint256"
        }
      ],
      "stateMutability": "view",
      "type": "function"
    },
    {
      "inputs": [
        {
          "internalType": "uint16",
          "name": "_dstChainId",
          "type": "uint16"
        },
        {
          "internalType": "bytes32",
          "name": "_toAddress",
          "type": "bytes32"
        },
        {
          "internalType": "uint256",
          "name": "_amount",
          "type": "uint256"
        },
        {
          "internalType": "bool",
          "name": "_useZro",
          "type": "bool"
        },
        {
          "internalType": "bytes",
          "name": "_adapterParams",
          "type": "bytes"
        }
      ],
      "name": "estimateSendFee",
      "outputs": [
        {
          "internalType": "uint256",
          "name": "nativeFee",
          "type": "uint256"
        },
        {
          "internalType": "uint256",
          "name": "zroFee",
          "type": "uint256"
        }
      ],
      "stateMutability": "view",
      "type": "function"
    },
    {
      "inputs": [
        {
          "internalType": "uint16",
          "name": "",
          "type": "uint16"
        },
        {
          "internalType": "bytes",
          "name": "",
          "type": "bytes"
        },
        {
          "internalType": "uint64",
          "name": "",
          "type": "uint64"
        }
      ],
      "name": "failedMessages",
      "outputs": [
        {
          "internalType": "bytes32",
          "name": "",
          "type": "bytes32"
        }
      ],
      "stateMutability": "view",
      "type": "function"
    },
    {
      "inputs": [],
      "name": "fee",
      "outputs": [
        {
          "internalType": "uint256",
          "name": "",
          "type": "uint256"
        }
      ],
      "stateMutability": "view",
      "type": "function"
    },
    {
      "inputs": [
        {
          "internalType": "uint16",
          "name": "_srcChainId",
          "type": "uint16"
        },
        {
          "internalType": "bytes",
          "name": "_srcAddress",
          "type": "bytes"
        }
      ],
      "name": "forceResumeReceive",
      "outputs": [],
      "stateMutability": "nonpayable",
      "type": "function"
    },
    {
      "inputs": [],
      "name": "genesisTs",
      "outputs": [
        {
          "internalType": "uint256",
          "name": "",
          "type": "uint256"
        }
      ],
      "stateMutability": "view",
      "type": "function"
    },
    {
      "inputs": [
        {
          "internalType": "uint16",
          "name": "_version",
          "type": "uint16"
        },
        {
          "internalType": "uint16",
          "name": "_chainId",
          "type": "uint16"
        },
        {
          "internalType": "address",
          "name": "",
          "type": "address"
        },
        {
          "internalType": "uint256",
          "name": "_configType",
          "type": "uint256"
        }
      ],
      "name": "getConfig",
      "outputs": [
        {
          "internalType": "bytes",
          "name": "",
          "type": "bytes"
        }
      ],
      "stateMutability": "view",
      "type": "function"
    },
    {
      "inputs": [],
      "name": "getCurrentAMP",
      "outputs": [
        {
          "internalType": "uint256",
          "name": "",
          "type": "uint256"
        }
      ],
      "stateMutability": "view",
      "type": "function"
    },
    {
      "inputs": [],
      "name": "getCurrentAPY",
      "outputs": [
        {
          "internalType": "uint256",
          "name": "",
          "type": "uint256"
        }
      ],
      "stateMutability": "view",
      "type": "function"
    },
    {
      "inputs": [],
      "name": "getCurrentEAAR",
      "outputs": [
        {
          "internalType": "uint256",
          "name": "",
          "type": "uint256"
        }
      ],
      "stateMutability": "view",
      "type": "function"
    },
    {
      "inputs": [],
      "name": "getCurrentMaxTerm",
      "outputs": [
        {
          "internalType": "uint256",
          "name": "",
          "type": "uint256"
        }
      ],
      "stateMutability": "view",
      "type": "function"
    },
    {
      "inputs": [
        {
          "internalType": "uint256",
          "name": "rankDelta",
          "type": "uint256"
        },
        {
          "internalType": "uint256",
          "name": "amplifier",
          "type": "uint256"
        },
        {
          "internalType": "uint256",
          "name": "term",
          "type": "uint256"
        },
        {
          "internalType": "uint256",
          "name": "eaa",
          "type": "uint256"
        }
      ],
      "name": "getGrossReward",
      "outputs": [
        {
          "internalType": "uint256",
          "name": "",
          "type": "uint256"
        }
      ],
      "stateMutability": "pure",
      "type": "function"
    },
    {
      "inputs": [
        {
          "internalType": "uint256",
          "name": "cRank",
          "type": "uint256"
        },
        {
          "internalType": "uint256",
          "name": "term",
          "type": "uint256"
        },
        {
          "internalType": "uint256",
          "name": "maturityTs",
          "type": "uint256"
        },
        {
          "internalType": "uint256",
          "name": "amplifier",
          "type": "uint256"
        },
        {
          "internalType": "uint256",
          "name": "eeaRate",
          "type": "uint256"
        }
      ],
      "name": "getMintReward",
      "outputs": [
        {
          "internalType": "uint256",
          "name": "",
          "type": "uint256"
        }
      ],
      "stateMutability": "view",
      "type": "function"
    },
    {
      "inputs": [
        {
          "internalType": "uint16",
          "name": "_remoteChainId",
          "type": "uint16"
        }
      ],
      "name": "getTrustedRemoteAddress",
      "outputs": [
        {
          "internalType": "bytes",
          "name": "",
          "type": "bytes"
        }
      ],
      "stateMutability": "view",
      "type": "function"
    },
    {
      "inputs": [],
      "name": "getUserMint",
      "outputs": [
        {
          "components": [
            {
              "internalType": "address",
              "name": "user",
              "type": "address"
            },
            {
              "internalType": "uint256",
              "name": "term",
              "type": "uint256"
            },
            {
              "internalType": "uint256",
              "name": "maturityTs",
              "type": "uint256"
            },
            {
              "internalType": "uint256",
              "name": "rank",
              "type": "uint256"
            },
            {
              "internalType": "uint256",
              "name": "amplifier",
              "type": "uint256"
            },
            {
              "internalType": "uint256",
              "name": "eaaRate",
              "type": "uint256"
            }
          ],
          "internalType": "struct Main.MintInfo",
          "name": "",
          "type": "tuple"
        }
      ],
      "stateMutability": "view",
      "type": "function"
    },
    {
      "inputs": [],
      "name": "getUserStake",
      "outputs": [
        {
          "components": [
            {
              "internalType": "uint256",
              "name": "term",
              "type": "uint256"
            },
            {
              "internalType": "uint256",
              "name": "maturityTs",
              "type": "uint256"
            },
            {
              "internalType": "uint256",
              "name": "amount",
              "type": "uint256"
            },
            {
              "internalType": "uint256",
              "name": "apy",
              "type": "uint256"
            }
          ],
          "internalType": "struct Main.StakeInfo",
          "name": "",
          "type": "tuple"
        }
      ],
      "stateMutability": "view",
      "type": "function"
    },
    {
      "inputs": [],
      "name": "globalRank",
      "outputs": [
        {
          "internalType": "uint256",
          "name": "",
          "type": "uint256"
        }
      ],
      "stateMutability": "view",
      "type": "function"
    },
    {
      "inputs": [
        {
          "internalType": "address",
          "name": "spender",
          "type": "address"
        },
        {
          "internalType": "uint256",
          "name": "addedValue",
          "type": "uint256"
        }
      ],
      "name": "increaseAllowance",
      "outputs": [
        {
          "internalType": "bool",
          "name": "",
          "type": "bool"
        }
      ],
      "stateMutability": "nonpayable",
      "type": "function"
    },
    {
      "inputs": [
        {
          "internalType": "uint16",
          "name": "_srcChainId",
          "type": "uint16"
        },
        {
          "internalType": "bytes",
          "name": "_srcAddress",
          "type": "bytes"
        }
      ],
      "name": "isTrustedRemote",
      "outputs": [
        {
          "internalType": "bool",
          "name": "",
          "type": "bool"
        }
      ],
      "stateMutability": "view",
      "type": "function"
    },
    {
      "inputs": [],
      "name": "lzEndpoint",
      "outputs": [
        {
          "internalType": "contract ILayerZeroEndpoint",
          "name": "",
          "type": "address"
        }
      ],
      "stateMutability": "view",
      "type": "function"
    },
    {
      "inputs": [
        {
          "internalType": "uint16",
          "name": "_srcChainId",
          "type": "uint16"
        },
        {
          "internalType": "bytes",
          "name": "_srcAddress",
          "type": "bytes"
        },
        {
          "internalType": "uint64",
          "name": "_nonce",
          "type": "uint64"
        },
        {
          "internalType": "bytes",
          "name": "_payload",
          "type": "bytes"
        }
      ],
      "name": "lzReceive",
      "outputs": [],
      "stateMutability": "nonpayable",
      "type": "function"
    },
    {
      "inputs": [
        {
          "internalType": "uint16",
          "name": "",
          "type": "uint16"
        },
        {
          "internalType": "uint16",
          "name": "",
          "type": "uint16"
        }
      ],
      "name": "minDstGasLookup",
      "outputs": [
        {
          "internalType": "uint256",
          "name": "",
          "type": "uint256"
        }
      ],
      "stateMutability": "view",
      "type": "function"
    },
    {
      "inputs": [],
      "name": "name",
      "outputs": [
        {
          "internalType": "string",
          "name": "",
          "type": "string"
        }
      ],
      "stateMutability": "view",
      "type": "function"
    },
    {
      "inputs": [
        {
          "internalType": "uint16",
          "name": "_srcChainId",
          "type": "uint16"
        },
        {
          "internalType": "bytes",
          "name": "_srcAddress",
          "type": "bytes"
        },
        {
          "internalType": "uint64",
          "name": "_nonce",
          "type": "uint64"
        },
        {
          "internalType": "bytes",
          "name": "_payload",
          "type": "bytes"
        }
      ],
      "name": "nonblockingLzReceive",
      "outputs": [],
      "stateMutability": "nonpayable",
      "type": "function"
    },
    {
      "inputs": [],
      "name": "owner",
      "outputs": [
        {
          "internalType": "address",
          "name": "",
          "type": "address"
        }
      ],
      "stateMutability": "view",
      "type": "function"
    },
    {
      "inputs": [],
      "name": "precrime",
      "outputs": [
        {
          "internalType": "address",
          "name": "",
          "type": "address"
        }
      ],
      "stateMutability": "view",
      "type": "function"
    },
    {
      "inputs": [],
      "name": "renounceOwnership",
      "outputs": [],
      "stateMutability": "nonpayable",
      "type": "function"
    },
    {
      "inputs": [
        {
          "internalType": "uint16",
          "name": "_srcChainId",
          "type": "uint16"
        },
        {
          "internalType": "bytes",
          "name": "_srcAddress",
          "type": "bytes"
        },
        {
          "internalType": "uint64",
          "name": "_nonce",
          "type": "uint64"
        },
        {
          "internalType": "bytes",
          "name": "_payload",
          "type": "bytes"
        }
      ],
      "name": "retryMessage",
      "outputs": [],
      "stateMutability": "payable",
      "type": "function"
    },
    {
      "inputs": [
        {
          "internalType": "address",
          "name": "_from",
          "type": "address"
        },
        {
          "internalType": "uint16",
          "name": "_dstChainId",
          "type": "uint16"
        },
        {
          "internalType": "bytes32",
          "name": "_toAddress",
          "type": "bytes32"
        },
        {
          "internalType": "uint256",
          "name": "_amount",
          "type": "uint256"
        },
        {
          "internalType": "bytes",
          "name": "_payload",
          "type": "bytes"
        },
        {
          "internalType": "uint64",
          "name": "_dstGasForCall",
          "type": "uint64"
        },
        {
          "components": [
            {
              "internalType": "address payable",
              "name": "refundAddress",
              "type": "address"
            },
            {
              "internalType": "address",
              "name": "zroPaymentAddress",
              "type": "address"
            },
            {
              "internalType": "bytes",
              "name": "adapterParams",
              "type": "bytes"
            }
          ],
          "internalType": "struct ICommonOFT.LzCallParams",
          "name": "_callParams",
          "type": "tuple"
        }
      ],
      "name": "sendAndCall",
      "outputs": [],
      "stateMutability": "payable",
      "type": "function"
    },
    {
      "inputs": [
        {
          "internalType": "address",
          "name": "_from",
          "type": "address"
        },
        {
          "internalType": "uint16",
          "name": "_dstChainId",
          "type": "uint16"
        },
        {
          "internalType": "bytes32",
          "name": "_toAddress",
          "type": "bytes32"
        },
        {
          "internalType": "uint256",
          "name": "_amount",
          "type": "uint256"
        },
        {
          "components": [
            {
              "internalType": "address payable",
              "name": "refundAddress",
              "type": "address"
            },
            {
              "internalType": "address",
              "name": "zroPaymentAddress",
              "type": "address"
            },
            {
              "internalType": "bytes",
              "name": "adapterParams",
              "type": "bytes"
            }
          ],
          "internalType": "struct ICommonOFT.LzCallParams",
          "name": "_callParams",
          "type": "tuple"
        }
      ],
      "name": "sendFrom",
      "outputs": [],
      "stateMutability": "payable",
      "type": "function"
    },
    {
      "inputs": [
        {
          "internalType": "uint16",
          "name": "_version",
          "type": "uint16"
        },
        {
          "internalType": "uint16",
          "name": "_chainId",
          "type": "uint16"
        },
        {
          "internalType": "uint256",
          "name": "_configType",
          "type": "uint256"
        },
        {
          "internalType": "bytes",
          "name": "_config",
          "type": "bytes"
        }
      ],
      "name": "setConfig",
      "outputs": [],
      "stateMutability": "nonpayable",
      "type": "function"
    },
    {
      "inputs": [
        {
          "internalType": "address",
          "name": "_endpoint",
          "type": "address"
        }
      ],
      "name": "setEndpoint",
      "outputs": [],
      "stateMutability": "nonpayable",
      "type": "function"
    },
    {
      "inputs": [
        {
          "internalType": "uint16",
          "name": "_dstChainId",
          "type": "uint16"
        },
        {
          "internalType": "uint16",
          "name": "_packetType",
          "type": "uint16"
        },
        {
          "internalType": "uint256",
          "name": "_minGas",
          "type": "uint256"
        }
      ],
      "name": "setMinDstGas",
      "outputs": [],
      "stateMutability": "nonpayable",
      "type": "function"
    },
    {
      "inputs": [
        {
          "internalType": "address",
          "name": "_precrime",
          "type": "address"
        }
      ],
      "name": "setPrecrime",
      "outputs": [],
      "stateMutability": "nonpayable",
      "type": "function"
    },
    {
      "inputs": [
        {
          "internalType": "uint16",
          "name": "_version",
          "type": "uint16"
        }
      ],
      "name": "setReceiveVersion",
      "outputs": [],
      "stateMutability": "nonpayable",
      "type": "function"
    },
    {
      "inputs": [
        {
          "internalType": "uint16",
          "name": "_version",
          "type": "uint16"
        }
      ],
      "name": "setSendVersion",
      "outputs": [],
      "stateMutability": "nonpayable",
      "type": "function"
    },
    {
      "inputs": [
        {
          "internalType": "address",
          "name": "_treasure",
          "type": "address"
        }
      ],
      "name": "setTreasure",
      "outputs": [],
      "stateMutability": "nonpayable",
      "type": "function"
    },
    {
      "inputs": [
        {
          "internalType": "uint16",
          "name": "_srcChainId",
          "type": "uint16"
        },
        {
          "internalType": "bytes",
          "name": "_path",
          "type": "bytes"
        }
      ],
      "name": "setTrustedRemote",
      "outputs": [],
      "stateMutability": "nonpayable",
      "type": "function"
    },
    {
      "inputs": [
        {
          "internalType": "uint16",
          "name": "_remoteChainId",
          "type": "uint16"
        },
        {
          "internalType": "bytes",
          "name": "_remoteAddress",
          "type": "bytes"
        }
      ],
      "name": "setTrustedRemoteAddress",
      "outputs": [],
      "stateMutability": "nonpayable",
      "type": "function"
    },
    {
      "inputs": [
        {
          "internalType": "bool",
          "name": "_useCustomAdapterParams",
          "type": "bool"
        }
      ],
      "name": "setUseCustomAdapterParams",
      "outputs": [],
      "stateMutability": "nonpayable",
      "type": "function"
    },
    {
      "inputs": [],
      "name": "sharedDecimals",
      "outputs": [
        {
          "internalType": "uint8",
          "name": "",
          "type": "uint8"
        }
      ],
      "stateMutability": "view",
      "type": "function"
    },
    {
      "inputs": [
        {
          "internalType": "uint256",
          "name": "amount",
          "type": "uint256"
        },
        {
          "internalType": "uint256",
          "name": "term",
          "type": "uint256"
        }
      ],
      "name": "stake",
      "outputs": [],
      "stateMutability": "payable",
      "type": "function"
    },
    {
      "inputs": [
        {
          "internalType": "bytes4",
          "name": "interfaceId",
          "type": "bytes4"
        }
      ],
      "name": "supportsInterface",
      "outputs": [
        {
          "internalType": "bool",
          "name": "",
          "type": "bool"
        }
      ],
      "stateMutability": "view",
      "type": "function"
    },
    {
      "inputs": [],
      "name": "symbol",
      "outputs": [
        {
          "internalType": "string",
          "name": "",
          "type": "string"
        }
      ],
      "stateMutability": "view",
      "type": "function"
    },
    {
      "inputs": [],
      "name": "token",
      "outputs": [
        {
          "internalType": "address",
          "name": "",
          "type": "address"
        }
      ],
      "stateMutability": "view",
      "type": "function"
    },
    {
      "inputs": [],
      "name": "totalSupply",
      "outputs": [
        {
          "internalType": "uint256",
          "name": "",
          "type": "uint256"
        }
      ],
      "stateMutability": "view",
      "type": "function"
    },
    {
      "inputs": [],
      "name": "totalXenStaked",
      "outputs": [
        {
          "internalType": "uint256",
          "name": "",
          "type": "uint256"
        }
      ],
      "stateMutability": "view",
      "type": "function"
    },
    {
      "inputs": [
        {
          "internalType": "address",
          "name": "to",
          "type": "address"
        },
        {
          "internalType": "uint256",
          "name": "amount",
          "type": "uint256"
        }
      ],
      "name": "transfer",
      "outputs": [
        {
          "internalType": "bool",
          "name": "",
          "type": "bool"
        }
      ],
      "stateMutability": "nonpayable",
      "type": "function"
    },
    {
      "inputs": [
        {
          "internalType": "address",
          "name": "from",
          "type": "address"
        },
        {
          "internalType": "address",
          "name": "to",
          "type": "address"
        },
        {
          "internalType": "uint256",
          "name": "amount",
          "type": "uint256"
        }
      ],
      "name": "transferFrom",
      "outputs": [
        {
          "internalType": "bool",
          "name": "",
          "type": "bool"
        }
      ],
      "stateMutability": "nonpayable",
      "type": "function"
    },
    {
      "inputs": [
        {
          "internalType": "address",
          "name": "newOwner",
          "type": "address"
        }
      ],
      "name": "transferOwnership",
      "outputs": [],
      "stateMutability": "nonpayable",
      "type": "function"
    },
    {
      "inputs": [],
      "name": "treasure",
      "outputs": [
        {
          "internalType": "address",
          "name": "",
          "type": "address"
        }
      ],
      "stateMutability": "view",
      "type": "function"
    },
    {
      "inputs": [
        {
          "internalType": "uint16",
          "name": "",
          "type": "uint16"
        }
      ],
      "name": "trustedRemoteLookup",
      "outputs": [
        {
          "internalType": "bytes",
          "name": "",
          "type": "bytes"
        }
      ],
      "stateMutability": "view",
      "type": "function"
    },
    {
      "inputs": [],
      "name": "useCustomAdapterParams",
      "outputs": [
        {
          "internalType": "bool",
          "name": "",
          "type": "bool"
        }
      ],
      "stateMutability": "view",
      "type": "function"
    },
    {
      "inputs": [
        {
          "internalType": "address",
          "name": "",
          "type": "address"
        }
      ],
      "name": "userBurns",
      "outputs": [
        {
          "internalType": "uint256",
          "name": "",
          "type": "uint256"
        }
      ],
      "stateMutability": "view",
      "type": "function"
    },
    {
      "inputs": [
        {
          "internalType": "address",
          "name": "",
          "type": "address"
        }
      ],
      "name": "userMints",
      "outputs": [
        {
          "internalType": "address",
          "name": "user",
          "type": "address"
        },
        {
          "internalType": "uint256",
          "name": "term",
          "type": "uint256"
        },
        {
          "internalType": "uint256",
          "name": "maturityTs",
          "type": "uint256"
        },
        {
          "internalType": "uint256",
          "name": "rank",
          "type": "uint256"
        },
        {
          "internalType": "uint256",
          "name": "amplifier",
          "type": "uint256"
        },
        {
          "internalType": "uint256",
          "name": "eaaRate",
          "type": "uint256"
        }
      ],
      "stateMutability": "view",
      "type": "function"
    },
    {
      "inputs": [
        {
          "internalType": "address",
          "name": "",
          "type": "address"
        }
      ],
      "name": "userStakes",
      "outputs": [
        {
          "internalType": "uint256",
          "name": "term",
          "type": "uint256"
        },
        {
          "internalType": "uint256",
          "name": "maturityTs",
          "type": "uint256"
        },
        {
          "internalType": "uint256",
          "name": "amount",
          "type": "uint256"
        },
        {
          "internalType": "uint256",
          "name": "apy",
          "type": "uint256"
        }
      ],
      "stateMutability": "view",
      "type": "function"
    },
    {
      "inputs": [],
      "name": "withdraw",
      "outputs": [],
      "stateMutability": "payable",
      "type": "function"
    }
  ],
  "bytecode": "0x60e06040526001600f553480156200001657600080fd5b50604051620061c9380380620061c9833981016040819052620000399162000363565b6040518060400160405280600b81526020016a546573742043727970746f60a81b81525060405180604001604052806004815260200163151154d560e21b815250600883858484848481818080620000a06200009a6200019c60201b60201c565b620001a0565b600180546001600160a01b0319166001600160a01b0392909216919091179055505060f81b7fff0000000000000000000000000000000000000000000000000000000000000016608052505081516200010190600d906020850190620002bd565b5080516200011790600e906020840190620002bd565b50505060006200012c620001f060201b60201c565b90508060ff168460ff1611156200014257600080fd5b6200014e8482620004d2565b6200015b90600a62000404565b60a052506009555050600880546001600160a01b031916339081179091554260c0526200019492509050670de0b6b3a7640000620001f5565b50506200054b565b3390565b600080546001600160a01b038381166001600160a01b0319831681178455604051919092169283917f8be0079c531659141344cd1fd0a4f28419497f9722a3daafe3b4186f6b6457e09190a35050565b601290565b6001600160a01b038216620002505760405162461bcd60e51b815260206004820152601f60248201527f45524332303a206d696e7420746f20746865207a65726f206164647265737300604482015260640160405180910390fd5b80600c6000828254620002649190620003a0565b90915550506001600160a01b0382166000818152600a60209081526040808320805486019055518481527fddf252ad1be2c89b69c2b068fc378daa952ba7f163c4a11628f55a4df523b3ef910160405180910390a35050565b828054620002cb90620004f8565b90600052602060002090601f016020900481019282620002ef57600085556200033a565b82601f106200030a57805160ff19168380011785556200033a565b828001600101855582156200033a579182015b828111156200033a5782518255916020019190600101906200031d565b50620003489291506200034c565b5090565b5b808211156200034857600081556001016200034d565b6000806040838503121562000376578182fd5b825160208401519092506001600160a01b038116811462000395578182fd5b809150509250929050565b60008219821115620003b657620003b662000535565b500190565b600181815b80851115620003fc578160001904821115620003e057620003e062000535565b80851615620003ee57918102915b93841c9390800290620003c0565b509250929050565b60006200041560ff8416836200041c565b9392505050565b6000826200042d57506001620004cc565b816200043c57506000620004cc565b8160018114620004555760028114620004605762000480565b6001915050620004cc565b60ff84111562000474576200047462000535565b50506001821b620004cc565b5060208310610133831016604e8410600b8410161715620004a5575081810a620004cc565b620004b18383620003bb565b8060001904821115620004c857620004c862000535565b0290505b92915050565b600060ff821660ff841680821015620004ef57620004ef62000535565b90039392505050565b600181811c908216806200050d57607f821691505b602082108114156200052f57634e487b7160e01b600052602260045260246000fd5b50919050565b634e487b7160e01b600052601160045260246000fd5b60805160f81c60a05160c051615c2f6200059a60003960008181610edd01528181613d320152613d95015260008181614382015281816146e7015261495f01526000610a0f0152615c2f6000f3fe6080604052600436106105015760003560e01c80638cfd8f5c11610297578063c56f0bab11610165578063e6a20ae6116100cc578063ed629c5c11610085578063ed629c5c14610fd5578063f060482914610fef578063f2fde38b14611004578063f340faed14611024578063f5ecbdbc1461103b578063fc0c546a1461105b57600080fd5b8063e6a20ae614610f34578063e81917b414610f49578063eab45d9c14610f5f578063eaffd49a14610f7f578063eb8d72b714610f9f578063ed2f236914610fbf57600080fd5b8063ddca3f431161011e578063ddca3f4314610e04578063df28233114610e1a578063df2a5b3b14610eab578063e3af6d0a14610ecb578063e520fc7e14610eff578063e54f57c014610f1f57600080fd5b8063c56f0bab14610d4f578063cbed8b9c14610d64578063ce653d5f14610d84578063d1deba1f14610db1578063dbbb415514610dc4578063dd62ed3e14610de457600080fd5b80639ff054df11610209578063b21d35f2116101c2578063b21d35f214610cce578063b353aaa714610ce4578063b4800cdc14610d04578063baf3292d14610d1a578063bcfe394f146106b6578063c0c6525914610d3a57600080fd5b80639ff054df14610c0e578063a457c2d714610c2e578063a4c51df514610c4e578063a6c3d16514610c6e578063a9059cbb14610c8e578063b0fd1fc214610cae57600080fd5b8063950c8a741161025b578063950c8a7414610b3d57806395d89b4114610b5d578063962ca49614610b725780639920245414610b875780639bdb981214610b9c5780639f38369a14610bee57600080fd5b80638cfd8f5c14610a465780638da5cb5b14610a7e5780638da7ad2314610ab0578063909a2ff614610b125780639358928b14610b2857600080fd5b80634411ad04116103d4578063695ef6bf1161034657806376203b48116102ff57806376203b48146109d75780637b0472f0146109ea578063857749b0146109fd57806385eb8321146107ff5780638979c87c14610a3157806389fb998f146107ff57600080fd5b8063695ef6bf146108df5780637010d7a1146108f257806370a0823114610957578063715018a61461098d57806372475f94146109a25780637533d788146109b757600080fd5b806352c7f8dc1161039857806352c7f8dc1461083e578063543d3652146106b65780635b8c41e6146108465780635bccb4c41461089557806361a52a36146108a857806366ad5c8a146108bf57600080fd5b80634411ad04146107df57806344770515146107ff5780634512571514610814578063471191a1146107ff5780634c42899a1461082957600080fd5b806318160ddd11610478578063323ac7d811610431578063323ac7d81461072d578063365260b41461074257806339509351146107775780633ccfd60b146107975780633d8b38f61461079f57806342d65a8d146107bf57600080fd5b806318160ddd1461068b5780631c244082146106a05780631c6f212e146106b65780631d3cd2a6146106cb57806323b872dd146106eb578063313ce5671461070b57600080fd5b806307e0db17116104ca57806307e0db17146105b9578063095ea7b3146105d95780630bfae56b146105f95780630f2e12281461060e57806310ddb1371461062357806316f9c8fd1461064357600080fd5b80621d35671461050657806301ffc9a714610528578063023789321461055d578063069612a51461058157806306fdde0314610597575b600080fd5b34801561051257600080fd5b50610526610521366004615301565b61106e565b005b34801561053457600080fd5b50610548610543366004615011565b61128a565b60405190151581526020015b60405180910390f35b34801561056957600080fd5b5061057361016d81565b604051908152602001610554565b34801561058d57600080fd5b5061057360125481565b3480156105a357600080fd5b506105ac6112c1565b6040516105549190615720565b3480156105c557600080fd5b506105266105d43660046150a7565b611353565b3480156105e557600080fd5b506105486105f4366004614fcc565b6113c0565b34801561060557600080fd5b506105736113d8565b34801561061a57600080fd5b50610573606381565b34801561062f57600080fd5b5061052661063e3660046150a7565b6113e9565b34801561064f57600080fd5b50610658611425565b60405161055491908151815260208083015190820152604080830151908201526060918201519181019190915260800190565b34801561069757600080fd5b50600c54610573565b3480156106ac57600080fd5b50610573600f5481565b3480156106c257600080fd5b50610573600181565b3480156106d757600080fd5b506105266106e6366004614e18565b611496565b3480156106f757600080fd5b50610548610706366004614e6c565b6114c0565b34801561071757600080fd5b5060125b60405160ff9091168152602001610554565b34801561073957600080fd5b50610573602381565b34801561074e57600080fd5b5061076261075d3660046150c1565b6114e4565b60408051928352602083019190915201610554565b34801561078357600080fd5b50610548610792366004614fcc565b611539565b61052661155b565b3480156107ab57600080fd5b506105486107ba3660046151ec565b61171b565b3480156107cb57600080fd5b506105266107da3660046151ec565b6117e7565b3480156107eb57600080fd5b506105736107fa3660046155de565b611851565b34801561080b57600080fd5b50610573600081565b34801561082057600080fd5b50610573611a30565b34801561083557600080fd5b5061071b600081565b610526611a3f565b34801561085257600080fd5b5061057361086136600461537f565b6005602090815260009384526040808520845180860184018051928152908401958401959095209452929052825290205481565b6105266108a3366004615569565b611be2565b3480156108b457600080fd5b506105736201518081565b3480156108cb57600080fd5b506105266108da366004615301565b611e92565b6105266108ed366004614f5b565b611f1c565b3480156108fe57600080fd5b50610907612025565b604051610554919081516001600160a01b031681526020808301519082015260408083015190820152606080830151908201526080808301519082015260a0918201519181019190915260c00190565b34801561096357600080fd5b50610573610972366004614e18565b6001600160a01b03166000908152600a602052604090205490565b34801561099957600080fd5b506105266120ca565b3480156109ae57600080fd5b50610573600f81565b3480156109c357600080fd5b506105ac6109d23660046150a7565b6120de565b6105266109e5366004614eac565b612178565b6105266109f8366004615569565b6122c6565b348015610a0957600080fd5b5061071b7f000000000000000000000000000000000000000000000000000000000000000081565b348015610a3d57600080fd5b50610573612443565b348015610a5257600080fd5b50610573610a61366004615414565b600360209081526000928352604080842090915290825290205481565b348015610a8a57600080fd5b506000546001600160a01b03165b6040516001600160a01b039091168152602001610554565b348015610abc57600080fd5b50610af2610acb366004614e18565b60146020526000908152604090208054600182015460028301546003909301549192909184565b604080519485526020850193909352918301526060820152608001610554565b348015610b1e57600080fd5b506105736103e881565b348015610b3457600080fd5b5061057361244d565b348015610b4957600080fd5b50600454610a98906001600160a01b031681565b348015610b6957600080fd5b506105ac612458565b348015610b7e57600080fd5b50610573612467565b348015610b9357600080fd5b50610573612471565b348015610ba857600080fd5b50610548610bb736600461537f565b6007602090815260009384526040808520845180860184018051928152908401958401959095209452929052825290205460ff1681565b348015610bfa57600080fd5b506105ac610c093660046150a7565b61247b565b348015610c1a57600080fd5b50610526610c29366004615539565b612592565b348015610c3a57600080fd5b50610548610c49366004614fcc565b612713565b348015610c5a57600080fd5b50610762610c69366004615136565b61278e565b348015610c7a57600080fd5b50610526610c893660046151ec565b61281d565b348015610c9a57600080fd5b50610548610ca9366004614fcc565b6128b0565b348015610cba57600080fd5b50610573610cc93660046155ad565b6128be565b348015610cda57600080fd5b5061057361026081565b348015610cf057600080fd5b50600154610a98906001600160a01b031681565b348015610d1057600080fd5b5061057360105481565b348015610d2657600080fd5b50610526610d35366004614e18565b61294d565b348015610d4657600080fd5b506105736129aa565b348015610d5b57600080fd5b50610573600781565b348015610d7057600080fd5b50610526610d7f3660046154cd565b6129b9565b348015610d9057600080fd5b50610573610d9f366004614e18565b60156020526000908152604090205481565b610526610dbf366004615301565b612a32565b348015610dd057600080fd5b50610526610ddf366004614e18565b612bac565b348015610df057600080fd5b50610573610dff366004614e34565b612bec565b348015610e1057600080fd5b5061057360095481565b348015610e2657600080fd5b50610e74610e35366004614e18565b6013602052600090815260409020805460018201546002830154600384015460048501546005909501546001600160a01b039094169492939192909186565b604080516001600160a01b0390971687526020870195909552938501929092526060840152608083015260a082015260c001610554565b348015610eb757600080fd5b50610526610ec6366004615492565b612c17565b348015610ed757600080fd5b506105737f000000000000000000000000000000000000000000000000000000000000000081565b348015610f0b57600080fd5b50600854610a98906001600160a01b031681565b348015610f2b57600080fd5b50610573601481565b348015610f4057600080fd5b5061071b600181565b348015610f5557600080fd5b506105736102da81565b348015610f6b57600080fd5b50610526610f7a366004614ff7565b612cc9565b348015610f8b57600080fd5b50610526610f9a36600461523c565b612d12565b348015610fab57600080fd5b50610526610fba3660046151ec565b612dee565b348015610fcb57600080fd5b5061057360115481565b348015610fe157600080fd5b506006546105489060ff1681565b348015610ffb57600080fd5b50610573612e48565b34801561101057600080fd5b5061052661101f366004614e18565b612e61565b34801561103057600080fd5b50610573620186a081565b34801561104757600080fd5b506105ac611056366004615446565b612eda565b34801561106757600080fd5b5030610a98565b6001546001600160a01b0316336001600160a01b0316146110d65760405162461bcd60e51b815260206004820152601e60248201527f4c7a4170703a20696e76616c696420656e64706f696e742063616c6c6572000060448201526064015b60405180910390fd5b61ffff8616600090815260026020526040812080546110f490615b3e565b80601f016020809104026020016040519081016040528092919081815260200182805461112090615b3e565b801561116d5780601f106111425761010080835404028352916020019161116d565b820191906000526020600020905b81548152906001019060200180831161115057829003601f168201915b50505050509050805186869050148015611188575060008151115b80156111b05750805160208201206040516111a6908890889061566d565b6040518091039020145b61120b5760405162461bcd60e51b815260206004820152602660248201527f4c7a4170703a20696e76616c696420736f757263652073656e64696e6720636f6044820152651b9d1c9858dd60d21b60648201526084016110cd565b6112818787878080601f01602080910402602001604051908101604052809392919081815260200183838082843760009201919091525050604080516020601f8a018190048102820181019092528881528a935091508890889081908401838280828437600092019190915250612f7392505050565b50505050505050565b60006001600160e01b03198216631f7ecdf760e01b14806112bb57506301ffc9a760e01b6001600160e01b03198316145b92915050565b6060600d80546112d090615b3e565b80601f01602080910402602001604051908101604052809291908181526020018280546112fc90615b3e565b80156113495780601f1061131e57610100808354040283529160200191611349565b820191906000526020600020905b81548152906001019060200180831161132c57829003601f168201915b5050505050905090565b61135b612fec565b6001546040516307e0db1760e01b815261ffff831660048201526001600160a01b03909116906307e0db17906024015b600060405180830381600087803b1580156113a557600080fd5b505af11580156113b9573d6000803e3d6000fd5b5050505050565b6000336113ce818585613046565b5060019392505050565b6113e6620151806064615ac5565b81565b6113f1612fec565b6001546040516310ddb13760e01b815261ffff831660048201526001600160a01b03909116906310ddb1379060240161138b565b6114506040518060800160405280600081526020016000815260200160008152602001600081525090565b5033600090815260146020908152604091829020825160808101845281548152600182015492810192909252600281015492820192909252600390910154606082015290565b61149e612fec565b600880546001600160a01b0319166001600160a01b0392909216919091179055565b6000336114ce85828561316b565b6114d98585856131e5565b506001949350505050565b60008061152a8888888888888080601f01602080910402602001604051908101604052809392919081815260200183838082843760009201919091525061339092505050565b91509150965096945050505050565b6000336113ce81858561154c8383612bec565b6115569190615a99565b613046565b60095434101561156a57600080fd5b60003411801561157c57506000600954115b156115e5576008546009546040516000926001600160a01b031691908381818185875af1925050503d80600081146115d0576040519150601f19603f3d011682016040523d82523d6000602084013e6115d5565b606091505b50509050806115e357600080fd5b505b3360009081526014602090815260409182902082516080810184528154815260018201549281019290925260028101549282018390526003015460608201529061162e57600080fd5b600061164c8260400151836000015184602001518560600151613475565b60118054919250600061165e83615b27565b91905055508160400151601260008282546116799190615ae4565b92505081905550611699338284604001516116949190615a99565b6134d3565b6008546116b4906001600160a01b0316611694606484615ab1565b60408083015181519081526020810183905233917f92ccf450a286a957af52509bc1c9939d1a6a481783e142e41e2499f0bb66ebc6910160405180910390a25050336000908152601460205260408120818155600181018290556002810182905560030155565b61ffff83166000908152600260205260408120805482919061173c90615b3e565b80601f016020809104026020016040519081016040528092919081815260200182805461176890615b3e565b80156117b55780601f1061178a576101008083540402835291602001916117b5565b820191906000526020600020905b81548152906001019060200180831161179857829003601f168201915b5050505050905083836040516117cc92919061566d565b60405180910390208180519060200120149150509392505050565b6117ef612fec565b6001546040516342d65a8d60e01b81526001600160a01b03909116906342d65a8d90611823908690869086906004016157b5565b600060405180830381600087803b15801561183d57600080fd5b505af1158015611281573d6000803e3d6000fd5b6000834211156119645760006118678542615ae4565b9050600061187482613594565b9050600073__$6ad30996409d058139477db06ae39abaac$__636d5433e68a600f546118a09190615ae4565b6040516001600160e01b031960e084901b16815260048101919091526002602482015260440160206040518083038186803b1580156118de57600080fd5b505af41580156118f2573d6000803e3d6000fd5b505050506040513d601f19601f820116820180604052508101906119169190615551565b90506000611926866103e8615a99565b9050600061193683898c856128be565b905060646119448582615ae4565b61194e9083615ac5565b6119589190615ab1565b95505050505050611a27565b600073__$6ad30996409d058139477db06ae39abaac$__636d5433e688600f5461198e9190615ae4565b6040516001600160e01b031960e084901b16815260048101919091526002602482015260440160206040518083038186803b1580156119cc57600080fd5b505af41580156119e0573d6000803e3d6000fd5b505050506040513d601f19601f82011682018060405250810190611a049190615551565b90506000611a14846103e8615a99565b9050611a22828689846128be565b925050505b95945050505050565b6000611a3a613678565b905090565b600954341015611a4e57600080fd5b600034118015611a6057506000600954115b15611ac9576008546009546040516000926001600160a01b031691908381818185875af1925050503d8060008114611ab4576040519150601f19603f3d011682016040523d82523d6000602084013e611ab9565b606091505b5050905080611ac757600080fd5b505b33600090815260136020908152604091829020825160c08101845281546001600160a01b031681526001820154928101929092526002810154928201929092526003820154606082018190526004830154608083015260059092015460a082015290611b3457600080fd5b80604001514211611b4457600080fd5b6000611b6782606001518360200151846040015185608001518660a0015161378d565b611b7990670de0b6b3a7640000615ac5565b9050611b8533826134d3565b600854611ba0906001600160a01b0316611694606484615ab1565b611ba861389a565b60405181815233907fd74752b13281df13701575f3a507e9b1242e0b5fb040143211c481c1fce573a6906020015b60405180910390a25050565b600954341015611bf157600080fd5b600034118015611c0357506000600954115b15611c6c576008546009546040516000926001600160a01b031691908381818185875af1925050503d8060008114611c57576040519150601f19603f3d011682016040523d82523d6000602084013e611c5c565b606091505b5050905080611c6a57600080fd5b505b33600090815260136020908152604091829020825160c08101845281546001600160a01b03168152600182015492810192909252600281015492820192909252600382015460608201526004820154608082015260059091015460a082015260658310611cd857600080fd5b6000816060015111611ce957600080fd5b80604001514211611cf957600080fd5b6000611d1c82606001518360200151846040015185608001518660a0015161378d565b611d2e90670de0b6b3a7640000615ac5565b905060006064611d3e8684615ac5565b611d489190615ab1565b90506000611d568284615ae4565b9050611d6233826134d3565b600854611d7d906001600160a01b0316611694606486615ab1565b611d8561389a565b60405183815233907fd74752b13281df13701575f3a507e9b1242e0b5fb040143211c481c1fce573a69060200160405180910390a260008211611dc757600080fd5b6001611dd66201518082615ac5565b611de09190615ae4565b611ded6201518087615ac5565b11611df757600080fd5b611e06620151806102da615ac5565b611e11906001615a99565b611e1e6201518087615ac5565b10611e2857600080fd5b3360009081526014602052604090206002015415611e4557600080fd5b611e4f82866138ee565b604080518381526020810187905233917f1449c6dd7851abc30abf37f57715f492010519147cc2652fbc38202c18a6ee90910160405180910390a2505050505050565b333014611e9e57600080fd5b611f148686868080601f01602080910402602001604051908101604052809392919081815260200183838082843760009201919091525050604080516020601f89018190048102820181019092528781528993509150879087908190840183828082843760009201919091525061399192505050565b505050505050565b600954341015611f2b57600080fd5b600034118015611f3d57506000600954115b15611fa6576008546009546040516000926001600160a01b031691908381818185875af1925050503d8060008114611f91576040519150601f19603f3d011682016040523d82523d6000602084013e611f96565b606091505b5050905080611fa457600080fd5b505b600060095434611fb69190615ae4565b905061128186868686611fcc6020880188614e18565b611fdc6040890160208a01614e18565b611fe960408a018a6159fe565b8080601f0160208091040260200160405190810160405280939291908181526020018383808284376000920191909152508b92506139f2915050565b6120676040518060c0016040528060006001600160a01b0316815260200160008152602001600081526020016000815260200160008152602001600081525090565b5033600090815260136020908152604091829020825160c08101845281546001600160a01b03168152600182015492810192909252600281015492820192909252600382015460608201526004820154608082015260059091015460a082015290565b6120d2612fec565b6120dc6000613a9c565b565b600260205260009081526040902080546120f790615b3e565b80601f016020809104026020016040519081016040528092919081815260200182805461212390615b3e565b80156121705780601f1061214557610100808354040283529160200191612170565b820191906000526020600020905b81548152906001019060200180831161215357829003601f168201915b505050505081565b60095434101561218757600080fd5b60003411801561219957506000600954115b15612202576008546009546040516000926001600160a01b031691908381818185875af1925050503d80600081146121ed576040519150601f19603f3d011682016040523d82523d6000602084013e6121f2565b606091505b505090508061220057600080fd5b505b6000600954346122129190615ae4565b90506122ba8989898989898080601f0160208091040260200160405190810160405280939291908181526020018383808284376000920191909152508b925061226191505060208a018a614e18565b61227160408b0160208c01614e18565b61227e60408c018c6159fe565b8080601f0160208091040260200160405190810160405280939291908181526020018383808284376000920191909152508d9250613aec915050565b50505050505050505050565b6009543410156122d557600080fd5b6000341180156122e757506000600954115b15612350576008546009546040516000926001600160a01b031691908381818185875af1925050503d806000811461233b576040519150601f19603f3d011682016040523d82523d6000602084013e612340565b606091505b505090508061234e57600080fd5b505b336000908152600a602052604090205482111561236c57600080fd5b6000821161237957600080fd5b60016123886201518082615ac5565b6123929190615ae4565b61239f6201518083615ac5565b116123a957600080fd5b6123b8620151806102da615ac5565b6123c3906001615a99565b6123d06201518083615ac5565b106123da57600080fd5b33600090815260146020526040902060020154156123f757600080fd5b6124013383613baa565b61240b82826138ee565b604080518381526020810183905233917f1449c6dd7851abc30abf37f57715f492010519147cc2652fbc38202c18a6ee909101611bd6565b6000611a3a613cd6565b6000611a3a600c5490565b6060600e80546112d090615b3e565b6000611a3a613d1c565b6000611a3a613d89565b61ffff811660009081526002602052604081208054606092919061249e90615b3e565b80601f01602080910402602001604051908101604052809291908181526020018280546124ca90615b3e565b80156125175780601f106124ec57610100808354040283529160200191612517565b820191906000526020600020905b8154815290600101906020018083116124fa57829003601f168201915b505050505090508051600014156125705760405162461bcd60e51b815260206004820152601d60248201527f4c7a4170703a206e6f20747275737465642070617468207265636f726400000060448201526064016110cd565b61258b6000601483516125839190615ae4565b839190613e78565b9392505050565b60006125a16201518083615ac5565b905060016125b26201518082615ac5565b6125bc9190615ae4565b81116125c757600080fd5b6125cf613678565b6125da906001615a99565b81106125e557600080fd5b336000908152601360205260409020600301541561260257600080fd5b6040805160c0810182523381526020810184905260009181016126258442615a99565b8152602001600f54815260200161263a613d89565b8152602001612647613cd6565b9052336000908152601360209081526040808320845181546001600160a01b0319166001600160a01b039091161781559184015160018301558301516002820155606083015160038201556080830151600482015560a083015160059091015560108054929350906126b883615b73565b9091555050600f805433917fe9149e1b5059238baed02fa659dbf4bd932fbcf760a431330df4d934bc942f3791869160006126f283615b73565b909155506040805192835260208301919091520160405180910390a2505050565b600033816127218286612bec565b9050838110156127815760405162461bcd60e51b815260206004820152602560248201527f45524332303a2064656372656173656420616c6c6f77616e63652062656c6f77604482015264207a65726f60d81b60648201526084016110cd565b6114d98286868403613046565b60008061280b8b8b8b8b8b8080601f01602080910402602001604051908101604052809392919081815260200183838082843760009201919091525050604080516020601f8d018190048102820181019092528b81528e93508d9250908c908c9081908401838280828437600092019190915250613f8592505050565b91509150995099975050505050505050565b612825612fec565b81813060405160200161283a9392919061567d565b60408051601f1981840301815291815261ffff8516600090815260026020908152919020825161286f93919290910190614c74565b507f8c0400cfe2d1199b1a725c78960bcc2a344d869b80590d0f2bd005db15a572ce8383836040516128a3939291906157b5565b60405180910390a1505050565b6000336113ce8185856131e5565b6000806128d56128cd87614038565b600f0b614056565b905060006129116128e585614038565b6129086128f188614038565b6129086128fd8b614038565b600f88900b9061413a565b600f0b9061413a565b905061293761292f6129246103e8614038565b600f84900b90614171565b600f0b6141d7565b6001600160401b0316925050505b949350505050565b612955612fec565b600480546001600160a01b0319166001600160a01b0383169081179091556040519081527f5db758e995a17ec1ad84bdef7e8c3293a0bd6179bcce400dff5d4c3d87db726b906020015b60405180910390a150565b6113e6620151806102da615ac5565b6129c1612fec565b6001546040516332fb62e760e21b81526001600160a01b039091169063cbed8b9c906129f990889088908890889088906004016159d0565b600060405180830381600087803b158015612a1357600080fd5b505af1158015612a27573d6000803e3d6000fd5b505050505050505050565b61ffff86166000908152600560205260408082209051612a55908890889061566d565b90815260408051602092819003830190206001600160401b03871660009081529252902054905080612a8657600080fd5b808383604051612a9792919061566d565b604051809103902014612aa957600080fd5b61ffff87166000908152600560205260408082209051612acc908990899061566d565b90815260408051602092819003830181206001600160401b038916600090815290845282902093909355601f88018290048202830182019052868252612b64918991899089908190840183828082843760009201919091525050604080516020601f8a018190048102820181019092528881528a93509150889088908190840183828082843760009201919091525061399192505050565b7fc264d91f3adc5588250e1551f547752ca0cfa8f6b530d243b9f9f4cab10ea8e58787878785604051612b9b9594939291906157d3565b60405180910390a150505050505050565b612bb4612fec565b6001546001600160a01b031615612bca57600080fd5b600180546001600160a01b0319166001600160a01b0392909216919091179055565b6001600160a01b039182166000908152600b6020908152604080832093909416825291909152205490565b612c1f612fec565b60008111612c675760405162461bcd60e51b81526020600482015260156024820152744c7a4170703a20696e76616c6964206d696e47617360581b60448201526064016110cd565b61ffff83811660008181526003602090815260408083209487168084529482529182902085905581519283528201929092529081018290527f9d5c7c0b934da8fefa9c7760c98383778a12dfbfc0c3b3106518f43fb9508ac0906060016128a3565b612cd1612fec565b6006805460ff19168215159081179091556040519081527f1584ad594a70cbe1e6515592e1272a987d922b097ead875069cebe8b40c004a49060200161299f565b333014612d1e57600080fd5b612d293086866141f3565b9350846001600160a01b03168a61ffff167fbf551ec93859b170f9b2141bd9298bf3f64322c6f7beb2543a0cb669834118bf86604051612d6b91815260200190565b60405180910390a3604051633fe79aed60e11b81526001600160a01b03861690637fcf35da908390612daf908e908e908e908e908e908d908d908d9060040161580e565b600060405180830381600088803b158015612dc957600080fd5b5087f1158015612ddd573d6000803e3d6000fd5b505050505050505050505050505050565b612df6612fec565b61ffff83166000908152600260205260409020612e14908383614cf4565b507ffa41487ad5d6728f0b19276fa1eddc16558578f5109fc39d2dc33c3230470dab8383836040516128a3939291906157b5565b6001612e576201518082615ac5565b6113e69190615ae4565b612e69612fec565b6001600160a01b038116612ece5760405162461bcd60e51b815260206004820152602660248201527f4f776e61626c653a206e6577206f776e657220697320746865207a65726f206160448201526564647265737360d01b60648201526084016110cd565b612ed781613a9c565b50565b600154604051633d7b2f6f60e21b815261ffff808716600483015285166024820152306044820152606481018390526060916001600160a01b03169063f5ecbdbc9060840160006040518083038186803b158015612f3757600080fd5b505afa158015612f4b573d6000803e3d6000fd5b505050506040513d6000823e601f3d908101601f19168201604052611a279190810190615039565b600080612fd65a60966366ad5c8a60e01b89898989604051602401612f9b9493929190615935565b60408051601f198184030181529190526020810180516001600160e01b03166001600160e01b03199093169290921790915230929190614245565b9150915081611f1457611f1486868686856142dd565b6000546001600160a01b031633146120dc5760405162461bcd60e51b815260206004820181905260248201527f4f776e61626c653a2063616c6c6572206973206e6f7420746865206f776e657260448201526064016110cd565b6001600160a01b0383166130a85760405162461bcd60e51b8152602060048201526024808201527f45524332303a20617070726f76652066726f6d20746865207a65726f206164646044820152637265737360e01b60648201526084016110cd565b6001600160a01b0382166131095760405162461bcd60e51b815260206004820152602260248201527f45524332303a20617070726f766520746f20746865207a65726f206164647265604482015261737360f01b60648201526084016110cd565b6001600160a01b038381166000818152600b602090815260408083209487168084529482529182902085905590518481527f8c5be1e5ebec7d5bd14f71427d1e84f3dd0314c0f7b2291e5b200ac8c7c3b92591015b60405180910390a3505050565b60006131778484612bec565b905060001981146131df57818110156131d25760405162461bcd60e51b815260206004820152601d60248201527f45524332303a20696e73756666696369656e7420616c6c6f77616e636500000060448201526064016110cd565b6131df8484848403613046565b50505050565b6001600160a01b0383166132495760405162461bcd60e51b815260206004820152602560248201527f45524332303a207472616e736665722066726f6d20746865207a65726f206164604482015264647265737360d81b60648201526084016110cd565b6001600160a01b0382166132ab5760405162461bcd60e51b815260206004820152602360248201527f45524332303a207472616e7366657220746f20746865207a65726f206164647260448201526265737360e81b60648201526084016110cd565b6001600160a01b0383166000908152600a6020526040902054818110156133235760405162461bcd60e51b815260206004820152602660248201527f45524332303a207472616e7366657220616d6f756e7420657863656564732062604482015265616c616e636560d01b60648201526084016110cd565b6001600160a01b038085166000818152600a602052604080822086860390559286168082529083902080548601905591517fddf252ad1be2c89b69c2b068fc378daa952ba7f163c4a11628f55a4df523b3ef906133839086815260200190565b60405180910390a36131df565b60008060006133de876133a28861437a565b6040805160006020820152602181019390935260c09190911b6001600160c01b0319166041830152805160298184030181526049909201905290565b60015460405163040a7bb160e41b81529192506001600160a01b0316906340a7bb1090613417908b90309086908b908b90600401615761565b604080518083038186803b15801561342e57600080fd5b505afa158015613442573d6000803e3d6000fd5b505050506040513d601f19601f82011682018060405250810190613466919061558a565b92509250509550959350505050565b6000824211156134c857600061016d61348e8685615ac5565b61349b90620f4240615ac5565b6134a59190615ab1565b90506305f5e1006134b68288615ac5565b6134c09190615ab1565b915050612945565b506000949350505050565b6001600160a01b0382166135295760405162461bcd60e51b815260206004820152601f60248201527f45524332303a206d696e7420746f20746865207a65726f20616464726573730060448201526064016110cd565b80600c600082825461353b9190615a99565b90915550506001600160a01b0382166000818152600a60209081526040808320805486019055518481527fddf252ad1be2c89b69c2b068fc378daa952ba7f163c4a11628f55a4df523b3ef910160405180910390a35050565b6000806135a46201518084615ab1565b90506135b260016007615ae4565b8111156135c25750606392915050565b6000600160076135d3846003615a99565b6001901b6135e19190615ab1565b6135eb9190615ae4565b604051637ae2b5c760e01b8152600481018290526063602482015290915073__$6ad30996409d058139477db06ae39abaac$__90637ae2b5c79060440160206040518083038186803b15801561364057600080fd5b505af4158015613654573d6000803e3d6000fd5b505050506040513d601f19601f820116820180604052508101906129459190615551565b6000610260600f54111561377f5760006136a661292f613698600f614038565b6129086128cd600f54614038565b6001600160401b0316905060006136c06201518083615ac5565b6136ce620151806064615ac5565b6136d89190615a99565b905073__$6ad30996409d058139477db06ae39abaac$__637ae2b5c782613704620151806102da615ac5565b6040516001600160e01b031960e085901b1681526004810192909252602482015260440160206040518083038186803b15801561374057600080fd5b505af4158015613754573d6000803e3d6000fd5b505050506040513d601f19601f820116820180604052508101906137789190615551565b9250505090565b611a3a620151806064615ac5565b60008061379a8542615ae4565b905060006137a782613594565b9050600073__$6ad30996409d058139477db06ae39abaac$__636d5433e68a600f546137d39190615ae4565b6040516001600160e01b031960e084901b16815260048101919091526002602482015260440160206040518083038186803b15801561381157600080fd5b505af4158015613825573d6000803e3d6000fd5b505050506040513d601f19601f820116820180604052508101906138499190615551565b90506000613859866103e8615a99565b9050600061386983898c856128be565b905060646138778582615ae4565b6138819083615ac5565b61388b9190615ab1565b9b9a5050505050505050505050565b33600090815260136020526040812080546001600160a01b03191681556001810182905560028101829055600381018290556004810182905560050181905560108054916138e783615b27565b9190505550565b6040518060800160405280828152602001620151808361390e9190615ac5565b6139189042615a99565b815260200183815260200161392b613d1c565b9052336000908152601460209081526040808320845181559184015160018301558301516002820155606090920151600390920191909155601180549161397183615b73565b919050555081601260008282546139889190615a99565b90915550505050565b600061399d82826143bd565b905060ff81166139b8576139b385858585614419565b6113b9565b60ff8116600114156139d0576139b3858585856144a9565b60405162461bcd60e51b815260206004820152600060248201526044016110cd565b6000613a00888285816146b7565b613a09866146df565b509050613a188989898461471f565b905060008111613a2757600080fd5b6000613a36886133a28461437a565b9050613a46898288888888614751565b878a6001600160a01b03168a61ffff167fd81fc9b8523134ed613870ed029d6170cbb73aa6a6bc311b9a642689fb9df59a85604051613a8791815260200190565b60405180910390a45098975050505050505050565b600080546001600160a01b038381166001600160a01b0319831681178455604051919092169283917f8be0079c531659141344cd1fd0a4f28419497f9722a3daafe3b4186f6b6457e09190a35050565b6000613b048a6001856001600160401b038a166146b7565b613b0d886146df565b509050613b1c8b8b8b8461471f565b905060008111613b2b57600080fd5b6000613b42338b613b3b8561437a565b8b8b6148d0565b9050613b528b8288888888614751565b898c6001600160a01b03168c61ffff167fd81fc9b8523134ed613870ed029d6170cbb73aa6a6bc311b9a642689fb9df59a85604051613b9391815260200190565b60405180910390a4509a9950505050505050505050565b6001600160a01b038216613c0a5760405162461bcd60e51b815260206004820152602160248201527f45524332303a206275726e2066726f6d20746865207a65726f206164647265736044820152607360f81b60648201526084016110cd565b6001600160a01b0382166000908152600a602052604090205481811015613c7e5760405162461bcd60e51b815260206004820152602260248201527f45524332303a206275726e20616d6f756e7420657863656564732062616c616e604482015261636560f01b60648201526084016110cd565b6001600160a01b0383166000818152600a602090815260408083208686039055600c80548790039055518581529192917fddf252ad1be2c89b69c2b068fc378daa952ba7f163c4a11628f55a4df523b3ef910161315e565b600080620186a0600f546001613cec9190615ac5565b613cf69190615ab1565b90506103e8811115613d0a57600091505090565b613d16816103e8615ae4565b91505090565b600080613d2d601462015180615ac5565b613d577f000000000000000000000000000000000000000000000000000000000000000042615ae4565b613d619190615ab1565b905080613d7060006023615ae4565b1015613d7e57600091505090565b613d16816023615ae4565b60008062015180613dba7f000000000000000000000000000000000000000000000000000000000000000042615ae4565b613dc49190615ab1565b90506102da811015613e6c5773__$6ad30996409d058139477db06ae39abaac$__636d5433e6613df6836102da615ae4565b6040516001600160e01b031960e084901b16815260048101919091526001602482015260440160206040518083038186803b158015613e3457600080fd5b505af4158015613e48573d6000803e3d6000fd5b505050506040513d601f19601f82011682018060405250810190613d169190615551565b600191505090565b5090565b606081613e8681601f615a99565b1015613ec55760405162461bcd60e51b815260206004820152600e60248201526d736c6963655f6f766572666c6f7760901b60448201526064016110cd565b613ecf8284615a99565b84511015613f135760405162461bcd60e51b8152602060048201526011602482015270736c6963655f6f75744f66426f756e647360781b60448201526064016110cd565b606082158015613f325760405191506000825260208201604052613f7c565b6040519150601f8416801560200281840101858101878315602002848b0101015b81831015613f6b578051835260209283019201613f53565b5050858452601f01601f1916604052505b50949350505050565b6000806000613f9f338a613f988b61437a565b8a8a6148d0565b60015460405163040a7bb160e41b81529192506001600160a01b0316906340a7bb1090613fd8908d90309086908b908b90600401615761565b604080518083038186803b158015613fef57600080fd5b505afa158015614003573d6000803e3d6000fd5b505050506040513d601f19601f82011682018060405250810190614027919061558a565b925092505097509795505050505050565b6000677fffffffffffffff82111561404f57600080fd5b5060401b90565b60008082600f0b1361406757600080fd5b6000600f83900b680100000000000000008112614086576040918201911d5b640100000000811261409a576020918201911d5b6201000081126140ac576010918201911d5b61010081126140bd576008918201911d5b601081126140cd576004918201911d5b600481126140dd576002918201911d5b600281126140ec576001820191505b603f19820160401b600f85900b607f8490031b6780000000000000005b600081131561412f5790800260ff81901c8281029390930192607f011c9060011d614109565b509095945050505050565b6000600f83810b9083900b0260401d60016001607f1b03198112801590614168575060016001607f1b038113155b61258b57600080fd5b600081600f0b6000141561418457600080fd5b600082600f0b604085600f0b901b816141ad57634e487b7160e01b600052601260045260246000fd5b05905060016001607f1b03198112801590614168575060016001607f1b0381131561258b57600080fd5b60008082600f0b12156141e957600080fd5b50600f0b60401d90565b600033306001600160a01b038616148015906142215750806001600160a01b0316856001600160a01b031614155b156142315761423185828561316b565b61423c8585856131e5565b50909392505050565b6000606060008060008661ffff166001600160401b0381111561427857634e487b7160e01b600052604160045260246000fd5b6040519080825280601f01601f1916602001820160405280156142a2576020820181803683370190505b50905060008087516020890160008d8df191503d9250868311156142c4578692505b828152826000602083013e909890975095505050505050565b8180519060200120600560008761ffff1661ffff1681526020019081526020016000208560405161430e91906156a3565b9081526040805191829003602090810183206001600160401b0388166000908152915220919091557fe183f33de2837795525b4792ca4cd60535bd77c53b7e7030060bfcf5734d6b0c9061436b908790879087908790879061597e565b60405180910390a15050505050565b6000806143a77f000000000000000000000000000000000000000000000000000000000000000084615ab1565b90506001600160401b038111156112bb57600080fd5b60006143ca826001615a99565b835110156144105760405162461bcd60e51b8152602060048201526013602482015272746f55696e74385f6f75744f66426f756e647360681b60448201526064016110cd565b50016001015190565b60008061442583614911565b90925090506001600160a01b03821661443e5761dead91505b600061444982614958565b905061445687848361498d565b9050826001600160a01b03168761ffff167fbf551ec93859b170f9b2141bd9298bf3f64322c6f7beb2543a0cb669834118bf8360405161449891815260200190565b60405180910390a350505050505050565b60008060008060006144ba866149a0565b945094509450945094506000600760008b61ffff1661ffff168152602001908152602001600020896040516144ef91906156a3565b90815260408051602092819003830190206001600160401b038b166000908152925281205460ff16915061452285614958565b905081614590576145348b308361498d565b61ffff8c1660009081526007602052604090819020905191925060019161455c908d906156a3565b90815260408051602092819003830190206001600160401b038d16600090815292529020805460ff19169115159190911790555b6001600160a01b0386163b6145e7576040516001600160a01b03871681527f9aedf5fdba8716db3b6705ca00150643309995d4f818a249ed6dde6677e7792d9060200160405180910390a1505050505050506131df565b8a8a8a8a8a8a868a60008a614605578b6001600160401b0316614607565b5a5b90506000806146395a609663eaffd49a60e01b8e8e8e8d8d8d8d8d604051602401612f9b9897969594939291906158c1565b915091508115614692578751602089012060405161ffff8d16907fb8890edbfc1c74692f527444645f95489c3703cc2df42e4a366f5d06fa6cd88490614684908e908e908690615733565b60405180910390a25061469f565b61469f8b8b8b8b856142dd565b50505050505050505050505050505050505050505050565b60065460ff16156146d3576146ce84848484614a19565b6131df565b8151156131df57600080fd5b60008061470c7f000000000000000000000000000000000000000000000000000000000000000084615b8e565b90506147188184615ae4565b9150915091565b6000336001600160a01b038616811461473d5761473d86828561316b565b6147478684613baa565b5090949350505050565b61ffff86166000908152600260205260408120805461476f90615b3e565b80601f016020809104026020016040519081016040528092919081815260200182805461479b90615b3e565b80156147e85780601f106147bd576101008083540402835291602001916147e8565b820191906000526020600020905b8154815290600101906020018083116147cb57829003601f168201915b5050505050905080516000141561485a5760405162461bcd60e51b815260206004820152603060248201527f4c7a4170703a2064657374696e6174696f6e20636861696e206973206e6f742060448201526f61207472757374656420736f7572636560801b60648201526084016110cd565b60015460405162c5803160e81b81526001600160a01b039091169063c5803100908490614895908b9086908c908c908c908c9060040161585a565b6000604051808303818588803b1580156148ae57600080fd5b505af11580156148c2573d6000803e3d6000fd5b505050505050505050505050565b6060600185856001600160a01b03891685876040516020016148f7969594939291906156bf565b604051602081830303815290604052905095945050505050565b6000808061491f84826143bd565b60ff16148015614930575082516029145b61493957600080fd5b61494483600d614af8565b9150614951836021614b5d565b9050915091565b60006112bb7f00000000000000000000000000000000000000000000000000000000000000006001600160401b038416615ac5565b600061499983836134d3565b5092915050565b6000808060608160016149b387836143bd565b60ff16146149c057600080fd5b6149cb86600d614af8565b93506149d8866021614b5d565b92506149e5866029614bba565b94506149f2866049614b5d565b9050614a0e6051808851614a069190615ae4565b889190613e78565b915091939590929450565b6000614a2483614c18565b61ffff808716600090815260036020908152604080832093891683529290529081205491925090614a56908490615a99565b905060008111614aa85760405162461bcd60e51b815260206004820152601a60248201527f4c7a4170703a206d696e4761734c696d6974206e6f742073657400000000000060448201526064016110cd565b80821015611f145760405162461bcd60e51b815260206004820152601b60248201527f4c7a4170703a20676173206c696d697420697320746f6f206c6f77000000000060448201526064016110cd565b6000614b05826014615a99565b83511015614b4d5760405162461bcd60e51b8152602060048201526015602482015274746f416464726573735f6f75744f66426f756e647360581b60448201526064016110cd565b500160200151600160601b900490565b6000614b6a826008615a99565b83511015614bb15760405162461bcd60e51b8152602060048201526014602482015273746f55696e7436345f6f75744f66426f756e647360601b60448201526064016110cd565b50016008015190565b6000614bc7826020615a99565b83511015614c0f5760405162461bcd60e51b8152602060048201526015602482015274746f427974657333325f6f75744f66426f756e647360581b60448201526064016110cd565b50016020015190565b6000602282511015614c6c5760405162461bcd60e51b815260206004820152601c60248201527f4c7a4170703a20696e76616c69642061646170746572506172616d730000000060448201526064016110cd565b506022015190565b828054614c8090615b3e565b90600052602060002090601f016020900481019282614ca25760008555614ce8565b82601f10614cbb57805160ff1916838001178555614ce8565b82800160010185558215614ce8579182015b82811115614ce8578251825591602001919060010190614ccd565b50613e74929150614d68565b828054614d0090615b3e565b90600052602060002090601f016020900481019282614d225760008555614ce8565b82601f10614d3b5782800160ff19823516178555614ce8565b82800160010185558215614ce8579182015b82811115614ce8578235825591602001919060010190614d4d565b5b80821115613e745760008155600101614d69565b80358015158114614d8d57600080fd5b919050565b60008083601f840112614da3578182fd5b5081356001600160401b03811115614db9578182fd5b602083019150836020828501011115614dd157600080fd5b9250929050565b600060608284031215614de9578081fd5b50919050565b803561ffff81168114614d8d57600080fd5b80356001600160401b0381168114614d8d57600080fd5b600060208284031215614e29578081fd5b813561258b81615be4565b60008060408385031215614e46578081fd5b8235614e5181615be4565b91506020830135614e6181615be4565b809150509250929050565b600080600060608486031215614e80578081fd5b8335614e8b81615be4565b92506020840135614e9b81615be4565b929592945050506040919091013590565b60008060008060008060008060e0898b031215614ec7578384fd5b8835614ed281615be4565b9750614ee060208a01614def565b9650604089013595506060890135945060808901356001600160401b0380821115614f09578586fd5b614f158c838d01614d92565b9096509450849150614f2960a08c01614e01565b935060c08b0135915080821115614f3e578283fd5b50614f4b8b828c01614dd8565b9150509295985092959890939650565b600080600080600060a08688031215614f72578081fd5b8535614f7d81615be4565b9450614f8b60208701614def565b9350604086013592506060860135915060808601356001600160401b03811115614fb3578182fd5b614fbf88828901614dd8565b9150509295509295909350565b60008060408385031215614fde578182fd5b8235614fe981615be4565b946020939093013593505050565b600060208284031215615008578081fd5b61258b82614d7d565b600060208284031215615022578081fd5b81356001600160e01b03198116811461258b578182fd5b60006020828403121561504a578081fd5b81516001600160401b0381111561505f578182fd5b8201601f8101841361506f578182fd5b805161508261507d82615a72565b615a42565b818152856020838501011115615096578384fd5b611a27826020830160208601615afb565b6000602082840312156150b8578081fd5b61258b82614def565b60008060008060008060a087890312156150d9578384fd5b6150e287614def565b955060208701359450604087013593506150fe60608801614d7d565b925060808701356001600160401b03811115615118578283fd5b61512489828a01614d92565b979a9699509497509295939492505050565b600080600080600080600080600060e08a8c031215615153578283fd5b61515c8a614def565b985060208a0135975060408a0135965060608a01356001600160401b0380821115615185578485fd5b6151918d838e01614d92565b90985096508691506151a560808d01614e01565b95506151b360a08d01614d7d565b945060c08c01359150808211156151c8578283fd5b506151d58c828d01614d92565b915080935050809150509295985092959850929598565b600080600060408486031215615200578081fd5b61520984614def565b925060208401356001600160401b03811115615223578182fd5b61522f86828701614d92565b9497909650939450505050565b6000806000806000806000806000806101008b8d03121561525b578384fd5b6152648b614def565b995060208b01356001600160401b038082111561527f578586fd5b61528b8e838f01614d92565b909b50995089915061529f60408e01614e01565b985060608d0135975060808d013591506152b882615be4565b90955060a08c0135945060c08c013590808211156152d4578283fd5b506152e18d828e01614d92565b9150809450508092505060e08b013590509295989b9194979a5092959850565b60008060008060008060808789031215615319578384fd5b61532287614def565b955060208701356001600160401b038082111561533d578586fd5b6153498a838b01614d92565b909750955085915061535d60408a01614e01565b94506060890135915080821115615372578384fd5b5061512489828a01614d92565b600080600060608486031215615393578081fd5b61539c84614def565b925060208401356001600160401b038111156153b6578182fd5b8401601f810186136153c6578182fd5b80356153d461507d82615a72565b8181528760208385010111156153e8578384fd5b81602084016020830137908101602001839052925061540b905060408501614e01565b90509250925092565b60008060408385031215615426578182fd5b61542f83614def565b915061543d60208401614def565b90509250929050565b6000806000806080858703121561545b578182fd5b61546485614def565b935061547260208601614def565b9250604085013561548281615be4565b9396929550929360600135925050565b6000806000606084860312156154a6578081fd5b6154af84614def565b92506154bd60208501614def565b9150604084013590509250925092565b6000806000806000608086880312156154e4578283fd5b6154ed86614def565b94506154fb60208701614def565b93506040860135925060608601356001600160401b0381111561551c578182fd5b61552888828901614d92565b969995985093965092949392505050565b60006020828403121561554a578081fd5b5035919050565b600060208284031215615562578081fd5b5051919050565b6000806040838503121561557b578182fd5b50508035926020909101359150565b6000806040838503121561559c578182fd5b505080516020909101519092909150565b600080600080608085870312156155c2578182fd5b5050823594602084013594506040840135936060013592509050565b600080600080600060a086880312156155f5578283fd5b505083359560208501359550604085013594606081013594506080013592509050565b81835281816020850137506000828201602090810191909152601f909101601f19169091010190565b60008151808452615659816020860160208601615afb565b601f01601f19169290920160200192915050565b8183823760009101908152919050565b8284823760609190911b6bffffffffffffffffffffffff19169101908152601401919050565b600082516156b5818460208701615afb565b9190910192915050565b60ff60f81b8760f81b16815285600182015260006001600160401b0360c01b808760c01b166021840152856029840152808560c01b16604984015250825161570e816051850160208701615afb565b91909101605101979650505050505050565b60208152600061258b6020830184615641565b6060815260006157466060830186615641565b6001600160401b039490941660208301525060400152919050565b61ffff861681526001600160a01b038516602082015260a06040820181905260009061578f90830186615641565b841515606084015282810360808401526157a98185615641565b98975050505050505050565b61ffff84168152604060208201526000611a27604083018486615618565b61ffff861681526080602082015260006157f1608083018688615618565b6001600160401b0394909416604083015250606001529392505050565b61ffff8916815260c06020820152600061582c60c08301898b615618565b6001600160401b038816604084015286606084015285608084015282810360a084015261388b818587615618565b61ffff8716815260c06020820152600061587760c0830188615641565b82810360408401526158898188615641565b6001600160a01b0387811660608601528616608085015283810360a085015290506158b48185615641565b9998505050505050505050565b600061010061ffff8b1683528060208401526158df8184018b615641565b6001600160401b038a166040850152606084018990526001600160a01b038816608085015260a0840187905283810360c0850152905061591f8186615641565b9150508260e08301529998505050505050505050565b61ffff851681526080602082015260006159526080830186615641565b6001600160401b038516604084015282810360608401526159738185615641565b979650505050505050565b61ffff8616815260a06020820152600061599b60a0830187615641565b6001600160401b038616604084015282810360608401526159bc8186615641565b905082810360808401526157a98185615641565b600061ffff808816835280871660208401525084604083015260806060830152615973608083018486615618565b6000808335601e19843603018112615a14578283fd5b8301803591506001600160401b03821115615a2d578283fd5b602001915036819003821315614dd157600080fd5b604051601f8201601f191681016001600160401b0381118282101715615a6a57615a6a615bce565b604052919050565b60006001600160401b03821115615a8b57615a8b615bce565b50601f01601f191660200190565b60008219821115615aac57615aac615ba2565b500190565b600082615ac057615ac0615bb8565b500490565b6000816000190483118215151615615adf57615adf615ba2565b500290565b600082821015615af657615af6615ba2565b500390565b60005b83811015615b16578181015183820152602001615afe565b838111156131df5750506000910152565b600081615b3657615b36615ba2565b506000190190565b600181811c90821680615b5257607f821691505b60208210811415614de957634e487b7160e01b600052602260045260246000fd5b6000600019821415615b8757615b87615ba2565b5060010190565b600082615b9d57615b9d615bb8565b500690565b634e487b7160e01b600052601160045260246000fd5b634e487b7160e01b600052601260045260246000fd5b634e487b7160e01b600052604160045260246000fd5b6001600160a01b0381168114612ed757600080fdfea264697066735822122034eec08a341c604751f77104dc4f2a8e324244c36013df2e5d1c34967ee07c0e64736f6c63430008040033",
  "linkReferences": {
    "contracts/Math.sol": {
      "Math": [
        {
          "length": 20,
          "start": 7700
        },
        {
          "length": 20,
          "start": 7938
        },
        {
          "length": 20,
          "start": 15269
        },
        {
          "length": 20,
          "start": 15478
        },
        {
          "length": 20,
          "start": 15687
        },
        {
          "length": 20,
          "start": 17260
        }
      ]
    }
  },
  "deployedLinkReferences": {
    "contracts/Math.sol": {
      "Math": [
        {
          "length": 20,
          "start": 6266
        },
        {
          "length": 20,
          "start": 6504
        },
        {
          "length": 20,
          "start": 13835
        },
        {
          "length": 20,
          "start": 14044
        },
        {
          "length": 20,
          "start": 14253
        },
        {
          "length": 20,
          "start": 15826
        }
      ]
    }
  }
}