{
  "_format": "hh-sol-artifact-1",
  "contractName": "Main",
  "sourceName": "contracts/Main.sol",
  "abi": [
    {
      "inputs": [
        {
          "internalType": "uint256",
          "name": "_fee",
          "type": "uint256"
        },
        {
          "internalType": "address",
          "name": "_endpoint",
          "type": "address"
        },
        {
          "internalType": "string",
          "name": "_symbol",
          "type": "string"
        },
        {
          "internalType": "string",
          "name": "_name",
          "type": "string"
        },
        {
          "internalType": "uint256",
          "name": "_initialMint",
          "type": "uint256"
        }
      ],
      "stateMutability": "nonpayable",
      "type": "constructor"
    },
    {
      "anonymous": false,
      "inputs": [
        {
          "indexed": true,
          "internalType": "address",
          "name": "owner",
          "type": "address"
        },
        {
          "indexed": true,
          "internalType": "address",
          "name": "spender",
          "type": "address"
        },
        {
          "indexed": false,
          "internalType": "uint256",
          "name": "value",
          "type": "uint256"
        }
      ],
      "name": "Approval",
      "type": "event"
    },
    {
      "anonymous": false,
      "inputs": [
        {
          "indexed": true,
          "internalType": "uint16",
          "name": "_srcChainId",
          "type": "uint16"
        },
        {
          "indexed": false,
          "internalType": "bytes",
          "name": "_srcAddress",
          "type": "bytes"
        },
        {
          "indexed": false,
          "internalType": "uint64",
          "name": "_nonce",
          "type": "uint64"
        },
        {
          "indexed": false,
          "internalType": "bytes32",
          "name": "_hash",
          "type": "bytes32"
        }
      ],
      "name": "CallOFTReceivedSuccess",
      "type": "event"
    },
    {
      "anonymous": false,
      "inputs": [
        {
          "indexed": false,
          "internalType": "uint16",
          "name": "_srcChainId",
          "type": "uint16"
        },
        {
          "indexed": false,
          "internalType": "bytes",
          "name": "_srcAddress",
          "type": "bytes"
        },
        {
          "indexed": false,
          "internalType": "uint64",
          "name": "_nonce",
          "type": "uint64"
        },
        {
          "indexed": false,
          "internalType": "bytes",
          "name": "_payload",
          "type": "bytes"
        },
        {
          "indexed": false,
          "internalType": "bytes",
          "name": "_reason",
          "type": "bytes"
        }
      ],
      "name": "MessageFailed",
      "type": "event"
    },
    {
      "anonymous": false,
      "inputs": [
        {
          "indexed": true,
          "internalType": "address",
          "name": "user",
          "type": "address"
        },
        {
          "indexed": false,
          "internalType": "uint256",
          "name": "rewardAmount",
          "type": "uint256"
        }
      ],
      "name": "MintClaimed",
      "type": "event"
    },
    {
      "anonymous": false,
      "inputs": [
        {
          "indexed": false,
          "internalType": "address",
          "name": "_address",
          "type": "address"
        }
      ],
      "name": "NonContractAddress",
      "type": "event"
    },
    {
      "anonymous": false,
      "inputs": [
        {
          "indexed": true,
          "internalType": "address",
          "name": "previousOwner",
          "type": "address"
        },
        {
          "indexed": true,
          "internalType": "address",
          "name": "newOwner",
          "type": "address"
        }
      ],
      "name": "OwnershipTransferred",
      "type": "event"
    },
    {
      "anonymous": false,
      "inputs": [
        {
          "indexed": true,
          "internalType": "address",
          "name": "user",
          "type": "address"
        },
        {
          "indexed": false,
          "internalType": "uint256",
          "name": "term",
          "type": "uint256"
        },
        {
          "indexed": false,
          "internalType": "uint256",
          "name": "rank",
          "type": "uint256"
        },
        {
          "indexed": false,
          "internalType": "uint256",
          "name": "AMP",
          "type": "uint256"
        },
        {
          "indexed": false,
          "internalType": "uint256",
          "name": "EAA",
          "type": "uint256"
        },
        {
          "indexed": false,
          "internalType": "uint256",
          "name": "maturity",
          "type": "uint256"
        }
      ],
      "name": "RankClaimed",
      "type": "event"
    },
    {
      "anonymous": false,
      "inputs": [
        {
          "indexed": true,
          "internalType": "uint16",
          "name": "_srcChainId",
          "type": "uint16"
        },
        {
          "indexed": true,
          "internalType": "address",
          "name": "_to",
          "type": "address"
        },
        {
          "indexed": false,
          "internalType": "uint256",
          "name": "_amount",
          "type": "uint256"
        }
      ],
      "name": "ReceiveFromChain",
      "type": "event"
    },
    {
      "anonymous": false,
      "inputs": [
        {
          "indexed": true,
          "internalType": "address",
          "name": "user",
          "type": "address"
        },
        {
          "indexed": true,
          "internalType": "address",
          "name": "xenContract",
          "type": "address"
        },
        {
          "indexed": true,
          "internalType": "address",
          "name": "tokenContract",
          "type": "address"
        },
        {
          "indexed": false,
          "internalType": "uint256",
          "name": "xenAmount",
          "type": "uint256"
        },
        {
          "indexed": false,
          "internalType": "uint256",
          "name": "tokenAmount",
          "type": "uint256"
        }
      ],
      "name": "Redeemed",
      "type": "event"
    },
    {
      "anonymous": false,
      "inputs": [
        {
          "indexed": false,
          "internalType": "uint16",
          "name": "_srcChainId",
          "type": "uint16"
        },
        {
          "indexed": false,
          "internalType": "bytes",
          "name": "_srcAddress",
          "type": "bytes"
        },
        {
          "indexed": false,
          "internalType": "uint64",
          "name": "_nonce",
          "type": "uint64"
        },
        {
          "indexed": false,
          "internalType": "bytes32",
          "name": "_payloadHash",
          "type": "bytes32"
        }
      ],
      "name": "RetryMessageSuccess",
      "type": "event"
    },
    {
      "anonymous": false,
      "inputs": [
        {
          "indexed": true,
          "internalType": "uint16",
          "name": "_dstChainId",
          "type": "uint16"
        },
        {
          "indexed": true,
          "internalType": "address",
          "name": "_from",
          "type": "address"
        },
        {
          "indexed": true,
          "internalType": "bytes32",
          "name": "_toAddress",
          "type": "bytes32"
        },
        {
          "indexed": false,
          "internalType": "uint256",
          "name": "_amount",
          "type": "uint256"
        }
      ],
      "name": "SendToChain",
      "type": "event"
    },
    {
      "anonymous": false,
      "inputs": [
        {
          "indexed": false,
          "internalType": "uint16",
          "name": "_dstChainId",
          "type": "uint16"
        },
        {
          "indexed": false,
          "internalType": "uint16",
          "name": "_type",
          "type": "uint16"
        },
        {
          "indexed": false,
          "internalType": "uint256",
          "name": "_minDstGas",
          "type": "uint256"
        }
      ],
      "name": "SetMinDstGas",
      "type": "event"
    },
    {
      "anonymous": false,
      "inputs": [
        {
          "indexed": false,
          "internalType": "address",
          "name": "precrime",
          "type": "address"
        }
      ],
      "name": "SetPrecrime",
      "type": "event"
    },
    {
      "anonymous": false,
      "inputs": [
        {
          "indexed": false,
          "internalType": "uint16",
          "name": "_remoteChainId",
          "type": "uint16"
        },
        {
          "indexed": false,
          "internalType": "bytes",
          "name": "_path",
          "type": "bytes"
        }
      ],
      "name": "SetTrustedRemote",
      "type": "event"
    },
    {
      "anonymous": false,
      "inputs": [
        {
          "indexed": false,
          "internalType": "uint16",
          "name": "_remoteChainId",
          "type": "uint16"
        },
        {
          "indexed": false,
          "internalType": "bytes",
          "name": "_remoteAddress",
          "type": "bytes"
        }
      ],
      "name": "SetTrustedRemoteAddress",
      "type": "event"
    },
    {
      "anonymous": false,
      "inputs": [
        {
          "indexed": false,
          "internalType": "bool",
          "name": "_useCustomAdapterParams",
          "type": "bool"
        }
      ],
      "name": "SetUseCustomAdapterParams",
      "type": "event"
    },
    {
      "anonymous": false,
      "inputs": [
        {
          "indexed": true,
          "internalType": "address",
          "name": "user",
          "type": "address"
        },
        {
          "indexed": false,
          "internalType": "uint256",
          "name": "amount",
          "type": "uint256"
        },
        {
          "indexed": false,
          "internalType": "uint256",
          "name": "term",
          "type": "uint256"
        }
      ],
      "name": "Staked",
      "type": "event"
    },
    {
      "anonymous": false,
      "inputs": [
        {
          "indexed": true,
          "internalType": "address",
          "name": "from",
          "type": "address"
        },
        {
          "indexed": true,
          "internalType": "address",
          "name": "to",
          "type": "address"
        },
        {
          "indexed": false,
          "internalType": "uint256",
          "name": "value",
          "type": "uint256"
        }
      ],
      "name": "Transfer",
      "type": "event"
    },
    {
      "anonymous": false,
      "inputs": [
        {
          "indexed": true,
          "internalType": "address",
          "name": "user",
          "type": "address"
        },
        {
          "indexed": false,
          "internalType": "uint256",
          "name": "amount",
          "type": "uint256"
        },
        {
          "indexed": false,
          "internalType": "uint256",
          "name": "reward",
          "type": "uint256"
        }
      ],
      "name": "Withdrawn",
      "type": "event"
    },
    {
      "inputs": [],
      "name": "DAYS_IN_YEAR",
      "outputs": [
        {
          "internalType": "uint256",
          "name": "",
          "type": "uint256"
        }
      ],
      "stateMutability": "view",
      "type": "function"
    },
    {
      "inputs": [],
      "name": "EAA_PM_START",
      "outputs": [
        {
          "internalType": "uint256",
          "name": "",
          "type": "uint256"
        }
      ],
      "stateMutability": "view",
      "type": "function"
    },
    {
      "inputs": [],
      "name": "EAA_PM_STEP",
      "outputs": [
        {
          "internalType": "uint256",
          "name": "",
          "type": "uint256"
        }
      ],
      "stateMutability": "view",
      "type": "function"
    },
    {
      "inputs": [],
      "name": "EAA_RANK_STEP",
      "outputs": [
        {
          "internalType": "uint256",
          "name": "",
          "type": "uint256"
        }
      ],
      "stateMutability": "view",
      "type": "function"
    },
    {
      "inputs": [],
      "name": "GENESIS_RANK",
      "outputs": [
        {
          "internalType": "uint256",
          "name": "",
          "type": "uint256"
        }
      ],
      "stateMutability": "view",
      "type": "function"
    },
    {
      "inputs": [],
      "name": "MAX_PENALTY_PCT",
      "outputs": [
        {
          "internalType": "uint256",
          "name": "",
          "type": "uint256"
        }
      ],
      "stateMutability": "view",
      "type": "function"
    },
    {
      "inputs": [],
      "name": "MAX_TERM_END",
      "outputs": [
        {
          "internalType": "uint256",
          "name": "",
          "type": "uint256"
        }
      ],
      "stateMutability": "view",
      "type": "function"
    },
    {
      "inputs": [],
      "name": "MAX_TERM_START",
      "outputs": [
        {
          "internalType": "uint256",
          "name": "",
          "type": "uint256"
        }
      ],
      "stateMutability": "view",
      "type": "function"
    },
    {
      "inputs": [],
      "name": "MIN_TERM",
      "outputs": [
        {
          "internalType": "uint256",
          "name": "",
          "type": "uint256"
        }
      ],
      "stateMutability": "view",
      "type": "function"
    },
    {
      "inputs": [],
      "name": "NO_EXTRA_GAS",
      "outputs": [
        {
          "internalType": "uint256",
          "name": "",
          "type": "uint256"
        }
      ],
      "stateMutability": "view",
      "type": "function"
    },
    {
      "inputs": [],
      "name": "PT_SEND",
      "outputs": [
        {
          "internalType": "uint8",
          "name": "",
          "type": "uint8"
        }
      ],
      "stateMutability": "view",
      "type": "function"
    },
    {
      "inputs": [],
      "name": "PT_SEND_AND_CALL",
      "outputs": [
        {
          "internalType": "uint8",
          "name": "",
          "type": "uint8"
        }
      ],
      "stateMutability": "view",
      "type": "function"
    },
    {
      "inputs": [],
      "name": "REWARD_AMPLIFIER_END",
      "outputs": [
        {
          "internalType": "uint256",
          "name": "",
          "type": "uint256"
        }
      ],
      "stateMutability": "view",
      "type": "function"
    },
    {
      "inputs": [],
      "name": "REWARD_AMPLIFIER_START",
      "outputs": [
        {
          "internalType": "uint256",
          "name": "",
          "type": "uint256"
        }
      ],
      "stateMutability": "view",
      "type": "function"
    },
    {
      "inputs": [],
      "name": "SECONDS_IN_DAY",
      "outputs": [
        {
          "internalType": "uint256",
          "name": "",
          "type": "uint256"
        }
      ],
      "stateMutability": "view",
      "type": "function"
    },
    {
      "inputs": [],
      "name": "TERM_AMPLIFIER",
      "outputs": [
        {
          "internalType": "uint256",
          "name": "",
          "type": "uint256"
        }
      ],
      "stateMutability": "view",
      "type": "function"
    },
    {
      "inputs": [],
      "name": "TERM_AMPLIFIER_THRESHOLD",
      "outputs": [
        {
          "internalType": "uint256",
          "name": "",
          "type": "uint256"
        }
      ],
      "stateMutability": "view",
      "type": "function"
    },
    {
      "inputs": [],
      "name": "WITHDRAWAL_WINDOW_DAYS",
      "outputs": [
        {
          "internalType": "uint256",
          "name": "",
          "type": "uint256"
        }
      ],
      "stateMutability": "view",
      "type": "function"
    },
    {
      "inputs": [],
      "name": "XEX_APY_DAYS_STEP",
      "outputs": [
        {
          "internalType": "uint256",
          "name": "",
          "type": "uint256"
        }
      ],
      "stateMutability": "view",
      "type": "function"
    },
    {
      "inputs": [],
      "name": "XEX_APY_END",
      "outputs": [
        {
          "internalType": "uint256",
          "name": "",
          "type": "uint256"
        }
      ],
      "stateMutability": "view",
      "type": "function"
    },
    {
      "inputs": [],
      "name": "XEX_APY_START",
      "outputs": [
        {
          "internalType": "uint256",
          "name": "",
          "type": "uint256"
        }
      ],
      "stateMutability": "view",
      "type": "function"
    },
    {
      "inputs": [],
      "name": "XEX_MIN_BURN",
      "outputs": [
        {
          "internalType": "uint256",
          "name": "",
          "type": "uint256"
        }
      ],
      "stateMutability": "view",
      "type": "function"
    },
    {
      "inputs": [],
      "name": "XEX_MIN_STAKE",
      "outputs": [
        {
          "internalType": "uint256",
          "name": "",
          "type": "uint256"
        }
      ],
      "stateMutability": "view",
      "type": "function"
    },
    {
      "inputs": [],
      "name": "activeMinters",
      "outputs": [
        {
          "internalType": "uint256",
          "name": "",
          "type": "uint256"
        }
      ],
      "stateMutability": "view",
      "type": "function"
    },
    {
      "inputs": [],
      "name": "activeStakes",
      "outputs": [
        {
          "internalType": "uint256",
          "name": "",
          "type": "uint256"
        }
      ],
      "stateMutability": "view",
      "type": "function"
    },
    {
      "inputs": [
        {
          "internalType": "address",
          "name": "owner",
          "type": "address"
        },
        {
          "internalType": "address",
          "name": "spender",
          "type": "address"
        }
      ],
      "name": "allowance",
      "outputs": [
        {
          "internalType": "uint256",
          "name": "",
          "type": "uint256"
        }
      ],
      "stateMutability": "view",
      "type": "function"
    },
    {
      "inputs": [
        {
          "internalType": "address",
          "name": "spender",
          "type": "address"
        },
        {
          "internalType": "uint256",
          "name": "amount",
          "type": "uint256"
        }
      ],
      "name": "approve",
      "outputs": [
        {
          "internalType": "bool",
          "name": "",
          "type": "bool"
        }
      ],
      "stateMutability": "nonpayable",
      "type": "function"
    },
    {
      "inputs": [
        {
          "internalType": "address",
          "name": "account",
          "type": "address"
        }
      ],
      "name": "balanceOf",
      "outputs": [
        {
          "internalType": "uint256",
          "name": "",
          "type": "uint256"
        }
      ],
      "stateMutability": "view",
      "type": "function"
    },
    {
      "inputs": [
        {
          "internalType": "uint16",
          "name": "_srcChainId",
          "type": "uint16"
        },
        {
          "internalType": "bytes",
          "name": "_srcAddress",
          "type": "bytes"
        },
        {
          "internalType": "uint64",
          "name": "_nonce",
          "type": "uint64"
        },
        {
          "internalType": "bytes32",
          "name": "_from",
          "type": "bytes32"
        },
        {
          "internalType": "address",
          "name": "_to",
          "type": "address"
        },
        {
          "internalType": "uint256",
          "name": "_amount",
          "type": "uint256"
        },
        {
          "internalType": "bytes",
          "name": "_payload",
          "type": "bytes"
        },
        {
          "internalType": "uint256",
          "name": "_gasForCall",
          "type": "uint256"
        }
      ],
      "name": "callOnOFTReceived",
      "outputs": [],
      "stateMutability": "nonpayable",
      "type": "function"
    },
    {
      "inputs": [],
      "name": "circulatingSupply",
      "outputs": [
        {
          "internalType": "uint256",
          "name": "",
          "type": "uint256"
        }
      ],
      "stateMutability": "view",
      "type": "function"
    },
    {
      "inputs": [],
      "name": "claimMintReward",
      "outputs": [],
      "stateMutability": "payable",
      "type": "function"
    },
    {
      "inputs": [
        {
          "internalType": "uint256",
          "name": "pct",
          "type": "uint256"
        },
        {
          "internalType": "uint256",
          "name": "term",
          "type": "uint256"
        }
      ],
      "name": "claimMintRewardAndStake",
      "outputs": [],
      "stateMutability": "payable",
      "type": "function"
    },
    {
      "inputs": [
        {
          "internalType": "uint256",
          "name": "term",
          "type": "uint256"
        }
      ],
      "name": "claimRank",
      "outputs": [],
      "stateMutability": "nonpayable",
      "type": "function"
    },
    {
      "inputs": [
        {
          "internalType": "uint16",
          "name": "",
          "type": "uint16"
        },
        {
          "internalType": "bytes",
          "name": "",
          "type": "bytes"
        },
        {
          "internalType": "uint64",
          "name": "",
          "type": "uint64"
        }
      ],
      "name": "creditedPackets",
      "outputs": [
        {
          "internalType": "bool",
          "name": "",
          "type": "bool"
        }
      ],
      "stateMutability": "view",
      "type": "function"
    },
    {
      "inputs": [],
      "name": "decimals",
      "outputs": [
        {
          "internalType": "uint8",
          "name": "",
          "type": "uint8"
        }
      ],
      "stateMutability": "view",
      "type": "function"
    },
    {
      "inputs": [
        {
          "internalType": "address",
          "name": "spender",
          "type": "address"
        },
        {
          "internalType": "uint256",
          "name": "subtractedValue",
          "type": "uint256"
        }
      ],
      "name": "decreaseAllowance",
      "outputs": [
        {
          "internalType": "bool",
          "name": "",
          "type": "bool"
        }
      ],
      "stateMutability": "nonpayable",
      "type": "function"
    },
    {
      "inputs": [
        {
          "internalType": "uint16",
          "name": "_dstChainId",
          "type": "uint16"
        },
        {
          "internalType": "bytes32",
          "name": "_toAddress",
          "type": "bytes32"
        },
        {
          "internalType": "uint256",
          "name": "_amount",
          "type": "uint256"
        },
        {
          "internalType": "bytes",
          "name": "_payload",
          "type": "bytes"
        },
        {
          "internalType": "uint64",
          "name": "_dstGasForCall",
          "type": "uint64"
        },
        {
          "internalType": "bool",
          "name": "_useZro",
          "type": "bool"
        },
        {
          "internalType": "bytes",
          "name": "_adapterParams",
          "type": "bytes"
        }
      ],
      "name": "estimateSendAndCallFee",
      "outputs": [
        {
          "internalType": "uint256",
          "name": "nativeFee",
          "type": "uint256"
        },
        {
          "internalType": "uint256",
          "name": "zroFee",
          "type": "uint256"
        }
      ],
      "stateMutability": "view",
      "type": "function"
    },
    {
      "inputs": [
        {
          "internalType": "uint16",
          "name": "_dstChainId",
          "type": "uint16"
        },
        {
          "internalType": "bytes32",
          "name": "_toAddress",
          "type": "bytes32"
        },
        {
          "internalType": "uint256",
          "name": "_amount",
          "type": "uint256"
        },
        {
          "internalType": "bool",
          "name": "_useZro",
          "type": "bool"
        },
        {
          "internalType": "bytes",
          "name": "_adapterParams",
          "type": "bytes"
        }
      ],
      "name": "estimateSendFee",
      "outputs": [
        {
          "internalType": "uint256",
          "name": "nativeFee",
          "type": "uint256"
        },
        {
          "internalType": "uint256",
          "name": "zroFee",
          "type": "uint256"
        }
      ],
      "stateMutability": "view",
      "type": "function"
    },
    {
      "inputs": [
        {
          "internalType": "uint16",
          "name": "",
          "type": "uint16"
        },
        {
          "internalType": "bytes",
          "name": "",
          "type": "bytes"
        },
        {
          "internalType": "uint64",
          "name": "",
          "type": "uint64"
        }
      ],
      "name": "failedMessages",
      "outputs": [
        {
          "internalType": "bytes32",
          "name": "",
          "type": "bytes32"
        }
      ],
      "stateMutability": "view",
      "type": "function"
    },
    {
      "inputs": [],
      "name": "fee",
      "outputs": [
        {
          "internalType": "uint256",
          "name": "",
          "type": "uint256"
        }
      ],
      "stateMutability": "view",
      "type": "function"
    },
    {
      "inputs": [
        {
          "internalType": "uint16",
          "name": "_srcChainId",
          "type": "uint16"
        },
        {
          "internalType": "bytes",
          "name": "_srcAddress",
          "type": "bytes"
        }
      ],
      "name": "forceResumeReceive",
      "outputs": [],
      "stateMutability": "nonpayable",
      "type": "function"
    },
    {
      "inputs": [],
      "name": "genesisTs",
      "outputs": [
        {
          "internalType": "uint256",
          "name": "",
          "type": "uint256"
        }
      ],
      "stateMutability": "view",
      "type": "function"
    },
    {
      "inputs": [
        {
          "internalType": "uint16",
          "name": "_version",
          "type": "uint16"
        },
        {
          "internalType": "uint16",
          "name": "_chainId",
          "type": "uint16"
        },
        {
          "internalType": "address",
          "name": "",
          "type": "address"
        },
        {
          "internalType": "uint256",
          "name": "_configType",
          "type": "uint256"
        }
      ],
      "name": "getConfig",
      "outputs": [
        {
          "internalType": "bytes",
          "name": "",
          "type": "bytes"
        }
      ],
      "stateMutability": "view",
      "type": "function"
    },
    {
      "inputs": [],
      "name": "getCurrentAMP",
      "outputs": [
        {
          "internalType": "uint256",
          "name": "",
          "type": "uint256"
        }
      ],
      "stateMutability": "view",
      "type": "function"
    },
    {
      "inputs": [],
      "name": "getCurrentAPY",
      "outputs": [
        {
          "internalType": "uint256",
          "name": "",
          "type": "uint256"
        }
      ],
      "stateMutability": "view",
      "type": "function"
    },
    {
      "inputs": [],
      "name": "getCurrentEAAR",
      "outputs": [
        {
          "internalType": "uint256",
          "name": "",
          "type": "uint256"
        }
      ],
      "stateMutability": "view",
      "type": "function"
    },
    {
      "inputs": [],
      "name": "getCurrentMaxTerm",
      "outputs": [
        {
          "internalType": "uint256",
          "name": "",
          "type": "uint256"
        }
      ],
      "stateMutability": "view",
      "type": "function"
    },
    {
      "inputs": [
        {
          "internalType": "uint256",
          "name": "rankDelta",
          "type": "uint256"
        },
        {
          "internalType": "uint256",
          "name": "amplifier",
          "type": "uint256"
        },
        {
          "internalType": "uint256",
          "name": "term",
          "type": "uint256"
        },
        {
          "internalType": "uint256",
          "name": "eaa",
          "type": "uint256"
        }
      ],
      "name": "getGrossReward",
      "outputs": [
        {
          "internalType": "uint256",
          "name": "",
          "type": "uint256"
        }
      ],
      "stateMutability": "pure",
      "type": "function"
    },
    {
      "inputs": [
        {
          "internalType": "uint256",
          "name": "cRank",
          "type": "uint256"
        },
        {
          "internalType": "uint256",
          "name": "term",
          "type": "uint256"
        },
        {
          "internalType": "uint256",
          "name": "maturityTs",
          "type": "uint256"
        },
        {
          "internalType": "uint256",
          "name": "amplifier",
          "type": "uint256"
        },
        {
          "internalType": "uint256",
          "name": "eeaRate",
          "type": "uint256"
        }
      ],
      "name": "getMintReward",
      "outputs": [
        {
          "internalType": "uint256",
          "name": "",
          "type": "uint256"
        }
      ],
      "stateMutability": "view",
      "type": "function"
    },
    {
      "inputs": [
        {
          "internalType": "uint16",
          "name": "_remoteChainId",
          "type": "uint16"
        }
      ],
      "name": "getTrustedRemoteAddress",
      "outputs": [
        {
          "internalType": "bytes",
          "name": "",
          "type": "bytes"
        }
      ],
      "stateMutability": "view",
      "type": "function"
    },
    {
      "inputs": [],
      "name": "getUserMint",
      "outputs": [
        {
          "components": [
            {
              "internalType": "address",
              "name": "user",
              "type": "address"
            },
            {
              "internalType": "uint256",
              "name": "term",
              "type": "uint256"
            },
            {
              "internalType": "uint256",
              "name": "maturityTs",
              "type": "uint256"
            },
            {
              "internalType": "uint256",
              "name": "rank",
              "type": "uint256"
            },
            {
              "internalType": "uint256",
              "name": "amplifier",
              "type": "uint256"
            },
            {
              "internalType": "uint256",
              "name": "eaaRate",
              "type": "uint256"
            }
          ],
          "internalType": "struct Main.MintInfo",
          "name": "",
          "type": "tuple"
        }
      ],
      "stateMutability": "view",
      "type": "function"
    },
    {
      "inputs": [],
      "name": "getUserStake",
      "outputs": [
        {
          "components": [
            {
              "internalType": "uint256",
              "name": "term",
              "type": "uint256"
            },
            {
              "internalType": "uint256",
              "name": "maturityTs",
              "type": "uint256"
            },
            {
              "internalType": "uint256",
              "name": "amount",
              "type": "uint256"
            },
            {
              "internalType": "uint256",
              "name": "apy",
              "type": "uint256"
            }
          ],
          "internalType": "struct Main.StakeInfo",
          "name": "",
          "type": "tuple"
        }
      ],
      "stateMutability": "view",
      "type": "function"
    },
    {
      "inputs": [],
      "name": "globalRank",
      "outputs": [
        {
          "internalType": "uint256",
          "name": "",
          "type": "uint256"
        }
      ],
      "stateMutability": "view",
      "type": "function"
    },
    {
      "inputs": [
        {
          "internalType": "address",
          "name": "spender",
          "type": "address"
        },
        {
          "internalType": "uint256",
          "name": "addedValue",
          "type": "uint256"
        }
      ],
      "name": "increaseAllowance",
      "outputs": [
        {
          "internalType": "bool",
          "name": "",
          "type": "bool"
        }
      ],
      "stateMutability": "nonpayable",
      "type": "function"
    },
    {
      "inputs": [
        {
          "internalType": "uint16",
          "name": "_srcChainId",
          "type": "uint16"
        },
        {
          "internalType": "bytes",
          "name": "_srcAddress",
          "type": "bytes"
        }
      ],
      "name": "isTrustedRemote",
      "outputs": [
        {
          "internalType": "bool",
          "name": "",
          "type": "bool"
        }
      ],
      "stateMutability": "view",
      "type": "function"
    },
    {
      "inputs": [],
      "name": "lzEndpoint",
      "outputs": [
        {
          "internalType": "contract ILayerZeroEndpoint",
          "name": "",
          "type": "address"
        }
      ],
      "stateMutability": "view",
      "type": "function"
    },
    {
      "inputs": [
        {
          "internalType": "uint16",
          "name": "_srcChainId",
          "type": "uint16"
        },
        {
          "internalType": "bytes",
          "name": "_srcAddress",
          "type": "bytes"
        },
        {
          "internalType": "uint64",
          "name": "_nonce",
          "type": "uint64"
        },
        {
          "internalType": "bytes",
          "name": "_payload",
          "type": "bytes"
        }
      ],
      "name": "lzReceive",
      "outputs": [],
      "stateMutability": "nonpayable",
      "type": "function"
    },
    {
      "inputs": [
        {
          "internalType": "uint16",
          "name": "",
          "type": "uint16"
        },
        {
          "internalType": "uint16",
          "name": "",
          "type": "uint16"
        }
      ],
      "name": "minDstGasLookup",
      "outputs": [
        {
          "internalType": "uint256",
          "name": "",
          "type": "uint256"
        }
      ],
      "stateMutability": "view",
      "type": "function"
    },
    {
      "inputs": [],
      "name": "name",
      "outputs": [
        {
          "internalType": "string",
          "name": "",
          "type": "string"
        }
      ],
      "stateMutability": "view",
      "type": "function"
    },
    {
      "inputs": [
        {
          "internalType": "uint16",
          "name": "_srcChainId",
          "type": "uint16"
        },
        {
          "internalType": "bytes",
          "name": "_srcAddress",
          "type": "bytes"
        },
        {
          "internalType": "uint64",
          "name": "_nonce",
          "type": "uint64"
        },
        {
          "internalType": "bytes",
          "name": "_payload",
          "type": "bytes"
        }
      ],
      "name": "nonblockingLzReceive",
      "outputs": [],
      "stateMutability": "nonpayable",
      "type": "function"
    },
    {
      "inputs": [],
      "name": "owner",
      "outputs": [
        {
          "internalType": "address",
          "name": "",
          "type": "address"
        }
      ],
      "stateMutability": "view",
      "type": "function"
    },
    {
      "inputs": [],
      "name": "precrime",
      "outputs": [
        {
          "internalType": "address",
          "name": "",
          "type": "address"
        }
      ],
      "stateMutability": "view",
      "type": "function"
    },
    {
      "inputs": [],
      "name": "renounceOwnership",
      "outputs": [],
      "stateMutability": "nonpayable",
      "type": "function"
    },
    {
      "inputs": [
        {
          "internalType": "uint16",
          "name": "_srcChainId",
          "type": "uint16"
        },
        {
          "internalType": "bytes",
          "name": "_srcAddress",
          "type": "bytes"
        },
        {
          "internalType": "uint64",
          "name": "_nonce",
          "type": "uint64"
        },
        {
          "internalType": "bytes",
          "name": "_payload",
          "type": "bytes"
        }
      ],
      "name": "retryMessage",
      "outputs": [],
      "stateMutability": "payable",
      "type": "function"
    },
    {
      "inputs": [
        {
          "internalType": "address",
          "name": "_from",
          "type": "address"
        },
        {
          "internalType": "uint16",
          "name": "_dstChainId",
          "type": "uint16"
        },
        {
          "internalType": "bytes32",
          "name": "_toAddress",
          "type": "bytes32"
        },
        {
          "internalType": "uint256",
          "name": "_amount",
          "type": "uint256"
        },
        {
          "internalType": "bytes",
          "name": "_payload",
          "type": "bytes"
        },
        {
          "internalType": "uint64",
          "name": "_dstGasForCall",
          "type": "uint64"
        },
        {
          "components": [
            {
              "internalType": "address payable",
              "name": "refundAddress",
              "type": "address"
            },
            {
              "internalType": "address",
              "name": "zroPaymentAddress",
              "type": "address"
            },
            {
              "internalType": "bytes",
              "name": "adapterParams",
              "type": "bytes"
            }
          ],
          "internalType": "struct ICommonOFT.LzCallParams",
          "name": "_callParams",
          "type": "tuple"
        }
      ],
      "name": "sendAndCall",
      "outputs": [],
      "stateMutability": "payable",
      "type": "function"
    },
    {
      "inputs": [
        {
          "internalType": "address",
          "name": "_from",
          "type": "address"
        },
        {
          "internalType": "uint16",
          "name": "_dstChainId",
          "type": "uint16"
        },
        {
          "internalType": "bytes32",
          "name": "_toAddress",
          "type": "bytes32"
        },
        {
          "internalType": "uint256",
          "name": "_amount",
          "type": "uint256"
        },
        {
          "components": [
            {
              "internalType": "address payable",
              "name": "refundAddress",
              "type": "address"
            },
            {
              "internalType": "address",
              "name": "zroPaymentAddress",
              "type": "address"
            },
            {
              "internalType": "bytes",
              "name": "adapterParams",
              "type": "bytes"
            }
          ],
          "internalType": "struct ICommonOFT.LzCallParams",
          "name": "_callParams",
          "type": "tuple"
        }
      ],
      "name": "sendFrom",
      "outputs": [],
      "stateMutability": "payable",
      "type": "function"
    },
    {
      "inputs": [
        {
          "internalType": "uint16",
          "name": "_version",
          "type": "uint16"
        },
        {
          "internalType": "uint16",
          "name": "_chainId",
          "type": "uint16"
        },
        {
          "internalType": "uint256",
          "name": "_configType",
          "type": "uint256"
        },
        {
          "internalType": "bytes",
          "name": "_config",
          "type": "bytes"
        }
      ],
      "name": "setConfig",
      "outputs": [],
      "stateMutability": "nonpayable",
      "type": "function"
    },
    {
      "inputs": [
        {
          "internalType": "address",
          "name": "_endpoint",
          "type": "address"
        }
      ],
      "name": "setEndpoint",
      "outputs": [],
      "stateMutability": "nonpayable",
      "type": "function"
    },
    {
      "inputs": [
        {
          "internalType": "uint16",
          "name": "_dstChainId",
          "type": "uint16"
        },
        {
          "internalType": "uint16",
          "name": "_packetType",
          "type": "uint16"
        },
        {
          "internalType": "uint256",
          "name": "_minGas",
          "type": "uint256"
        }
      ],
      "name": "setMinDstGas",
      "outputs": [],
      "stateMutability": "nonpayable",
      "type": "function"
    },
    {
      "inputs": [
        {
          "internalType": "address",
          "name": "_precrime",
          "type": "address"
        }
      ],
      "name": "setPrecrime",
      "outputs": [],
      "stateMutability": "nonpayable",
      "type": "function"
    },
    {
      "inputs": [
        {
          "internalType": "uint16",
          "name": "_version",
          "type": "uint16"
        }
      ],
      "name": "setReceiveVersion",
      "outputs": [],
      "stateMutability": "nonpayable",
      "type": "function"
    },
    {
      "inputs": [
        {
          "internalType": "uint16",
          "name": "_version",
          "type": "uint16"
        }
      ],
      "name": "setSendVersion",
      "outputs": [],
      "stateMutability": "nonpayable",
      "type": "function"
    },
    {
      "inputs": [
        {
          "internalType": "address",
          "name": "_treasure",
          "type": "address"
        }
      ],
      "name": "setTreasure",
      "outputs": [],
      "stateMutability": "nonpayable",
      "type": "function"
    },
    {
      "inputs": [
        {
          "internalType": "uint16",
          "name": "_srcChainId",
          "type": "uint16"
        },
        {
          "internalType": "bytes",
          "name": "_path",
          "type": "bytes"
        }
      ],
      "name": "setTrustedRemote",
      "outputs": [],
      "stateMutability": "nonpayable",
      "type": "function"
    },
    {
      "inputs": [
        {
          "internalType": "uint16",
          "name": "_remoteChainId",
          "type": "uint16"
        },
        {
          "internalType": "bytes",
          "name": "_remoteAddress",
          "type": "bytes"
        }
      ],
      "name": "setTrustedRemoteAddress",
      "outputs": [],
      "stateMutability": "nonpayable",
      "type": "function"
    },
    {
      "inputs": [
        {
          "internalType": "bool",
          "name": "_useCustomAdapterParams",
          "type": "bool"
        }
      ],
      "name": "setUseCustomAdapterParams",
      "outputs": [],
      "stateMutability": "nonpayable",
      "type": "function"
    },
    {
      "inputs": [],
      "name": "sharedDecimals",
      "outputs": [
        {
          "internalType": "uint8",
          "name": "",
          "type": "uint8"
        }
      ],
      "stateMutability": "view",
      "type": "function"
    },
    {
      "inputs": [
        {
          "internalType": "uint256",
          "name": "amount",
          "type": "uint256"
        },
        {
          "internalType": "uint256",
          "name": "term",
          "type": "uint256"
        }
      ],
      "name": "stake",
      "outputs": [],
      "stateMutability": "payable",
      "type": "function"
    },
    {
      "inputs": [
        {
          "internalType": "bytes4",
          "name": "interfaceId",
          "type": "bytes4"
        }
      ],
      "name": "supportsInterface",
      "outputs": [
        {
          "internalType": "bool",
          "name": "",
          "type": "bool"
        }
      ],
      "stateMutability": "view",
      "type": "function"
    },
    {
      "inputs": [],
      "name": "symbol",
      "outputs": [
        {
          "internalType": "string",
          "name": "",
          "type": "string"
        }
      ],
      "stateMutability": "view",
      "type": "function"
    },
    {
      "inputs": [],
      "name": "token",
      "outputs": [
        {
          "internalType": "address",
          "name": "",
          "type": "address"
        }
      ],
      "stateMutability": "view",
      "type": "function"
    },
    {
      "inputs": [],
      "name": "totalSupply",
      "outputs": [
        {
          "internalType": "uint256",
          "name": "",
          "type": "uint256"
        }
      ],
      "stateMutability": "view",
      "type": "function"
    },
    {
      "inputs": [],
      "name": "totalXexStaked",
      "outputs": [
        {
          "internalType": "uint256",
          "name": "",
          "type": "uint256"
        }
      ],
      "stateMutability": "view",
      "type": "function"
    },
    {
      "inputs": [
        {
          "internalType": "address",
          "name": "to",
          "type": "address"
        },
        {
          "internalType": "uint256",
          "name": "amount",
          "type": "uint256"
        }
      ],
      "name": "transfer",
      "outputs": [
        {
          "internalType": "bool",
          "name": "",
          "type": "bool"
        }
      ],
      "stateMutability": "nonpayable",
      "type": "function"
    },
    {
      "inputs": [
        {
          "internalType": "address",
          "name": "from",
          "type": "address"
        },
        {
          "internalType": "address",
          "name": "to",
          "type": "address"
        },
        {
          "internalType": "uint256",
          "name": "amount",
          "type": "uint256"
        }
      ],
      "name": "transferFrom",
      "outputs": [
        {
          "internalType": "bool",
          "name": "",
          "type": "bool"
        }
      ],
      "stateMutability": "nonpayable",
      "type": "function"
    },
    {
      "inputs": [
        {
          "internalType": "address",
          "name": "newOwner",
          "type": "address"
        }
      ],
      "name": "transferOwnership",
      "outputs": [],
      "stateMutability": "nonpayable",
      "type": "function"
    },
    {
      "inputs": [],
      "name": "treasure",
      "outputs": [
        {
          "internalType": "address",
          "name": "",
          "type": "address"
        }
      ],
      "stateMutability": "view",
      "type": "function"
    },
    {
      "inputs": [
        {
          "internalType": "uint16",
          "name": "",
          "type": "uint16"
        }
      ],
      "name": "trustedRemoteLookup",
      "outputs": [
        {
          "internalType": "bytes",
          "name": "",
          "type": "bytes"
        }
      ],
      "stateMutability": "view",
      "type": "function"
    },
    {
      "inputs": [],
      "name": "useCustomAdapterParams",
      "outputs": [
        {
          "internalType": "bool",
          "name": "",
          "type": "bool"
        }
      ],
      "stateMutability": "view",
      "type": "function"
    },
    {
      "inputs": [
        {
          "internalType": "address",
          "name": "",
          "type": "address"
        }
      ],
      "name": "userBurns",
      "outputs": [
        {
          "internalType": "uint256",
          "name": "",
          "type": "uint256"
        }
      ],
      "stateMutability": "view",
      "type": "function"
    },
    {
      "inputs": [
        {
          "internalType": "address",
          "name": "",
          "type": "address"
        }
      ],
      "name": "userMints",
      "outputs": [
        {
          "internalType": "address",
          "name": "user",
          "type": "address"
        },
        {
          "internalType": "uint256",
          "name": "term",
          "type": "uint256"
        },
        {
          "internalType": "uint256",
          "name": "maturityTs",
          "type": "uint256"
        },
        {
          "internalType": "uint256",
          "name": "rank",
          "type": "uint256"
        },
        {
          "internalType": "uint256",
          "name": "amplifier",
          "type": "uint256"
        },
        {
          "internalType": "uint256",
          "name": "eaaRate",
          "type": "uint256"
        }
      ],
      "stateMutability": "view",
      "type": "function"
    },
    {
      "inputs": [
        {
          "internalType": "address",
          "name": "",
          "type": "address"
        }
      ],
      "name": "userStakes",
      "outputs": [
        {
          "internalType": "uint256",
          "name": "term",
          "type": "uint256"
        },
        {
          "internalType": "uint256",
          "name": "maturityTs",
          "type": "uint256"
        },
        {
          "internalType": "uint256",
          "name": "amount",
          "type": "uint256"
        },
        {
          "internalType": "uint256",
          "name": "apy",
          "type": "uint256"
        }
      ],
      "stateMutability": "view",
      "type": "function"
    },
    {
      "inputs": [],
      "name": "withdraw",
      "outputs": [],
      "stateMutability": "payable",
      "type": "function"
    }
  ],
  "bytecode": "0x60e06040526001600f553480156200001657600080fd5b506040516200635b3803806200635b8339810160408190526200003991620003c2565b818360088688848484848181808062000052336200014c565b600180546001600160a01b0319166001600160a01b0392909216919091179055505060f81b7fff000000000000000000000000000000000000000000000000000000000000001660805250508151620000b390600d90602085019062000269565b508051620000c990600e90602084019062000269565b5050506000620000de6200019c60201b60201c565b90508060ff168460ff161115620000f457600080fd5b6200010084826200058f565b6200010d90600a620004c1565b60a052506009555050600880546001600160a01b0319163317905550504260c05280156200014157620001413382620001a1565b50505050506200061e565b600080546001600160a01b038381166001600160a01b0319831681178455604051919092169283917f8be0079c531659141344cd1fd0a4f28419497f9722a3daafe3b4186f6b6457e09190a35050565b601290565b6001600160a01b038216620001fc5760405162461bcd60e51b815260206004820152601f60248201527f45524332303a206d696e7420746f20746865207a65726f206164647265737300604482015260640160405180910390fd5b80600c60008282546200021091906200045d565b90915550506001600160a01b0382166000818152600a60209081526040808320805486019055518481527fddf252ad1be2c89b69c2b068fc378daa952ba7f163c4a11628f55a4df523b3ef910160405180910390a35050565b8280546200027790620005b5565b90600052602060002090601f0160209004810192826200029b5760008555620002e6565b82601f10620002b657805160ff1916838001178555620002e6565b82800160010185558215620002e6579182015b82811115620002e6578251825591602001919060010190620002c9565b50620002f4929150620002f8565b5090565b5b80821115620002f45760008155600101620002f9565b600082601f83011262000320578081fd5b81516001600160401b03808211156200033d576200033d62000608565b604051601f8301601f19908116603f0116810190828211818310171562000368576200036862000608565b8160405283815260209250868385880101111562000384578485fd5b8491505b83821015620003a7578582018301518183018401529082019062000388565b83821115620003b857848385830101525b9695505050505050565b600080600080600060a08688031215620003da578081fd5b855160208701519095506001600160a01b0381168114620003f9578182fd5b60408701519094506001600160401b038082111562000416578283fd5b6200042489838a016200030f565b945060608801519150808211156200043a578283fd5b5062000449888289016200030f565b925050608086015190509295509295909350565b60008219821115620004735762000473620005f2565b500190565b600181815b80851115620004b95781600019048211156200049d576200049d620005f2565b80851615620004ab57918102915b93841c93908002906200047d565b509250929050565b6000620004d260ff841683620004d9565b9392505050565b600082620004ea5750600162000589565b81620004f95750600062000589565b81600181146200051257600281146200051d576200053d565b600191505062000589565b60ff841115620005315762000531620005f2565b50506001821b62000589565b5060208310610133831016604e8410600b841016171562000562575081810a62000589565b6200056e838362000478565b8060001904821115620005855762000585620005f2565b0290505b92915050565b600060ff821660ff841680821015620005ac57620005ac620005f2565b90039392505050565b600181811c90821680620005ca57607f821691505b60208210811415620005ec57634e487b7160e01b600052602260045260246000fd5b50919050565b634e487b7160e01b600052601160045260246000fd5b634e487b7160e01b600052604160045260246000fd5b60805160f81c60a05160c051615cee6200066d60003960008181610edd01528181613df10152613e54015260008181614441015281816147a60152614a1e015260006109f90152615cee6000f3fe6080604052600436106105015760003560e01c80638da5cb5b11610297578063c56f0bab11610165578063e6a20ae6116100cc578063ed629c5c11610085578063ed629c5c14610fd5578063f060482914610fef578063f2fde38b14611004578063f340faed14611024578063f5ecbdbc1461103b578063fc0c546a1461105b57600080fd5b8063e6a20ae614610f34578063e81917b414610f49578063eab45d9c14610f5f578063eaffd49a14610f7f578063eb8d72b714610f9f578063ed2f236914610fbf57600080fd5b8063ddca3f431161011e578063ddca3f4314610e04578063df28233114610e1a578063df2a5b3b14610eab578063e3af6d0a14610ecb578063e520fc7e14610eff578063e54f57c014610f1f57600080fd5b8063c56f0bab14610d4f578063cbed8b9c14610d64578063ce653d5f14610d84578063d1deba1f14610db1578063dbbb415514610dc4578063dd62ed3e14610de457600080fd5b8063a457c2d711610209578063b21d35f2116101c2578063b21d35f214610cce578063b353aaa714610ce4578063b4800cdc14610d04578063baf3292d14610d1a578063bcfe394f146106a0578063c0c6525914610d3a57600080fd5b8063a457c2d714610c18578063a4c51df514610c38578063a6c3d16514610c58578063a9059cbb14610c78578063b0fc721714610c98578063b0fd1fc214610cae57600080fd5b806395d89b411161025b57806395d89b4114610b47578063962ca49614610b5c5780639920245414610b715780639bdb981214610b865780639f38369a14610bd85780639ff054df14610bf857600080fd5b80638da5cb5b14610a685780638da7ad2314610a9a578063909a2ff614610afc5780639358928b14610b12578063950c8a7414610b2757600080fd5b806344770515116103d45780637010d7a1116103465780637b0472f0116102ff5780637b0472f0146109d4578063857749b0146109e757806385eb8321146107e95780638979c87c14610a1b57806389fb998f146107e95780638cfd8f5c14610a3057600080fd5b80637010d7a1146108dc57806370a0823114610941578063715018a61461097757806372475f941461098c5780637533d788146109a157806376203b48146109c157600080fd5b8063543d365211610398578063543d3652146106a05780635b8c41e6146108305780635bccb4c41461087f57806361a52a361461089257806366ad5c8a146108a9578063695ef6bf146108c957600080fd5b806344770515146107e957806345125715146107fe578063471191a1146107e95780634c42899a1461081357806352c7f8dc1461082857600080fd5b80631c24408211610478578063365260b411610431578063365260b41461072c57806339509351146107615780633ccfd60b146107815780633d8b38f61461078957806342d65a8d146107a95780634411ad04146107c957600080fd5b80631c2440821461068a5780631c6f212e146106a05780631d3cd2a6146106b557806323b872dd146106d5578063313ce567146106f5578063323ac7d81461071757600080fd5b8063095ea7b3116104ca578063095ea7b3146105c35780630bfae56b146105e35780630f2e1228146105f857806310ddb1371461060d57806316f9c8fd1461062d57806318160ddd1461067557600080fd5b80621d35671461050657806301ffc9a714610528578063023789321461055d57806306fdde031461058157806307e0db17146105a3575b600080fd5b34801561051257600080fd5b506105266105213660046153c0565b61106e565b005b34801561053457600080fd5b506105486105433660046150d0565b61128a565b60405190151581526020015b60405180910390f35b34801561056957600080fd5b5061057361016d81565b604051908152602001610554565b34801561058d57600080fd5b506105966112c1565b60405161055491906157df565b3480156105af57600080fd5b506105266105be366004615166565b611353565b3480156105cf57600080fd5b506105486105de36600461508b565b6113c0565b3480156105ef57600080fd5b506105736113d8565b34801561060457600080fd5b50610573606381565b34801561061957600080fd5b50610526610628366004615166565b6113e9565b34801561063957600080fd5b50610642611425565b60405161055491908151815260208083015190820152604080830151908201526060918201519181019190915260800190565b34801561068157600080fd5b50600c54610573565b34801561069657600080fd5b50610573600f5481565b3480156106ac57600080fd5b50610573600181565b3480156106c157600080fd5b506105266106d0366004614ed7565b611496565b3480156106e157600080fd5b506105486106f0366004614f2b565b6114d3565b34801561070157600080fd5b5060125b60405160ff9091168152602001610554565b34801561072357600080fd5b50610573602381565b34801561073857600080fd5b5061074c610747366004615180565b6114f7565b60408051928352602083019190915201610554565b34801561076d57600080fd5b5061054861077c36600461508b565b611561565b610526611583565b34801561079557600080fd5b506105486107a43660046152ab565b611743565b3480156107b557600080fd5b506105266107c43660046152ab565b61180f565b3480156107d557600080fd5b506105736107e436600461569d565b611879565b3480156107f557600080fd5b50610573600081565b34801561080a57600080fd5b50610573611a58565b34801561081f57600080fd5b50610705600081565b610526611a67565b34801561083c57600080fd5b5061057361084b36600461543e565b6005602090815260009384526040808520845180860184018051928152908401958401959095209452929052825290205481565b61052661088d366004615628565b611c58565b34801561089e57600080fd5b506105736201518081565b3480156108b557600080fd5b506105266108c43660046153c0565b611f08565b6105266108d736600461501a565b611f92565b3480156108e857600080fd5b506108f161209b565b604051610554919081516001600160a01b031681526020808301519082015260408083015190820152606080830151908201526080808301519082015260a0918201519181019190915260c00190565b34801561094d57600080fd5b5061057361095c366004614ed7565b6001600160a01b03166000908152600a602052604090205490565b34801561098357600080fd5b50610526612140565b34801561099857600080fd5b50610573600f81565b3480156109ad57600080fd5b506105966109bc366004615166565b612154565b6105266109cf366004614f6b565b6121ee565b6105266109e2366004615628565b61233c565b3480156109f357600080fd5b506107057f000000000000000000000000000000000000000000000000000000000000000081565b348015610a2757600080fd5b506105736124b9565b348015610a3c57600080fd5b50610573610a4b3660046154d3565b600360209081526000928352604080842090915290825290205481565b348015610a7457600080fd5b506000546001600160a01b03165b6040516001600160a01b039091168152602001610554565b348015610aa657600080fd5b50610adc610ab5366004614ed7565b60146020526000908152604090208054600182015460028301546003909301549192909184565b604080519485526020850193909352918301526060820152608001610554565b348015610b0857600080fd5b506105736103e881565b348015610b1e57600080fd5b506105736124c3565b348015610b3357600080fd5b50600454610a82906001600160a01b031681565b348015610b5357600080fd5b506105966124ce565b348015610b6857600080fd5b506105736124dd565b348015610b7d57600080fd5b506105736124e7565b348015610b9257600080fd5b50610548610ba136600461543e565b6007602090815260009384526040808520845180860184018051928152908401958401959095209452929052825290205460ff1681565b348015610be457600080fd5b50610596610bf3366004615166565b6124f1565b348015610c0457600080fd5b50610526610c133660046155f8565b612608565b348015610c2457600080fd5b50610548610c3336600461508b565b6127ae565b348015610c4457600080fd5b5061074c610c533660046151f5565b612829565b348015610c6457600080fd5b50610526610c733660046152ab565b6128dc565b348015610c8457600080fd5b50610548610c9336600461508b565b61296f565b348015610ca457600080fd5b5061057360125481565b348015610cba57600080fd5b50610573610cc936600461566c565b61297d565b348015610cda57600080fd5b5061057361026081565b348015610cf057600080fd5b50600154610a82906001600160a01b031681565b348015610d1057600080fd5b5061057360105481565b348015610d2657600080fd5b50610526610d35366004614ed7565b612a0c565b348015610d4657600080fd5b50610573612a69565b348015610d5b57600080fd5b50610573600781565b348015610d7057600080fd5b50610526610d7f36600461558c565b612a78565b348015610d9057600080fd5b50610573610d9f366004614ed7565b60156020526000908152604090205481565b610526610dbf3660046153c0565b612af1565b348015610dd057600080fd5b50610526610ddf366004614ed7565b612c6b565b348015610df057600080fd5b50610573610dff366004614ef3565b612cab565b348015610e1057600080fd5b5061057360095481565b348015610e2657600080fd5b50610e74610e35366004614ed7565b6013602052600090815260409020805460018201546002830154600384015460048501546005909501546001600160a01b039094169492939192909186565b604080516001600160a01b0390971687526020870195909552938501929092526060840152608083015260a082015260c001610554565b348015610eb757600080fd5b50610526610ec6366004615551565b612cd6565b348015610ed757600080fd5b506105737f000000000000000000000000000000000000000000000000000000000000000081565b348015610f0b57600080fd5b50600854610a82906001600160a01b031681565b348015610f2b57600080fd5b50610573601481565b348015610f4057600080fd5b50610705600181565b348015610f5557600080fd5b506105736102da81565b348015610f6b57600080fd5b50610526610f7a3660046150b6565b612d88565b348015610f8b57600080fd5b50610526610f9a3660046152fb565b612dd1565b348015610fab57600080fd5b50610526610fba3660046152ab565b612ead565b348015610fcb57600080fd5b5061057360115481565b348015610fe157600080fd5b506006546105489060ff1681565b348015610ffb57600080fd5b50610573612f07565b34801561101057600080fd5b5061052661101f366004614ed7565b612f20565b34801561103057600080fd5b50610573620186a081565b34801561104757600080fd5b50610596611056366004615505565b612f99565b34801561106757600080fd5b5030610a82565b6001546001600160a01b0316336001600160a01b0316146110d65760405162461bcd60e51b815260206004820152601e60248201527f4c7a4170703a20696e76616c696420656e64706f696e742063616c6c6572000060448201526064015b60405180910390fd5b61ffff8616600090815260026020526040812080546110f490615bfd565b80601f016020809104026020016040519081016040528092919081815260200182805461112090615bfd565b801561116d5780601f106111425761010080835404028352916020019161116d565b820191906000526020600020905b81548152906001019060200180831161115057829003601f168201915b50505050509050805186869050148015611188575060008151115b80156111b05750805160208201206040516111a6908890889061572c565b6040518091039020145b61120b5760405162461bcd60e51b815260206004820152602660248201527f4c7a4170703a20696e76616c696420736f757263652073656e64696e6720636f6044820152651b9d1c9858dd60d21b60648201526084016110cd565b6112818787878080601f01602080910402602001604051908101604052809392919081815260200183838082843760009201919091525050604080516020601f8a018190048102820181019092528881528a93509150889088908190840183828082843760009201919091525061303292505050565b50505050505050565b60006001600160e01b03198216631f7ecdf760e01b14806112bb57506301ffc9a760e01b6001600160e01b03198316145b92915050565b6060600d80546112d090615bfd565b80601f01602080910402602001604051908101604052809291908181526020018280546112fc90615bfd565b80156113495780601f1061131e57610100808354040283529160200191611349565b820191906000526020600020905b81548152906001019060200180831161132c57829003601f168201915b5050505050905090565b61135b6130ab565b6001546040516307e0db1760e01b815261ffff831660048201526001600160a01b03909116906307e0db17906024015b600060405180830381600087803b1580156113a557600080fd5b505af11580156113b9573d6000803e3d6000fd5b5050505050565b6000336113ce818585613105565b5060019392505050565b6113e6620151806064615b84565b81565b6113f16130ab565b6001546040516310ddb13760e01b815261ffff831660048201526001600160a01b03909116906310ddb1379060240161138b565b6114506040518060800160405280600081526020016000815260200160008152602001600081525090565b5033600090815260146020908152604091829020825160808101845281548152600182015492810192909252600281015492820192909252600390910154606082015290565b61149e6130ab565b6001600160a01b0381166114b157600080fd5b600880546001600160a01b0319166001600160a01b0392909216919091179055565b6000336114e185828561322a565b6114ec8585856132a4565b506001949350505050565b6000806000806115408a8a8a8a8a8a8080601f01602080910402602001604051908101604052809392919081815260200183838082843760009201919091525061344f92505050565b91509150600954826115529190615b58565b9a909950975050505050505050565b6000336113ce8185856115748383612cab565b61157e9190615b58565b613105565b60095434101561159257600080fd5b6000341180156115a457506000600954115b1561160d576008546009546040516000926001600160a01b031691908381818185875af1925050503d80600081146115f8576040519150601f19603f3d011682016040523d82523d6000602084013e6115fd565b606091505b505090508061160b57600080fd5b505b3360009081526014602090815260409182902082516080810184528154815260018201549281019290925260028101549282018390526003015460608201529061165657600080fd5b60006116748260400151836000015184602001518560600151613534565b60118054919250600061168683615be6565b91905055508160400151601260008282546116a19190615ba3565b925050819055506116c1338284604001516116bc9190615b58565b613592565b6008546116dc906001600160a01b03166116bc606484615b70565b60408083015181519081526020810183905233917f92ccf450a286a957af52509bc1c9939d1a6a481783e142e41e2499f0bb66ebc6910160405180910390a25050336000908152601460205260408120818155600181018290556002810182905560030155565b61ffff83166000908152600260205260408120805482919061176490615bfd565b80601f016020809104026020016040519081016040528092919081815260200182805461179090615bfd565b80156117dd5780601f106117b2576101008083540402835291602001916117dd565b820191906000526020600020905b8154815290600101906020018083116117c057829003601f168201915b5050505050905083836040516117f492919061572c565b60405180910390208180519060200120149150509392505050565b6118176130ab565b6001546040516342d65a8d60e01b81526001600160a01b03909116906342d65a8d9061184b90869086908690600401615874565b600060405180830381600087803b15801561186557600080fd5b505af1158015611281573d6000803e3d6000fd5b60008342111561198c57600061188f8542615ba3565b9050600061189c82613653565b9050600073__$6ad30996409d058139477db06ae39abaac$__636d5433e68a600f546118c89190615ba3565b6040516001600160e01b031960e084901b16815260048101919091526002602482015260440160206040518083038186803b15801561190657600080fd5b505af415801561191a573d6000803e3d6000fd5b505050506040513d601f19601f8201168201806040525081019061193e9190615610565b9050600061194e866103e8615b58565b9050600061195e83898c8561297d565b9050606461196c8582615ba3565b6119769083615b84565b6119809190615b70565b95505050505050611a4f565b600073__$6ad30996409d058139477db06ae39abaac$__636d5433e688600f546119b69190615ba3565b6040516001600160e01b031960e084901b16815260048101919091526002602482015260440160206040518083038186803b1580156119f457600080fd5b505af4158015611a08573d6000803e3d6000fd5b505050506040513d601f19601f82011682018060405250810190611a2c9190615610565b90506000611a3c846103e8615b58565b9050611a4a8286898461297d565b925050505b95945050505050565b6000611a62613737565b905090565b600954341015611a7657600080fd5b600034118015611a8857506000600954115b15611af1576008546009546040516000926001600160a01b031691908381818185875af1925050503d8060008114611adc576040519150601f19603f3d011682016040523d82523d6000602084013e611ae1565b606091505b5050905080611aef57600080fd5b505b33600090815260136020908152604091829020825160c08101845281546001600160a01b031681526001820154928101929092526002810154928201929092526003820154606082018190526004830154608083015260059092015460a082015290611b835760405162461bcd60e51b81526020600482015260016024820152604160f81b60448201526064016110cd565b80604001514211611bba5760405162461bcd60e51b81526020600482015260016024820152602160f91b60448201526064016110cd565b6000611bdd82606001518360200151846040015185608001518660a0015161384c565b611bef90670de0b6b3a7640000615b84565b9050611bfb3382613592565b600854611c16906001600160a01b03166116bc606484615b70565b611c1e613959565b60405181815233907fd74752b13281df13701575f3a507e9b1242e0b5fb040143211c481c1fce573a6906020015b60405180910390a25050565b600954341015611c6757600080fd5b600034118015611c7957506000600954115b15611ce2576008546009546040516000926001600160a01b031691908381818185875af1925050503d8060008114611ccd576040519150601f19603f3d011682016040523d82523d6000602084013e611cd2565b606091505b5050905080611ce057600080fd5b505b33600090815260136020908152604091829020825160c08101845281546001600160a01b03168152600182015492810192909252600281015492820192909252600382015460608201526004820154608082015260059091015460a082015260658310611d4e57600080fd5b6000816060015111611d5f57600080fd5b80604001514211611d6f57600080fd5b6000611d9282606001518360200151846040015185608001518660a0015161384c565b611da490670de0b6b3a7640000615b84565b905060006064611db48684615b84565b611dbe9190615b70565b90506000611dcc8284615ba3565b9050611dd83382613592565b600854611df3906001600160a01b03166116bc606486615b70565b611dfb613959565b60405183815233907fd74752b13281df13701575f3a507e9b1242e0b5fb040143211c481c1fce573a69060200160405180910390a260008211611e3d57600080fd5b6001611e4c6201518082615b84565b611e569190615ba3565b611e636201518087615b84565b11611e6d57600080fd5b611e7c620151806102da615b84565b611e87906001615b58565b611e946201518087615b84565b10611e9e57600080fd5b3360009081526014602052604090206002015415611ebb57600080fd5b611ec582866139ad565b604080518381526020810187905233917f1449c6dd7851abc30abf37f57715f492010519147cc2652fbc38202c18a6ee90910160405180910390a2505050505050565b333014611f1457600080fd5b611f8a8686868080601f01602080910402602001604051908101604052809392919081815260200183838082843760009201919091525050604080516020601f890181900481028201810190925287815289935091508790879081908401838280828437600092019190915250613a5092505050565b505050505050565b600954341015611fa157600080fd5b600034118015611fb357506000600954115b1561201c576008546009546040516000926001600160a01b031691908381818185875af1925050503d8060008114612007576040519150601f19603f3d011682016040523d82523d6000602084013e61200c565b606091505b505090508061201a57600080fd5b505b60006009543461202c9190615ba3565b9050611281868686866120426020880188614ed7565b6120526040890160208a01614ed7565b61205f60408a018a615abd565b8080601f0160208091040260200160405190810160405280939291908181526020018383808284376000920191909152508b9250613ab1915050565b6120dd6040518060c0016040528060006001600160a01b0316815260200160008152602001600081526020016000815260200160008152602001600081525090565b5033600090815260136020908152604091829020825160c08101845281546001600160a01b03168152600182015492810192909252600281015492820192909252600382015460608201526004820154608082015260059091015460a082015290565b6121486130ab565b6121526000613b5b565b565b6002602052600090815260409020805461216d90615bfd565b80601f016020809104026020016040519081016040528092919081815260200182805461219990615bfd565b80156121e65780601f106121bb576101008083540402835291602001916121e6565b820191906000526020600020905b8154815290600101906020018083116121c957829003601f168201915b505050505081565b6009543410156121fd57600080fd5b60003411801561220f57506000600954115b15612278576008546009546040516000926001600160a01b031691908381818185875af1925050503d8060008114612263576040519150601f19603f3d011682016040523d82523d6000602084013e612268565b606091505b505090508061227657600080fd5b505b6000600954346122889190615ba3565b90506123308989898989898080601f0160208091040260200160405190810160405280939291908181526020018383808284376000920191909152508b92506122d791505060208a018a614ed7565b6122e760408b0160208c01614ed7565b6122f460408c018c615abd565b8080601f0160208091040260200160405190810160405280939291908181526020018383808284376000920191909152508d9250613bab915050565b50505050505050505050565b60095434101561234b57600080fd5b60003411801561235d57506000600954115b156123c6576008546009546040516000926001600160a01b031691908381818185875af1925050503d80600081146123b1576040519150601f19603f3d011682016040523d82523d6000602084013e6123b6565b606091505b50509050806123c457600080fd5b505b336000908152600a60205260409020548211156123e257600080fd5b600082116123ef57600080fd5b60016123fe6201518082615b84565b6124089190615ba3565b6124156201518083615b84565b1161241f57600080fd5b61242e620151806102da615b84565b612439906001615b58565b6124466201518083615b84565b1061245057600080fd5b336000908152601460205260409020600201541561246d57600080fd5b6124773383613c69565b61248182826139ad565b604080518381526020810183905233917f1449c6dd7851abc30abf37f57715f492010519147cc2652fbc38202c18a6ee909101611c4c565b6000611a62613d95565b6000611a62600c5490565b6060600e80546112d090615bfd565b6000611a62613ddb565b6000611a62613e48565b61ffff811660009081526002602052604081208054606092919061251490615bfd565b80601f016020809104026020016040519081016040528092919081815260200182805461254090615bfd565b801561258d5780601f106125625761010080835404028352916020019161258d565b820191906000526020600020905b81548152906001019060200180831161257057829003601f168201915b505050505090508051600014156125e65760405162461bcd60e51b815260206004820152601d60248201527f4c7a4170703a206e6f20747275737465642070617468207265636f726400000060448201526064016110cd565b6126016000601483516125f99190615ba3565b839190613f37565b9392505050565b60006126176201518083615b84565b905060016126286201518082615b84565b6126329190615ba3565b811161263d57600080fd5b612645613737565b612650906001615b58565b811061265b57600080fd5b336000908152601360205260409020600301541561267857600080fd5b6040805160c08101825233815260208101849052600091810161269b8442615b58565b8152602001600f5481526020016126b0613e48565b81526020016126bd613d95565b9052336000908152601360209081526040808320845181546001600160a01b0319166001600160a01b039091161781559184015160018301558301516002820155606083015160038201556080830151600482015560a0830151600590910155601080549293509061272e83615c32565b9091555050600f805433917fc05062aaca3ffe3bd48e1cd6edc912dff77e39ba1a14999b5e00ec68614b311c918691600061276883615c32565b919050556127746124e7565b60a08681015160408089015181519687526020870195909552858101939093526060850152608084019290925251918290030190a2505050565b600033816127bc8286612cab565b90508381101561281c5760405162461bcd60e51b815260206004820152602560248201527f45524332303a2064656372656173656420616c6c6f77616e63652062656c6f77604482015264207a65726f60d81b60648201526084016110cd565b6114ec8286868403613105565b6000806000806128b88d8d8d8d8d8080601f016020809104026020016040519081016040528093929190818152602001838380828437600081840152601f19601f820116905080830192505050505050508c8c8c8c8080601f01602080910402602001604051908101604052809392919081815260200183838082843760009201919091525061404492505050565b91509150600954826128ca9190615b58565b9d909c509a5050505050505050505050565b6128e46130ab565b8181306040516020016128f99392919061573c565b60408051601f1981840301815291815261ffff8516600090815260026020908152919020825161292e93919290910190614d33565b507f8c0400cfe2d1199b1a725c78960bcc2a344d869b80590d0f2bd005db15a572ce83838360405161296293929190615874565b60405180910390a1505050565b6000336113ce8185856132a4565b60008061299461298c876140f7565b600f0b614115565b905060006129d06129a4856140f7565b6129c76129b0886140f7565b6129c76129bc8b6140f7565b600f88900b906141f9565b600f0b906141f9565b90506129f66129ee6129e36103e86140f7565b600f84900b90614230565b600f0b614296565b6001600160401b0316925050505b949350505050565b612a146130ab565b600480546001600160a01b0319166001600160a01b0383169081179091556040519081527f5db758e995a17ec1ad84bdef7e8c3293a0bd6179bcce400dff5d4c3d87db726b906020015b60405180910390a150565b6113e6620151806102da615b84565b612a806130ab565b6001546040516332fb62e760e21b81526001600160a01b039091169063cbed8b9c90612ab89088908890889088908890600401615a8f565b600060405180830381600087803b158015612ad257600080fd5b505af1158015612ae6573d6000803e3d6000fd5b505050505050505050565b61ffff86166000908152600560205260408082209051612b14908890889061572c565b90815260408051602092819003830190206001600160401b03871660009081529252902054905080612b4557600080fd5b808383604051612b5692919061572c565b604051809103902014612b6857600080fd5b61ffff87166000908152600560205260408082209051612b8b908990899061572c565b90815260408051602092819003830181206001600160401b038916600090815290845282902093909355601f88018290048202830182019052868252612c23918991899089908190840183828082843760009201919091525050604080516020601f8a018190048102820181019092528881528a935091508890889081908401838280828437600092019190915250613a5092505050565b7fc264d91f3adc5588250e1551f547752ca0cfa8f6b530d243b9f9f4cab10ea8e58787878785604051612c5a959493929190615892565b60405180910390a150505050505050565b612c736130ab565b6001546001600160a01b031615612c8957600080fd5b600180546001600160a01b0319166001600160a01b0392909216919091179055565b6001600160a01b039182166000908152600b6020908152604080832093909416825291909152205490565b612cde6130ab565b60008111612d265760405162461bcd60e51b81526020600482015260156024820152744c7a4170703a20696e76616c6964206d696e47617360581b60448201526064016110cd565b61ffff83811660008181526003602090815260408083209487168084529482529182902085905581519283528201929092529081018290527f9d5c7c0b934da8fefa9c7760c98383778a12dfbfc0c3b3106518f43fb9508ac090606001612962565b612d906130ab565b6006805460ff19168215159081179091556040519081527f1584ad594a70cbe1e6515592e1272a987d922b097ead875069cebe8b40c004a490602001612a5e565b333014612ddd57600080fd5b612de83086866142b2565b9350846001600160a01b03168a61ffff167fbf551ec93859b170f9b2141bd9298bf3f64322c6f7beb2543a0cb669834118bf86604051612e2a91815260200190565b60405180910390a3604051633fe79aed60e11b81526001600160a01b03861690637fcf35da908390612e6e908e908e908e908e908e908d908d908d906004016158cd565b600060405180830381600088803b158015612e8857600080fd5b5087f1158015612e9c573d6000803e3d6000fd5b505050505050505050505050505050565b612eb56130ab565b61ffff83166000908152600260205260409020612ed3908383614db3565b507ffa41487ad5d6728f0b19276fa1eddc16558578f5109fc39d2dc33c3230470dab83838360405161296293929190615874565b6001612f166201518082615b84565b6113e69190615ba3565b612f286130ab565b6001600160a01b038116612f8d5760405162461bcd60e51b815260206004820152602660248201527f4f776e61626c653a206e6577206f776e657220697320746865207a65726f206160448201526564647265737360d01b60648201526084016110cd565b612f9681613b5b565b50565b600154604051633d7b2f6f60e21b815261ffff808716600483015285166024820152306044820152606481018390526060916001600160a01b03169063f5ecbdbc9060840160006040518083038186803b158015612ff657600080fd5b505afa15801561300a573d6000803e3d6000fd5b505050506040513d6000823e601f3d908101601f19168201604052611a4f91908101906150f8565b6000806130955a60966366ad5c8a60e01b8989898960405160240161305a94939291906159f4565b60408051601f198184030181529190526020810180516001600160e01b03166001600160e01b03199093169290921790915230929190614304565b9150915081611f8a57611f8a868686868561439c565b6000546001600160a01b031633146121525760405162461bcd60e51b815260206004820181905260248201527f4f776e61626c653a2063616c6c6572206973206e6f7420746865206f776e657260448201526064016110cd565b6001600160a01b0383166131675760405162461bcd60e51b8152602060048201526024808201527f45524332303a20617070726f76652066726f6d20746865207a65726f206164646044820152637265737360e01b60648201526084016110cd565b6001600160a01b0382166131c85760405162461bcd60e51b815260206004820152602260248201527f45524332303a20617070726f766520746f20746865207a65726f206164647265604482015261737360f01b60648201526084016110cd565b6001600160a01b038381166000818152600b602090815260408083209487168084529482529182902085905590518481527f8c5be1e5ebec7d5bd14f71427d1e84f3dd0314c0f7b2291e5b200ac8c7c3b92591015b60405180910390a3505050565b60006132368484612cab565b9050600019811461329e57818110156132915760405162461bcd60e51b815260206004820152601d60248201527f45524332303a20696e73756666696369656e7420616c6c6f77616e636500000060448201526064016110cd565b61329e8484848403613105565b50505050565b6001600160a01b0383166133085760405162461bcd60e51b815260206004820152602560248201527f45524332303a207472616e736665722066726f6d20746865207a65726f206164604482015264647265737360d81b60648201526084016110cd565b6001600160a01b03821661336a5760405162461bcd60e51b815260206004820152602360248201527f45524332303a207472616e7366657220746f20746865207a65726f206164647260448201526265737360e81b60648201526084016110cd565b6001600160a01b0383166000908152600a6020526040902054818110156133e25760405162461bcd60e51b815260206004820152602660248201527f45524332303a207472616e7366657220616d6f756e7420657863656564732062604482015265616c616e636560d01b60648201526084016110cd565b6001600160a01b038085166000818152600a602052604080822086860390559286168082529083902080548601905591517fddf252ad1be2c89b69c2b068fc378daa952ba7f163c4a11628f55a4df523b3ef906134429086815260200190565b60405180910390a361329e565b600080600061349d8761346188614439565b6040805160006020820152602181019390935260c09190911b6001600160c01b0319166041830152805160298184030181526049909201905290565b60015460405163040a7bb160e41b81529192506001600160a01b0316906340a7bb10906134d6908b90309086908b908b90600401615820565b604080518083038186803b1580156134ed57600080fd5b505afa158015613501573d6000803e3d6000fd5b505050506040513d601f19601f820116820180604052508101906135259190615649565b92509250509550959350505050565b60008242111561358757600061016d61354d8685615b84565b61355a90620f4240615b84565b6135649190615b70565b90506305f5e1006135758288615b84565b61357f9190615b70565b915050612a04565b506000949350505050565b6001600160a01b0382166135e85760405162461bcd60e51b815260206004820152601f60248201527f45524332303a206d696e7420746f20746865207a65726f20616464726573730060448201526064016110cd565b80600c60008282546135fa9190615b58565b90915550506001600160a01b0382166000818152600a60209081526040808320805486019055518481527fddf252ad1be2c89b69c2b068fc378daa952ba7f163c4a11628f55a4df523b3ef910160405180910390a35050565b6000806136636201518084615b70565b905061367160016007615ba3565b8111156136815750606392915050565b600060016007613692846003615b58565b6001901b6136a09190615b70565b6136aa9190615ba3565b604051637ae2b5c760e01b8152600481018290526063602482015290915073__$6ad30996409d058139477db06ae39abaac$__90637ae2b5c79060440160206040518083038186803b1580156136ff57600080fd5b505af4158015613713573d6000803e3d6000fd5b505050506040513d601f19601f82011682018060405250810190612a049190615610565b6000610260600f54111561383e5760006137656129ee613757600f6140f7565b6129c761298c600f546140f7565b6001600160401b03169050600061377f6201518083615b84565b61378d620151806064615b84565b6137979190615b58565b905073__$6ad30996409d058139477db06ae39abaac$__637ae2b5c7826137c3620151806102da615b84565b6040516001600160e01b031960e085901b1681526004810192909252602482015260440160206040518083038186803b1580156137ff57600080fd5b505af4158015613813573d6000803e3d6000fd5b505050506040513d601f19601f820116820180604052508101906138379190615610565b9250505090565b611a62620151806064615b84565b6000806138598542615ba3565b9050600061386682613653565b9050600073__$6ad30996409d058139477db06ae39abaac$__636d5433e68a600f546138929190615ba3565b6040516001600160e01b031960e084901b16815260048101919091526002602482015260440160206040518083038186803b1580156138d057600080fd5b505af41580156138e4573d6000803e3d6000fd5b505050506040513d601f19601f820116820180604052508101906139089190615610565b90506000613918866103e8615b58565b9050600061392883898c8561297d565b905060646139368582615ba3565b6139409083615b84565b61394a9190615b70565b9b9a5050505050505050505050565b33600090815260136020526040812080546001600160a01b03191681556001810182905560028101829055600381018290556004810182905560050181905560108054916139a683615be6565b9190505550565b604051806080016040528082815260200162015180836139cd9190615b84565b6139d79042615b58565b81526020018381526020016139ea613ddb565b90523360009081526014602090815260408083208451815591840151600183015583015160028201556060909201516003909201919091556011805491613a3083615c32565b91905055508160126000828254613a479190615b58565b90915550505050565b6000613a5c828261447c565b905060ff8116613a7757613a72858585856144d8565b6113b9565b60ff811660011415613a8f57613a7285858585614568565b60405162461bcd60e51b815260206004820152600060248201526044016110cd565b6000613abf88828581614776565b613ac88661479e565b509050613ad7898989846147de565b905060008111613ae657600080fd5b6000613af58861346184614439565b9050613b05898288888888614810565b878a6001600160a01b03168a61ffff167fd81fc9b8523134ed613870ed029d6170cbb73aa6a6bc311b9a642689fb9df59a85604051613b4691815260200190565b60405180910390a45098975050505050505050565b600080546001600160a01b038381166001600160a01b0319831681178455604051919092169283917f8be0079c531659141344cd1fd0a4f28419497f9722a3daafe3b4186f6b6457e09190a35050565b6000613bc38a6001856001600160401b038a16614776565b613bcc8861479e565b509050613bdb8b8b8b846147de565b905060008111613bea57600080fd5b6000613c01338b613bfa85614439565b8b8b61498f565b9050613c118b8288888888614810565b898c6001600160a01b03168c61ffff167fd81fc9b8523134ed613870ed029d6170cbb73aa6a6bc311b9a642689fb9df59a85604051613c5291815260200190565b60405180910390a4509a9950505050505050505050565b6001600160a01b038216613cc95760405162461bcd60e51b815260206004820152602160248201527f45524332303a206275726e2066726f6d20746865207a65726f206164647265736044820152607360f81b60648201526084016110cd565b6001600160a01b0382166000908152600a602052604090205481811015613d3d5760405162461bcd60e51b815260206004820152602260248201527f45524332303a206275726e20616d6f756e7420657863656564732062616c616e604482015261636560f01b60648201526084016110cd565b6001600160a01b0383166000818152600a602090815260408083208686039055600c80548790039055518581529192917fddf252ad1be2c89b69c2b068fc378daa952ba7f163c4a11628f55a4df523b3ef910161321d565b600080620186a0600f546001613dab9190615b84565b613db59190615b70565b90506103e8811115613dc957600091505090565b613dd5816103e8615ba3565b91505090565b600080613dec601462015180615b84565b613e167f000000000000000000000000000000000000000000000000000000000000000042615ba3565b613e209190615b70565b905080613e2f60006023615ba3565b1015613e3d57600091505090565b613dd5816023615ba3565b60008062015180613e797f000000000000000000000000000000000000000000000000000000000000000042615ba3565b613e839190615b70565b90506102da811015613f2b5773__$6ad30996409d058139477db06ae39abaac$__636d5433e6613eb5836102da615ba3565b6040516001600160e01b031960e084901b16815260048101919091526001602482015260440160206040518083038186803b158015613ef357600080fd5b505af4158015613f07573d6000803e3d6000fd5b505050506040513d601f19601f82011682018060405250810190613dd59190615610565b600191505090565b5090565b606081613f4581601f615b58565b1015613f845760405162461bcd60e51b815260206004820152600e60248201526d736c6963655f6f766572666c6f7760901b60448201526064016110cd565b613f8e8284615b58565b84511015613fd25760405162461bcd60e51b8152602060048201526011602482015270736c6963655f6f75744f66426f756e647360781b60448201526064016110cd565b606082158015613ff1576040519150600082526020820160405261403b565b6040519150601f8416801560200281840101858101878315602002848b0101015b8183101561402a578051835260209283019201614012565b5050858452601f01601f1916604052505b50949350505050565b600080600061405e338a6140578b614439565b8a8a61498f565b60015460405163040a7bb160e41b81529192506001600160a01b0316906340a7bb1090614097908d90309086908b908b90600401615820565b604080518083038186803b1580156140ae57600080fd5b505afa1580156140c2573d6000803e3d6000fd5b505050506040513d601f19601f820116820180604052508101906140e69190615649565b925092505097509795505050505050565b6000677fffffffffffffff82111561410e57600080fd5b5060401b90565b60008082600f0b1361412657600080fd5b6000600f83900b680100000000000000008112614145576040918201911d5b6401000000008112614159576020918201911d5b62010000811261416b576010918201911d5b610100811261417c576008918201911d5b6010811261418c576004918201911d5b6004811261419c576002918201911d5b600281126141ab576001820191505b603f19820160401b600f85900b607f8490031b6780000000000000005b60008113156141ee5790800260ff81901c8281029390930192607f011c9060011d6141c8565b509095945050505050565b6000600f83810b9083900b0260401d60016001607f1b03198112801590614227575060016001607f1b038113155b61260157600080fd5b600081600f0b6000141561424357600080fd5b600082600f0b604085600f0b901b8161426c57634e487b7160e01b600052601260045260246000fd5b05905060016001607f1b03198112801590614227575060016001607f1b0381131561260157600080fd5b60008082600f0b12156142a857600080fd5b50600f0b60401d90565b600033306001600160a01b038616148015906142e05750806001600160a01b0316856001600160a01b031614155b156142f0576142f085828561322a565b6142fb8585856132a4565b50909392505050565b6000606060008060008661ffff166001600160401b0381111561433757634e487b7160e01b600052604160045260246000fd5b6040519080825280601f01601f191660200182016040528015614361576020820181803683370190505b50905060008087516020890160008d8df191503d925086831115614383578692505b828152826000602083013e909890975095505050505050565b8180519060200120600560008761ffff1661ffff168152602001908152602001600020856040516143cd9190615762565b9081526040805191829003602090810183206001600160401b0388166000908152915220919091557fe183f33de2837795525b4792ca4cd60535bd77c53b7e7030060bfcf5734d6b0c9061442a9087908790879087908790615a3d565b60405180910390a15050505050565b6000806144667f000000000000000000000000000000000000000000000000000000000000000084615b70565b90506001600160401b038111156112bb57600080fd5b6000614489826001615b58565b835110156144cf5760405162461bcd60e51b8152602060048201526013602482015272746f55696e74385f6f75744f66426f756e647360681b60448201526064016110cd565b50016001015190565b6000806144e4836149d0565b90925090506001600160a01b0382166144fd5761dead91505b600061450882614a17565b9050614515878483614a4c565b9050826001600160a01b03168761ffff167fbf551ec93859b170f9b2141bd9298bf3f64322c6f7beb2543a0cb669834118bf8360405161455791815260200190565b60405180910390a350505050505050565b600080600080600061457986614a5f565b945094509450945094506000600760008b61ffff1661ffff168152602001908152602001600020896040516145ae9190615762565b90815260408051602092819003830190206001600160401b038b166000908152925281205460ff1691506145e185614a17565b90508161464f576145f38b3083614a4c565b61ffff8c1660009081526007602052604090819020905191925060019161461b908d90615762565b90815260408051602092819003830190206001600160401b038d16600090815292529020805460ff19169115159190911790555b6001600160a01b0386163b6146a6576040516001600160a01b03871681527f9aedf5fdba8716db3b6705ca00150643309995d4f818a249ed6dde6677e7792d9060200160405180910390a15050505050505061329e565b8a8a8a8a8a8a868a60008a6146c4578b6001600160401b03166146c6565b5a5b90506000806146f85a609663eaffd49a60e01b8e8e8e8d8d8d8d8d60405160240161305a989796959493929190615980565b915091508115614751578751602089012060405161ffff8d16907fb8890edbfc1c74692f527444645f95489c3703cc2df42e4a366f5d06fa6cd88490614743908e908e9086906157f2565b60405180910390a25061475e565b61475e8b8b8b8b8561439c565b50505050505050505050505050505050505050505050565b60065460ff16156147925761478d84848484614ad8565b61329e565b81511561329e57600080fd5b6000806147cb7f000000000000000000000000000000000000000000000000000000000000000084615c4d565b90506147d78184615ba3565b9150915091565b6000336001600160a01b03861681146147fc576147fc86828561322a565b6148068684613c69565b5090949350505050565b61ffff86166000908152600260205260408120805461482e90615bfd565b80601f016020809104026020016040519081016040528092919081815260200182805461485a90615bfd565b80156148a75780601f1061487c576101008083540402835291602001916148a7565b820191906000526020600020905b81548152906001019060200180831161488a57829003601f168201915b505050505090508051600014156149195760405162461bcd60e51b815260206004820152603060248201527f4c7a4170703a2064657374696e6174696f6e20636861696e206973206e6f742060448201526f61207472757374656420736f7572636560801b60648201526084016110cd565b60015460405162c5803160e81b81526001600160a01b039091169063c5803100908490614954908b9086908c908c908c908c90600401615919565b6000604051808303818588803b15801561496d57600080fd5b505af1158015614981573d6000803e3d6000fd5b505050505050505050505050565b6060600185856001600160a01b03891685876040516020016149b69695949392919061577e565b604051602081830303815290604052905095945050505050565b600080806149de848261447c565b60ff161480156149ef575082516029145b6149f857600080fd5b614a0383600d614bb7565b9150614a10836021614c1c565b9050915091565b60006112bb7f00000000000000000000000000000000000000000000000000000000000000006001600160401b038416615b84565b6000614a588383613592565b5092915050565b600080806060816001614a72878361447c565b60ff1614614a7f57600080fd5b614a8a86600d614bb7565b9350614a97866021614c1c565b9250614aa4866029614c79565b9450614ab1866049614c1c565b9050614acd6051808851614ac59190615ba3565b889190613f37565b915091939590929450565b6000614ae383614cd7565b61ffff808716600090815260036020908152604080832093891683529290529081205491925090614b15908490615b58565b905060008111614b675760405162461bcd60e51b815260206004820152601a60248201527f4c7a4170703a206d696e4761734c696d6974206e6f742073657400000000000060448201526064016110cd565b80821015611f8a5760405162461bcd60e51b815260206004820152601b60248201527f4c7a4170703a20676173206c696d697420697320746f6f206c6f77000000000060448201526064016110cd565b6000614bc4826014615b58565b83511015614c0c5760405162461bcd60e51b8152602060048201526015602482015274746f416464726573735f6f75744f66426f756e647360581b60448201526064016110cd565b500160200151600160601b900490565b6000614c29826008615b58565b83511015614c705760405162461bcd60e51b8152602060048201526014602482015273746f55696e7436345f6f75744f66426f756e647360601b60448201526064016110cd565b50016008015190565b6000614c86826020615b58565b83511015614cce5760405162461bcd60e51b8152602060048201526015602482015274746f427974657333325f6f75744f66426f756e647360581b60448201526064016110cd565b50016020015190565b6000602282511015614d2b5760405162461bcd60e51b815260206004820152601c60248201527f4c7a4170703a20696e76616c69642061646170746572506172616d730000000060448201526064016110cd565b506022015190565b828054614d3f90615bfd565b90600052602060002090601f016020900481019282614d615760008555614da7565b82601f10614d7a57805160ff1916838001178555614da7565b82800160010185558215614da7579182015b82811115614da7578251825591602001919060010190614d8c565b50613f33929150614e27565b828054614dbf90615bfd565b90600052602060002090601f016020900481019282614de15760008555614da7565b82601f10614dfa5782800160ff19823516178555614da7565b82800160010185558215614da7579182015b82811115614da7578235825591602001919060010190614e0c565b5b80821115613f335760008155600101614e28565b80358015158114614e4c57600080fd5b919050565b60008083601f840112614e62578182fd5b5081356001600160401b03811115614e78578182fd5b602083019150836020828501011115614e9057600080fd5b9250929050565b600060608284031215614ea8578081fd5b50919050565b803561ffff81168114614e4c57600080fd5b80356001600160401b0381168114614e4c57600080fd5b600060208284031215614ee8578081fd5b813561260181615ca3565b60008060408385031215614f05578081fd5b8235614f1081615ca3565b91506020830135614f2081615ca3565b809150509250929050565b600080600060608486031215614f3f578081fd5b8335614f4a81615ca3565b92506020840135614f5a81615ca3565b929592945050506040919091013590565b60008060008060008060008060e0898b031215614f86578384fd5b8835614f9181615ca3565b9750614f9f60208a01614eae565b9650604089013595506060890135945060808901356001600160401b0380821115614fc8578586fd5b614fd48c838d01614e51565b9096509450849150614fe860a08c01614ec0565b935060c08b0135915080821115614ffd578283fd5b5061500a8b828c01614e97565b9150509295985092959890939650565b600080600080600060a08688031215615031578081fd5b853561503c81615ca3565b945061504a60208701614eae565b9350604086013592506060860135915060808601356001600160401b03811115615072578182fd5b61507e88828901614e97565b9150509295509295909350565b6000806040838503121561509d578182fd5b82356150a881615ca3565b946020939093013593505050565b6000602082840312156150c7578081fd5b61260182614e3c565b6000602082840312156150e1578081fd5b81356001600160e01b031981168114612601578182fd5b600060208284031215615109578081fd5b81516001600160401b0381111561511e578182fd5b8201601f8101841361512e578182fd5b805161514161513c82615b31565b615b01565b818152856020838501011115615155578384fd5b611a4f826020830160208601615bba565b600060208284031215615177578081fd5b61260182614eae565b60008060008060008060a08789031215615198578384fd5b6151a187614eae565b955060208701359450604087013593506151bd60608801614e3c565b925060808701356001600160401b038111156151d7578283fd5b6151e389828a01614e51565b979a9699509497509295939492505050565b600080600080600080600080600060e08a8c031215615212578283fd5b61521b8a614eae565b985060208a0135975060408a0135965060608a01356001600160401b0380821115615244578485fd5b6152508d838e01614e51565b909850965086915061526460808d01614ec0565b955061527260a08d01614e3c565b945060c08c0135915080821115615287578283fd5b506152948c828d01614e51565b915080935050809150509295985092959850929598565b6000806000604084860312156152bf578081fd5b6152c884614eae565b925060208401356001600160401b038111156152e2578182fd5b6152ee86828701614e51565b9497909650939450505050565b6000806000806000806000806000806101008b8d03121561531a578384fd5b6153238b614eae565b995060208b01356001600160401b038082111561533e578586fd5b61534a8e838f01614e51565b909b50995089915061535e60408e01614ec0565b985060608d0135975060808d0135915061537782615ca3565b90955060a08c0135945060c08c01359080821115615393578283fd5b506153a08d828e01614e51565b9150809450508092505060e08b013590509295989b9194979a5092959850565b600080600080600080608087890312156153d8578384fd5b6153e187614eae565b955060208701356001600160401b03808211156153fc578586fd5b6154088a838b01614e51565b909750955085915061541c60408a01614ec0565b94506060890135915080821115615431578384fd5b506151e389828a01614e51565b600080600060608486031215615452578081fd5b61545b84614eae565b925060208401356001600160401b03811115615475578182fd5b8401601f81018613615485578182fd5b803561549361513c82615b31565b8181528760208385010111156154a7578384fd5b8160208401602083013790810160200183905292506154ca905060408501614ec0565b90509250925092565b600080604083850312156154e5578182fd5b6154ee83614eae565b91506154fc60208401614eae565b90509250929050565b6000806000806080858703121561551a578182fd5b61552385614eae565b935061553160208601614eae565b9250604085013561554181615ca3565b9396929550929360600135925050565b600080600060608486031215615565578081fd5b61556e84614eae565b925061557c60208501614eae565b9150604084013590509250925092565b6000806000806000608086880312156155a3578283fd5b6155ac86614eae565b94506155ba60208701614eae565b93506040860135925060608601356001600160401b038111156155db578182fd5b6155e788828901614e51565b969995985093965092949392505050565b600060208284031215615609578081fd5b5035919050565b600060208284031215615621578081fd5b5051919050565b6000806040838503121561563a578182fd5b50508035926020909101359150565b6000806040838503121561565b578182fd5b505080516020909101519092909150565b60008060008060808587031215615681578182fd5b5050823594602084013594506040840135936060013592509050565b600080600080600060a086880312156156b4578283fd5b505083359560208501359550604085013594606081013594506080013592509050565b81835281816020850137506000828201602090810191909152601f909101601f19169091010190565b60008151808452615718816020860160208601615bba565b601f01601f19169290920160200192915050565b8183823760009101908152919050565b8284823760609190911b6bffffffffffffffffffffffff19169101908152601401919050565b60008251615774818460208701615bba565b9190910192915050565b60ff60f81b8760f81b16815285600182015260006001600160401b0360c01b808760c01b166021840152856029840152808560c01b1660498401525082516157cd816051850160208701615bba565b91909101605101979650505050505050565b6020815260006126016020830184615700565b6060815260006158056060830186615700565b6001600160401b039490941660208301525060400152919050565b61ffff861681526001600160a01b038516602082015260a06040820181905260009061584e90830186615700565b841515606084015282810360808401526158688185615700565b98975050505050505050565b61ffff84168152604060208201526000611a4f6040830184866156d7565b61ffff861681526080602082015260006158b06080830186886156d7565b6001600160401b0394909416604083015250606001529392505050565b61ffff8916815260c0602082015260006158eb60c08301898b6156d7565b6001600160401b038816604084015286606084015285608084015282810360a084015261394a8185876156d7565b61ffff8716815260c06020820152600061593660c0830188615700565b82810360408401526159488188615700565b6001600160a01b0387811660608601528616608085015283810360a085015290506159738185615700565b9998505050505050505050565b600061010061ffff8b16835280602084015261599e8184018b615700565b6001600160401b038a166040850152606084018990526001600160a01b038816608085015260a0840187905283810360c085015290506159de8186615700565b9150508260e08301529998505050505050505050565b61ffff85168152608060208201526000615a116080830186615700565b6001600160401b03851660408401528281036060840152615a328185615700565b979650505050505050565b61ffff8616815260a060208201526000615a5a60a0830187615700565b6001600160401b03861660408401528281036060840152615a7b8186615700565b905082810360808401526158688185615700565b600061ffff808816835280871660208401525084604083015260806060830152615a326080830184866156d7565b6000808335601e19843603018112615ad3578283fd5b8301803591506001600160401b03821115615aec578283fd5b602001915036819003821315614e9057600080fd5b604051601f8201601f191681016001600160401b0381118282101715615b2957615b29615c8d565b604052919050565b60006001600160401b03821115615b4a57615b4a615c8d565b50601f01601f191660200190565b60008219821115615b6b57615b6b615c61565b500190565b600082615b7f57615b7f615c77565b500490565b6000816000190483118215151615615b9e57615b9e615c61565b500290565b600082821015615bb557615bb5615c61565b500390565b60005b83811015615bd5578181015183820152602001615bbd565b8381111561329e5750506000910152565b600081615bf557615bf5615c61565b506000190190565b600181811c90821680615c1157607f821691505b60208210811415614ea857634e487b7160e01b600052602260045260246000fd5b6000600019821415615c4657615c46615c61565b5060010190565b600082615c5c57615c5c615c77565b500690565b634e487b7160e01b600052601160045260246000fd5b634e487b7160e01b600052601260045260246000fd5b634e487b7160e01b600052604160045260246000fd5b6001600160a01b0381168114612f9657600080fdfea2646970667358221220f11f63af4517c701d0e3d15f0b292f4a7d545a1de7f7429fdb979725205f550b64736f6c63430008040033",
  "linkReferences": {
    "contracts/Math.sol": {
      "Math": [
        {
          "length": 20,
          "start": 7951
        },
        {
          "length": 20,
          "start": 8189
        },
        {
          "length": 20,
          "start": 15671
        },
        {
          "length": 20,
          "start": 15880
        },
        {
          "length": 20,
          "start": 16089
        },
        {
          "length": 20,
          "start": 17662
        }
      ]
    }
  },
  "deployedLinkReferences": {
    "contracts/Math.sol": {
      "Math": [
        {
          "length": 20,
          "start": 6306
        },
        {
          "length": 20,
          "start": 6544
        },
        {
          "length": 20,
          "start": 14026
        },
        {
          "length": 20,
          "start": 14235
        },
        {
          "length": 20,
          "start": 14444
        },
        {
          "length": 20,
          "start": 16017
        }
      ]
    }
  }
}