{
  "_format": "hh-sol-artifact-1",
  "contractName": "Main",
  "sourceName": "contracts/Main.sol",
  "abi": [
    {
      "inputs": [
        {
          "internalType": "uint256",
          "name": "_fee",
          "type": "uint256"
        },
        {
          "internalType": "address",
          "name": "_endpoint",
          "type": "address"
        },
        {
          "internalType": "string",
          "name": "_symbol",
          "type": "string"
        },
        {
          "internalType": "string",
          "name": "_name",
          "type": "string"
        }
      ],
      "stateMutability": "nonpayable",
      "type": "constructor"
    },
    {
      "anonymous": false,
      "inputs": [
        {
          "indexed": true,
          "internalType": "address",
          "name": "owner",
          "type": "address"
        },
        {
          "indexed": true,
          "internalType": "address",
          "name": "spender",
          "type": "address"
        },
        {
          "indexed": false,
          "internalType": "uint256",
          "name": "value",
          "type": "uint256"
        }
      ],
      "name": "Approval",
      "type": "event"
    },
    {
      "anonymous": false,
      "inputs": [
        {
          "indexed": true,
          "internalType": "uint16",
          "name": "_srcChainId",
          "type": "uint16"
        },
        {
          "indexed": false,
          "internalType": "bytes",
          "name": "_srcAddress",
          "type": "bytes"
        },
        {
          "indexed": false,
          "internalType": "uint64",
          "name": "_nonce",
          "type": "uint64"
        },
        {
          "indexed": false,
          "internalType": "bytes32",
          "name": "_hash",
          "type": "bytes32"
        }
      ],
      "name": "CallOFTReceivedSuccess",
      "type": "event"
    },
    {
      "anonymous": false,
      "inputs": [
        {
          "indexed": false,
          "internalType": "uint16",
          "name": "_srcChainId",
          "type": "uint16"
        },
        {
          "indexed": false,
          "internalType": "bytes",
          "name": "_srcAddress",
          "type": "bytes"
        },
        {
          "indexed": false,
          "internalType": "uint64",
          "name": "_nonce",
          "type": "uint64"
        },
        {
          "indexed": false,
          "internalType": "bytes",
          "name": "_payload",
          "type": "bytes"
        },
        {
          "indexed": false,
          "internalType": "bytes",
          "name": "_reason",
          "type": "bytes"
        }
      ],
      "name": "MessageFailed",
      "type": "event"
    },
    {
      "anonymous": false,
      "inputs": [
        {
          "indexed": true,
          "internalType": "address",
          "name": "user",
          "type": "address"
        },
        {
          "indexed": false,
          "internalType": "uint256",
          "name": "rewardAmount",
          "type": "uint256"
        }
      ],
      "name": "MintClaimed",
      "type": "event"
    },
    {
      "anonymous": false,
      "inputs": [
        {
          "indexed": false,
          "internalType": "address",
          "name": "_address",
          "type": "address"
        }
      ],
      "name": "NonContractAddress",
      "type": "event"
    },
    {
      "anonymous": false,
      "inputs": [
        {
          "indexed": true,
          "internalType": "address",
          "name": "previousOwner",
          "type": "address"
        },
        {
          "indexed": true,
          "internalType": "address",
          "name": "newOwner",
          "type": "address"
        }
      ],
      "name": "OwnershipTransferred",
      "type": "event"
    },
    {
      "anonymous": false,
      "inputs": [
        {
          "indexed": true,
          "internalType": "address",
          "name": "user",
          "type": "address"
        },
        {
          "indexed": false,
          "internalType": "uint256",
          "name": "term",
          "type": "uint256"
        },
        {
          "indexed": false,
          "internalType": "uint256",
          "name": "rank",
          "type": "uint256"
        },
        {
          "indexed": false,
          "internalType": "uint256",
          "name": "AMP",
          "type": "uint256"
        },
        {
          "indexed": false,
          "internalType": "uint256",
          "name": "EAA",
          "type": "uint256"
        },
        {
          "indexed": false,
          "internalType": "uint256",
          "name": "maturity",
          "type": "uint256"
        }
      ],
      "name": "RankClaimed",
      "type": "event"
    },
    {
      "anonymous": false,
      "inputs": [
        {
          "indexed": true,
          "internalType": "uint16",
          "name": "_srcChainId",
          "type": "uint16"
        },
        {
          "indexed": true,
          "internalType": "address",
          "name": "_to",
          "type": "address"
        },
        {
          "indexed": false,
          "internalType": "uint256",
          "name": "_amount",
          "type": "uint256"
        }
      ],
      "name": "ReceiveFromChain",
      "type": "event"
    },
    {
      "anonymous": false,
      "inputs": [
        {
          "indexed": true,
          "internalType": "address",
          "name": "user",
          "type": "address"
        },
        {
          "indexed": true,
          "internalType": "address",
          "name": "xenContract",
          "type": "address"
        },
        {
          "indexed": true,
          "internalType": "address",
          "name": "tokenContract",
          "type": "address"
        },
        {
          "indexed": false,
          "internalType": "uint256",
          "name": "xenAmount",
          "type": "uint256"
        },
        {
          "indexed": false,
          "internalType": "uint256",
          "name": "tokenAmount",
          "type": "uint256"
        }
      ],
      "name": "Redeemed",
      "type": "event"
    },
    {
      "anonymous": false,
      "inputs": [
        {
          "indexed": false,
          "internalType": "uint16",
          "name": "_srcChainId",
          "type": "uint16"
        },
        {
          "indexed": false,
          "internalType": "bytes",
          "name": "_srcAddress",
          "type": "bytes"
        },
        {
          "indexed": false,
          "internalType": "uint64",
          "name": "_nonce",
          "type": "uint64"
        },
        {
          "indexed": false,
          "internalType": "bytes32",
          "name": "_payloadHash",
          "type": "bytes32"
        }
      ],
      "name": "RetryMessageSuccess",
      "type": "event"
    },
    {
      "anonymous": false,
      "inputs": [
        {
          "indexed": true,
          "internalType": "uint16",
          "name": "_dstChainId",
          "type": "uint16"
        },
        {
          "indexed": true,
          "internalType": "address",
          "name": "_from",
          "type": "address"
        },
        {
          "indexed": true,
          "internalType": "bytes32",
          "name": "_toAddress",
          "type": "bytes32"
        },
        {
          "indexed": false,
          "internalType": "uint256",
          "name": "_amount",
          "type": "uint256"
        }
      ],
      "name": "SendToChain",
      "type": "event"
    },
    {
      "anonymous": false,
      "inputs": [
        {
          "indexed": false,
          "internalType": "uint16",
          "name": "_dstChainId",
          "type": "uint16"
        },
        {
          "indexed": false,
          "internalType": "uint16",
          "name": "_type",
          "type": "uint16"
        },
        {
          "indexed": false,
          "internalType": "uint256",
          "name": "_minDstGas",
          "type": "uint256"
        }
      ],
      "name": "SetMinDstGas",
      "type": "event"
    },
    {
      "anonymous": false,
      "inputs": [
        {
          "indexed": false,
          "internalType": "address",
          "name": "precrime",
          "type": "address"
        }
      ],
      "name": "SetPrecrime",
      "type": "event"
    },
    {
      "anonymous": false,
      "inputs": [
        {
          "indexed": false,
          "internalType": "uint16",
          "name": "_remoteChainId",
          "type": "uint16"
        },
        {
          "indexed": false,
          "internalType": "bytes",
          "name": "_path",
          "type": "bytes"
        }
      ],
      "name": "SetTrustedRemote",
      "type": "event"
    },
    {
      "anonymous": false,
      "inputs": [
        {
          "indexed": false,
          "internalType": "uint16",
          "name": "_remoteChainId",
          "type": "uint16"
        },
        {
          "indexed": false,
          "internalType": "bytes",
          "name": "_remoteAddress",
          "type": "bytes"
        }
      ],
      "name": "SetTrustedRemoteAddress",
      "type": "event"
    },
    {
      "anonymous": false,
      "inputs": [
        {
          "indexed": false,
          "internalType": "bool",
          "name": "_useCustomAdapterParams",
          "type": "bool"
        }
      ],
      "name": "SetUseCustomAdapterParams",
      "type": "event"
    },
    {
      "anonymous": false,
      "inputs": [
        {
          "indexed": true,
          "internalType": "address",
          "name": "user",
          "type": "address"
        },
        {
          "indexed": false,
          "internalType": "uint256",
          "name": "amount",
          "type": "uint256"
        },
        {
          "indexed": false,
          "internalType": "uint256",
          "name": "term",
          "type": "uint256"
        }
      ],
      "name": "Staked",
      "type": "event"
    },
    {
      "anonymous": false,
      "inputs": [
        {
          "indexed": true,
          "internalType": "address",
          "name": "from",
          "type": "address"
        },
        {
          "indexed": true,
          "internalType": "address",
          "name": "to",
          "type": "address"
        },
        {
          "indexed": false,
          "internalType": "uint256",
          "name": "value",
          "type": "uint256"
        }
      ],
      "name": "Transfer",
      "type": "event"
    },
    {
      "anonymous": false,
      "inputs": [
        {
          "indexed": true,
          "internalType": "address",
          "name": "user",
          "type": "address"
        },
        {
          "indexed": false,
          "internalType": "uint256",
          "name": "amount",
          "type": "uint256"
        },
        {
          "indexed": false,
          "internalType": "uint256",
          "name": "reward",
          "type": "uint256"
        }
      ],
      "name": "Withdrawn",
      "type": "event"
    },
    {
      "inputs": [],
      "name": "DAYS_IN_YEAR",
      "outputs": [
        {
          "internalType": "uint256",
          "name": "",
          "type": "uint256"
        }
      ],
      "stateMutability": "view",
      "type": "function"
    },
    {
      "inputs": [],
      "name": "EAA_PM_START",
      "outputs": [
        {
          "internalType": "uint256",
          "name": "",
          "type": "uint256"
        }
      ],
      "stateMutability": "view",
      "type": "function"
    },
    {
      "inputs": [],
      "name": "EAA_PM_STEP",
      "outputs": [
        {
          "internalType": "uint256",
          "name": "",
          "type": "uint256"
        }
      ],
      "stateMutability": "view",
      "type": "function"
    },
    {
      "inputs": [],
      "name": "EAA_RANK_STEP",
      "outputs": [
        {
          "internalType": "uint256",
          "name": "",
          "type": "uint256"
        }
      ],
      "stateMutability": "view",
      "type": "function"
    },
    {
      "inputs": [],
      "name": "GENESIS_RANK",
      "outputs": [
        {
          "internalType": "uint256",
          "name": "",
          "type": "uint256"
        }
      ],
      "stateMutability": "view",
      "type": "function"
    },
    {
      "inputs": [],
      "name": "MAX_PENALTY_PCT",
      "outputs": [
        {
          "internalType": "uint256",
          "name": "",
          "type": "uint256"
        }
      ],
      "stateMutability": "view",
      "type": "function"
    },
    {
      "inputs": [],
      "name": "MAX_TERM_END",
      "outputs": [
        {
          "internalType": "uint256",
          "name": "",
          "type": "uint256"
        }
      ],
      "stateMutability": "view",
      "type": "function"
    },
    {
      "inputs": [],
      "name": "MAX_TERM_START",
      "outputs": [
        {
          "internalType": "uint256",
          "name": "",
          "type": "uint256"
        }
      ],
      "stateMutability": "view",
      "type": "function"
    },
    {
      "inputs": [],
      "name": "MIN_TERM",
      "outputs": [
        {
          "internalType": "uint256",
          "name": "",
          "type": "uint256"
        }
      ],
      "stateMutability": "view",
      "type": "function"
    },
    {
      "inputs": [],
      "name": "NO_EXTRA_GAS",
      "outputs": [
        {
          "internalType": "uint256",
          "name": "",
          "type": "uint256"
        }
      ],
      "stateMutability": "view",
      "type": "function"
    },
    {
      "inputs": [],
      "name": "PT_SEND",
      "outputs": [
        {
          "internalType": "uint8",
          "name": "",
          "type": "uint8"
        }
      ],
      "stateMutability": "view",
      "type": "function"
    },
    {
      "inputs": [],
      "name": "PT_SEND_AND_CALL",
      "outputs": [
        {
          "internalType": "uint8",
          "name": "",
          "type": "uint8"
        }
      ],
      "stateMutability": "view",
      "type": "function"
    },
    {
      "inputs": [],
      "name": "REWARD_AMPLIFIER_END",
      "outputs": [
        {
          "internalType": "uint256",
          "name": "",
          "type": "uint256"
        }
      ],
      "stateMutability": "view",
      "type": "function"
    },
    {
      "inputs": [],
      "name": "REWARD_AMPLIFIER_START",
      "outputs": [
        {
          "internalType": "uint256",
          "name": "",
          "type": "uint256"
        }
      ],
      "stateMutability": "view",
      "type": "function"
    },
    {
      "inputs": [],
      "name": "SECONDS_IN_DAY",
      "outputs": [
        {
          "internalType": "uint256",
          "name": "",
          "type": "uint256"
        }
      ],
      "stateMutability": "view",
      "type": "function"
    },
    {
      "inputs": [],
      "name": "TERM_AMPLIFIER",
      "outputs": [
        {
          "internalType": "uint256",
          "name": "",
          "type": "uint256"
        }
      ],
      "stateMutability": "view",
      "type": "function"
    },
    {
      "inputs": [],
      "name": "TERM_AMPLIFIER_THRESHOLD",
      "outputs": [
        {
          "internalType": "uint256",
          "name": "",
          "type": "uint256"
        }
      ],
      "stateMutability": "view",
      "type": "function"
    },
    {
      "inputs": [],
      "name": "WITHDRAWAL_WINDOW_DAYS",
      "outputs": [
        {
          "internalType": "uint256",
          "name": "",
          "type": "uint256"
        }
      ],
      "stateMutability": "view",
      "type": "function"
    },
    {
      "inputs": [],
      "name": "XEX_APY_DAYS_STEP",
      "outputs": [
        {
          "internalType": "uint256",
          "name": "",
          "type": "uint256"
        }
      ],
      "stateMutability": "view",
      "type": "function"
    },
    {
      "inputs": [],
      "name": "XEX_APY_END",
      "outputs": [
        {
          "internalType": "uint256",
          "name": "",
          "type": "uint256"
        }
      ],
      "stateMutability": "view",
      "type": "function"
    },
    {
      "inputs": [],
      "name": "XEX_APY_START",
      "outputs": [
        {
          "internalType": "uint256",
          "name": "",
          "type": "uint256"
        }
      ],
      "stateMutability": "view",
      "type": "function"
    },
    {
      "inputs": [],
      "name": "XEX_MIN_BURN",
      "outputs": [
        {
          "internalType": "uint256",
          "name": "",
          "type": "uint256"
        }
      ],
      "stateMutability": "view",
      "type": "function"
    },
    {
      "inputs": [],
      "name": "XEX_MIN_STAKE",
      "outputs": [
        {
          "internalType": "uint256",
          "name": "",
          "type": "uint256"
        }
      ],
      "stateMutability": "view",
      "type": "function"
    },
    {
      "inputs": [],
      "name": "activeMinters",
      "outputs": [
        {
          "internalType": "uint256",
          "name": "",
          "type": "uint256"
        }
      ],
      "stateMutability": "view",
      "type": "function"
    },
    {
      "inputs": [],
      "name": "activeStakes",
      "outputs": [
        {
          "internalType": "uint256",
          "name": "",
          "type": "uint256"
        }
      ],
      "stateMutability": "view",
      "type": "function"
    },
    {
      "inputs": [
        {
          "internalType": "address",
          "name": "owner",
          "type": "address"
        },
        {
          "internalType": "address",
          "name": "spender",
          "type": "address"
        }
      ],
      "name": "allowance",
      "outputs": [
        {
          "internalType": "uint256",
          "name": "",
          "type": "uint256"
        }
      ],
      "stateMutability": "view",
      "type": "function"
    },
    {
      "inputs": [
        {
          "internalType": "address",
          "name": "spender",
          "type": "address"
        },
        {
          "internalType": "uint256",
          "name": "amount",
          "type": "uint256"
        }
      ],
      "name": "approve",
      "outputs": [
        {
          "internalType": "bool",
          "name": "",
          "type": "bool"
        }
      ],
      "stateMutability": "nonpayable",
      "type": "function"
    },
    {
      "inputs": [
        {
          "internalType": "address",
          "name": "account",
          "type": "address"
        }
      ],
      "name": "balanceOf",
      "outputs": [
        {
          "internalType": "uint256",
          "name": "",
          "type": "uint256"
        }
      ],
      "stateMutability": "view",
      "type": "function"
    },
    {
      "inputs": [
        {
          "internalType": "uint16",
          "name": "_srcChainId",
          "type": "uint16"
        },
        {
          "internalType": "bytes",
          "name": "_srcAddress",
          "type": "bytes"
        },
        {
          "internalType": "uint64",
          "name": "_nonce",
          "type": "uint64"
        },
        {
          "internalType": "bytes32",
          "name": "_from",
          "type": "bytes32"
        },
        {
          "internalType": "address",
          "name": "_to",
          "type": "address"
        },
        {
          "internalType": "uint256",
          "name": "_amount",
          "type": "uint256"
        },
        {
          "internalType": "bytes",
          "name": "_payload",
          "type": "bytes"
        },
        {
          "internalType": "uint256",
          "name": "_gasForCall",
          "type": "uint256"
        }
      ],
      "name": "callOnOFTReceived",
      "outputs": [],
      "stateMutability": "nonpayable",
      "type": "function"
    },
    {
      "inputs": [],
      "name": "circulatingSupply",
      "outputs": [
        {
          "internalType": "uint256",
          "name": "",
          "type": "uint256"
        }
      ],
      "stateMutability": "view",
      "type": "function"
    },
    {
      "inputs": [],
      "name": "claimMintReward",
      "outputs": [],
      "stateMutability": "payable",
      "type": "function"
    },
    {
      "inputs": [
        {
          "internalType": "uint256",
          "name": "pct",
          "type": "uint256"
        },
        {
          "internalType": "uint256",
          "name": "term",
          "type": "uint256"
        }
      ],
      "name": "claimMintRewardAndStake",
      "outputs": [],
      "stateMutability": "payable",
      "type": "function"
    },
    {
      "inputs": [
        {
          "internalType": "uint256",
          "name": "term",
          "type": "uint256"
        }
      ],
      "name": "claimRank",
      "outputs": [],
      "stateMutability": "nonpayable",
      "type": "function"
    },
    {
      "inputs": [
        {
          "internalType": "uint16",
          "name": "",
          "type": "uint16"
        },
        {
          "internalType": "bytes",
          "name": "",
          "type": "bytes"
        },
        {
          "internalType": "uint64",
          "name": "",
          "type": "uint64"
        }
      ],
      "name": "creditedPackets",
      "outputs": [
        {
          "internalType": "bool",
          "name": "",
          "type": "bool"
        }
      ],
      "stateMutability": "view",
      "type": "function"
    },
    {
      "inputs": [],
      "name": "decimals",
      "outputs": [
        {
          "internalType": "uint8",
          "name": "",
          "type": "uint8"
        }
      ],
      "stateMutability": "view",
      "type": "function"
    },
    {
      "inputs": [
        {
          "internalType": "address",
          "name": "spender",
          "type": "address"
        },
        {
          "internalType": "uint256",
          "name": "subtractedValue",
          "type": "uint256"
        }
      ],
      "name": "decreaseAllowance",
      "outputs": [
        {
          "internalType": "bool",
          "name": "",
          "type": "bool"
        }
      ],
      "stateMutability": "nonpayable",
      "type": "function"
    },
    {
      "inputs": [
        {
          "internalType": "uint16",
          "name": "_dstChainId",
          "type": "uint16"
        },
        {
          "internalType": "bytes32",
          "name": "_toAddress",
          "type": "bytes32"
        },
        {
          "internalType": "uint256",
          "name": "_amount",
          "type": "uint256"
        },
        {
          "internalType": "bytes",
          "name": "_payload",
          "type": "bytes"
        },
        {
          "internalType": "uint64",
          "name": "_dstGasForCall",
          "type": "uint64"
        },
        {
          "internalType": "bool",
          "name": "_useZro",
          "type": "bool"
        },
        {
          "internalType": "bytes",
          "name": "_adapterParams",
          "type": "bytes"
        }
      ],
      "name": "estimateSendAndCallFee",
      "outputs": [
        {
          "internalType": "uint256",
          "name": "nativeFee",
          "type": "uint256"
        },
        {
          "internalType": "uint256",
          "name": "zroFee",
          "type": "uint256"
        }
      ],
      "stateMutability": "view",
      "type": "function"
    },
    {
      "inputs": [
        {
          "internalType": "uint16",
          "name": "_dstChainId",
          "type": "uint16"
        },
        {
          "internalType": "bytes32",
          "name": "_toAddress",
          "type": "bytes32"
        },
        {
          "internalType": "uint256",
          "name": "_amount",
          "type": "uint256"
        },
        {
          "internalType": "bool",
          "name": "_useZro",
          "type": "bool"
        },
        {
          "internalType": "bytes",
          "name": "_adapterParams",
          "type": "bytes"
        }
      ],
      "name": "estimateSendFee",
      "outputs": [
        {
          "internalType": "uint256",
          "name": "nativeFee",
          "type": "uint256"
        },
        {
          "internalType": "uint256",
          "name": "zroFee",
          "type": "uint256"
        }
      ],
      "stateMutability": "view",
      "type": "function"
    },
    {
      "inputs": [
        {
          "internalType": "uint16",
          "name": "",
          "type": "uint16"
        },
        {
          "internalType": "bytes",
          "name": "",
          "type": "bytes"
        },
        {
          "internalType": "uint64",
          "name": "",
          "type": "uint64"
        }
      ],
      "name": "failedMessages",
      "outputs": [
        {
          "internalType": "bytes32",
          "name": "",
          "type": "bytes32"
        }
      ],
      "stateMutability": "view",
      "type": "function"
    },
    {
      "inputs": [],
      "name": "fee",
      "outputs": [
        {
          "internalType": "uint256",
          "name": "",
          "type": "uint256"
        }
      ],
      "stateMutability": "view",
      "type": "function"
    },
    {
      "inputs": [
        {
          "internalType": "uint16",
          "name": "_srcChainId",
          "type": "uint16"
        },
        {
          "internalType": "bytes",
          "name": "_srcAddress",
          "type": "bytes"
        }
      ],
      "name": "forceResumeReceive",
      "outputs": [],
      "stateMutability": "nonpayable",
      "type": "function"
    },
    {
      "inputs": [],
      "name": "genesisTs",
      "outputs": [
        {
          "internalType": "uint256",
          "name": "",
          "type": "uint256"
        }
      ],
      "stateMutability": "view",
      "type": "function"
    },
    {
      "inputs": [
        {
          "internalType": "uint16",
          "name": "_version",
          "type": "uint16"
        },
        {
          "internalType": "uint16",
          "name": "_chainId",
          "type": "uint16"
        },
        {
          "internalType": "address",
          "name": "",
          "type": "address"
        },
        {
          "internalType": "uint256",
          "name": "_configType",
          "type": "uint256"
        }
      ],
      "name": "getConfig",
      "outputs": [
        {
          "internalType": "bytes",
          "name": "",
          "type": "bytes"
        }
      ],
      "stateMutability": "view",
      "type": "function"
    },
    {
      "inputs": [],
      "name": "getCurrentAMP",
      "outputs": [
        {
          "internalType": "uint256",
          "name": "",
          "type": "uint256"
        }
      ],
      "stateMutability": "view",
      "type": "function"
    },
    {
      "inputs": [],
      "name": "getCurrentAPY",
      "outputs": [
        {
          "internalType": "uint256",
          "name": "",
          "type": "uint256"
        }
      ],
      "stateMutability": "view",
      "type": "function"
    },
    {
      "inputs": [],
      "name": "getCurrentEAAR",
      "outputs": [
        {
          "internalType": "uint256",
          "name": "",
          "type": "uint256"
        }
      ],
      "stateMutability": "view",
      "type": "function"
    },
    {
      "inputs": [],
      "name": "getCurrentMaxTerm",
      "outputs": [
        {
          "internalType": "uint256",
          "name": "",
          "type": "uint256"
        }
      ],
      "stateMutability": "view",
      "type": "function"
    },
    {
      "inputs": [
        {
          "internalType": "uint256",
          "name": "rankDelta",
          "type": "uint256"
        },
        {
          "internalType": "uint256",
          "name": "amplifier",
          "type": "uint256"
        },
        {
          "internalType": "uint256",
          "name": "term",
          "type": "uint256"
        },
        {
          "internalType": "uint256",
          "name": "eaa",
          "type": "uint256"
        }
      ],
      "name": "getGrossReward",
      "outputs": [
        {
          "internalType": "uint256",
          "name": "",
          "type": "uint256"
        }
      ],
      "stateMutability": "pure",
      "type": "function"
    },
    {
      "inputs": [
        {
          "internalType": "uint256",
          "name": "cRank",
          "type": "uint256"
        },
        {
          "internalType": "uint256",
          "name": "term",
          "type": "uint256"
        },
        {
          "internalType": "uint256",
          "name": "maturityTs",
          "type": "uint256"
        },
        {
          "internalType": "uint256",
          "name": "amplifier",
          "type": "uint256"
        },
        {
          "internalType": "uint256",
          "name": "eeaRate",
          "type": "uint256"
        }
      ],
      "name": "getMintReward",
      "outputs": [
        {
          "internalType": "uint256",
          "name": "",
          "type": "uint256"
        }
      ],
      "stateMutability": "view",
      "type": "function"
    },
    {
      "inputs": [
        {
          "internalType": "uint16",
          "name": "_remoteChainId",
          "type": "uint16"
        }
      ],
      "name": "getTrustedRemoteAddress",
      "outputs": [
        {
          "internalType": "bytes",
          "name": "",
          "type": "bytes"
        }
      ],
      "stateMutability": "view",
      "type": "function"
    },
    {
      "inputs": [],
      "name": "getUserMint",
      "outputs": [
        {
          "components": [
            {
              "internalType": "address",
              "name": "user",
              "type": "address"
            },
            {
              "internalType": "uint256",
              "name": "term",
              "type": "uint256"
            },
            {
              "internalType": "uint256",
              "name": "maturityTs",
              "type": "uint256"
            },
            {
              "internalType": "uint256",
              "name": "rank",
              "type": "uint256"
            },
            {
              "internalType": "uint256",
              "name": "amplifier",
              "type": "uint256"
            },
            {
              "internalType": "uint256",
              "name": "eaaRate",
              "type": "uint256"
            }
          ],
          "internalType": "struct Main.MintInfo",
          "name": "",
          "type": "tuple"
        }
      ],
      "stateMutability": "view",
      "type": "function"
    },
    {
      "inputs": [],
      "name": "getUserStake",
      "outputs": [
        {
          "components": [
            {
              "internalType": "uint256",
              "name": "term",
              "type": "uint256"
            },
            {
              "internalType": "uint256",
              "name": "maturityTs",
              "type": "uint256"
            },
            {
              "internalType": "uint256",
              "name": "amount",
              "type": "uint256"
            },
            {
              "internalType": "uint256",
              "name": "apy",
              "type": "uint256"
            }
          ],
          "internalType": "struct Main.StakeInfo",
          "name": "",
          "type": "tuple"
        }
      ],
      "stateMutability": "view",
      "type": "function"
    },
    {
      "inputs": [],
      "name": "globalRank",
      "outputs": [
        {
          "internalType": "uint256",
          "name": "",
          "type": "uint256"
        }
      ],
      "stateMutability": "view",
      "type": "function"
    },
    {
      "inputs": [
        {
          "internalType": "address",
          "name": "spender",
          "type": "address"
        },
        {
          "internalType": "uint256",
          "name": "addedValue",
          "type": "uint256"
        }
      ],
      "name": "increaseAllowance",
      "outputs": [
        {
          "internalType": "bool",
          "name": "",
          "type": "bool"
        }
      ],
      "stateMutability": "nonpayable",
      "type": "function"
    },
    {
      "inputs": [
        {
          "internalType": "uint16",
          "name": "_srcChainId",
          "type": "uint16"
        },
        {
          "internalType": "bytes",
          "name": "_srcAddress",
          "type": "bytes"
        }
      ],
      "name": "isTrustedRemote",
      "outputs": [
        {
          "internalType": "bool",
          "name": "",
          "type": "bool"
        }
      ],
      "stateMutability": "view",
      "type": "function"
    },
    {
      "inputs": [],
      "name": "lzEndpoint",
      "outputs": [
        {
          "internalType": "contract ILayerZeroEndpoint",
          "name": "",
          "type": "address"
        }
      ],
      "stateMutability": "view",
      "type": "function"
    },
    {
      "inputs": [
        {
          "internalType": "uint16",
          "name": "_srcChainId",
          "type": "uint16"
        },
        {
          "internalType": "bytes",
          "name": "_srcAddress",
          "type": "bytes"
        },
        {
          "internalType": "uint64",
          "name": "_nonce",
          "type": "uint64"
        },
        {
          "internalType": "bytes",
          "name": "_payload",
          "type": "bytes"
        }
      ],
      "name": "lzReceive",
      "outputs": [],
      "stateMutability": "nonpayable",
      "type": "function"
    },
    {
      "inputs": [
        {
          "internalType": "uint16",
          "name": "",
          "type": "uint16"
        },
        {
          "internalType": "uint16",
          "name": "",
          "type": "uint16"
        }
      ],
      "name": "minDstGasLookup",
      "outputs": [
        {
          "internalType": "uint256",
          "name": "",
          "type": "uint256"
        }
      ],
      "stateMutability": "view",
      "type": "function"
    },
    {
      "inputs": [],
      "name": "name",
      "outputs": [
        {
          "internalType": "string",
          "name": "",
          "type": "string"
        }
      ],
      "stateMutability": "view",
      "type": "function"
    },
    {
      "inputs": [
        {
          "internalType": "uint16",
          "name": "_srcChainId",
          "type": "uint16"
        },
        {
          "internalType": "bytes",
          "name": "_srcAddress",
          "type": "bytes"
        },
        {
          "internalType": "uint64",
          "name": "_nonce",
          "type": "uint64"
        },
        {
          "internalType": "bytes",
          "name": "_payload",
          "type": "bytes"
        }
      ],
      "name": "nonblockingLzReceive",
      "outputs": [],
      "stateMutability": "nonpayable",
      "type": "function"
    },
    {
      "inputs": [],
      "name": "owner",
      "outputs": [
        {
          "internalType": "address",
          "name": "",
          "type": "address"
        }
      ],
      "stateMutability": "view",
      "type": "function"
    },
    {
      "inputs": [],
      "name": "precrime",
      "outputs": [
        {
          "internalType": "address",
          "name": "",
          "type": "address"
        }
      ],
      "stateMutability": "view",
      "type": "function"
    },
    {
      "inputs": [],
      "name": "renounceOwnership",
      "outputs": [],
      "stateMutability": "nonpayable",
      "type": "function"
    },
    {
      "inputs": [
        {
          "internalType": "uint16",
          "name": "_srcChainId",
          "type": "uint16"
        },
        {
          "internalType": "bytes",
          "name": "_srcAddress",
          "type": "bytes"
        },
        {
          "internalType": "uint64",
          "name": "_nonce",
          "type": "uint64"
        },
        {
          "internalType": "bytes",
          "name": "_payload",
          "type": "bytes"
        }
      ],
      "name": "retryMessage",
      "outputs": [],
      "stateMutability": "payable",
      "type": "function"
    },
    {
      "inputs": [
        {
          "internalType": "address",
          "name": "_from",
          "type": "address"
        },
        {
          "internalType": "uint16",
          "name": "_dstChainId",
          "type": "uint16"
        },
        {
          "internalType": "bytes32",
          "name": "_toAddress",
          "type": "bytes32"
        },
        {
          "internalType": "uint256",
          "name": "_amount",
          "type": "uint256"
        },
        {
          "internalType": "bytes",
          "name": "_payload",
          "type": "bytes"
        },
        {
          "internalType": "uint64",
          "name": "_dstGasForCall",
          "type": "uint64"
        },
        {
          "components": [
            {
              "internalType": "address payable",
              "name": "refundAddress",
              "type": "address"
            },
            {
              "internalType": "address",
              "name": "zroPaymentAddress",
              "type": "address"
            },
            {
              "internalType": "bytes",
              "name": "adapterParams",
              "type": "bytes"
            }
          ],
          "internalType": "struct ICommonOFT.LzCallParams",
          "name": "_callParams",
          "type": "tuple"
        }
      ],
      "name": "sendAndCall",
      "outputs": [],
      "stateMutability": "payable",
      "type": "function"
    },
    {
      "inputs": [
        {
          "internalType": "address",
          "name": "_from",
          "type": "address"
        },
        {
          "internalType": "uint16",
          "name": "_dstChainId",
          "type": "uint16"
        },
        {
          "internalType": "bytes32",
          "name": "_toAddress",
          "type": "bytes32"
        },
        {
          "internalType": "uint256",
          "name": "_amount",
          "type": "uint256"
        },
        {
          "components": [
            {
              "internalType": "address payable",
              "name": "refundAddress",
              "type": "address"
            },
            {
              "internalType": "address",
              "name": "zroPaymentAddress",
              "type": "address"
            },
            {
              "internalType": "bytes",
              "name": "adapterParams",
              "type": "bytes"
            }
          ],
          "internalType": "struct ICommonOFT.LzCallParams",
          "name": "_callParams",
          "type": "tuple"
        }
      ],
      "name": "sendFrom",
      "outputs": [],
      "stateMutability": "payable",
      "type": "function"
    },
    {
      "inputs": [
        {
          "internalType": "uint16",
          "name": "_version",
          "type": "uint16"
        },
        {
          "internalType": "uint16",
          "name": "_chainId",
          "type": "uint16"
        },
        {
          "internalType": "uint256",
          "name": "_configType",
          "type": "uint256"
        },
        {
          "internalType": "bytes",
          "name": "_config",
          "type": "bytes"
        }
      ],
      "name": "setConfig",
      "outputs": [],
      "stateMutability": "nonpayable",
      "type": "function"
    },
    {
      "inputs": [
        {
          "internalType": "address",
          "name": "_endpoint",
          "type": "address"
        }
      ],
      "name": "setEndpoint",
      "outputs": [],
      "stateMutability": "nonpayable",
      "type": "function"
    },
    {
      "inputs": [
        {
          "internalType": "uint16",
          "name": "_dstChainId",
          "type": "uint16"
        },
        {
          "internalType": "uint16",
          "name": "_packetType",
          "type": "uint16"
        },
        {
          "internalType": "uint256",
          "name": "_minGas",
          "type": "uint256"
        }
      ],
      "name": "setMinDstGas",
      "outputs": [],
      "stateMutability": "nonpayable",
      "type": "function"
    },
    {
      "inputs": [
        {
          "internalType": "address",
          "name": "_precrime",
          "type": "address"
        }
      ],
      "name": "setPrecrime",
      "outputs": [],
      "stateMutability": "nonpayable",
      "type": "function"
    },
    {
      "inputs": [
        {
          "internalType": "uint16",
          "name": "_version",
          "type": "uint16"
        }
      ],
      "name": "setReceiveVersion",
      "outputs": [],
      "stateMutability": "nonpayable",
      "type": "function"
    },
    {
      "inputs": [
        {
          "internalType": "uint16",
          "name": "_version",
          "type": "uint16"
        }
      ],
      "name": "setSendVersion",
      "outputs": [],
      "stateMutability": "nonpayable",
      "type": "function"
    },
    {
      "inputs": [
        {
          "internalType": "address",
          "name": "_treasure",
          "type": "address"
        }
      ],
      "name": "setTreasure",
      "outputs": [],
      "stateMutability": "nonpayable",
      "type": "function"
    },
    {
      "inputs": [
        {
          "internalType": "uint16",
          "name": "_srcChainId",
          "type": "uint16"
        },
        {
          "internalType": "bytes",
          "name": "_path",
          "type": "bytes"
        }
      ],
      "name": "setTrustedRemote",
      "outputs": [],
      "stateMutability": "nonpayable",
      "type": "function"
    },
    {
      "inputs": [
        {
          "internalType": "uint16",
          "name": "_remoteChainId",
          "type": "uint16"
        },
        {
          "internalType": "bytes",
          "name": "_remoteAddress",
          "type": "bytes"
        }
      ],
      "name": "setTrustedRemoteAddress",
      "outputs": [],
      "stateMutability": "nonpayable",
      "type": "function"
    },
    {
      "inputs": [
        {
          "internalType": "bool",
          "name": "_useCustomAdapterParams",
          "type": "bool"
        }
      ],
      "name": "setUseCustomAdapterParams",
      "outputs": [],
      "stateMutability": "nonpayable",
      "type": "function"
    },
    {
      "inputs": [],
      "name": "sharedDecimals",
      "outputs": [
        {
          "internalType": "uint8",
          "name": "",
          "type": "uint8"
        }
      ],
      "stateMutability": "view",
      "type": "function"
    },
    {
      "inputs": [
        {
          "internalType": "uint256",
          "name": "amount",
          "type": "uint256"
        },
        {
          "internalType": "uint256",
          "name": "term",
          "type": "uint256"
        }
      ],
      "name": "stake",
      "outputs": [],
      "stateMutability": "payable",
      "type": "function"
    },
    {
      "inputs": [
        {
          "internalType": "bytes4",
          "name": "interfaceId",
          "type": "bytes4"
        }
      ],
      "name": "supportsInterface",
      "outputs": [
        {
          "internalType": "bool",
          "name": "",
          "type": "bool"
        }
      ],
      "stateMutability": "view",
      "type": "function"
    },
    {
      "inputs": [],
      "name": "symbol",
      "outputs": [
        {
          "internalType": "string",
          "name": "",
          "type": "string"
        }
      ],
      "stateMutability": "view",
      "type": "function"
    },
    {
      "inputs": [],
      "name": "token",
      "outputs": [
        {
          "internalType": "address",
          "name": "",
          "type": "address"
        }
      ],
      "stateMutability": "view",
      "type": "function"
    },
    {
      "inputs": [],
      "name": "totalSupply",
      "outputs": [
        {
          "internalType": "uint256",
          "name": "",
          "type": "uint256"
        }
      ],
      "stateMutability": "view",
      "type": "function"
    },
    {
      "inputs": [],
      "name": "totalXexStaked",
      "outputs": [
        {
          "internalType": "uint256",
          "name": "",
          "type": "uint256"
        }
      ],
      "stateMutability": "view",
      "type": "function"
    },
    {
      "inputs": [
        {
          "internalType": "address",
          "name": "to",
          "type": "address"
        },
        {
          "internalType": "uint256",
          "name": "amount",
          "type": "uint256"
        }
      ],
      "name": "transfer",
      "outputs": [
        {
          "internalType": "bool",
          "name": "",
          "type": "bool"
        }
      ],
      "stateMutability": "nonpayable",
      "type": "function"
    },
    {
      "inputs": [
        {
          "internalType": "address",
          "name": "from",
          "type": "address"
        },
        {
          "internalType": "address",
          "name": "to",
          "type": "address"
        },
        {
          "internalType": "uint256",
          "name": "amount",
          "type": "uint256"
        }
      ],
      "name": "transferFrom",
      "outputs": [
        {
          "internalType": "bool",
          "name": "",
          "type": "bool"
        }
      ],
      "stateMutability": "nonpayable",
      "type": "function"
    },
    {
      "inputs": [
        {
          "internalType": "address",
          "name": "newOwner",
          "type": "address"
        }
      ],
      "name": "transferOwnership",
      "outputs": [],
      "stateMutability": "nonpayable",
      "type": "function"
    },
    {
      "inputs": [],
      "name": "treasure",
      "outputs": [
        {
          "internalType": "address",
          "name": "",
          "type": "address"
        }
      ],
      "stateMutability": "view",
      "type": "function"
    },
    {
      "inputs": [
        {
          "internalType": "uint16",
          "name": "",
          "type": "uint16"
        }
      ],
      "name": "trustedRemoteLookup",
      "outputs": [
        {
          "internalType": "bytes",
          "name": "",
          "type": "bytes"
        }
      ],
      "stateMutability": "view",
      "type": "function"
    },
    {
      "inputs": [],
      "name": "useCustomAdapterParams",
      "outputs": [
        {
          "internalType": "bool",
          "name": "",
          "type": "bool"
        }
      ],
      "stateMutability": "view",
      "type": "function"
    },
    {
      "inputs": [
        {
          "internalType": "address",
          "name": "",
          "type": "address"
        }
      ],
      "name": "userBurns",
      "outputs": [
        {
          "internalType": "uint256",
          "name": "",
          "type": "uint256"
        }
      ],
      "stateMutability": "view",
      "type": "function"
    },
    {
      "inputs": [
        {
          "internalType": "address",
          "name": "",
          "type": "address"
        }
      ],
      "name": "userMints",
      "outputs": [
        {
          "internalType": "address",
          "name": "user",
          "type": "address"
        },
        {
          "internalType": "uint256",
          "name": "term",
          "type": "uint256"
        },
        {
          "internalType": "uint256",
          "name": "maturityTs",
          "type": "uint256"
        },
        {
          "internalType": "uint256",
          "name": "rank",
          "type": "uint256"
        },
        {
          "internalType": "uint256",
          "name": "amplifier",
          "type": "uint256"
        },
        {
          "internalType": "uint256",
          "name": "eaaRate",
          "type": "uint256"
        }
      ],
      "stateMutability": "view",
      "type": "function"
    },
    {
      "inputs": [
        {
          "internalType": "address",
          "name": "",
          "type": "address"
        }
      ],
      "name": "userStakes",
      "outputs": [
        {
          "internalType": "uint256",
          "name": "term",
          "type": "uint256"
        },
        {
          "internalType": "uint256",
          "name": "maturityTs",
          "type": "uint256"
        },
        {
          "internalType": "uint256",
          "name": "amount",
          "type": "uint256"
        },
        {
          "internalType": "uint256",
          "name": "apy",
          "type": "uint256"
        }
      ],
      "stateMutability": "view",
      "type": "function"
    },
    {
      "inputs": [],
      "name": "withdraw",
      "outputs": [],
      "stateMutability": "payable",
      "type": "function"
    }
  ],
  "bytecode": "0x60e06040526001600f553480156200001657600080fd5b5060405162006307380380620063078339810160408190526200003991620003c6565b8082600885878484848481818080620000523362000150565b600180546001600160a01b0319166001600160a01b0392909216919091179055505060f81b7fff000000000000000000000000000000000000000000000000000000000000001660805250508151620000b390600d9060208501906200026d565b508051620000c990600e9060208401906200026d565b5050506000620000de620001a060201b60201c565b90508060ff168460ff161115620000f457600080fd5b62000100848262000589565b6200010d90600a620004bb565b60a052506009555050600880546001600160a01b031916339081179091554260c0526200014692509050670de0b6b3a7640000620001a5565b5050505062000618565b600080546001600160a01b038381166001600160a01b0319831681178455604051919092169283917f8be0079c531659141344cd1fd0a4f28419497f9722a3daafe3b4186f6b6457e09190a35050565b601290565b6001600160a01b038216620002005760405162461bcd60e51b815260206004820152601f60248201527f45524332303a206d696e7420746f20746865207a65726f206164647265737300604482015260640160405180910390fd5b80600c600082825462000214919062000457565b90915550506001600160a01b0382166000818152600a60209081526040808320805486019055518481527fddf252ad1be2c89b69c2b068fc378daa952ba7f163c4a11628f55a4df523b3ef910160405180910390a35050565b8280546200027b90620005af565b90600052602060002090601f0160209004810192826200029f5760008555620002ea565b82601f10620002ba57805160ff1916838001178555620002ea565b82800160010185558215620002ea579182015b82811115620002ea578251825591602001919060010190620002cd565b50620002f8929150620002fc565b5090565b5b80821115620002f85760008155600101620002fd565b600082601f83011262000324578081fd5b81516001600160401b038082111562000341576200034162000602565b604051601f8301601f19908116603f011681019082821181831017156200036c576200036c62000602565b8160405283815260209250868385880101111562000388578485fd5b8491505b83821015620003ab57858201830151818301840152908201906200038c565b83821115620003bc57848385830101525b9695505050505050565b60008060008060808587031215620003dc578384fd5b845160208601519094506001600160a01b0381168114620003fb578384fd5b60408601519093506001600160401b038082111562000418578384fd5b620004268883890162000313565b935060608701519150808211156200043c578283fd5b506200044b8782880162000313565b91505092959194509250565b600082198211156200046d576200046d620005ec565b500190565b600181815b80851115620004b3578160001904821115620004975762000497620005ec565b80851615620004a557918102915b93841c939080029062000477565b509250929050565b6000620004cc60ff841683620004d3565b9392505050565b600082620004e45750600162000583565b81620004f35750600062000583565b81600181146200050c5760028114620005175762000537565b600191505062000583565b60ff8411156200052b576200052b620005ec565b50506001821b62000583565b5060208310610133831016604e8410600b84101617156200055c575081810a62000583565b62000568838362000472565b80600019048211156200057f576200057f620005ec565b0290505b92915050565b600060ff821660ff841680821015620005a657620005a6620005ec565b90039392505050565b600181811c90821680620005c457607f821691505b60208210811415620005e657634e487b7160e01b600052602260045260246000fd5b50919050565b634e487b7160e01b600052601160045260246000fd5b634e487b7160e01b600052604160045260246000fd5b60805160f81c60a05160c051615ca06200066760003960008181610edd01528181613da30152613e060152600081816143f30152818161475801526149d0015260006109f90152615ca06000f3fe6080604052600436106105015760003560e01c80638da5cb5b11610297578063c56f0bab11610165578063e6a20ae6116100cc578063ed629c5c11610085578063ed629c5c14610fd5578063f060482914610fef578063f2fde38b14611004578063f340faed14611024578063f5ecbdbc1461103b578063fc0c546a1461105b57600080fd5b8063e6a20ae614610f34578063e81917b414610f49578063eab45d9c14610f5f578063eaffd49a14610f7f578063eb8d72b714610f9f578063ed2f236914610fbf57600080fd5b8063ddca3f431161011e578063ddca3f4314610e04578063df28233114610e1a578063df2a5b3b14610eab578063e3af6d0a14610ecb578063e520fc7e14610eff578063e54f57c014610f1f57600080fd5b8063c56f0bab14610d4f578063cbed8b9c14610d64578063ce653d5f14610d84578063d1deba1f14610db1578063dbbb415514610dc4578063dd62ed3e14610de457600080fd5b8063a457c2d711610209578063b21d35f2116101c2578063b21d35f214610cce578063b353aaa714610ce4578063b4800cdc14610d04578063baf3292d14610d1a578063bcfe394f146106a0578063c0c6525914610d3a57600080fd5b8063a457c2d714610c18578063a4c51df514610c38578063a6c3d16514610c58578063a9059cbb14610c78578063b0fc721714610c98578063b0fd1fc214610cae57600080fd5b806395d89b411161025b57806395d89b4114610b47578063962ca49614610b5c5780639920245414610b715780639bdb981214610b865780639f38369a14610bd85780639ff054df14610bf857600080fd5b80638da5cb5b14610a685780638da7ad2314610a9a578063909a2ff614610afc5780639358928b14610b12578063950c8a7414610b2757600080fd5b806344770515116103d45780637010d7a1116103465780637b0472f0116102ff5780637b0472f0146109d4578063857749b0146109e757806385eb8321146107e95780638979c87c14610a1b57806389fb998f146107e95780638cfd8f5c14610a3057600080fd5b80637010d7a1146108dc57806370a0823114610941578063715018a61461097757806372475f941461098c5780637533d788146109a157806376203b48146109c157600080fd5b8063543d365211610398578063543d3652146106a05780635b8c41e6146108305780635bccb4c41461087f57806361a52a361461089257806366ad5c8a146108a9578063695ef6bf146108c957600080fd5b806344770515146107e957806345125715146107fe578063471191a1146107e95780634c42899a1461081357806352c7f8dc1461082857600080fd5b80631c24408211610478578063365260b411610431578063365260b41461072c57806339509351146107615780633ccfd60b146107815780633d8b38f61461078957806342d65a8d146107a95780634411ad04146107c957600080fd5b80631c2440821461068a5780631c6f212e146106a05780631d3cd2a6146106b557806323b872dd146106d5578063313ce567146106f5578063323ac7d81461071757600080fd5b8063095ea7b3116104ca578063095ea7b3146105c35780630bfae56b146105e35780630f2e1228146105f857806310ddb1371461060d57806316f9c8fd1461062d57806318160ddd1461067557600080fd5b80621d35671461050657806301ffc9a714610528578063023789321461055d57806306fdde031461058157806307e0db17146105a3575b600080fd5b34801561051257600080fd5b50610526610521366004615372565b61106e565b005b34801561053457600080fd5b50610548610543366004615082565b61128a565b60405190151581526020015b60405180910390f35b34801561056957600080fd5b5061057361016d81565b604051908152602001610554565b34801561058d57600080fd5b506105966112c1565b6040516105549190615791565b3480156105af57600080fd5b506105266105be366004615118565b611353565b3480156105cf57600080fd5b506105486105de36600461503d565b6113c0565b3480156105ef57600080fd5b506105736113d8565b34801561060457600080fd5b50610573606381565b34801561061957600080fd5b50610526610628366004615118565b6113e9565b34801561063957600080fd5b50610642611425565b60405161055491908151815260208083015190820152604080830151908201526060918201519181019190915260800190565b34801561068157600080fd5b50600c54610573565b34801561069657600080fd5b50610573600f5481565b3480156106ac57600080fd5b50610573600181565b3480156106c157600080fd5b506105266106d0366004614e89565b611496565b3480156106e157600080fd5b506105486106f0366004614edd565b6114d3565b34801561070157600080fd5b5060125b60405160ff9091168152602001610554565b34801561072357600080fd5b50610573602381565b34801561073857600080fd5b5061074c610747366004615132565b6114f7565b60408051928352602083019190915201610554565b34801561076d57600080fd5b5061054861077c36600461503d565b611561565b610526611583565b34801561079557600080fd5b506105486107a436600461525d565b611743565b3480156107b557600080fd5b506105266107c436600461525d565b61180f565b3480156107d557600080fd5b506105736107e436600461564f565b611879565b3480156107f557600080fd5b50610573600081565b34801561080a57600080fd5b50610573611a58565b34801561081f57600080fd5b50610705600081565b610526611a67565b34801561083c57600080fd5b5061057361084b3660046153f0565b6005602090815260009384526040808520845180860184018051928152908401958401959095209452929052825290205481565b61052661088d3660046155da565b611c0a565b34801561089e57600080fd5b506105736201518081565b3480156108b557600080fd5b506105266108c4366004615372565b611eba565b6105266108d7366004614fcc565b611f44565b3480156108e857600080fd5b506108f161204d565b604051610554919081516001600160a01b031681526020808301519082015260408083015190820152606080830151908201526080808301519082015260a0918201519181019190915260c00190565b34801561094d57600080fd5b5061057361095c366004614e89565b6001600160a01b03166000908152600a602052604090205490565b34801561098357600080fd5b506105266120f2565b34801561099857600080fd5b50610573600f81565b3480156109ad57600080fd5b506105966109bc366004615118565b612106565b6105266109cf366004614f1d565b6121a0565b6105266109e23660046155da565b6122ee565b3480156109f357600080fd5b506107057f000000000000000000000000000000000000000000000000000000000000000081565b348015610a2757600080fd5b5061057361246b565b348015610a3c57600080fd5b50610573610a4b366004615485565b600360209081526000928352604080842090915290825290205481565b348015610a7457600080fd5b506000546001600160a01b03165b6040516001600160a01b039091168152602001610554565b348015610aa657600080fd5b50610adc610ab5366004614e89565b60146020526000908152604090208054600182015460028301546003909301549192909184565b604080519485526020850193909352918301526060820152608001610554565b348015610b0857600080fd5b506105736103e881565b348015610b1e57600080fd5b50610573612475565b348015610b3357600080fd5b50600454610a82906001600160a01b031681565b348015610b5357600080fd5b50610596612480565b348015610b6857600080fd5b5061057361248f565b348015610b7d57600080fd5b50610573612499565b348015610b9257600080fd5b50610548610ba13660046153f0565b6007602090815260009384526040808520845180860184018051928152908401958401959095209452929052825290205460ff1681565b348015610be457600080fd5b50610596610bf3366004615118565b6124a3565b348015610c0457600080fd5b50610526610c133660046155aa565b6125ba565b348015610c2457600080fd5b50610548610c3336600461503d565b612760565b348015610c4457600080fd5b5061074c610c533660046151a7565b6127db565b348015610c6457600080fd5b50610526610c7336600461525d565b61288e565b348015610c8457600080fd5b50610548610c9336600461503d565b612921565b348015610ca457600080fd5b5061057360125481565b348015610cba57600080fd5b50610573610cc936600461561e565b61292f565b348015610cda57600080fd5b5061057361026081565b348015610cf057600080fd5b50600154610a82906001600160a01b031681565b348015610d1057600080fd5b5061057360105481565b348015610d2657600080fd5b50610526610d35366004614e89565b6129be565b348015610d4657600080fd5b50610573612a1b565b348015610d5b57600080fd5b50610573600781565b348015610d7057600080fd5b50610526610d7f36600461553e565b612a2a565b348015610d9057600080fd5b50610573610d9f366004614e89565b60156020526000908152604090205481565b610526610dbf366004615372565b612aa3565b348015610dd057600080fd5b50610526610ddf366004614e89565b612c1d565b348015610df057600080fd5b50610573610dff366004614ea5565b612c5d565b348015610e1057600080fd5b5061057360095481565b348015610e2657600080fd5b50610e74610e35366004614e89565b6013602052600090815260409020805460018201546002830154600384015460048501546005909501546001600160a01b039094169492939192909186565b604080516001600160a01b0390971687526020870195909552938501929092526060840152608083015260a082015260c001610554565b348015610eb757600080fd5b50610526610ec6366004615503565b612c88565b348015610ed757600080fd5b506105737f000000000000000000000000000000000000000000000000000000000000000081565b348015610f0b57600080fd5b50600854610a82906001600160a01b031681565b348015610f2b57600080fd5b50610573601481565b348015610f4057600080fd5b50610705600181565b348015610f5557600080fd5b506105736102da81565b348015610f6b57600080fd5b50610526610f7a366004615068565b612d3a565b348015610f8b57600080fd5b50610526610f9a3660046152ad565b612d83565b348015610fab57600080fd5b50610526610fba36600461525d565b612e5f565b348015610fcb57600080fd5b5061057360115481565b348015610fe157600080fd5b506006546105489060ff1681565b348015610ffb57600080fd5b50610573612eb9565b34801561101057600080fd5b5061052661101f366004614e89565b612ed2565b34801561103057600080fd5b50610573620186a081565b34801561104757600080fd5b506105966110563660046154b7565b612f4b565b34801561106757600080fd5b5030610a82565b6001546001600160a01b0316336001600160a01b0316146110d65760405162461bcd60e51b815260206004820152601e60248201527f4c7a4170703a20696e76616c696420656e64706f696e742063616c6c6572000060448201526064015b60405180910390fd5b61ffff8616600090815260026020526040812080546110f490615baf565b80601f016020809104026020016040519081016040528092919081815260200182805461112090615baf565b801561116d5780601f106111425761010080835404028352916020019161116d565b820191906000526020600020905b81548152906001019060200180831161115057829003601f168201915b50505050509050805186869050148015611188575060008151115b80156111b05750805160208201206040516111a690889088906156de565b6040518091039020145b61120b5760405162461bcd60e51b815260206004820152602660248201527f4c7a4170703a20696e76616c696420736f757263652073656e64696e6720636f6044820152651b9d1c9858dd60d21b60648201526084016110cd565b6112818787878080601f01602080910402602001604051908101604052809392919081815260200183838082843760009201919091525050604080516020601f8a018190048102820181019092528881528a935091508890889081908401838280828437600092019190915250612fe492505050565b50505050505050565b60006001600160e01b03198216631f7ecdf760e01b14806112bb57506301ffc9a760e01b6001600160e01b03198316145b92915050565b6060600d80546112d090615baf565b80601f01602080910402602001604051908101604052809291908181526020018280546112fc90615baf565b80156113495780601f1061131e57610100808354040283529160200191611349565b820191906000526020600020905b81548152906001019060200180831161132c57829003601f168201915b5050505050905090565b61135b61305d565b6001546040516307e0db1760e01b815261ffff831660048201526001600160a01b03909116906307e0db17906024015b600060405180830381600087803b1580156113a557600080fd5b505af11580156113b9573d6000803e3d6000fd5b5050505050565b6000336113ce8185856130b7565b5060019392505050565b6113e6620151806064615b36565b81565b6113f161305d565b6001546040516310ddb13760e01b815261ffff831660048201526001600160a01b03909116906310ddb1379060240161138b565b6114506040518060800160405280600081526020016000815260200160008152602001600081525090565b5033600090815260146020908152604091829020825160808101845281548152600182015492810192909252600281015492820192909252600390910154606082015290565b61149e61305d565b6001600160a01b0381166114b157600080fd5b600880546001600160a01b0319166001600160a01b0392909216919091179055565b6000336114e18582856131dc565b6114ec858585613256565b506001949350505050565b6000806000806115408a8a8a8a8a8a8080601f01602080910402602001604051908101604052809392919081815260200183838082843760009201919091525061340192505050565b91509150600954826115529190615b0a565b9a909950975050505050505050565b6000336113ce8185856115748383612c5d565b61157e9190615b0a565b6130b7565b60095434101561159257600080fd5b6000341180156115a457506000600954115b1561160d576008546009546040516000926001600160a01b031691908381818185875af1925050503d80600081146115f8576040519150601f19603f3d011682016040523d82523d6000602084013e6115fd565b606091505b505090508061160b57600080fd5b505b3360009081526014602090815260409182902082516080810184528154815260018201549281019290925260028101549282018390526003015460608201529061165657600080fd5b600061167482604001518360000151846020015185606001516134e6565b60118054919250600061168683615b98565b91905055508160400151601260008282546116a19190615b55565b925050819055506116c1338284604001516116bc9190615b0a565b613544565b6008546116dc906001600160a01b03166116bc606484615b22565b60408083015181519081526020810183905233917f92ccf450a286a957af52509bc1c9939d1a6a481783e142e41e2499f0bb66ebc6910160405180910390a25050336000908152601460205260408120818155600181018290556002810182905560030155565b61ffff83166000908152600260205260408120805482919061176490615baf565b80601f016020809104026020016040519081016040528092919081815260200182805461179090615baf565b80156117dd5780601f106117b2576101008083540402835291602001916117dd565b820191906000526020600020905b8154815290600101906020018083116117c057829003601f168201915b5050505050905083836040516117f49291906156de565b60405180910390208180519060200120149150509392505050565b61181761305d565b6001546040516342d65a8d60e01b81526001600160a01b03909116906342d65a8d9061184b90869086908690600401615826565b600060405180830381600087803b15801561186557600080fd5b505af1158015611281573d6000803e3d6000fd5b60008342111561198c57600061188f8542615b55565b9050600061189c82613605565b9050600073__$6ad30996409d058139477db06ae39abaac$__636d5433e68a600f546118c89190615b55565b6040516001600160e01b031960e084901b16815260048101919091526002602482015260440160206040518083038186803b15801561190657600080fd5b505af415801561191a573d6000803e3d6000fd5b505050506040513d601f19601f8201168201806040525081019061193e91906155c2565b9050600061194e866103e8615b0a565b9050600061195e83898c8561292f565b9050606461196c8582615b55565b6119769083615b36565b6119809190615b22565b95505050505050611a4f565b600073__$6ad30996409d058139477db06ae39abaac$__636d5433e688600f546119b69190615b55565b6040516001600160e01b031960e084901b16815260048101919091526002602482015260440160206040518083038186803b1580156119f457600080fd5b505af4158015611a08573d6000803e3d6000fd5b505050506040513d601f19601f82011682018060405250810190611a2c91906155c2565b90506000611a3c846103e8615b0a565b9050611a4a8286898461292f565b925050505b95945050505050565b6000611a626136e9565b905090565b600954341015611a7657600080fd5b600034118015611a8857506000600954115b15611af1576008546009546040516000926001600160a01b031691908381818185875af1925050503d8060008114611adc576040519150601f19603f3d011682016040523d82523d6000602084013e611ae1565b606091505b5050905080611aef57600080fd5b505b33600090815260136020908152604091829020825160c08101845281546001600160a01b031681526001820154928101929092526002810154928201929092526003820154606082018190526004830154608083015260059092015460a082015290611b5c57600080fd5b80604001514211611b6c57600080fd5b6000611b8f82606001518360200151846040015185608001518660a001516137fe565b611ba190670de0b6b3a7640000615b36565b9050611bad3382613544565b600854611bc8906001600160a01b03166116bc606484615b22565b611bd061390b565b60405181815233907fd74752b13281df13701575f3a507e9b1242e0b5fb040143211c481c1fce573a6906020015b60405180910390a25050565b600954341015611c1957600080fd5b600034118015611c2b57506000600954115b15611c94576008546009546040516000926001600160a01b031691908381818185875af1925050503d8060008114611c7f576040519150601f19603f3d011682016040523d82523d6000602084013e611c84565b606091505b5050905080611c9257600080fd5b505b33600090815260136020908152604091829020825160c08101845281546001600160a01b03168152600182015492810192909252600281015492820192909252600382015460608201526004820154608082015260059091015460a082015260658310611d0057600080fd5b6000816060015111611d1157600080fd5b80604001514211611d2157600080fd5b6000611d4482606001518360200151846040015185608001518660a001516137fe565b611d5690670de0b6b3a7640000615b36565b905060006064611d668684615b36565b611d709190615b22565b90506000611d7e8284615b55565b9050611d8a3382613544565b600854611da5906001600160a01b03166116bc606486615b22565b611dad61390b565b60405183815233907fd74752b13281df13701575f3a507e9b1242e0b5fb040143211c481c1fce573a69060200160405180910390a260008211611def57600080fd5b6001611dfe6201518082615b36565b611e089190615b55565b611e156201518087615b36565b11611e1f57600080fd5b611e2e620151806102da615b36565b611e39906001615b0a565b611e466201518087615b36565b10611e5057600080fd5b3360009081526014602052604090206002015415611e6d57600080fd5b611e77828661395f565b604080518381526020810187905233917f1449c6dd7851abc30abf37f57715f492010519147cc2652fbc38202c18a6ee90910160405180910390a2505050505050565b333014611ec657600080fd5b611f3c8686868080601f01602080910402602001604051908101604052809392919081815260200183838082843760009201919091525050604080516020601f890181900481028201810190925287815289935091508790879081908401838280828437600092019190915250613a0292505050565b505050505050565b600954341015611f5357600080fd5b600034118015611f6557506000600954115b15611fce576008546009546040516000926001600160a01b031691908381818185875af1925050503d8060008114611fb9576040519150601f19603f3d011682016040523d82523d6000602084013e611fbe565b606091505b5050905080611fcc57600080fd5b505b600060095434611fde9190615b55565b905061128186868686611ff46020880188614e89565b6120046040890160208a01614e89565b61201160408a018a615a6f565b8080601f0160208091040260200160405190810160405280939291908181526020018383808284376000920191909152508b9250613a63915050565b61208f6040518060c0016040528060006001600160a01b0316815260200160008152602001600081526020016000815260200160008152602001600081525090565b5033600090815260136020908152604091829020825160c08101845281546001600160a01b03168152600182015492810192909252600281015492820192909252600382015460608201526004820154608082015260059091015460a082015290565b6120fa61305d565b6121046000613b0d565b565b6002602052600090815260409020805461211f90615baf565b80601f016020809104026020016040519081016040528092919081815260200182805461214b90615baf565b80156121985780601f1061216d57610100808354040283529160200191612198565b820191906000526020600020905b81548152906001019060200180831161217b57829003601f168201915b505050505081565b6009543410156121af57600080fd5b6000341180156121c157506000600954115b1561222a576008546009546040516000926001600160a01b031691908381818185875af1925050503d8060008114612215576040519150601f19603f3d011682016040523d82523d6000602084013e61221a565b606091505b505090508061222857600080fd5b505b60006009543461223a9190615b55565b90506122e28989898989898080601f0160208091040260200160405190810160405280939291908181526020018383808284376000920191909152508b925061228991505060208a018a614e89565b61229960408b0160208c01614e89565b6122a660408c018c615a6f565b8080601f0160208091040260200160405190810160405280939291908181526020018383808284376000920191909152508d9250613b5d915050565b50505050505050505050565b6009543410156122fd57600080fd5b60003411801561230f57506000600954115b15612378576008546009546040516000926001600160a01b031691908381818185875af1925050503d8060008114612363576040519150601f19603f3d011682016040523d82523d6000602084013e612368565b606091505b505090508061237657600080fd5b505b336000908152600a602052604090205482111561239457600080fd5b600082116123a157600080fd5b60016123b06201518082615b36565b6123ba9190615b55565b6123c76201518083615b36565b116123d157600080fd5b6123e0620151806102da615b36565b6123eb906001615b0a565b6123f86201518083615b36565b1061240257600080fd5b336000908152601460205260409020600201541561241f57600080fd5b6124293383613c1b565b612433828261395f565b604080518381526020810183905233917f1449c6dd7851abc30abf37f57715f492010519147cc2652fbc38202c18a6ee909101611bfe565b6000611a62613d47565b6000611a62600c5490565b6060600e80546112d090615baf565b6000611a62613d8d565b6000611a62613dfa565b61ffff81166000908152600260205260408120805460609291906124c690615baf565b80601f01602080910402602001604051908101604052809291908181526020018280546124f290615baf565b801561253f5780601f106125145761010080835404028352916020019161253f565b820191906000526020600020905b81548152906001019060200180831161252257829003601f168201915b505050505090508051600014156125985760405162461bcd60e51b815260206004820152601d60248201527f4c7a4170703a206e6f20747275737465642070617468207265636f726400000060448201526064016110cd565b6125b36000601483516125ab9190615b55565b839190613ee9565b9392505050565b60006125c96201518083615b36565b905060016125da6201518082615b36565b6125e49190615b55565b81116125ef57600080fd5b6125f76136e9565b612602906001615b0a565b811061260d57600080fd5b336000908152601360205260409020600301541561262a57600080fd5b6040805160c08101825233815260208101849052600091810161264d8442615b0a565b8152602001600f548152602001612662613dfa565b815260200161266f613d47565b9052336000908152601360209081526040808320845181546001600160a01b0319166001600160a01b039091161781559184015160018301558301516002820155606083015160038201556080830151600482015560a083015160059091015560108054929350906126e083615be4565b9091555050600f805433917fc05062aaca3ffe3bd48e1cd6edc912dff77e39ba1a14999b5e00ec68614b311c918691600061271a83615be4565b91905055612726612499565b60a08681015160408089015181519687526020870195909552858101939093526060850152608084019290925251918290030190a2505050565b6000338161276e8286612c5d565b9050838110156127ce5760405162461bcd60e51b815260206004820152602560248201527f45524332303a2064656372656173656420616c6c6f77616e63652062656c6f77604482015264207a65726f60d81b60648201526084016110cd565b6114ec82868684036130b7565b60008060008061286a8d8d8d8d8d8080601f016020809104026020016040519081016040528093929190818152602001838380828437600081840152601f19601f820116905080830192505050505050508c8c8c8c8080601f016020809104026020016040519081016040528093929190818152602001838380828437600092019190915250613ff692505050565b915091506009548261287c9190615b0a565b9d909c509a5050505050505050505050565b61289661305d565b8181306040516020016128ab939291906156ee565b60408051601f1981840301815291815261ffff851660009081526002602090815291902082516128e093919290910190614ce5565b507f8c0400cfe2d1199b1a725c78960bcc2a344d869b80590d0f2bd005db15a572ce83838360405161291493929190615826565b60405180910390a1505050565b6000336113ce818585613256565b60008061294661293e876140a9565b600f0b6140c7565b90506000612982612956856140a9565b612979612962886140a9565b61297961296e8b6140a9565b600f88900b906141ab565b600f0b906141ab565b90506129a86129a06129956103e86140a9565b600f84900b906141e2565b600f0b614248565b6001600160401b0316925050505b949350505050565b6129c661305d565b600480546001600160a01b0319166001600160a01b0383169081179091556040519081527f5db758e995a17ec1ad84bdef7e8c3293a0bd6179bcce400dff5d4c3d87db726b906020015b60405180910390a150565b6113e6620151806102da615b36565b612a3261305d565b6001546040516332fb62e760e21b81526001600160a01b039091169063cbed8b9c90612a6a9088908890889088908890600401615a41565b600060405180830381600087803b158015612a8457600080fd5b505af1158015612a98573d6000803e3d6000fd5b505050505050505050565b61ffff86166000908152600560205260408082209051612ac690889088906156de565b90815260408051602092819003830190206001600160401b03871660009081529252902054905080612af757600080fd5b808383604051612b089291906156de565b604051809103902014612b1a57600080fd5b61ffff87166000908152600560205260408082209051612b3d90899089906156de565b90815260408051602092819003830181206001600160401b038916600090815290845282902093909355601f88018290048202830182019052868252612bd5918991899089908190840183828082843760009201919091525050604080516020601f8a018190048102820181019092528881528a935091508890889081908401838280828437600092019190915250613a0292505050565b7fc264d91f3adc5588250e1551f547752ca0cfa8f6b530d243b9f9f4cab10ea8e58787878785604051612c0c959493929190615844565b60405180910390a150505050505050565b612c2561305d565b6001546001600160a01b031615612c3b57600080fd5b600180546001600160a01b0319166001600160a01b0392909216919091179055565b6001600160a01b039182166000908152600b6020908152604080832093909416825291909152205490565b612c9061305d565b60008111612cd85760405162461bcd60e51b81526020600482015260156024820152744c7a4170703a20696e76616c6964206d696e47617360581b60448201526064016110cd565b61ffff83811660008181526003602090815260408083209487168084529482529182902085905581519283528201929092529081018290527f9d5c7c0b934da8fefa9c7760c98383778a12dfbfc0c3b3106518f43fb9508ac090606001612914565b612d4261305d565b6006805460ff19168215159081179091556040519081527f1584ad594a70cbe1e6515592e1272a987d922b097ead875069cebe8b40c004a490602001612a10565b333014612d8f57600080fd5b612d9a308686614264565b9350846001600160a01b03168a61ffff167fbf551ec93859b170f9b2141bd9298bf3f64322c6f7beb2543a0cb669834118bf86604051612ddc91815260200190565b60405180910390a3604051633fe79aed60e11b81526001600160a01b03861690637fcf35da908390612e20908e908e908e908e908e908d908d908d9060040161587f565b600060405180830381600088803b158015612e3a57600080fd5b5087f1158015612e4e573d6000803e3d6000fd5b505050505050505050505050505050565b612e6761305d565b61ffff83166000908152600260205260409020612e85908383614d65565b507ffa41487ad5d6728f0b19276fa1eddc16558578f5109fc39d2dc33c3230470dab83838360405161291493929190615826565b6001612ec86201518082615b36565b6113e69190615b55565b612eda61305d565b6001600160a01b038116612f3f5760405162461bcd60e51b815260206004820152602660248201527f4f776e61626c653a206e6577206f776e657220697320746865207a65726f206160448201526564647265737360d01b60648201526084016110cd565b612f4881613b0d565b50565b600154604051633d7b2f6f60e21b815261ffff808716600483015285166024820152306044820152606481018390526060916001600160a01b03169063f5ecbdbc9060840160006040518083038186803b158015612fa857600080fd5b505afa158015612fbc573d6000803e3d6000fd5b505050506040513d6000823e601f3d908101601f19168201604052611a4f91908101906150aa565b6000806130475a60966366ad5c8a60e01b8989898960405160240161300c94939291906159a6565b60408051601f198184030181529190526020810180516001600160e01b03166001600160e01b031990931692909217909152309291906142b6565b9150915081611f3c57611f3c868686868561434e565b6000546001600160a01b031633146121045760405162461bcd60e51b815260206004820181905260248201527f4f776e61626c653a2063616c6c6572206973206e6f7420746865206f776e657260448201526064016110cd565b6001600160a01b0383166131195760405162461bcd60e51b8152602060048201526024808201527f45524332303a20617070726f76652066726f6d20746865207a65726f206164646044820152637265737360e01b60648201526084016110cd565b6001600160a01b03821661317a5760405162461bcd60e51b815260206004820152602260248201527f45524332303a20617070726f766520746f20746865207a65726f206164647265604482015261737360f01b60648201526084016110cd565b6001600160a01b038381166000818152600b602090815260408083209487168084529482529182902085905590518481527f8c5be1e5ebec7d5bd14f71427d1e84f3dd0314c0f7b2291e5b200ac8c7c3b92591015b60405180910390a3505050565b60006131e88484612c5d565b9050600019811461325057818110156132435760405162461bcd60e51b815260206004820152601d60248201527f45524332303a20696e73756666696369656e7420616c6c6f77616e636500000060448201526064016110cd565b61325084848484036130b7565b50505050565b6001600160a01b0383166132ba5760405162461bcd60e51b815260206004820152602560248201527f45524332303a207472616e736665722066726f6d20746865207a65726f206164604482015264647265737360d81b60648201526084016110cd565b6001600160a01b03821661331c5760405162461bcd60e51b815260206004820152602360248201527f45524332303a207472616e7366657220746f20746865207a65726f206164647260448201526265737360e81b60648201526084016110cd565b6001600160a01b0383166000908152600a6020526040902054818110156133945760405162461bcd60e51b815260206004820152602660248201527f45524332303a207472616e7366657220616d6f756e7420657863656564732062604482015265616c616e636560d01b60648201526084016110cd565b6001600160a01b038085166000818152600a602052604080822086860390559286168082529083902080548601905591517fddf252ad1be2c89b69c2b068fc378daa952ba7f163c4a11628f55a4df523b3ef906133f49086815260200190565b60405180910390a3613250565b600080600061344f87613413886143eb565b6040805160006020820152602181019390935260c09190911b6001600160c01b0319166041830152805160298184030181526049909201905290565b60015460405163040a7bb160e41b81529192506001600160a01b0316906340a7bb1090613488908b90309086908b908b906004016157d2565b604080518083038186803b15801561349f57600080fd5b505afa1580156134b3573d6000803e3d6000fd5b505050506040513d601f19601f820116820180604052508101906134d791906155fb565b92509250509550959350505050565b60008242111561353957600061016d6134ff8685615b36565b61350c90620f4240615b36565b6135169190615b22565b90506305f5e1006135278288615b36565b6135319190615b22565b9150506129b6565b506000949350505050565b6001600160a01b03821661359a5760405162461bcd60e51b815260206004820152601f60248201527f45524332303a206d696e7420746f20746865207a65726f20616464726573730060448201526064016110cd565b80600c60008282546135ac9190615b0a565b90915550506001600160a01b0382166000818152600a60209081526040808320805486019055518481527fddf252ad1be2c89b69c2b068fc378daa952ba7f163c4a11628f55a4df523b3ef910160405180910390a35050565b6000806136156201518084615b22565b905061362360016007615b55565b8111156136335750606392915050565b600060016007613644846003615b0a565b6001901b6136529190615b22565b61365c9190615b55565b604051637ae2b5c760e01b8152600481018290526063602482015290915073__$6ad30996409d058139477db06ae39abaac$__90637ae2b5c79060440160206040518083038186803b1580156136b157600080fd5b505af41580156136c5573d6000803e3d6000fd5b505050506040513d601f19601f820116820180604052508101906129b691906155c2565b6000610260600f5411156137f05760006137176129a0613709600f6140a9565b61297961293e600f546140a9565b6001600160401b0316905060006137316201518083615b36565b61373f620151806064615b36565b6137499190615b0a565b905073__$6ad30996409d058139477db06ae39abaac$__637ae2b5c782613775620151806102da615b36565b6040516001600160e01b031960e085901b1681526004810192909252602482015260440160206040518083038186803b1580156137b157600080fd5b505af41580156137c5573d6000803e3d6000fd5b505050506040513d601f19601f820116820180604052508101906137e991906155c2565b9250505090565b611a62620151806064615b36565b60008061380b8542615b55565b9050600061381882613605565b9050600073__$6ad30996409d058139477db06ae39abaac$__636d5433e68a600f546138449190615b55565b6040516001600160e01b031960e084901b16815260048101919091526002602482015260440160206040518083038186803b15801561388257600080fd5b505af4158015613896573d6000803e3d6000fd5b505050506040513d601f19601f820116820180604052508101906138ba91906155c2565b905060006138ca866103e8615b0a565b905060006138da83898c8561292f565b905060646138e88582615b55565b6138f29083615b36565b6138fc9190615b22565b9b9a5050505050505050505050565b33600090815260136020526040812080546001600160a01b031916815560018101829055600281018290556003810182905560048101829055600501819055601080549161395883615b98565b9190505550565b6040518060800160405280828152602001620151808361397f9190615b36565b6139899042615b0a565b815260200183815260200161399c613d8d565b905233600090815260146020908152604080832084518155918401516001830155830151600282015560609092015160039092019190915560118054916139e283615be4565b919050555081601260008282546139f99190615b0a565b90915550505050565b6000613a0e828261442e565b905060ff8116613a2957613a248585858561448a565b6113b9565b60ff811660011415613a4157613a248585858561451a565b60405162461bcd60e51b815260206004820152600060248201526044016110cd565b6000613a7188828581614728565b613a7a86614750565b509050613a8989898984614790565b905060008111613a9857600080fd5b6000613aa788613413846143eb565b9050613ab78982888888886147c2565b878a6001600160a01b03168a61ffff167fd81fc9b8523134ed613870ed029d6170cbb73aa6a6bc311b9a642689fb9df59a85604051613af891815260200190565b60405180910390a45098975050505050505050565b600080546001600160a01b038381166001600160a01b0319831681178455604051919092169283917f8be0079c531659141344cd1fd0a4f28419497f9722a3daafe3b4186f6b6457e09190a35050565b6000613b758a6001856001600160401b038a16614728565b613b7e88614750565b509050613b8d8b8b8b84614790565b905060008111613b9c57600080fd5b6000613bb3338b613bac856143eb565b8b8b614941565b9050613bc38b82888888886147c2565b898c6001600160a01b03168c61ffff167fd81fc9b8523134ed613870ed029d6170cbb73aa6a6bc311b9a642689fb9df59a85604051613c0491815260200190565b60405180910390a4509a9950505050505050505050565b6001600160a01b038216613c7b5760405162461bcd60e51b815260206004820152602160248201527f45524332303a206275726e2066726f6d20746865207a65726f206164647265736044820152607360f81b60648201526084016110cd565b6001600160a01b0382166000908152600a602052604090205481811015613cef5760405162461bcd60e51b815260206004820152602260248201527f45524332303a206275726e20616d6f756e7420657863656564732062616c616e604482015261636560f01b60648201526084016110cd565b6001600160a01b0383166000818152600a602090815260408083208686039055600c80548790039055518581529192917fddf252ad1be2c89b69c2b068fc378daa952ba7f163c4a11628f55a4df523b3ef91016131cf565b600080620186a0600f546001613d5d9190615b36565b613d679190615b22565b90506103e8811115613d7b57600091505090565b613d87816103e8615b55565b91505090565b600080613d9e601462015180615b36565b613dc87f000000000000000000000000000000000000000000000000000000000000000042615b55565b613dd29190615b22565b905080613de160006023615b55565b1015613def57600091505090565b613d87816023615b55565b60008062015180613e2b7f000000000000000000000000000000000000000000000000000000000000000042615b55565b613e359190615b22565b90506102da811015613edd5773__$6ad30996409d058139477db06ae39abaac$__636d5433e6613e67836102da615b55565b6040516001600160e01b031960e084901b16815260048101919091526001602482015260440160206040518083038186803b158015613ea557600080fd5b505af4158015613eb9573d6000803e3d6000fd5b505050506040513d601f19601f82011682018060405250810190613d8791906155c2565b600191505090565b5090565b606081613ef781601f615b0a565b1015613f365760405162461bcd60e51b815260206004820152600e60248201526d736c6963655f6f766572666c6f7760901b60448201526064016110cd565b613f408284615b0a565b84511015613f845760405162461bcd60e51b8152602060048201526011602482015270736c6963655f6f75744f66426f756e647360781b60448201526064016110cd565b606082158015613fa35760405191506000825260208201604052613fed565b6040519150601f8416801560200281840101858101878315602002848b0101015b81831015613fdc578051835260209283019201613fc4565b5050858452601f01601f1916604052505b50949350505050565b6000806000614010338a6140098b6143eb565b8a8a614941565b60015460405163040a7bb160e41b81529192506001600160a01b0316906340a7bb1090614049908d90309086908b908b906004016157d2565b604080518083038186803b15801561406057600080fd5b505afa158015614074573d6000803e3d6000fd5b505050506040513d601f19601f8201168201806040525081019061409891906155fb565b925092505097509795505050505050565b6000677fffffffffffffff8211156140c057600080fd5b5060401b90565b60008082600f0b136140d857600080fd5b6000600f83900b6801000000000000000081126140f7576040918201911d5b640100000000811261410b576020918201911d5b62010000811261411d576010918201911d5b610100811261412e576008918201911d5b6010811261413e576004918201911d5b6004811261414e576002918201911d5b6002811261415d576001820191505b603f19820160401b600f85900b607f8490031b6780000000000000005b60008113156141a05790800260ff81901c8281029390930192607f011c9060011d61417a565b509095945050505050565b6000600f83810b9083900b0260401d60016001607f1b031981128015906141d9575060016001607f1b038113155b6125b357600080fd5b600081600f0b600014156141f557600080fd5b600082600f0b604085600f0b901b8161421e57634e487b7160e01b600052601260045260246000fd5b05905060016001607f1b031981128015906141d9575060016001607f1b038113156125b357600080fd5b60008082600f0b121561425a57600080fd5b50600f0b60401d90565b600033306001600160a01b038616148015906142925750806001600160a01b0316856001600160a01b031614155b156142a2576142a28582856131dc565b6142ad858585613256565b50909392505050565b6000606060008060008661ffff166001600160401b038111156142e957634e487b7160e01b600052604160045260246000fd5b6040519080825280601f01601f191660200182016040528015614313576020820181803683370190505b50905060008087516020890160008d8df191503d925086831115614335578692505b828152826000602083013e909890975095505050505050565b8180519060200120600560008761ffff1661ffff1681526020019081526020016000208560405161437f9190615714565b9081526040805191829003602090810183206001600160401b0388166000908152915220919091557fe183f33de2837795525b4792ca4cd60535bd77c53b7e7030060bfcf5734d6b0c906143dc90879087908790879087906159ef565b60405180910390a15050505050565b6000806144187f000000000000000000000000000000000000000000000000000000000000000084615b22565b90506001600160401b038111156112bb57600080fd5b600061443b826001615b0a565b835110156144815760405162461bcd60e51b8152602060048201526013602482015272746f55696e74385f6f75744f66426f756e647360681b60448201526064016110cd565b50016001015190565b60008061449683614982565b90925090506001600160a01b0382166144af5761dead91505b60006144ba826149c9565b90506144c78784836149fe565b9050826001600160a01b03168761ffff167fbf551ec93859b170f9b2141bd9298bf3f64322c6f7beb2543a0cb669834118bf8360405161450991815260200190565b60405180910390a350505050505050565b600080600080600061452b86614a11565b945094509450945094506000600760008b61ffff1661ffff168152602001908152602001600020896040516145609190615714565b90815260408051602092819003830190206001600160401b038b166000908152925281205460ff169150614593856149c9565b905081614601576145a58b30836149fe565b61ffff8c166000908152600760205260409081902090519192506001916145cd908d90615714565b90815260408051602092819003830190206001600160401b038d16600090815292529020805460ff19169115159190911790555b6001600160a01b0386163b614658576040516001600160a01b03871681527f9aedf5fdba8716db3b6705ca00150643309995d4f818a249ed6dde6677e7792d9060200160405180910390a150505050505050613250565b8a8a8a8a8a8a868a60008a614676578b6001600160401b0316614678565b5a5b90506000806146aa5a609663eaffd49a60e01b8e8e8e8d8d8d8d8d60405160240161300c989796959493929190615932565b915091508115614703578751602089012060405161ffff8d16907fb8890edbfc1c74692f527444645f95489c3703cc2df42e4a366f5d06fa6cd884906146f5908e908e9086906157a4565b60405180910390a250614710565b6147108b8b8b8b8561434e565b50505050505050505050505050505050505050505050565b60065460ff16156147445761473f84848484614a8a565b613250565b81511561325057600080fd5b60008061477d7f000000000000000000000000000000000000000000000000000000000000000084615bff565b90506147898184615b55565b9150915091565b6000336001600160a01b03861681146147ae576147ae8682856131dc565b6147b88684613c1b565b5090949350505050565b61ffff8616600090815260026020526040812080546147e090615baf565b80601f016020809104026020016040519081016040528092919081815260200182805461480c90615baf565b80156148595780601f1061482e57610100808354040283529160200191614859565b820191906000526020600020905b81548152906001019060200180831161483c57829003601f168201915b505050505090508051600014156148cb5760405162461bcd60e51b815260206004820152603060248201527f4c7a4170703a2064657374696e6174696f6e20636861696e206973206e6f742060448201526f61207472757374656420736f7572636560801b60648201526084016110cd565b60015460405162c5803160e81b81526001600160a01b039091169063c5803100908490614906908b9086908c908c908c908c906004016158cb565b6000604051808303818588803b15801561491f57600080fd5b505af1158015614933573d6000803e3d6000fd5b505050505050505050505050565b6060600185856001600160a01b038916858760405160200161496896959493929190615730565b604051602081830303815290604052905095945050505050565b60008080614990848261442e565b60ff161480156149a1575082516029145b6149aa57600080fd5b6149b583600d614b69565b91506149c2836021614bce565b9050915091565b60006112bb7f00000000000000000000000000000000000000000000000000000000000000006001600160401b038416615b36565b6000614a0a8383613544565b5092915050565b600080806060816001614a24878361442e565b60ff1614614a3157600080fd5b614a3c86600d614b69565b9350614a49866021614bce565b9250614a56866029614c2b565b9450614a63866049614bce565b9050614a7f6051808851614a779190615b55565b889190613ee9565b915091939590929450565b6000614a9583614c89565b61ffff808716600090815260036020908152604080832093891683529290529081205491925090614ac7908490615b0a565b905060008111614b195760405162461bcd60e51b815260206004820152601a60248201527f4c7a4170703a206d696e4761734c696d6974206e6f742073657400000000000060448201526064016110cd565b80821015611f3c5760405162461bcd60e51b815260206004820152601b60248201527f4c7a4170703a20676173206c696d697420697320746f6f206c6f77000000000060448201526064016110cd565b6000614b76826014615b0a565b83511015614bbe5760405162461bcd60e51b8152602060048201526015602482015274746f416464726573735f6f75744f66426f756e647360581b60448201526064016110cd565b500160200151600160601b900490565b6000614bdb826008615b0a565b83511015614c225760405162461bcd60e51b8152602060048201526014602482015273746f55696e7436345f6f75744f66426f756e647360601b60448201526064016110cd565b50016008015190565b6000614c38826020615b0a565b83511015614c805760405162461bcd60e51b8152602060048201526015602482015274746f427974657333325f6f75744f66426f756e647360581b60448201526064016110cd565b50016020015190565b6000602282511015614cdd5760405162461bcd60e51b815260206004820152601c60248201527f4c7a4170703a20696e76616c69642061646170746572506172616d730000000060448201526064016110cd565b506022015190565b828054614cf190615baf565b90600052602060002090601f016020900481019282614d135760008555614d59565b82601f10614d2c57805160ff1916838001178555614d59565b82800160010185558215614d59579182015b82811115614d59578251825591602001919060010190614d3e565b50613ee5929150614dd9565b828054614d7190615baf565b90600052602060002090601f016020900481019282614d935760008555614d59565b82601f10614dac5782800160ff19823516178555614d59565b82800160010185558215614d59579182015b82811115614d59578235825591602001919060010190614dbe565b5b80821115613ee55760008155600101614dda565b80358015158114614dfe57600080fd5b919050565b60008083601f840112614e14578182fd5b5081356001600160401b03811115614e2a578182fd5b602083019150836020828501011115614e4257600080fd5b9250929050565b600060608284031215614e5a578081fd5b50919050565b803561ffff81168114614dfe57600080fd5b80356001600160401b0381168114614dfe57600080fd5b600060208284031215614e9a578081fd5b81356125b381615c55565b60008060408385031215614eb7578081fd5b8235614ec281615c55565b91506020830135614ed281615c55565b809150509250929050565b600080600060608486031215614ef1578081fd5b8335614efc81615c55565b92506020840135614f0c81615c55565b929592945050506040919091013590565b60008060008060008060008060e0898b031215614f38578384fd5b8835614f4381615c55565b9750614f5160208a01614e60565b9650604089013595506060890135945060808901356001600160401b0380821115614f7a578586fd5b614f868c838d01614e03565b9096509450849150614f9a60a08c01614e72565b935060c08b0135915080821115614faf578283fd5b50614fbc8b828c01614e49565b9150509295985092959890939650565b600080600080600060a08688031215614fe3578081fd5b8535614fee81615c55565b9450614ffc60208701614e60565b9350604086013592506060860135915060808601356001600160401b03811115615024578182fd5b61503088828901614e49565b9150509295509295909350565b6000806040838503121561504f578182fd5b823561505a81615c55565b946020939093013593505050565b600060208284031215615079578081fd5b6125b382614dee565b600060208284031215615093578081fd5b81356001600160e01b0319811681146125b3578182fd5b6000602082840312156150bb578081fd5b81516001600160401b038111156150d0578182fd5b8201601f810184136150e0578182fd5b80516150f36150ee82615ae3565b615ab3565b818152856020838501011115615107578384fd5b611a4f826020830160208601615b6c565b600060208284031215615129578081fd5b6125b382614e60565b60008060008060008060a0878903121561514a578384fd5b61515387614e60565b9550602087013594506040870135935061516f60608801614dee565b925060808701356001600160401b03811115615189578283fd5b61519589828a01614e03565b979a9699509497509295939492505050565b600080600080600080600080600060e08a8c0312156151c4578283fd5b6151cd8a614e60565b985060208a0135975060408a0135965060608a01356001600160401b03808211156151f6578485fd5b6152028d838e01614e03565b909850965086915061521660808d01614e72565b955061522460a08d01614dee565b945060c08c0135915080821115615239578283fd5b506152468c828d01614e03565b915080935050809150509295985092959850929598565b600080600060408486031215615271578081fd5b61527a84614e60565b925060208401356001600160401b03811115615294578182fd5b6152a086828701614e03565b9497909650939450505050565b6000806000806000806000806000806101008b8d0312156152cc578384fd5b6152d58b614e60565b995060208b01356001600160401b03808211156152f0578586fd5b6152fc8e838f01614e03565b909b50995089915061531060408e01614e72565b985060608d0135975060808d0135915061532982615c55565b90955060a08c0135945060c08c01359080821115615345578283fd5b506153528d828e01614e03565b9150809450508092505060e08b013590509295989b9194979a5092959850565b6000806000806000806080878903121561538a578384fd5b61539387614e60565b955060208701356001600160401b03808211156153ae578586fd5b6153ba8a838b01614e03565b90975095508591506153ce60408a01614e72565b945060608901359150808211156153e3578384fd5b5061519589828a01614e03565b600080600060608486031215615404578081fd5b61540d84614e60565b925060208401356001600160401b03811115615427578182fd5b8401601f81018613615437578182fd5b80356154456150ee82615ae3565b818152876020838501011115615459578384fd5b81602084016020830137908101602001839052925061547c905060408501614e72565b90509250925092565b60008060408385031215615497578182fd5b6154a083614e60565b91506154ae60208401614e60565b90509250929050565b600080600080608085870312156154cc578182fd5b6154d585614e60565b93506154e360208601614e60565b925060408501356154f381615c55565b9396929550929360600135925050565b600080600060608486031215615517578081fd5b61552084614e60565b925061552e60208501614e60565b9150604084013590509250925092565b600080600080600060808688031215615555578283fd5b61555e86614e60565b945061556c60208701614e60565b93506040860135925060608601356001600160401b0381111561558d578182fd5b61559988828901614e03565b969995985093965092949392505050565b6000602082840312156155bb578081fd5b5035919050565b6000602082840312156155d3578081fd5b5051919050565b600080604083850312156155ec578182fd5b50508035926020909101359150565b6000806040838503121561560d578182fd5b505080516020909101519092909150565b60008060008060808587031215615633578182fd5b5050823594602084013594506040840135936060013592509050565b600080600080600060a08688031215615666578283fd5b505083359560208501359550604085013594606081013594506080013592509050565b81835281816020850137506000828201602090810191909152601f909101601f19169091010190565b600081518084526156ca816020860160208601615b6c565b601f01601f19169290920160200192915050565b8183823760009101908152919050565b8284823760609190911b6bffffffffffffffffffffffff19169101908152601401919050565b60008251615726818460208701615b6c565b9190910192915050565b60ff60f81b8760f81b16815285600182015260006001600160401b0360c01b808760c01b166021840152856029840152808560c01b16604984015250825161577f816051850160208701615b6c565b91909101605101979650505050505050565b6020815260006125b360208301846156b2565b6060815260006157b760608301866156b2565b6001600160401b039490941660208301525060400152919050565b61ffff861681526001600160a01b038516602082015260a060408201819052600090615800908301866156b2565b8415156060840152828103608084015261581a81856156b2565b98975050505050505050565b61ffff84168152604060208201526000611a4f604083018486615689565b61ffff86168152608060208201526000615862608083018688615689565b6001600160401b0394909416604083015250606001529392505050565b61ffff8916815260c06020820152600061589d60c08301898b615689565b6001600160401b038816604084015286606084015285608084015282810360a08401526138fc818587615689565b61ffff8716815260c0602082015260006158e860c08301886156b2565b82810360408401526158fa81886156b2565b6001600160a01b0387811660608601528616608085015283810360a0850152905061592581856156b2565b9998505050505050505050565b600061010061ffff8b1683528060208401526159508184018b6156b2565b6001600160401b038a166040850152606084018990526001600160a01b038816608085015260a0840187905283810360c0850152905061599081866156b2565b9150508260e08301529998505050505050505050565b61ffff851681526080602082015260006159c360808301866156b2565b6001600160401b038516604084015282810360608401526159e481856156b2565b979650505050505050565b61ffff8616815260a060208201526000615a0c60a08301876156b2565b6001600160401b03861660408401528281036060840152615a2d81866156b2565b9050828103608084015261581a81856156b2565b600061ffff8088168352808716602084015250846040830152608060608301526159e4608083018486615689565b6000808335601e19843603018112615a85578283fd5b8301803591506001600160401b03821115615a9e578283fd5b602001915036819003821315614e4257600080fd5b604051601f8201601f191681016001600160401b0381118282101715615adb57615adb615c3f565b604052919050565b60006001600160401b03821115615afc57615afc615c3f565b50601f01601f191660200190565b60008219821115615b1d57615b1d615c13565b500190565b600082615b3157615b31615c29565b500490565b6000816000190483118215151615615b5057615b50615c13565b500290565b600082821015615b6757615b67615c13565b500390565b60005b83811015615b87578181015183820152602001615b6f565b838111156132505750506000910152565b600081615ba757615ba7615c13565b506000190190565b600181811c90821680615bc357607f821691505b60208210811415614e5a57634e487b7160e01b600052602260045260246000fd5b6000600019821415615bf857615bf8615c13565b5060010190565b600082615c0e57615c0e615c29565b500690565b634e487b7160e01b600052601160045260246000fd5b634e487b7160e01b600052601260045260246000fd5b634e487b7160e01b600052604160045260246000fd5b6001600160a01b0381168114612f4857600080fdfea26469706673582212202ff37c29f00f01ce3e1b9d0825446919dc5fa12a162090d21b116c1793128d7b64736f6c63430008040033",
  "linkReferences": {
    "contracts/Math.sol": {
      "Math": [
        {
          "length": 20,
          "start": 7945
        },
        {
          "length": 20,
          "start": 8183
        },
        {
          "length": 20,
          "start": 15587
        },
        {
          "length": 20,
          "start": 15796
        },
        {
          "length": 20,
          "start": 16005
        },
        {
          "length": 20,
          "start": 17578
        }
      ]
    }
  },
  "deployedLinkReferences": {
    "contracts/Math.sol": {
      "Math": [
        {
          "length": 20,
          "start": 6306
        },
        {
          "length": 20,
          "start": 6544
        },
        {
          "length": 20,
          "start": 13948
        },
        {
          "length": 20,
          "start": 14157
        },
        {
          "length": 20,
          "start": 14366
        },
        {
          "length": 20,
          "start": 15939
        }
      ]
    }
  }
}