{
  "_format": "hh-sol-artifact-1",
  "contractName": "Main",
  "sourceName": "contracts/Main.sol",
  "abi": [
    {
      "inputs": [
        {
          "internalType": "uint256",
          "name": "_fee",
          "type": "uint256"
        },
        {
          "internalType": "address",
          "name": "_endpoint",
          "type": "address"
        },
        {
          "internalType": "string",
          "name": "_symbol",
          "type": "string"
        },
        {
          "internalType": "string",
          "name": "_name",
          "type": "string"
        }
      ],
      "stateMutability": "nonpayable",
      "type": "constructor"
    },
    {
      "anonymous": false,
      "inputs": [
        {
          "indexed": true,
          "internalType": "address",
          "name": "owner",
          "type": "address"
        },
        {
          "indexed": true,
          "internalType": "address",
          "name": "spender",
          "type": "address"
        },
        {
          "indexed": false,
          "internalType": "uint256",
          "name": "value",
          "type": "uint256"
        }
      ],
      "name": "Approval",
      "type": "event"
    },
    {
      "anonymous": false,
      "inputs": [
        {
          "indexed": true,
          "internalType": "uint16",
          "name": "_srcChainId",
          "type": "uint16"
        },
        {
          "indexed": false,
          "internalType": "bytes",
          "name": "_srcAddress",
          "type": "bytes"
        },
        {
          "indexed": false,
          "internalType": "uint64",
          "name": "_nonce",
          "type": "uint64"
        },
        {
          "indexed": false,
          "internalType": "bytes32",
          "name": "_hash",
          "type": "bytes32"
        }
      ],
      "name": "CallOFTReceivedSuccess",
      "type": "event"
    },
    {
      "anonymous": false,
      "inputs": [
        {
          "indexed": false,
          "internalType": "uint16",
          "name": "_srcChainId",
          "type": "uint16"
        },
        {
          "indexed": false,
          "internalType": "bytes",
          "name": "_srcAddress",
          "type": "bytes"
        },
        {
          "indexed": false,
          "internalType": "uint64",
          "name": "_nonce",
          "type": "uint64"
        },
        {
          "indexed": false,
          "internalType": "bytes",
          "name": "_payload",
          "type": "bytes"
        },
        {
          "indexed": false,
          "internalType": "bytes",
          "name": "_reason",
          "type": "bytes"
        }
      ],
      "name": "MessageFailed",
      "type": "event"
    },
    {
      "anonymous": false,
      "inputs": [
        {
          "indexed": true,
          "internalType": "address",
          "name": "user",
          "type": "address"
        },
        {
          "indexed": false,
          "internalType": "uint256",
          "name": "rewardAmount",
          "type": "uint256"
        }
      ],
      "name": "MintClaimed",
      "type": "event"
    },
    {
      "anonymous": false,
      "inputs": [
        {
          "indexed": false,
          "internalType": "address",
          "name": "_address",
          "type": "address"
        }
      ],
      "name": "NonContractAddress",
      "type": "event"
    },
    {
      "anonymous": false,
      "inputs": [
        {
          "indexed": true,
          "internalType": "address",
          "name": "previousOwner",
          "type": "address"
        },
        {
          "indexed": true,
          "internalType": "address",
          "name": "newOwner",
          "type": "address"
        }
      ],
      "name": "OwnershipTransferred",
      "type": "event"
    },
    {
      "anonymous": false,
      "inputs": [
        {
          "indexed": true,
          "internalType": "address",
          "name": "user",
          "type": "address"
        },
        {
          "indexed": false,
          "internalType": "uint256",
          "name": "term",
          "type": "uint256"
        },
        {
          "indexed": false,
          "internalType": "uint256",
          "name": "rank",
          "type": "uint256"
        },
        {
          "indexed": false,
          "internalType": "uint256",
          "name": "AMP",
          "type": "uint256"
        },
        {
          "indexed": false,
          "internalType": "uint256",
          "name": "EEA",
          "type": "uint256"
        },
        {
          "indexed": false,
          "internalType": "uint256",
          "name": "maturity",
          "type": "uint256"
        }
      ],
      "name": "RankClaimed",
      "type": "event"
    },
    {
      "anonymous": false,
      "inputs": [
        {
          "indexed": true,
          "internalType": "uint16",
          "name": "_srcChainId",
          "type": "uint16"
        },
        {
          "indexed": true,
          "internalType": "address",
          "name": "_to",
          "type": "address"
        },
        {
          "indexed": false,
          "internalType": "uint256",
          "name": "_amount",
          "type": "uint256"
        }
      ],
      "name": "ReceiveFromChain",
      "type": "event"
    },
    {
      "anonymous": false,
      "inputs": [
        {
          "indexed": true,
          "internalType": "address",
          "name": "user",
          "type": "address"
        },
        {
          "indexed": true,
          "internalType": "address",
          "name": "xenContract",
          "type": "address"
        },
        {
          "indexed": true,
          "internalType": "address",
          "name": "tokenContract",
          "type": "address"
        },
        {
          "indexed": false,
          "internalType": "uint256",
          "name": "xenAmount",
          "type": "uint256"
        },
        {
          "indexed": false,
          "internalType": "uint256",
          "name": "tokenAmount",
          "type": "uint256"
        }
      ],
      "name": "Redeemed",
      "type": "event"
    },
    {
      "anonymous": false,
      "inputs": [
        {
          "indexed": false,
          "internalType": "uint16",
          "name": "_srcChainId",
          "type": "uint16"
        },
        {
          "indexed": false,
          "internalType": "bytes",
          "name": "_srcAddress",
          "type": "bytes"
        },
        {
          "indexed": false,
          "internalType": "uint64",
          "name": "_nonce",
          "type": "uint64"
        },
        {
          "indexed": false,
          "internalType": "bytes32",
          "name": "_payloadHash",
          "type": "bytes32"
        }
      ],
      "name": "RetryMessageSuccess",
      "type": "event"
    },
    {
      "anonymous": false,
      "inputs": [
        {
          "indexed": true,
          "internalType": "uint16",
          "name": "_dstChainId",
          "type": "uint16"
        },
        {
          "indexed": true,
          "internalType": "address",
          "name": "_from",
          "type": "address"
        },
        {
          "indexed": true,
          "internalType": "bytes32",
          "name": "_toAddress",
          "type": "bytes32"
        },
        {
          "indexed": false,
          "internalType": "uint256",
          "name": "_amount",
          "type": "uint256"
        }
      ],
      "name": "SendToChain",
      "type": "event"
    },
    {
      "anonymous": false,
      "inputs": [
        {
          "indexed": false,
          "internalType": "uint16",
          "name": "_dstChainId",
          "type": "uint16"
        },
        {
          "indexed": false,
          "internalType": "uint16",
          "name": "_type",
          "type": "uint16"
        },
        {
          "indexed": false,
          "internalType": "uint256",
          "name": "_minDstGas",
          "type": "uint256"
        }
      ],
      "name": "SetMinDstGas",
      "type": "event"
    },
    {
      "anonymous": false,
      "inputs": [
        {
          "indexed": false,
          "internalType": "address",
          "name": "precrime",
          "type": "address"
        }
      ],
      "name": "SetPrecrime",
      "type": "event"
    },
    {
      "anonymous": false,
      "inputs": [
        {
          "indexed": false,
          "internalType": "uint16",
          "name": "_remoteChainId",
          "type": "uint16"
        },
        {
          "indexed": false,
          "internalType": "bytes",
          "name": "_path",
          "type": "bytes"
        }
      ],
      "name": "SetTrustedRemote",
      "type": "event"
    },
    {
      "anonymous": false,
      "inputs": [
        {
          "indexed": false,
          "internalType": "uint16",
          "name": "_remoteChainId",
          "type": "uint16"
        },
        {
          "indexed": false,
          "internalType": "bytes",
          "name": "_remoteAddress",
          "type": "bytes"
        }
      ],
      "name": "SetTrustedRemoteAddress",
      "type": "event"
    },
    {
      "anonymous": false,
      "inputs": [
        {
          "indexed": false,
          "internalType": "bool",
          "name": "_useCustomAdapterParams",
          "type": "bool"
        }
      ],
      "name": "SetUseCustomAdapterParams",
      "type": "event"
    },
    {
      "anonymous": false,
      "inputs": [
        {
          "indexed": true,
          "internalType": "address",
          "name": "user",
          "type": "address"
        },
        {
          "indexed": false,
          "internalType": "uint256",
          "name": "amount",
          "type": "uint256"
        },
        {
          "indexed": false,
          "internalType": "uint256",
          "name": "term",
          "type": "uint256"
        }
      ],
      "name": "Staked",
      "type": "event"
    },
    {
      "anonymous": false,
      "inputs": [
        {
          "indexed": true,
          "internalType": "address",
          "name": "from",
          "type": "address"
        },
        {
          "indexed": true,
          "internalType": "address",
          "name": "to",
          "type": "address"
        },
        {
          "indexed": false,
          "internalType": "uint256",
          "name": "value",
          "type": "uint256"
        }
      ],
      "name": "Transfer",
      "type": "event"
    },
    {
      "anonymous": false,
      "inputs": [
        {
          "indexed": true,
          "internalType": "address",
          "name": "user",
          "type": "address"
        },
        {
          "indexed": false,
          "internalType": "uint256",
          "name": "amount",
          "type": "uint256"
        },
        {
          "indexed": false,
          "internalType": "uint256",
          "name": "reward",
          "type": "uint256"
        }
      ],
      "name": "Withdrawn",
      "type": "event"
    },
    {
      "inputs": [],
      "name": "DAYS_IN_YEAR",
      "outputs": [
        {
          "internalType": "uint256",
          "name": "",
          "type": "uint256"
        }
      ],
      "stateMutability": "view",
      "type": "function"
    },
    {
      "inputs": [],
      "name": "EAA_PM_START",
      "outputs": [
        {
          "internalType": "uint256",
          "name": "",
          "type": "uint256"
        }
      ],
      "stateMutability": "view",
      "type": "function"
    },
    {
      "inputs": [],
      "name": "EAA_PM_STEP",
      "outputs": [
        {
          "internalType": "uint256",
          "name": "",
          "type": "uint256"
        }
      ],
      "stateMutability": "view",
      "type": "function"
    },
    {
      "inputs": [],
      "name": "EAA_RANK_STEP",
      "outputs": [
        {
          "internalType": "uint256",
          "name": "",
          "type": "uint256"
        }
      ],
      "stateMutability": "view",
      "type": "function"
    },
    {
      "inputs": [],
      "name": "GENESIS_RANK",
      "outputs": [
        {
          "internalType": "uint256",
          "name": "",
          "type": "uint256"
        }
      ],
      "stateMutability": "view",
      "type": "function"
    },
    {
      "inputs": [],
      "name": "MAX_PENALTY_PCT",
      "outputs": [
        {
          "internalType": "uint256",
          "name": "",
          "type": "uint256"
        }
      ],
      "stateMutability": "view",
      "type": "function"
    },
    {
      "inputs": [],
      "name": "MAX_TERM_END",
      "outputs": [
        {
          "internalType": "uint256",
          "name": "",
          "type": "uint256"
        }
      ],
      "stateMutability": "view",
      "type": "function"
    },
    {
      "inputs": [],
      "name": "MAX_TERM_START",
      "outputs": [
        {
          "internalType": "uint256",
          "name": "",
          "type": "uint256"
        }
      ],
      "stateMutability": "view",
      "type": "function"
    },
    {
      "inputs": [],
      "name": "MIN_TERM",
      "outputs": [
        {
          "internalType": "uint256",
          "name": "",
          "type": "uint256"
        }
      ],
      "stateMutability": "view",
      "type": "function"
    },
    {
      "inputs": [],
      "name": "NO_EXTRA_GAS",
      "outputs": [
        {
          "internalType": "uint256",
          "name": "",
          "type": "uint256"
        }
      ],
      "stateMutability": "view",
      "type": "function"
    },
    {
      "inputs": [],
      "name": "PT_SEND",
      "outputs": [
        {
          "internalType": "uint8",
          "name": "",
          "type": "uint8"
        }
      ],
      "stateMutability": "view",
      "type": "function"
    },
    {
      "inputs": [],
      "name": "PT_SEND_AND_CALL",
      "outputs": [
        {
          "internalType": "uint8",
          "name": "",
          "type": "uint8"
        }
      ],
      "stateMutability": "view",
      "type": "function"
    },
    {
      "inputs": [],
      "name": "REWARD_AMPLIFIER_END",
      "outputs": [
        {
          "internalType": "uint256",
          "name": "",
          "type": "uint256"
        }
      ],
      "stateMutability": "view",
      "type": "function"
    },
    {
      "inputs": [],
      "name": "REWARD_AMPLIFIER_START",
      "outputs": [
        {
          "internalType": "uint256",
          "name": "",
          "type": "uint256"
        }
      ],
      "stateMutability": "view",
      "type": "function"
    },
    {
      "inputs": [],
      "name": "SECONDS_IN_DAY",
      "outputs": [
        {
          "internalType": "uint256",
          "name": "",
          "type": "uint256"
        }
      ],
      "stateMutability": "view",
      "type": "function"
    },
    {
      "inputs": [],
      "name": "TERM_AMPLIFIER",
      "outputs": [
        {
          "internalType": "uint256",
          "name": "",
          "type": "uint256"
        }
      ],
      "stateMutability": "view",
      "type": "function"
    },
    {
      "inputs": [],
      "name": "TERM_AMPLIFIER_THRESHOLD",
      "outputs": [
        {
          "internalType": "uint256",
          "name": "",
          "type": "uint256"
        }
      ],
      "stateMutability": "view",
      "type": "function"
    },
    {
      "inputs": [],
      "name": "WITHDRAWAL_WINDOW_DAYS",
      "outputs": [
        {
          "internalType": "uint256",
          "name": "",
          "type": "uint256"
        }
      ],
      "stateMutability": "view",
      "type": "function"
    },
    {
      "inputs": [],
      "name": "XEX_APY_DAYS_STEP",
      "outputs": [
        {
          "internalType": "uint256",
          "name": "",
          "type": "uint256"
        }
      ],
      "stateMutability": "view",
      "type": "function"
    },
    {
      "inputs": [],
      "name": "XEX_APY_END",
      "outputs": [
        {
          "internalType": "uint256",
          "name": "",
          "type": "uint256"
        }
      ],
      "stateMutability": "view",
      "type": "function"
    },
    {
      "inputs": [],
      "name": "XEX_APY_START",
      "outputs": [
        {
          "internalType": "uint256",
          "name": "",
          "type": "uint256"
        }
      ],
      "stateMutability": "view",
      "type": "function"
    },
    {
      "inputs": [],
      "name": "XEX_MIN_BURN",
      "outputs": [
        {
          "internalType": "uint256",
          "name": "",
          "type": "uint256"
        }
      ],
      "stateMutability": "view",
      "type": "function"
    },
    {
      "inputs": [],
      "name": "XEX_MIN_STAKE",
      "outputs": [
        {
          "internalType": "uint256",
          "name": "",
          "type": "uint256"
        }
      ],
      "stateMutability": "view",
      "type": "function"
    },
    {
      "inputs": [],
      "name": "activeMinters",
      "outputs": [
        {
          "internalType": "uint256",
          "name": "",
          "type": "uint256"
        }
      ],
      "stateMutability": "view",
      "type": "function"
    },
    {
      "inputs": [],
      "name": "activeStakes",
      "outputs": [
        {
          "internalType": "uint256",
          "name": "",
          "type": "uint256"
        }
      ],
      "stateMutability": "view",
      "type": "function"
    },
    {
      "inputs": [
        {
          "internalType": "address",
          "name": "owner",
          "type": "address"
        },
        {
          "internalType": "address",
          "name": "spender",
          "type": "address"
        }
      ],
      "name": "allowance",
      "outputs": [
        {
          "internalType": "uint256",
          "name": "",
          "type": "uint256"
        }
      ],
      "stateMutability": "view",
      "type": "function"
    },
    {
      "inputs": [
        {
          "internalType": "address",
          "name": "spender",
          "type": "address"
        },
        {
          "internalType": "uint256",
          "name": "amount",
          "type": "uint256"
        }
      ],
      "name": "approve",
      "outputs": [
        {
          "internalType": "bool",
          "name": "",
          "type": "bool"
        }
      ],
      "stateMutability": "nonpayable",
      "type": "function"
    },
    {
      "inputs": [
        {
          "internalType": "address",
          "name": "account",
          "type": "address"
        }
      ],
      "name": "balanceOf",
      "outputs": [
        {
          "internalType": "uint256",
          "name": "",
          "type": "uint256"
        }
      ],
      "stateMutability": "view",
      "type": "function"
    },
    {
      "inputs": [
        {
          "internalType": "uint16",
          "name": "_srcChainId",
          "type": "uint16"
        },
        {
          "internalType": "bytes",
          "name": "_srcAddress",
          "type": "bytes"
        },
        {
          "internalType": "uint64",
          "name": "_nonce",
          "type": "uint64"
        },
        {
          "internalType": "bytes32",
          "name": "_from",
          "type": "bytes32"
        },
        {
          "internalType": "address",
          "name": "_to",
          "type": "address"
        },
        {
          "internalType": "uint256",
          "name": "_amount",
          "type": "uint256"
        },
        {
          "internalType": "bytes",
          "name": "_payload",
          "type": "bytes"
        },
        {
          "internalType": "uint256",
          "name": "_gasForCall",
          "type": "uint256"
        }
      ],
      "name": "callOnOFTReceived",
      "outputs": [],
      "stateMutability": "nonpayable",
      "type": "function"
    },
    {
      "inputs": [],
      "name": "circulatingSupply",
      "outputs": [
        {
          "internalType": "uint256",
          "name": "",
          "type": "uint256"
        }
      ],
      "stateMutability": "view",
      "type": "function"
    },
    {
      "inputs": [],
      "name": "claimMintReward",
      "outputs": [],
      "stateMutability": "payable",
      "type": "function"
    },
    {
      "inputs": [
        {
          "internalType": "uint256",
          "name": "pct",
          "type": "uint256"
        },
        {
          "internalType": "uint256",
          "name": "term",
          "type": "uint256"
        }
      ],
      "name": "claimMintRewardAndStake",
      "outputs": [],
      "stateMutability": "payable",
      "type": "function"
    },
    {
      "inputs": [
        {
          "internalType": "uint256",
          "name": "term",
          "type": "uint256"
        }
      ],
      "name": "claimRank",
      "outputs": [],
      "stateMutability": "nonpayable",
      "type": "function"
    },
    {
      "inputs": [
        {
          "internalType": "uint16",
          "name": "",
          "type": "uint16"
        },
        {
          "internalType": "bytes",
          "name": "",
          "type": "bytes"
        },
        {
          "internalType": "uint64",
          "name": "",
          "type": "uint64"
        }
      ],
      "name": "creditedPackets",
      "outputs": [
        {
          "internalType": "bool",
          "name": "",
          "type": "bool"
        }
      ],
      "stateMutability": "view",
      "type": "function"
    },
    {
      "inputs": [],
      "name": "decimals",
      "outputs": [
        {
          "internalType": "uint8",
          "name": "",
          "type": "uint8"
        }
      ],
      "stateMutability": "view",
      "type": "function"
    },
    {
      "inputs": [
        {
          "internalType": "address",
          "name": "spender",
          "type": "address"
        },
        {
          "internalType": "uint256",
          "name": "subtractedValue",
          "type": "uint256"
        }
      ],
      "name": "decreaseAllowance",
      "outputs": [
        {
          "internalType": "bool",
          "name": "",
          "type": "bool"
        }
      ],
      "stateMutability": "nonpayable",
      "type": "function"
    },
    {
      "inputs": [
        {
          "internalType": "uint16",
          "name": "_dstChainId",
          "type": "uint16"
        },
        {
          "internalType": "bytes32",
          "name": "_toAddress",
          "type": "bytes32"
        },
        {
          "internalType": "uint256",
          "name": "_amount",
          "type": "uint256"
        },
        {
          "internalType": "bytes",
          "name": "_payload",
          "type": "bytes"
        },
        {
          "internalType": "uint64",
          "name": "_dstGasForCall",
          "type": "uint64"
        },
        {
          "internalType": "bool",
          "name": "_useZro",
          "type": "bool"
        },
        {
          "internalType": "bytes",
          "name": "_adapterParams",
          "type": "bytes"
        }
      ],
      "name": "estimateSendAndCallFee",
      "outputs": [
        {
          "internalType": "uint256",
          "name": "nativeFee",
          "type": "uint256"
        },
        {
          "internalType": "uint256",
          "name": "zroFee",
          "type": "uint256"
        }
      ],
      "stateMutability": "view",
      "type": "function"
    },
    {
      "inputs": [
        {
          "internalType": "uint16",
          "name": "_dstChainId",
          "type": "uint16"
        },
        {
          "internalType": "bytes32",
          "name": "_toAddress",
          "type": "bytes32"
        },
        {
          "internalType": "uint256",
          "name": "_amount",
          "type": "uint256"
        },
        {
          "internalType": "bool",
          "name": "_useZro",
          "type": "bool"
        },
        {
          "internalType": "bytes",
          "name": "_adapterParams",
          "type": "bytes"
        }
      ],
      "name": "estimateSendFee",
      "outputs": [
        {
          "internalType": "uint256",
          "name": "nativeFee",
          "type": "uint256"
        },
        {
          "internalType": "uint256",
          "name": "zroFee",
          "type": "uint256"
        }
      ],
      "stateMutability": "view",
      "type": "function"
    },
    {
      "inputs": [
        {
          "internalType": "uint16",
          "name": "",
          "type": "uint16"
        },
        {
          "internalType": "bytes",
          "name": "",
          "type": "bytes"
        },
        {
          "internalType": "uint64",
          "name": "",
          "type": "uint64"
        }
      ],
      "name": "failedMessages",
      "outputs": [
        {
          "internalType": "bytes32",
          "name": "",
          "type": "bytes32"
        }
      ],
      "stateMutability": "view",
      "type": "function"
    },
    {
      "inputs": [],
      "name": "fee",
      "outputs": [
        {
          "internalType": "uint256",
          "name": "",
          "type": "uint256"
        }
      ],
      "stateMutability": "view",
      "type": "function"
    },
    {
      "inputs": [
        {
          "internalType": "uint16",
          "name": "_srcChainId",
          "type": "uint16"
        },
        {
          "internalType": "bytes",
          "name": "_srcAddress",
          "type": "bytes"
        }
      ],
      "name": "forceResumeReceive",
      "outputs": [],
      "stateMutability": "nonpayable",
      "type": "function"
    },
    {
      "inputs": [],
      "name": "genesisTs",
      "outputs": [
        {
          "internalType": "uint256",
          "name": "",
          "type": "uint256"
        }
      ],
      "stateMutability": "view",
      "type": "function"
    },
    {
      "inputs": [
        {
          "internalType": "uint16",
          "name": "_version",
          "type": "uint16"
        },
        {
          "internalType": "uint16",
          "name": "_chainId",
          "type": "uint16"
        },
        {
          "internalType": "address",
          "name": "",
          "type": "address"
        },
        {
          "internalType": "uint256",
          "name": "_configType",
          "type": "uint256"
        }
      ],
      "name": "getConfig",
      "outputs": [
        {
          "internalType": "bytes",
          "name": "",
          "type": "bytes"
        }
      ],
      "stateMutability": "view",
      "type": "function"
    },
    {
      "inputs": [],
      "name": "getCurrentAMP",
      "outputs": [
        {
          "internalType": "uint256",
          "name": "",
          "type": "uint256"
        }
      ],
      "stateMutability": "view",
      "type": "function"
    },
    {
      "inputs": [],
      "name": "getCurrentAPY",
      "outputs": [
        {
          "internalType": "uint256",
          "name": "",
          "type": "uint256"
        }
      ],
      "stateMutability": "view",
      "type": "function"
    },
    {
      "inputs": [],
      "name": "getCurrentEAAR",
      "outputs": [
        {
          "internalType": "uint256",
          "name": "",
          "type": "uint256"
        }
      ],
      "stateMutability": "view",
      "type": "function"
    },
    {
      "inputs": [],
      "name": "getCurrentMaxTerm",
      "outputs": [
        {
          "internalType": "uint256",
          "name": "",
          "type": "uint256"
        }
      ],
      "stateMutability": "view",
      "type": "function"
    },
    {
      "inputs": [
        {
          "internalType": "uint256",
          "name": "rankDelta",
          "type": "uint256"
        },
        {
          "internalType": "uint256",
          "name": "amplifier",
          "type": "uint256"
        },
        {
          "internalType": "uint256",
          "name": "term",
          "type": "uint256"
        },
        {
          "internalType": "uint256",
          "name": "eaa",
          "type": "uint256"
        }
      ],
      "name": "getGrossReward",
      "outputs": [
        {
          "internalType": "uint256",
          "name": "",
          "type": "uint256"
        }
      ],
      "stateMutability": "pure",
      "type": "function"
    },
    {
      "inputs": [
        {
          "internalType": "uint256",
          "name": "cRank",
          "type": "uint256"
        },
        {
          "internalType": "uint256",
          "name": "term",
          "type": "uint256"
        },
        {
          "internalType": "uint256",
          "name": "maturityTs",
          "type": "uint256"
        },
        {
          "internalType": "uint256",
          "name": "amplifier",
          "type": "uint256"
        },
        {
          "internalType": "uint256",
          "name": "eeaRate",
          "type": "uint256"
        }
      ],
      "name": "getMintReward",
      "outputs": [
        {
          "internalType": "uint256",
          "name": "",
          "type": "uint256"
        }
      ],
      "stateMutability": "view",
      "type": "function"
    },
    {
      "inputs": [
        {
          "internalType": "uint16",
          "name": "_remoteChainId",
          "type": "uint16"
        }
      ],
      "name": "getTrustedRemoteAddress",
      "outputs": [
        {
          "internalType": "bytes",
          "name": "",
          "type": "bytes"
        }
      ],
      "stateMutability": "view",
      "type": "function"
    },
    {
      "inputs": [],
      "name": "getUserMint",
      "outputs": [
        {
          "components": [
            {
              "internalType": "address",
              "name": "user",
              "type": "address"
            },
            {
              "internalType": "uint256",
              "name": "term",
              "type": "uint256"
            },
            {
              "internalType": "uint256",
              "name": "maturityTs",
              "type": "uint256"
            },
            {
              "internalType": "uint256",
              "name": "rank",
              "type": "uint256"
            },
            {
              "internalType": "uint256",
              "name": "amplifier",
              "type": "uint256"
            },
            {
              "internalType": "uint256",
              "name": "eaaRate",
              "type": "uint256"
            }
          ],
          "internalType": "struct Main.MintInfo",
          "name": "",
          "type": "tuple"
        }
      ],
      "stateMutability": "view",
      "type": "function"
    },
    {
      "inputs": [],
      "name": "getUserStake",
      "outputs": [
        {
          "components": [
            {
              "internalType": "uint256",
              "name": "term",
              "type": "uint256"
            },
            {
              "internalType": "uint256",
              "name": "maturityTs",
              "type": "uint256"
            },
            {
              "internalType": "uint256",
              "name": "amount",
              "type": "uint256"
            },
            {
              "internalType": "uint256",
              "name": "apy",
              "type": "uint256"
            }
          ],
          "internalType": "struct Main.StakeInfo",
          "name": "",
          "type": "tuple"
        }
      ],
      "stateMutability": "view",
      "type": "function"
    },
    {
      "inputs": [],
      "name": "globalRank",
      "outputs": [
        {
          "internalType": "uint256",
          "name": "",
          "type": "uint256"
        }
      ],
      "stateMutability": "view",
      "type": "function"
    },
    {
      "inputs": [
        {
          "internalType": "address",
          "name": "spender",
          "type": "address"
        },
        {
          "internalType": "uint256",
          "name": "addedValue",
          "type": "uint256"
        }
      ],
      "name": "increaseAllowance",
      "outputs": [
        {
          "internalType": "bool",
          "name": "",
          "type": "bool"
        }
      ],
      "stateMutability": "nonpayable",
      "type": "function"
    },
    {
      "inputs": [
        {
          "internalType": "uint16",
          "name": "_srcChainId",
          "type": "uint16"
        },
        {
          "internalType": "bytes",
          "name": "_srcAddress",
          "type": "bytes"
        }
      ],
      "name": "isTrustedRemote",
      "outputs": [
        {
          "internalType": "bool",
          "name": "",
          "type": "bool"
        }
      ],
      "stateMutability": "view",
      "type": "function"
    },
    {
      "inputs": [],
      "name": "lzEndpoint",
      "outputs": [
        {
          "internalType": "contract ILayerZeroEndpoint",
          "name": "",
          "type": "address"
        }
      ],
      "stateMutability": "view",
      "type": "function"
    },
    {
      "inputs": [
        {
          "internalType": "uint16",
          "name": "_srcChainId",
          "type": "uint16"
        },
        {
          "internalType": "bytes",
          "name": "_srcAddress",
          "type": "bytes"
        },
        {
          "internalType": "uint64",
          "name": "_nonce",
          "type": "uint64"
        },
        {
          "internalType": "bytes",
          "name": "_payload",
          "type": "bytes"
        }
      ],
      "name": "lzReceive",
      "outputs": [],
      "stateMutability": "nonpayable",
      "type": "function"
    },
    {
      "inputs": [
        {
          "internalType": "uint16",
          "name": "",
          "type": "uint16"
        },
        {
          "internalType": "uint16",
          "name": "",
          "type": "uint16"
        }
      ],
      "name": "minDstGasLookup",
      "outputs": [
        {
          "internalType": "uint256",
          "name": "",
          "type": "uint256"
        }
      ],
      "stateMutability": "view",
      "type": "function"
    },
    {
      "inputs": [],
      "name": "name",
      "outputs": [
        {
          "internalType": "string",
          "name": "",
          "type": "string"
        }
      ],
      "stateMutability": "view",
      "type": "function"
    },
    {
      "inputs": [
        {
          "internalType": "uint16",
          "name": "_srcChainId",
          "type": "uint16"
        },
        {
          "internalType": "bytes",
          "name": "_srcAddress",
          "type": "bytes"
        },
        {
          "internalType": "uint64",
          "name": "_nonce",
          "type": "uint64"
        },
        {
          "internalType": "bytes",
          "name": "_payload",
          "type": "bytes"
        }
      ],
      "name": "nonblockingLzReceive",
      "outputs": [],
      "stateMutability": "nonpayable",
      "type": "function"
    },
    {
      "inputs": [],
      "name": "owner",
      "outputs": [
        {
          "internalType": "address",
          "name": "",
          "type": "address"
        }
      ],
      "stateMutability": "view",
      "type": "function"
    },
    {
      "inputs": [],
      "name": "precrime",
      "outputs": [
        {
          "internalType": "address",
          "name": "",
          "type": "address"
        }
      ],
      "stateMutability": "view",
      "type": "function"
    },
    {
      "inputs": [],
      "name": "renounceOwnership",
      "outputs": [],
      "stateMutability": "nonpayable",
      "type": "function"
    },
    {
      "inputs": [
        {
          "internalType": "uint16",
          "name": "_srcChainId",
          "type": "uint16"
        },
        {
          "internalType": "bytes",
          "name": "_srcAddress",
          "type": "bytes"
        },
        {
          "internalType": "uint64",
          "name": "_nonce",
          "type": "uint64"
        },
        {
          "internalType": "bytes",
          "name": "_payload",
          "type": "bytes"
        }
      ],
      "name": "retryMessage",
      "outputs": [],
      "stateMutability": "payable",
      "type": "function"
    },
    {
      "inputs": [
        {
          "internalType": "address",
          "name": "_from",
          "type": "address"
        },
        {
          "internalType": "uint16",
          "name": "_dstChainId",
          "type": "uint16"
        },
        {
          "internalType": "bytes32",
          "name": "_toAddress",
          "type": "bytes32"
        },
        {
          "internalType": "uint256",
          "name": "_amount",
          "type": "uint256"
        },
        {
          "internalType": "bytes",
          "name": "_payload",
          "type": "bytes"
        },
        {
          "internalType": "uint64",
          "name": "_dstGasForCall",
          "type": "uint64"
        },
        {
          "components": [
            {
              "internalType": "address payable",
              "name": "refundAddress",
              "type": "address"
            },
            {
              "internalType": "address",
              "name": "zroPaymentAddress",
              "type": "address"
            },
            {
              "internalType": "bytes",
              "name": "adapterParams",
              "type": "bytes"
            }
          ],
          "internalType": "struct ICommonOFT.LzCallParams",
          "name": "_callParams",
          "type": "tuple"
        }
      ],
      "name": "sendAndCall",
      "outputs": [],
      "stateMutability": "payable",
      "type": "function"
    },
    {
      "inputs": [
        {
          "internalType": "address",
          "name": "_from",
          "type": "address"
        },
        {
          "internalType": "uint16",
          "name": "_dstChainId",
          "type": "uint16"
        },
        {
          "internalType": "bytes32",
          "name": "_toAddress",
          "type": "bytes32"
        },
        {
          "internalType": "uint256",
          "name": "_amount",
          "type": "uint256"
        },
        {
          "components": [
            {
              "internalType": "address payable",
              "name": "refundAddress",
              "type": "address"
            },
            {
              "internalType": "address",
              "name": "zroPaymentAddress",
              "type": "address"
            },
            {
              "internalType": "bytes",
              "name": "adapterParams",
              "type": "bytes"
            }
          ],
          "internalType": "struct ICommonOFT.LzCallParams",
          "name": "_callParams",
          "type": "tuple"
        }
      ],
      "name": "sendFrom",
      "outputs": [],
      "stateMutability": "payable",
      "type": "function"
    },
    {
      "inputs": [
        {
          "internalType": "uint16",
          "name": "_version",
          "type": "uint16"
        },
        {
          "internalType": "uint16",
          "name": "_chainId",
          "type": "uint16"
        },
        {
          "internalType": "uint256",
          "name": "_configType",
          "type": "uint256"
        },
        {
          "internalType": "bytes",
          "name": "_config",
          "type": "bytes"
        }
      ],
      "name": "setConfig",
      "outputs": [],
      "stateMutability": "nonpayable",
      "type": "function"
    },
    {
      "inputs": [
        {
          "internalType": "address",
          "name": "_endpoint",
          "type": "address"
        }
      ],
      "name": "setEndpoint",
      "outputs": [],
      "stateMutability": "nonpayable",
      "type": "function"
    },
    {
      "inputs": [
        {
          "internalType": "uint16",
          "name": "_dstChainId",
          "type": "uint16"
        },
        {
          "internalType": "uint16",
          "name": "_packetType",
          "type": "uint16"
        },
        {
          "internalType": "uint256",
          "name": "_minGas",
          "type": "uint256"
        }
      ],
      "name": "setMinDstGas",
      "outputs": [],
      "stateMutability": "nonpayable",
      "type": "function"
    },
    {
      "inputs": [
        {
          "internalType": "address",
          "name": "_precrime",
          "type": "address"
        }
      ],
      "name": "setPrecrime",
      "outputs": [],
      "stateMutability": "nonpayable",
      "type": "function"
    },
    {
      "inputs": [
        {
          "internalType": "uint16",
          "name": "_version",
          "type": "uint16"
        }
      ],
      "name": "setReceiveVersion",
      "outputs": [],
      "stateMutability": "nonpayable",
      "type": "function"
    },
    {
      "inputs": [
        {
          "internalType": "uint16",
          "name": "_version",
          "type": "uint16"
        }
      ],
      "name": "setSendVersion",
      "outputs": [],
      "stateMutability": "nonpayable",
      "type": "function"
    },
    {
      "inputs": [
        {
          "internalType": "address",
          "name": "_treasure",
          "type": "address"
        }
      ],
      "name": "setTreasure",
      "outputs": [],
      "stateMutability": "nonpayable",
      "type": "function"
    },
    {
      "inputs": [
        {
          "internalType": "uint16",
          "name": "_srcChainId",
          "type": "uint16"
        },
        {
          "internalType": "bytes",
          "name": "_path",
          "type": "bytes"
        }
      ],
      "name": "setTrustedRemote",
      "outputs": [],
      "stateMutability": "nonpayable",
      "type": "function"
    },
    {
      "inputs": [
        {
          "internalType": "uint16",
          "name": "_remoteChainId",
          "type": "uint16"
        },
        {
          "internalType": "bytes",
          "name": "_remoteAddress",
          "type": "bytes"
        }
      ],
      "name": "setTrustedRemoteAddress",
      "outputs": [],
      "stateMutability": "nonpayable",
      "type": "function"
    },
    {
      "inputs": [
        {
          "internalType": "bool",
          "name": "_useCustomAdapterParams",
          "type": "bool"
        }
      ],
      "name": "setUseCustomAdapterParams",
      "outputs": [],
      "stateMutability": "nonpayable",
      "type": "function"
    },
    {
      "inputs": [],
      "name": "sharedDecimals",
      "outputs": [
        {
          "internalType": "uint8",
          "name": "",
          "type": "uint8"
        }
      ],
      "stateMutability": "view",
      "type": "function"
    },
    {
      "inputs": [
        {
          "internalType": "uint256",
          "name": "amount",
          "type": "uint256"
        },
        {
          "internalType": "uint256",
          "name": "term",
          "type": "uint256"
        }
      ],
      "name": "stake",
      "outputs": [],
      "stateMutability": "payable",
      "type": "function"
    },
    {
      "inputs": [
        {
          "internalType": "bytes4",
          "name": "interfaceId",
          "type": "bytes4"
        }
      ],
      "name": "supportsInterface",
      "outputs": [
        {
          "internalType": "bool",
          "name": "",
          "type": "bool"
        }
      ],
      "stateMutability": "view",
      "type": "function"
    },
    {
      "inputs": [],
      "name": "symbol",
      "outputs": [
        {
          "internalType": "string",
          "name": "",
          "type": "string"
        }
      ],
      "stateMutability": "view",
      "type": "function"
    },
    {
      "inputs": [],
      "name": "token",
      "outputs": [
        {
          "internalType": "address",
          "name": "",
          "type": "address"
        }
      ],
      "stateMutability": "view",
      "type": "function"
    },
    {
      "inputs": [],
      "name": "totalSupply",
      "outputs": [
        {
          "internalType": "uint256",
          "name": "",
          "type": "uint256"
        }
      ],
      "stateMutability": "view",
      "type": "function"
    },
    {
      "inputs": [],
      "name": "totalXenStaked",
      "outputs": [
        {
          "internalType": "uint256",
          "name": "",
          "type": "uint256"
        }
      ],
      "stateMutability": "view",
      "type": "function"
    },
    {
      "inputs": [
        {
          "internalType": "address",
          "name": "to",
          "type": "address"
        },
        {
          "internalType": "uint256",
          "name": "amount",
          "type": "uint256"
        }
      ],
      "name": "transfer",
      "outputs": [
        {
          "internalType": "bool",
          "name": "",
          "type": "bool"
        }
      ],
      "stateMutability": "nonpayable",
      "type": "function"
    },
    {
      "inputs": [
        {
          "internalType": "address",
          "name": "from",
          "type": "address"
        },
        {
          "internalType": "address",
          "name": "to",
          "type": "address"
        },
        {
          "internalType": "uint256",
          "name": "amount",
          "type": "uint256"
        }
      ],
      "name": "transferFrom",
      "outputs": [
        {
          "internalType": "bool",
          "name": "",
          "type": "bool"
        }
      ],
      "stateMutability": "nonpayable",
      "type": "function"
    },
    {
      "inputs": [
        {
          "internalType": "address",
          "name": "newOwner",
          "type": "address"
        }
      ],
      "name": "transferOwnership",
      "outputs": [],
      "stateMutability": "nonpayable",
      "type": "function"
    },
    {
      "inputs": [],
      "name": "treasure",
      "outputs": [
        {
          "internalType": "address",
          "name": "",
          "type": "address"
        }
      ],
      "stateMutability": "view",
      "type": "function"
    },
    {
      "inputs": [
        {
          "internalType": "uint16",
          "name": "",
          "type": "uint16"
        }
      ],
      "name": "trustedRemoteLookup",
      "outputs": [
        {
          "internalType": "bytes",
          "name": "",
          "type": "bytes"
        }
      ],
      "stateMutability": "view",
      "type": "function"
    },
    {
      "inputs": [],
      "name": "useCustomAdapterParams",
      "outputs": [
        {
          "internalType": "bool",
          "name": "",
          "type": "bool"
        }
      ],
      "stateMutability": "view",
      "type": "function"
    },
    {
      "inputs": [
        {
          "internalType": "address",
          "name": "",
          "type": "address"
        }
      ],
      "name": "userBurns",
      "outputs": [
        {
          "internalType": "uint256",
          "name": "",
          "type": "uint256"
        }
      ],
      "stateMutability": "view",
      "type": "function"
    },
    {
      "inputs": [
        {
          "internalType": "address",
          "name": "",
          "type": "address"
        }
      ],
      "name": "userMints",
      "outputs": [
        {
          "internalType": "address",
          "name": "user",
          "type": "address"
        },
        {
          "internalType": "uint256",
          "name": "term",
          "type": "uint256"
        },
        {
          "internalType": "uint256",
          "name": "maturityTs",
          "type": "uint256"
        },
        {
          "internalType": "uint256",
          "name": "rank",
          "type": "uint256"
        },
        {
          "internalType": "uint256",
          "name": "amplifier",
          "type": "uint256"
        },
        {
          "internalType": "uint256",
          "name": "eaaRate",
          "type": "uint256"
        }
      ],
      "stateMutability": "view",
      "type": "function"
    },
    {
      "inputs": [
        {
          "internalType": "address",
          "name": "",
          "type": "address"
        }
      ],
      "name": "userStakes",
      "outputs": [
        {
          "internalType": "uint256",
          "name": "term",
          "type": "uint256"
        },
        {
          "internalType": "uint256",
          "name": "maturityTs",
          "type": "uint256"
        },
        {
          "internalType": "uint256",
          "name": "amount",
          "type": "uint256"
        },
        {
          "internalType": "uint256",
          "name": "apy",
          "type": "uint256"
        }
      ],
      "stateMutability": "view",
      "type": "function"
    },
    {
      "inputs": [],
      "name": "withdraw",
      "outputs": [],
      "stateMutability": "payable",
      "type": "function"
    }
  ],
  "bytecode": "0x60e06040526001600f553480156200001657600080fd5b50604051620062bb380380620062bb8339810160408190526200003991620003c6565b8082600885878484848481818080620000523362000150565b600180546001600160a01b0319166001600160a01b0392909216919091179055505060f81b7fff000000000000000000000000000000000000000000000000000000000000001660805250508151620000b390600d9060208501906200026d565b508051620000c990600e9060208401906200026d565b5050506000620000de620001a060201b60201c565b90508060ff168460ff161115620000f457600080fd5b62000100848262000589565b6200010d90600a620004bb565b60a052506009555050600880546001600160a01b031916339081179091554260c0526200014692509050670de0b6b3a7640000620001a5565b5050505062000618565b600080546001600160a01b038381166001600160a01b0319831681178455604051919092169283917f8be0079c531659141344cd1fd0a4f28419497f9722a3daafe3b4186f6b6457e09190a35050565b601290565b6001600160a01b038216620002005760405162461bcd60e51b815260206004820152601f60248201527f45524332303a206d696e7420746f20746865207a65726f206164647265737300604482015260640160405180910390fd5b80600c600082825462000214919062000457565b90915550506001600160a01b0382166000818152600a60209081526040808320805486019055518481527fddf252ad1be2c89b69c2b068fc378daa952ba7f163c4a11628f55a4df523b3ef910160405180910390a35050565b8280546200027b90620005af565b90600052602060002090601f0160209004810192826200029f5760008555620002ea565b82601f10620002ba57805160ff1916838001178555620002ea565b82800160010185558215620002ea579182015b82811115620002ea578251825591602001919060010190620002cd565b50620002f8929150620002fc565b5090565b5b80821115620002f85760008155600101620002fd565b600082601f83011262000324578081fd5b81516001600160401b038082111562000341576200034162000602565b604051601f8301601f19908116603f011681019082821181831017156200036c576200036c62000602565b8160405283815260209250868385880101111562000388578485fd5b8491505b83821015620003ab57858201830151818301840152908201906200038c565b83821115620003bc57848385830101525b9695505050505050565b60008060008060808587031215620003dc578384fd5b845160208601519094506001600160a01b0381168114620003fb578384fd5b60408601519093506001600160401b038082111562000418578384fd5b620004268883890162000313565b935060608701519150808211156200043c578283fd5b506200044b8782880162000313565b91505092959194509250565b600082198211156200046d576200046d620005ec565b500190565b600181815b80851115620004b3578160001904821115620004975762000497620005ec565b80851615620004a557918102915b93841c939080029062000477565b509250929050565b6000620004cc60ff841683620004d3565b9392505050565b600082620004e45750600162000583565b81620004f35750600062000583565b81600181146200050c5760028114620005175762000537565b600191505062000583565b60ff8411156200052b576200052b620005ec565b50506001821b62000583565b5060208310610133831016604e8410600b84101617156200055c575081810a62000583565b62000568838362000472565b80600019048211156200057f576200057f620005ec565b0290505b92915050565b600060ff821660ff841680821015620005a657620005a6620005ec565b90039392505050565b600181811c90821680620005c457607f821691505b60208210811415620005e657634e487b7160e01b600052602260045260246000fd5b50919050565b634e487b7160e01b600052601160045260246000fd5b634e487b7160e01b600052604160045260246000fd5b60805160f81c60a05160c051615c546200066760003960008181610edd01528181613d570152613dba0152600081816143a70152818161470c015261498401526000610a0f0152615c546000f3fe6080604052600436106105015760003560e01c80638cfd8f5c11610297578063c56f0bab11610165578063e6a20ae6116100cc578063ed629c5c11610085578063ed629c5c14610fd5578063f060482914610fef578063f2fde38b14611004578063f340faed14611024578063f5ecbdbc1461103b578063fc0c546a1461105b57600080fd5b8063e6a20ae614610f34578063e81917b414610f49578063eab45d9c14610f5f578063eaffd49a14610f7f578063eb8d72b714610f9f578063ed2f236914610fbf57600080fd5b8063ddca3f431161011e578063ddca3f4314610e04578063df28233114610e1a578063df2a5b3b14610eab578063e3af6d0a14610ecb578063e520fc7e14610eff578063e54f57c014610f1f57600080fd5b8063c56f0bab14610d4f578063cbed8b9c14610d64578063ce653d5f14610d84578063d1deba1f14610db1578063dbbb415514610dc4578063dd62ed3e14610de457600080fd5b80639ff054df11610209578063b21d35f2116101c2578063b21d35f214610cce578063b353aaa714610ce4578063b4800cdc14610d04578063baf3292d14610d1a578063bcfe394f146106b6578063c0c6525914610d3a57600080fd5b80639ff054df14610c0e578063a457c2d714610c2e578063a4c51df514610c4e578063a6c3d16514610c6e578063a9059cbb14610c8e578063b0fd1fc214610cae57600080fd5b8063950c8a741161025b578063950c8a7414610b3d57806395d89b4114610b5d578063962ca49614610b725780639920245414610b875780639bdb981214610b9c5780639f38369a14610bee57600080fd5b80638cfd8f5c14610a465780638da5cb5b14610a7e5780638da7ad2314610ab0578063909a2ff614610b125780639358928b14610b2857600080fd5b80634411ad04116103d4578063695ef6bf1161034657806376203b48116102ff57806376203b48146109d75780637b0472f0146109ea578063857749b0146109fd57806385eb8321146107ff5780638979c87c14610a3157806389fb998f146107ff57600080fd5b8063695ef6bf146108df5780637010d7a1146108f257806370a0823114610957578063715018a61461098d57806372475f94146109a25780637533d788146109b757600080fd5b806352c7f8dc1161039857806352c7f8dc1461083e578063543d3652146106b65780635b8c41e6146108465780635bccb4c41461089557806361a52a36146108a857806366ad5c8a146108bf57600080fd5b80634411ad04146107df57806344770515146107ff5780634512571514610814578063471191a1146107ff5780634c42899a1461082957600080fd5b806318160ddd11610478578063323ac7d811610431578063323ac7d81461072d578063365260b41461074257806339509351146107775780633ccfd60b146107975780633d8b38f61461079f57806342d65a8d146107bf57600080fd5b806318160ddd1461068b5780631c244082146106a05780631c6f212e146106b65780631d3cd2a6146106cb57806323b872dd146106eb578063313ce5671461070b57600080fd5b806307e0db17116104ca57806307e0db17146105b9578063095ea7b3146105d95780630bfae56b146105f95780630f2e12281461060e57806310ddb1371461062357806316f9c8fd1461064357600080fd5b80621d35671461050657806301ffc9a714610528578063023789321461055d578063069612a51461058157806306fdde0314610597575b600080fd5b34801561051257600080fd5b50610526610521366004615326565b61106e565b005b34801561053457600080fd5b50610548610543366004615036565b61128a565b60405190151581526020015b60405180910390f35b34801561056957600080fd5b5061057361016d81565b604051908152602001610554565b34801561058d57600080fd5b5061057360125481565b3480156105a357600080fd5b506105ac6112c1565b6040516105549190615745565b3480156105c557600080fd5b506105266105d43660046150cc565b611353565b3480156105e557600080fd5b506105486105f4366004614ff1565b6113c0565b34801561060557600080fd5b506105736113d8565b34801561061a57600080fd5b50610573606381565b34801561062f57600080fd5b5061052661063e3660046150cc565b6113e9565b34801561064f57600080fd5b50610658611425565b60405161055491908151815260208083015190820152604080830151908201526060918201519181019190915260800190565b34801561069757600080fd5b50600c54610573565b3480156106ac57600080fd5b50610573600f5481565b3480156106c257600080fd5b50610573600181565b3480156106d757600080fd5b506105266106e6366004614e3d565b611496565b3480156106f757600080fd5b50610548610706366004614e91565b6114c0565b34801561071757600080fd5b5060125b60405160ff9091168152602001610554565b34801561073957600080fd5b50610573602381565b34801561074e57600080fd5b5061076261075d3660046150e6565b6114e4565b60408051928352602083019190915201610554565b34801561078357600080fd5b50610548610792366004614ff1565b611539565b61052661155b565b3480156107ab57600080fd5b506105486107ba366004615211565b61171b565b3480156107cb57600080fd5b506105266107da366004615211565b6117e7565b3480156107eb57600080fd5b506105736107fa366004615603565b611851565b34801561080b57600080fd5b50610573600081565b34801561082057600080fd5b50610573611a30565b34801561083557600080fd5b5061071b600081565b610526611a3f565b34801561085257600080fd5b506105736108613660046153a4565b6005602090815260009384526040808520845180860184018051928152908401958401959095209452929052825290205481565b6105266108a336600461558e565b611be2565b3480156108b457600080fd5b506105736201518081565b3480156108cb57600080fd5b506105266108da366004615326565b611e92565b6105266108ed366004614f80565b611f1c565b3480156108fe57600080fd5b50610907612025565b604051610554919081516001600160a01b031681526020808301519082015260408083015190820152606080830151908201526080808301519082015260a0918201519181019190915260c00190565b34801561096357600080fd5b50610573610972366004614e3d565b6001600160a01b03166000908152600a602052604090205490565b34801561099957600080fd5b506105266120ca565b3480156109ae57600080fd5b50610573600f81565b3480156109c357600080fd5b506105ac6109d23660046150cc565b6120de565b6105266109e5366004614ed1565b612178565b6105266109f836600461558e565b6122c6565b348015610a0957600080fd5b5061071b7f000000000000000000000000000000000000000000000000000000000000000081565b348015610a3d57600080fd5b50610573612443565b348015610a5257600080fd5b50610573610a61366004615439565b600360209081526000928352604080842090915290825290205481565b348015610a8a57600080fd5b506000546001600160a01b03165b6040516001600160a01b039091168152602001610554565b348015610abc57600080fd5b50610af2610acb366004614e3d565b60146020526000908152604090208054600182015460028301546003909301549192909184565b604080519485526020850193909352918301526060820152608001610554565b348015610b1e57600080fd5b506105736103e881565b348015610b3457600080fd5b5061057361244d565b348015610b4957600080fd5b50600454610a98906001600160a01b031681565b348015610b6957600080fd5b506105ac612458565b348015610b7e57600080fd5b50610573612467565b348015610b9357600080fd5b50610573612471565b348015610ba857600080fd5b50610548610bb73660046153a4565b6007602090815260009384526040808520845180860184018051928152908401958401959095209452929052825290205460ff1681565b348015610bfa57600080fd5b506105ac610c093660046150cc565b61247b565b348015610c1a57600080fd5b50610526610c2936600461555e565b612592565b348015610c3a57600080fd5b50610548610c49366004614ff1565b612738565b348015610c5a57600080fd5b50610762610c6936600461515b565b6127b3565b348015610c7a57600080fd5b50610526610c89366004615211565b612842565b348015610c9a57600080fd5b50610548610ca9366004614ff1565b6128d5565b348015610cba57600080fd5b50610573610cc93660046155d2565b6128e3565b348015610cda57600080fd5b5061057361026081565b348015610cf057600080fd5b50600154610a98906001600160a01b031681565b348015610d1057600080fd5b5061057360105481565b348015610d2657600080fd5b50610526610d35366004614e3d565b612972565b348015610d4657600080fd5b506105736129cf565b348015610d5b57600080fd5b50610573600781565b348015610d7057600080fd5b50610526610d7f3660046154f2565b6129de565b348015610d9057600080fd5b50610573610d9f366004614e3d565b60156020526000908152604090205481565b610526610dbf366004615326565b612a57565b348015610dd057600080fd5b50610526610ddf366004614e3d565b612bd1565b348015610df057600080fd5b50610573610dff366004614e59565b612c11565b348015610e1057600080fd5b5061057360095481565b348015610e2657600080fd5b50610e74610e35366004614e3d565b6013602052600090815260409020805460018201546002830154600384015460048501546005909501546001600160a01b039094169492939192909186565b604080516001600160a01b0390971687526020870195909552938501929092526060840152608083015260a082015260c001610554565b348015610eb757600080fd5b50610526610ec63660046154b7565b612c3c565b348015610ed757600080fd5b506105737f000000000000000000000000000000000000000000000000000000000000000081565b348015610f0b57600080fd5b50600854610a98906001600160a01b031681565b348015610f2b57600080fd5b50610573601481565b348015610f4057600080fd5b5061071b600181565b348015610f5557600080fd5b506105736102da81565b348015610f6b57600080fd5b50610526610f7a36600461501c565b612cee565b348015610f8b57600080fd5b50610526610f9a366004615261565b612d37565b348015610fab57600080fd5b50610526610fba366004615211565b612e13565b348015610fcb57600080fd5b5061057360115481565b348015610fe157600080fd5b506006546105489060ff1681565b348015610ffb57600080fd5b50610573612e6d565b34801561101057600080fd5b5061052661101f366004614e3d565b612e86565b34801561103057600080fd5b50610573620186a081565b34801561104757600080fd5b506105ac61105636600461546b565b612eff565b34801561106757600080fd5b5030610a98565b6001546001600160a01b0316336001600160a01b0316146110d65760405162461bcd60e51b815260206004820152601e60248201527f4c7a4170703a20696e76616c696420656e64706f696e742063616c6c6572000060448201526064015b60405180910390fd5b61ffff8616600090815260026020526040812080546110f490615b63565b80601f016020809104026020016040519081016040528092919081815260200182805461112090615b63565b801561116d5780601f106111425761010080835404028352916020019161116d565b820191906000526020600020905b81548152906001019060200180831161115057829003601f168201915b50505050509050805186869050148015611188575060008151115b80156111b05750805160208201206040516111a69088908890615692565b6040518091039020145b61120b5760405162461bcd60e51b815260206004820152602660248201527f4c7a4170703a20696e76616c696420736f757263652073656e64696e6720636f6044820152651b9d1c9858dd60d21b60648201526084016110cd565b6112818787878080601f01602080910402602001604051908101604052809392919081815260200183838082843760009201919091525050604080516020601f8a018190048102820181019092528881528a935091508890889081908401838280828437600092019190915250612f9892505050565b50505050505050565b60006001600160e01b03198216631f7ecdf760e01b14806112bb57506301ffc9a760e01b6001600160e01b03198316145b92915050565b6060600d80546112d090615b63565b80601f01602080910402602001604051908101604052809291908181526020018280546112fc90615b63565b80156113495780601f1061131e57610100808354040283529160200191611349565b820191906000526020600020905b81548152906001019060200180831161132c57829003601f168201915b5050505050905090565b61135b613011565b6001546040516307e0db1760e01b815261ffff831660048201526001600160a01b03909116906307e0db17906024015b600060405180830381600087803b1580156113a557600080fd5b505af11580156113b9573d6000803e3d6000fd5b5050505050565b6000336113ce81858561306b565b5060019392505050565b6113e6620151806064615aea565b81565b6113f1613011565b6001546040516310ddb13760e01b815261ffff831660048201526001600160a01b03909116906310ddb1379060240161138b565b6114506040518060800160405280600081526020016000815260200160008152602001600081525090565b5033600090815260146020908152604091829020825160808101845281548152600182015492810192909252600281015492820192909252600390910154606082015290565b61149e613011565b600880546001600160a01b0319166001600160a01b0392909216919091179055565b6000336114ce858285613190565b6114d985858561320a565b506001949350505050565b60008061152a8888888888888080601f0160208091040260200160405190810160405280939291908181526020018383808284376000920191909152506133b592505050565b91509150965096945050505050565b6000336113ce81858561154c8383612c11565b6115569190615abe565b61306b565b60095434101561156a57600080fd5b60003411801561157c57506000600954115b156115e5576008546009546040516000926001600160a01b031691908381818185875af1925050503d80600081146115d0576040519150601f19603f3d011682016040523d82523d6000602084013e6115d5565b606091505b50509050806115e357600080fd5b505b3360009081526014602090815260409182902082516080810184528154815260018201549281019290925260028101549282018390526003015460608201529061162e57600080fd5b600061164c826040015183600001518460200151856060015161349a565b60118054919250600061165e83615b4c565b91905055508160400151601260008282546116799190615b09565b92505081905550611699338284604001516116949190615abe565b6134f8565b6008546116b4906001600160a01b0316611694606484615ad6565b60408083015181519081526020810183905233917f92ccf450a286a957af52509bc1c9939d1a6a481783e142e41e2499f0bb66ebc6910160405180910390a25050336000908152601460205260408120818155600181018290556002810182905560030155565b61ffff83166000908152600260205260408120805482919061173c90615b63565b80601f016020809104026020016040519081016040528092919081815260200182805461176890615b63565b80156117b55780601f1061178a576101008083540402835291602001916117b5565b820191906000526020600020905b81548152906001019060200180831161179857829003601f168201915b5050505050905083836040516117cc929190615692565b60405180910390208180519060200120149150509392505050565b6117ef613011565b6001546040516342d65a8d60e01b81526001600160a01b03909116906342d65a8d90611823908690869086906004016157da565b600060405180830381600087803b15801561183d57600080fd5b505af1158015611281573d6000803e3d6000fd5b6000834211156119645760006118678542615b09565b90506000611874826135b9565b9050600073__$6ad30996409d058139477db06ae39abaac$__636d5433e68a600f546118a09190615b09565b6040516001600160e01b031960e084901b16815260048101919091526002602482015260440160206040518083038186803b1580156118de57600080fd5b505af41580156118f2573d6000803e3d6000fd5b505050506040513d601f19601f820116820180604052508101906119169190615576565b90506000611926866103e8615abe565b9050600061193683898c856128e3565b905060646119448582615b09565b61194e9083615aea565b6119589190615ad6565b95505050505050611a27565b600073__$6ad30996409d058139477db06ae39abaac$__636d5433e688600f5461198e9190615b09565b6040516001600160e01b031960e084901b16815260048101919091526002602482015260440160206040518083038186803b1580156119cc57600080fd5b505af41580156119e0573d6000803e3d6000fd5b505050506040513d601f19601f82011682018060405250810190611a049190615576565b90506000611a14846103e8615abe565b9050611a22828689846128e3565b925050505b95945050505050565b6000611a3a61369d565b905090565b600954341015611a4e57600080fd5b600034118015611a6057506000600954115b15611ac9576008546009546040516000926001600160a01b031691908381818185875af1925050503d8060008114611ab4576040519150601f19603f3d011682016040523d82523d6000602084013e611ab9565b606091505b5050905080611ac757600080fd5b505b33600090815260136020908152604091829020825160c08101845281546001600160a01b031681526001820154928101929092526002810154928201929092526003820154606082018190526004830154608083015260059092015460a082015290611b3457600080fd5b80604001514211611b4457600080fd5b6000611b6782606001518360200151846040015185608001518660a001516137b2565b611b7990670de0b6b3a7640000615aea565b9050611b8533826134f8565b600854611ba0906001600160a01b0316611694606484615ad6565b611ba86138bf565b60405181815233907fd74752b13281df13701575f3a507e9b1242e0b5fb040143211c481c1fce573a6906020015b60405180910390a25050565b600954341015611bf157600080fd5b600034118015611c0357506000600954115b15611c6c576008546009546040516000926001600160a01b031691908381818185875af1925050503d8060008114611c57576040519150601f19603f3d011682016040523d82523d6000602084013e611c5c565b606091505b5050905080611c6a57600080fd5b505b33600090815260136020908152604091829020825160c08101845281546001600160a01b03168152600182015492810192909252600281015492820192909252600382015460608201526004820154608082015260059091015460a082015260658310611cd857600080fd5b6000816060015111611ce957600080fd5b80604001514211611cf957600080fd5b6000611d1c82606001518360200151846040015185608001518660a001516137b2565b611d2e90670de0b6b3a7640000615aea565b905060006064611d3e8684615aea565b611d489190615ad6565b90506000611d568284615b09565b9050611d6233826134f8565b600854611d7d906001600160a01b0316611694606486615ad6565b611d856138bf565b60405183815233907fd74752b13281df13701575f3a507e9b1242e0b5fb040143211c481c1fce573a69060200160405180910390a260008211611dc757600080fd5b6001611dd66201518082615aea565b611de09190615b09565b611ded6201518087615aea565b11611df757600080fd5b611e06620151806102da615aea565b611e11906001615abe565b611e1e6201518087615aea565b10611e2857600080fd5b3360009081526014602052604090206002015415611e4557600080fd5b611e4f8286613913565b604080518381526020810187905233917f1449c6dd7851abc30abf37f57715f492010519147cc2652fbc38202c18a6ee90910160405180910390a2505050505050565b333014611e9e57600080fd5b611f148686868080601f01602080910402602001604051908101604052809392919081815260200183838082843760009201919091525050604080516020601f8901819004810282018101909252878152899350915087908790819084018382808284376000920191909152506139b692505050565b505050505050565b600954341015611f2b57600080fd5b600034118015611f3d57506000600954115b15611fa6576008546009546040516000926001600160a01b031691908381818185875af1925050503d8060008114611f91576040519150601f19603f3d011682016040523d82523d6000602084013e611f96565b606091505b5050905080611fa457600080fd5b505b600060095434611fb69190615b09565b905061128186868686611fcc6020880188614e3d565b611fdc6040890160208a01614e3d565b611fe960408a018a615a23565b8080601f0160208091040260200160405190810160405280939291908181526020018383808284376000920191909152508b9250613a17915050565b6120676040518060c0016040528060006001600160a01b0316815260200160008152602001600081526020016000815260200160008152602001600081525090565b5033600090815260136020908152604091829020825160c08101845281546001600160a01b03168152600182015492810192909252600281015492820192909252600382015460608201526004820154608082015260059091015460a082015290565b6120d2613011565b6120dc6000613ac1565b565b600260205260009081526040902080546120f790615b63565b80601f016020809104026020016040519081016040528092919081815260200182805461212390615b63565b80156121705780601f1061214557610100808354040283529160200191612170565b820191906000526020600020905b81548152906001019060200180831161215357829003601f168201915b505050505081565b60095434101561218757600080fd5b60003411801561219957506000600954115b15612202576008546009546040516000926001600160a01b031691908381818185875af1925050503d80600081146121ed576040519150601f19603f3d011682016040523d82523d6000602084013e6121f2565b606091505b505090508061220057600080fd5b505b6000600954346122129190615b09565b90506122ba8989898989898080601f0160208091040260200160405190810160405280939291908181526020018383808284376000920191909152508b925061226191505060208a018a614e3d565b61227160408b0160208c01614e3d565b61227e60408c018c615a23565b8080601f0160208091040260200160405190810160405280939291908181526020018383808284376000920191909152508d9250613b11915050565b50505050505050505050565b6009543410156122d557600080fd5b6000341180156122e757506000600954115b15612350576008546009546040516000926001600160a01b031691908381818185875af1925050503d806000811461233b576040519150601f19603f3d011682016040523d82523d6000602084013e612340565b606091505b505090508061234e57600080fd5b505b336000908152600a602052604090205482111561236c57600080fd5b6000821161237957600080fd5b60016123886201518082615aea565b6123929190615b09565b61239f6201518083615aea565b116123a957600080fd5b6123b8620151806102da615aea565b6123c3906001615abe565b6123d06201518083615aea565b106123da57600080fd5b33600090815260146020526040902060020154156123f757600080fd5b6124013383613bcf565b61240b8282613913565b604080518381526020810183905233917f1449c6dd7851abc30abf37f57715f492010519147cc2652fbc38202c18a6ee909101611bd6565b6000611a3a613cfb565b6000611a3a600c5490565b6060600e80546112d090615b63565b6000611a3a613d41565b6000611a3a613dae565b61ffff811660009081526002602052604081208054606092919061249e90615b63565b80601f01602080910402602001604051908101604052809291908181526020018280546124ca90615b63565b80156125175780601f106124ec57610100808354040283529160200191612517565b820191906000526020600020905b8154815290600101906020018083116124fa57829003601f168201915b505050505090508051600014156125705760405162461bcd60e51b815260206004820152601d60248201527f4c7a4170703a206e6f20747275737465642070617468207265636f726400000060448201526064016110cd565b61258b6000601483516125839190615b09565b839190613e9d565b9392505050565b60006125a16201518083615aea565b905060016125b26201518082615aea565b6125bc9190615b09565b81116125c757600080fd5b6125cf61369d565b6125da906001615abe565b81106125e557600080fd5b336000908152601360205260409020600301541561260257600080fd5b6040805160c0810182523381526020810184905260009181016126258442615abe565b8152602001600f54815260200161263a613dae565b8152602001612647613cfb565b9052336000908152601360209081526040808320845181546001600160a01b0319166001600160a01b039091161781559184015160018301558301516002820155606083015160038201556080830151600482015560a083015160059091015560108054929350906126b883615b98565b9091555050600f805433917fc05062aaca3ffe3bd48e1cd6edc912dff77e39ba1a14999b5e00ec68614b311c91869160006126f283615b98565b919050556126fe612471565b60a08681015160408089015181519687526020870195909552858101939093526060850152608084019290925251918290030190a2505050565b600033816127468286612c11565b9050838110156127a65760405162461bcd60e51b815260206004820152602560248201527f45524332303a2064656372656173656420616c6c6f77616e63652062656c6f77604482015264207a65726f60d81b60648201526084016110cd565b6114d9828686840361306b565b6000806128308b8b8b8b8b8080601f01602080910402602001604051908101604052809392919081815260200183838082843760009201919091525050604080516020601f8d018190048102820181019092528b81528e93508d9250908c908c9081908401838280828437600092019190915250613faa92505050565b91509150995099975050505050505050565b61284a613011565b81813060405160200161285f939291906156a2565b60408051601f1981840301815291815261ffff8516600090815260026020908152919020825161289493919290910190614c99565b507f8c0400cfe2d1199b1a725c78960bcc2a344d869b80590d0f2bd005db15a572ce8383836040516128c8939291906157da565b60405180910390a1505050565b6000336113ce81858561320a565b6000806128fa6128f28761405d565b600f0b61407b565b9050600061293661290a8561405d565b61292d6129168861405d565b61292d6129228b61405d565b600f88900b9061415f565b600f0b9061415f565b905061295c6129546129496103e861405d565b600f84900b90614196565b600f0b6141fc565b6001600160401b0316925050505b949350505050565b61297a613011565b600480546001600160a01b0319166001600160a01b0383169081179091556040519081527f5db758e995a17ec1ad84bdef7e8c3293a0bd6179bcce400dff5d4c3d87db726b906020015b60405180910390a150565b6113e6620151806102da615aea565b6129e6613011565b6001546040516332fb62e760e21b81526001600160a01b039091169063cbed8b9c90612a1e90889088908890889088906004016159f5565b600060405180830381600087803b158015612a3857600080fd5b505af1158015612a4c573d6000803e3d6000fd5b505050505050505050565b61ffff86166000908152600560205260408082209051612a7a9088908890615692565b90815260408051602092819003830190206001600160401b03871660009081529252902054905080612aab57600080fd5b808383604051612abc929190615692565b604051809103902014612ace57600080fd5b61ffff87166000908152600560205260408082209051612af19089908990615692565b90815260408051602092819003830181206001600160401b038916600090815290845282902093909355601f88018290048202830182019052868252612b89918991899089908190840183828082843760009201919091525050604080516020601f8a018190048102820181019092528881528a9350915088908890819084018382808284376000920191909152506139b692505050565b7fc264d91f3adc5588250e1551f547752ca0cfa8f6b530d243b9f9f4cab10ea8e58787878785604051612bc09594939291906157f8565b60405180910390a150505050505050565b612bd9613011565b6001546001600160a01b031615612bef57600080fd5b600180546001600160a01b0319166001600160a01b0392909216919091179055565b6001600160a01b039182166000908152600b6020908152604080832093909416825291909152205490565b612c44613011565b60008111612c8c5760405162461bcd60e51b81526020600482015260156024820152744c7a4170703a20696e76616c6964206d696e47617360581b60448201526064016110cd565b61ffff83811660008181526003602090815260408083209487168084529482529182902085905581519283528201929092529081018290527f9d5c7c0b934da8fefa9c7760c98383778a12dfbfc0c3b3106518f43fb9508ac0906060016128c8565b612cf6613011565b6006805460ff19168215159081179091556040519081527f1584ad594a70cbe1e6515592e1272a987d922b097ead875069cebe8b40c004a4906020016129c4565b333014612d4357600080fd5b612d4e308686614218565b9350846001600160a01b03168a61ffff167fbf551ec93859b170f9b2141bd9298bf3f64322c6f7beb2543a0cb669834118bf86604051612d9091815260200190565b60405180910390a3604051633fe79aed60e11b81526001600160a01b03861690637fcf35da908390612dd4908e908e908e908e908e908d908d908d90600401615833565b600060405180830381600088803b158015612dee57600080fd5b5087f1158015612e02573d6000803e3d6000fd5b505050505050505050505050505050565b612e1b613011565b61ffff83166000908152600260205260409020612e39908383614d19565b507ffa41487ad5d6728f0b19276fa1eddc16558578f5109fc39d2dc33c3230470dab8383836040516128c8939291906157da565b6001612e7c6201518082615aea565b6113e69190615b09565b612e8e613011565b6001600160a01b038116612ef35760405162461bcd60e51b815260206004820152602660248201527f4f776e61626c653a206e6577206f776e657220697320746865207a65726f206160448201526564647265737360d01b60648201526084016110cd565b612efc81613ac1565b50565b600154604051633d7b2f6f60e21b815261ffff808716600483015285166024820152306044820152606481018390526060916001600160a01b03169063f5ecbdbc9060840160006040518083038186803b158015612f5c57600080fd5b505afa158015612f70573d6000803e3d6000fd5b505050506040513d6000823e601f3d908101601f19168201604052611a27919081019061505e565b600080612ffb5a60966366ad5c8a60e01b89898989604051602401612fc0949392919061595a565b60408051601f198184030181529190526020810180516001600160e01b03166001600160e01b0319909316929092179091523092919061426a565b9150915081611f1457611f148686868685614302565b6000546001600160a01b031633146120dc5760405162461bcd60e51b815260206004820181905260248201527f4f776e61626c653a2063616c6c6572206973206e6f7420746865206f776e657260448201526064016110cd565b6001600160a01b0383166130cd5760405162461bcd60e51b8152602060048201526024808201527f45524332303a20617070726f76652066726f6d20746865207a65726f206164646044820152637265737360e01b60648201526084016110cd565b6001600160a01b03821661312e5760405162461bcd60e51b815260206004820152602260248201527f45524332303a20617070726f766520746f20746865207a65726f206164647265604482015261737360f01b60648201526084016110cd565b6001600160a01b038381166000818152600b602090815260408083209487168084529482529182902085905590518481527f8c5be1e5ebec7d5bd14f71427d1e84f3dd0314c0f7b2291e5b200ac8c7c3b92591015b60405180910390a3505050565b600061319c8484612c11565b9050600019811461320457818110156131f75760405162461bcd60e51b815260206004820152601d60248201527f45524332303a20696e73756666696369656e7420616c6c6f77616e636500000060448201526064016110cd565b613204848484840361306b565b50505050565b6001600160a01b03831661326e5760405162461bcd60e51b815260206004820152602560248201527f45524332303a207472616e736665722066726f6d20746865207a65726f206164604482015264647265737360d81b60648201526084016110cd565b6001600160a01b0382166132d05760405162461bcd60e51b815260206004820152602360248201527f45524332303a207472616e7366657220746f20746865207a65726f206164647260448201526265737360e81b60648201526084016110cd565b6001600160a01b0383166000908152600a6020526040902054818110156133485760405162461bcd60e51b815260206004820152602660248201527f45524332303a207472616e7366657220616d6f756e7420657863656564732062604482015265616c616e636560d01b60648201526084016110cd565b6001600160a01b038085166000818152600a602052604080822086860390559286168082529083902080548601905591517fddf252ad1be2c89b69c2b068fc378daa952ba7f163c4a11628f55a4df523b3ef906133a89086815260200190565b60405180910390a3613204565b6000806000613403876133c78861439f565b6040805160006020820152602181019390935260c09190911b6001600160c01b0319166041830152805160298184030181526049909201905290565b60015460405163040a7bb160e41b81529192506001600160a01b0316906340a7bb109061343c908b90309086908b908b90600401615786565b604080518083038186803b15801561345357600080fd5b505afa158015613467573d6000803e3d6000fd5b505050506040513d601f19601f8201168201806040525081019061348b91906155af565b92509250509550959350505050565b6000824211156134ed57600061016d6134b38685615aea565b6134c090620f4240615aea565b6134ca9190615ad6565b90506305f5e1006134db8288615aea565b6134e59190615ad6565b91505061296a565b506000949350505050565b6001600160a01b03821661354e5760405162461bcd60e51b815260206004820152601f60248201527f45524332303a206d696e7420746f20746865207a65726f20616464726573730060448201526064016110cd565b80600c60008282546135609190615abe565b90915550506001600160a01b0382166000818152600a60209081526040808320805486019055518481527fddf252ad1be2c89b69c2b068fc378daa952ba7f163c4a11628f55a4df523b3ef910160405180910390a35050565b6000806135c96201518084615ad6565b90506135d760016007615b09565b8111156135e75750606392915050565b6000600160076135f8846003615abe565b6001901b6136069190615ad6565b6136109190615b09565b604051637ae2b5c760e01b8152600481018290526063602482015290915073__$6ad30996409d058139477db06ae39abaac$__90637ae2b5c79060440160206040518083038186803b15801561366557600080fd5b505af4158015613679573d6000803e3d6000fd5b505050506040513d601f19601f8201168201806040525081019061296a9190615576565b6000610260600f5411156137a45760006136cb6129546136bd600f61405d565b61292d6128f2600f5461405d565b6001600160401b0316905060006136e56201518083615aea565b6136f3620151806064615aea565b6136fd9190615abe565b905073__$6ad30996409d058139477db06ae39abaac$__637ae2b5c782613729620151806102da615aea565b6040516001600160e01b031960e085901b1681526004810192909252602482015260440160206040518083038186803b15801561376557600080fd5b505af4158015613779573d6000803e3d6000fd5b505050506040513d601f19601f8201168201806040525081019061379d9190615576565b9250505090565b611a3a620151806064615aea565b6000806137bf8542615b09565b905060006137cc826135b9565b9050600073__$6ad30996409d058139477db06ae39abaac$__636d5433e68a600f546137f89190615b09565b6040516001600160e01b031960e084901b16815260048101919091526002602482015260440160206040518083038186803b15801561383657600080fd5b505af415801561384a573d6000803e3d6000fd5b505050506040513d601f19601f8201168201806040525081019061386e9190615576565b9050600061387e866103e8615abe565b9050600061388e83898c856128e3565b9050606461389c8582615b09565b6138a69083615aea565b6138b09190615ad6565b9b9a5050505050505050505050565b33600090815260136020526040812080546001600160a01b031916815560018101829055600281018290556003810182905560048101829055600501819055601080549161390c83615b4c565b9190505550565b604051806080016040528082815260200162015180836139339190615aea565b61393d9042615abe565b8152602001838152602001613950613d41565b9052336000908152601460209081526040808320845181559184015160018301558301516002820155606090920151600390920191909155601180549161399683615b98565b919050555081601260008282546139ad9190615abe565b90915550505050565b60006139c282826143e2565b905060ff81166139dd576139d88585858561443e565b6113b9565b60ff8116600114156139f5576139d8858585856144ce565b60405162461bcd60e51b815260206004820152600060248201526044016110cd565b6000613a25888285816146dc565b613a2e86614704565b509050613a3d89898984614744565b905060008111613a4c57600080fd5b6000613a5b886133c78461439f565b9050613a6b898288888888614776565b878a6001600160a01b03168a61ffff167fd81fc9b8523134ed613870ed029d6170cbb73aa6a6bc311b9a642689fb9df59a85604051613aac91815260200190565b60405180910390a45098975050505050505050565b600080546001600160a01b038381166001600160a01b0319831681178455604051919092169283917f8be0079c531659141344cd1fd0a4f28419497f9722a3daafe3b4186f6b6457e09190a35050565b6000613b298a6001856001600160401b038a166146dc565b613b3288614704565b509050613b418b8b8b84614744565b905060008111613b5057600080fd5b6000613b67338b613b608561439f565b8b8b6148f5565b9050613b778b8288888888614776565b898c6001600160a01b03168c61ffff167fd81fc9b8523134ed613870ed029d6170cbb73aa6a6bc311b9a642689fb9df59a85604051613bb891815260200190565b60405180910390a4509a9950505050505050505050565b6001600160a01b038216613c2f5760405162461bcd60e51b815260206004820152602160248201527f45524332303a206275726e2066726f6d20746865207a65726f206164647265736044820152607360f81b60648201526084016110cd565b6001600160a01b0382166000908152600a602052604090205481811015613ca35760405162461bcd60e51b815260206004820152602260248201527f45524332303a206275726e20616d6f756e7420657863656564732062616c616e604482015261636560f01b60648201526084016110cd565b6001600160a01b0383166000818152600a602090815260408083208686039055600c80548790039055518581529192917fddf252ad1be2c89b69c2b068fc378daa952ba7f163c4a11628f55a4df523b3ef9101613183565b600080620186a0600f546001613d119190615aea565b613d1b9190615ad6565b90506103e8811115613d2f57600091505090565b613d3b816103e8615b09565b91505090565b600080613d52601462015180615aea565b613d7c7f000000000000000000000000000000000000000000000000000000000000000042615b09565b613d869190615ad6565b905080613d9560006023615b09565b1015613da357600091505090565b613d3b816023615b09565b60008062015180613ddf7f000000000000000000000000000000000000000000000000000000000000000042615b09565b613de99190615ad6565b90506102da811015613e915773__$6ad30996409d058139477db06ae39abaac$__636d5433e6613e1b836102da615b09565b6040516001600160e01b031960e084901b16815260048101919091526001602482015260440160206040518083038186803b158015613e5957600080fd5b505af4158015613e6d573d6000803e3d6000fd5b505050506040513d601f19601f82011682018060405250810190613d3b9190615576565b600191505090565b5090565b606081613eab81601f615abe565b1015613eea5760405162461bcd60e51b815260206004820152600e60248201526d736c6963655f6f766572666c6f7760901b60448201526064016110cd565b613ef48284615abe565b84511015613f385760405162461bcd60e51b8152602060048201526011602482015270736c6963655f6f75744f66426f756e647360781b60448201526064016110cd565b606082158015613f575760405191506000825260208201604052613fa1565b6040519150601f8416801560200281840101858101878315602002848b0101015b81831015613f90578051835260209283019201613f78565b5050858452601f01601f1916604052505b50949350505050565b6000806000613fc4338a613fbd8b61439f565b8a8a6148f5565b60015460405163040a7bb160e41b81529192506001600160a01b0316906340a7bb1090613ffd908d90309086908b908b90600401615786565b604080518083038186803b15801561401457600080fd5b505afa158015614028573d6000803e3d6000fd5b505050506040513d601f19601f8201168201806040525081019061404c91906155af565b925092505097509795505050505050565b6000677fffffffffffffff82111561407457600080fd5b5060401b90565b60008082600f0b1361408c57600080fd5b6000600f83900b6801000000000000000081126140ab576040918201911d5b64010000000081126140bf576020918201911d5b6201000081126140d1576010918201911d5b61010081126140e2576008918201911d5b601081126140f2576004918201911d5b60048112614102576002918201911d5b60028112614111576001820191505b603f19820160401b600f85900b607f8490031b6780000000000000005b60008113156141545790800260ff81901c8281029390930192607f011c9060011d61412e565b509095945050505050565b6000600f83810b9083900b0260401d60016001607f1b0319811280159061418d575060016001607f1b038113155b61258b57600080fd5b600081600f0b600014156141a957600080fd5b600082600f0b604085600f0b901b816141d257634e487b7160e01b600052601260045260246000fd5b05905060016001607f1b0319811280159061418d575060016001607f1b0381131561258b57600080fd5b60008082600f0b121561420e57600080fd5b50600f0b60401d90565b600033306001600160a01b038616148015906142465750806001600160a01b0316856001600160a01b031614155b1561425657614256858285613190565b61426185858561320a565b50909392505050565b6000606060008060008661ffff166001600160401b0381111561429d57634e487b7160e01b600052604160045260246000fd5b6040519080825280601f01601f1916602001820160405280156142c7576020820181803683370190505b50905060008087516020890160008d8df191503d9250868311156142e9578692505b828152826000602083013e909890975095505050505050565b8180519060200120600560008761ffff1661ffff1681526020019081526020016000208560405161433391906156c8565b9081526040805191829003602090810183206001600160401b0388166000908152915220919091557fe183f33de2837795525b4792ca4cd60535bd77c53b7e7030060bfcf5734d6b0c9061439090879087908790879087906159a3565b60405180910390a15050505050565b6000806143cc7f000000000000000000000000000000000000000000000000000000000000000084615ad6565b90506001600160401b038111156112bb57600080fd5b60006143ef826001615abe565b835110156144355760405162461bcd60e51b8152602060048201526013602482015272746f55696e74385f6f75744f66426f756e647360681b60448201526064016110cd565b50016001015190565b60008061444a83614936565b90925090506001600160a01b0382166144635761dead91505b600061446e8261497d565b905061447b8784836149b2565b9050826001600160a01b03168761ffff167fbf551ec93859b170f9b2141bd9298bf3f64322c6f7beb2543a0cb669834118bf836040516144bd91815260200190565b60405180910390a350505050505050565b60008060008060006144df866149c5565b945094509450945094506000600760008b61ffff1661ffff1681526020019081526020016000208960405161451491906156c8565b90815260408051602092819003830190206001600160401b038b166000908152925281205460ff1691506145478561497d565b9050816145b5576145598b30836149b2565b61ffff8c16600090815260076020526040908190209051919250600191614581908d906156c8565b90815260408051602092819003830190206001600160401b038d16600090815292529020805460ff19169115159190911790555b6001600160a01b0386163b61460c576040516001600160a01b03871681527f9aedf5fdba8716db3b6705ca00150643309995d4f818a249ed6dde6677e7792d9060200160405180910390a150505050505050613204565b8a8a8a8a8a8a868a60008a61462a578b6001600160401b031661462c565b5a5b905060008061465e5a609663eaffd49a60e01b8e8e8e8d8d8d8d8d604051602401612fc09897969594939291906158e6565b9150915081156146b7578751602089012060405161ffff8d16907fb8890edbfc1c74692f527444645f95489c3703cc2df42e4a366f5d06fa6cd884906146a9908e908e908690615758565b60405180910390a2506146c4565b6146c48b8b8b8b85614302565b50505050505050505050505050505050505050505050565b60065460ff16156146f8576146f384848484614a3e565b613204565b81511561320457600080fd5b6000806147317f000000000000000000000000000000000000000000000000000000000000000084615bb3565b905061473d8184615b09565b9150915091565b6000336001600160a01b038616811461476257614762868285613190565b61476c8684613bcf565b5090949350505050565b61ffff86166000908152600260205260408120805461479490615b63565b80601f01602080910402602001604051908101604052809291908181526020018280546147c090615b63565b801561480d5780601f106147e25761010080835404028352916020019161480d565b820191906000526020600020905b8154815290600101906020018083116147f057829003601f168201915b5050505050905080516000141561487f5760405162461bcd60e51b815260206004820152603060248201527f4c7a4170703a2064657374696e6174696f6e20636861696e206973206e6f742060448201526f61207472757374656420736f7572636560801b60648201526084016110cd565b60015460405162c5803160e81b81526001600160a01b039091169063c58031009084906148ba908b9086908c908c908c908c9060040161587f565b6000604051808303818588803b1580156148d357600080fd5b505af11580156148e7573d6000803e3d6000fd5b505050505050505050505050565b6060600185856001600160a01b038916858760405160200161491c969594939291906156e4565b604051602081830303815290604052905095945050505050565b6000808061494484826143e2565b60ff16148015614955575082516029145b61495e57600080fd5b61496983600d614b1d565b9150614976836021614b82565b9050915091565b60006112bb7f00000000000000000000000000000000000000000000000000000000000000006001600160401b038416615aea565b60006149be83836134f8565b5092915050565b6000808060608160016149d887836143e2565b60ff16146149e557600080fd5b6149f086600d614b1d565b93506149fd866021614b82565b9250614a0a866029614bdf565b9450614a17866049614b82565b9050614a336051808851614a2b9190615b09565b889190613e9d565b915091939590929450565b6000614a4983614c3d565b61ffff808716600090815260036020908152604080832093891683529290529081205491925090614a7b908490615abe565b905060008111614acd5760405162461bcd60e51b815260206004820152601a60248201527f4c7a4170703a206d696e4761734c696d6974206e6f742073657400000000000060448201526064016110cd565b80821015611f145760405162461bcd60e51b815260206004820152601b60248201527f4c7a4170703a20676173206c696d697420697320746f6f206c6f77000000000060448201526064016110cd565b6000614b2a826014615abe565b83511015614b725760405162461bcd60e51b8152602060048201526015602482015274746f416464726573735f6f75744f66426f756e647360581b60448201526064016110cd565b500160200151600160601b900490565b6000614b8f826008615abe565b83511015614bd65760405162461bcd60e51b8152602060048201526014602482015273746f55696e7436345f6f75744f66426f756e647360601b60448201526064016110cd565b50016008015190565b6000614bec826020615abe565b83511015614c345760405162461bcd60e51b8152602060048201526015602482015274746f427974657333325f6f75744f66426f756e647360581b60448201526064016110cd565b50016020015190565b6000602282511015614c915760405162461bcd60e51b815260206004820152601c60248201527f4c7a4170703a20696e76616c69642061646170746572506172616d730000000060448201526064016110cd565b506022015190565b828054614ca590615b63565b90600052602060002090601f016020900481019282614cc75760008555614d0d565b82601f10614ce057805160ff1916838001178555614d0d565b82800160010185558215614d0d579182015b82811115614d0d578251825591602001919060010190614cf2565b50613e99929150614d8d565b828054614d2590615b63565b90600052602060002090601f016020900481019282614d475760008555614d0d565b82601f10614d605782800160ff19823516178555614d0d565b82800160010185558215614d0d579182015b82811115614d0d578235825591602001919060010190614d72565b5b80821115613e995760008155600101614d8e565b80358015158114614db257600080fd5b919050565b60008083601f840112614dc8578182fd5b5081356001600160401b03811115614dde578182fd5b602083019150836020828501011115614df657600080fd5b9250929050565b600060608284031215614e0e578081fd5b50919050565b803561ffff81168114614db257600080fd5b80356001600160401b0381168114614db257600080fd5b600060208284031215614e4e578081fd5b813561258b81615c09565b60008060408385031215614e6b578081fd5b8235614e7681615c09565b91506020830135614e8681615c09565b809150509250929050565b600080600060608486031215614ea5578081fd5b8335614eb081615c09565b92506020840135614ec081615c09565b929592945050506040919091013590565b60008060008060008060008060e0898b031215614eec578384fd5b8835614ef781615c09565b9750614f0560208a01614e14565b9650604089013595506060890135945060808901356001600160401b0380821115614f2e578586fd5b614f3a8c838d01614db7565b9096509450849150614f4e60a08c01614e26565b935060c08b0135915080821115614f63578283fd5b50614f708b828c01614dfd565b9150509295985092959890939650565b600080600080600060a08688031215614f97578081fd5b8535614fa281615c09565b9450614fb060208701614e14565b9350604086013592506060860135915060808601356001600160401b03811115614fd8578182fd5b614fe488828901614dfd565b9150509295509295909350565b60008060408385031215615003578182fd5b823561500e81615c09565b946020939093013593505050565b60006020828403121561502d578081fd5b61258b82614da2565b600060208284031215615047578081fd5b81356001600160e01b03198116811461258b578182fd5b60006020828403121561506f578081fd5b81516001600160401b03811115615084578182fd5b8201601f81018413615094578182fd5b80516150a76150a282615a97565b615a67565b8181528560208385010111156150bb578384fd5b611a27826020830160208601615b20565b6000602082840312156150dd578081fd5b61258b82614e14565b60008060008060008060a087890312156150fe578384fd5b61510787614e14565b9550602087013594506040870135935061512360608801614da2565b925060808701356001600160401b0381111561513d578283fd5b61514989828a01614db7565b979a9699509497509295939492505050565b600080600080600080600080600060e08a8c031215615178578283fd5b6151818a614e14565b985060208a0135975060408a0135965060608a01356001600160401b03808211156151aa578485fd5b6151b68d838e01614db7565b90985096508691506151ca60808d01614e26565b95506151d860a08d01614da2565b945060c08c01359150808211156151ed578283fd5b506151fa8c828d01614db7565b915080935050809150509295985092959850929598565b600080600060408486031215615225578081fd5b61522e84614e14565b925060208401356001600160401b03811115615248578182fd5b61525486828701614db7565b9497909650939450505050565b6000806000806000806000806000806101008b8d031215615280578384fd5b6152898b614e14565b995060208b01356001600160401b03808211156152a4578586fd5b6152b08e838f01614db7565b909b5099508991506152c460408e01614e26565b985060608d0135975060808d013591506152dd82615c09565b90955060a08c0135945060c08c013590808211156152f9578283fd5b506153068d828e01614db7565b9150809450508092505060e08b013590509295989b9194979a5092959850565b6000806000806000806080878903121561533e578384fd5b61534787614e14565b955060208701356001600160401b0380821115615362578586fd5b61536e8a838b01614db7565b909750955085915061538260408a01614e26565b94506060890135915080821115615397578384fd5b5061514989828a01614db7565b6000806000606084860312156153b8578081fd5b6153c184614e14565b925060208401356001600160401b038111156153db578182fd5b8401601f810186136153eb578182fd5b80356153f96150a282615a97565b81815287602083850101111561540d578384fd5b816020840160208301379081016020018390529250615430905060408501614e26565b90509250925092565b6000806040838503121561544b578182fd5b61545483614e14565b915061546260208401614e14565b90509250929050565b60008060008060808587031215615480578182fd5b61548985614e14565b935061549760208601614e14565b925060408501356154a781615c09565b9396929550929360600135925050565b6000806000606084860312156154cb578081fd5b6154d484614e14565b92506154e260208501614e14565b9150604084013590509250925092565b600080600080600060808688031215615509578283fd5b61551286614e14565b945061552060208701614e14565b93506040860135925060608601356001600160401b03811115615541578182fd5b61554d88828901614db7565b969995985093965092949392505050565b60006020828403121561556f578081fd5b5035919050565b600060208284031215615587578081fd5b5051919050565b600080604083850312156155a0578182fd5b50508035926020909101359150565b600080604083850312156155c1578182fd5b505080516020909101519092909150565b600080600080608085870312156155e7578182fd5b5050823594602084013594506040840135936060013592509050565b600080600080600060a0868803121561561a578283fd5b505083359560208501359550604085013594606081013594506080013592509050565b81835281816020850137506000828201602090810191909152601f909101601f19169091010190565b6000815180845261567e816020860160208601615b20565b601f01601f19169290920160200192915050565b8183823760009101908152919050565b8284823760609190911b6bffffffffffffffffffffffff19169101908152601401919050565b600082516156da818460208701615b20565b9190910192915050565b60ff60f81b8760f81b16815285600182015260006001600160401b0360c01b808760c01b166021840152856029840152808560c01b166049840152508251615733816051850160208701615b20565b91909101605101979650505050505050565b60208152600061258b6020830184615666565b60608152600061576b6060830186615666565b6001600160401b039490941660208301525060400152919050565b61ffff861681526001600160a01b038516602082015260a0604082018190526000906157b490830186615666565b841515606084015282810360808401526157ce8185615666565b98975050505050505050565b61ffff84168152604060208201526000611a2760408301848661563d565b61ffff8616815260806020820152600061581660808301868861563d565b6001600160401b0394909416604083015250606001529392505050565b61ffff8916815260c06020820152600061585160c08301898b61563d565b6001600160401b038816604084015286606084015285608084015282810360a08401526138b081858761563d565b61ffff8716815260c06020820152600061589c60c0830188615666565b82810360408401526158ae8188615666565b6001600160a01b0387811660608601528616608085015283810360a085015290506158d98185615666565b9998505050505050505050565b600061010061ffff8b1683528060208401526159048184018b615666565b6001600160401b038a166040850152606084018990526001600160a01b038816608085015260a0840187905283810360c085015290506159448186615666565b9150508260e08301529998505050505050505050565b61ffff851681526080602082015260006159776080830186615666565b6001600160401b038516604084015282810360608401526159988185615666565b979650505050505050565b61ffff8616815260a0602082015260006159c060a0830187615666565b6001600160401b038616604084015282810360608401526159e18186615666565b905082810360808401526157ce8185615666565b600061ffff80881683528087166020840152508460408301526080606083015261599860808301848661563d565b6000808335601e19843603018112615a39578283fd5b8301803591506001600160401b03821115615a52578283fd5b602001915036819003821315614df657600080fd5b604051601f8201601f191681016001600160401b0381118282101715615a8f57615a8f615bf3565b604052919050565b60006001600160401b03821115615ab057615ab0615bf3565b50601f01601f191660200190565b60008219821115615ad157615ad1615bc7565b500190565b600082615ae557615ae5615bdd565b500490565b6000816000190483118215151615615b0457615b04615bc7565b500290565b600082821015615b1b57615b1b615bc7565b500390565b60005b83811015615b3b578181015183820152602001615b23565b838111156132045750506000910152565b600081615b5b57615b5b615bc7565b506000190190565b600181811c90821680615b7757607f821691505b60208210811415614e0e57634e487b7160e01b600052602260045260246000fd5b6000600019821415615bac57615bac615bc7565b5060010190565b600082615bc257615bc2615bdd565b500690565b634e487b7160e01b600052601160045260246000fd5b634e487b7160e01b600052601260045260246000fd5b634e487b7160e01b600052604160045260246000fd5b6001600160a01b0381168114612efc57600080fdfea26469706673582212204ca691115f8a2cc5eb99998d787ee823683f3f76a554fa2bf9d58d7dec5b37ba64736f6c63430008040033",
  "linkReferences": {
    "contracts/Math.sol": {
      "Math": [
        {
          "length": 20,
          "start": 7905
        },
        {
          "length": 20,
          "start": 8143
        },
        {
          "length": 20,
          "start": 15511
        },
        {
          "length": 20,
          "start": 15720
        },
        {
          "length": 20,
          "start": 15929
        },
        {
          "length": 20,
          "start": 17502
        }
      ]
    }
  },
  "deployedLinkReferences": {
    "contracts/Math.sol": {
      "Math": [
        {
          "length": 20,
          "start": 6266
        },
        {
          "length": 20,
          "start": 6504
        },
        {
          "length": 20,
          "start": 13872
        },
        {
          "length": 20,
          "start": 14081
        },
        {
          "length": 20,
          "start": 14290
        },
        {
          "length": 20,
          "start": 15863
        }
      ]
    }
  }
}