{
  "_format": "hh-sol-artifact-1",
  "contractName": "XENCrypto25mm1",
  "sourceName": "contracts/test/XENCryptoRank25mm1.sol",
  "abi": [
    {
      "inputs": [],
      "stateMutability": "nonpayable",
      "type": "constructor"
    },
    {
      "anonymous": false,
      "inputs": [
        {
          "indexed": true,
          "internalType": "address",
          "name": "owner",
          "type": "address"
        },
        {
          "indexed": true,
          "internalType": "address",
          "name": "spender",
          "type": "address"
        },
        {
          "indexed": false,
          "internalType": "uint256",
          "name": "value",
          "type": "uint256"
        }
      ],
      "name": "Approval",
      "type": "event"
    },
    {
      "anonymous": false,
      "inputs": [
        {
          "indexed": true,
          "internalType": "address",
          "name": "user",
          "type": "address"
        },
        {
          "indexed": false,
          "internalType": "uint256",
          "name": "rewardAmount",
          "type": "uint256"
        }
      ],
      "name": "MintClaimed",
      "type": "event"
    },
    {
      "anonymous": false,
      "inputs": [
        {
          "indexed": true,
          "internalType": "address",
          "name": "user",
          "type": "address"
        },
        {
          "indexed": false,
          "internalType": "uint256",
          "name": "term",
          "type": "uint256"
        },
        {
          "indexed": false,
          "internalType": "uint256",
          "name": "rank",
          "type": "uint256"
        }
      ],
      "name": "RankClaimed",
      "type": "event"
    },
    {
      "anonymous": false,
      "inputs": [
        {
          "indexed": true,
          "internalType": "address",
          "name": "user",
          "type": "address"
        },
        {
          "indexed": false,
          "internalType": "uint256",
          "name": "amount",
          "type": "uint256"
        },
        {
          "indexed": false,
          "internalType": "uint256",
          "name": "term",
          "type": "uint256"
        }
      ],
      "name": "Staked",
      "type": "event"
    },
    {
      "anonymous": false,
      "inputs": [
        {
          "indexed": true,
          "internalType": "address",
          "name": "from",
          "type": "address"
        },
        {
          "indexed": true,
          "internalType": "address",
          "name": "to",
          "type": "address"
        },
        {
          "indexed": false,
          "internalType": "uint256",
          "name": "value",
          "type": "uint256"
        }
      ],
      "name": "Transfer",
      "type": "event"
    },
    {
      "anonymous": false,
      "inputs": [
        {
          "indexed": true,
          "internalType": "address",
          "name": "user",
          "type": "address"
        },
        {
          "indexed": false,
          "internalType": "uint256",
          "name": "amount",
          "type": "uint256"
        },
        {
          "indexed": false,
          "internalType": "uint256",
          "name": "reward",
          "type": "uint256"
        }
      ],
      "name": "Withdrawn",
      "type": "event"
    },
    {
      "inputs": [],
      "name": "AUTHORS",
      "outputs": [
        {
          "internalType": "string",
          "name": "",
          "type": "string"
        }
      ],
      "stateMutability": "view",
      "type": "function"
    },
    {
      "inputs": [],
      "name": "DAYS_IN_YEAR",
      "outputs": [
        {
          "internalType": "uint256",
          "name": "",
          "type": "uint256"
        }
      ],
      "stateMutability": "view",
      "type": "function"
    },
    {
      "inputs": [],
      "name": "EAA_PM_START",
      "outputs": [
        {
          "internalType": "uint256",
          "name": "",
          "type": "uint256"
        }
      ],
      "stateMutability": "view",
      "type": "function"
    },
    {
      "inputs": [],
      "name": "EAA_PM_STEP",
      "outputs": [
        {
          "internalType": "uint256",
          "name": "",
          "type": "uint256"
        }
      ],
      "stateMutability": "view",
      "type": "function"
    },
    {
      "inputs": [],
      "name": "EAA_RANK_STEP",
      "outputs": [
        {
          "internalType": "uint256",
          "name": "",
          "type": "uint256"
        }
      ],
      "stateMutability": "view",
      "type": "function"
    },
    {
      "inputs": [],
      "name": "GENESIS_RANK",
      "outputs": [
        {
          "internalType": "uint256",
          "name": "",
          "type": "uint256"
        }
      ],
      "stateMutability": "view",
      "type": "function"
    },
    {
      "inputs": [],
      "name": "MAX_TERM_END",
      "outputs": [
        {
          "internalType": "uint256",
          "name": "",
          "type": "uint256"
        }
      ],
      "stateMutability": "view",
      "type": "function"
    },
    {
      "inputs": [],
      "name": "MAX_TERM_START",
      "outputs": [
        {
          "internalType": "uint256",
          "name": "",
          "type": "uint256"
        }
      ],
      "stateMutability": "view",
      "type": "function"
    },
    {
      "inputs": [],
      "name": "MIN_TERM",
      "outputs": [
        {
          "internalType": "uint256",
          "name": "",
          "type": "uint256"
        }
      ],
      "stateMutability": "view",
      "type": "function"
    },
    {
      "inputs": [],
      "name": "REWARD_AMPLIFIER_END",
      "outputs": [
        {
          "internalType": "uint256",
          "name": "",
          "type": "uint256"
        }
      ],
      "stateMutability": "view",
      "type": "function"
    },
    {
      "inputs": [],
      "name": "REWARD_AMPLIFIER_START",
      "outputs": [
        {
          "internalType": "uint256",
          "name": "",
          "type": "uint256"
        }
      ],
      "stateMutability": "view",
      "type": "function"
    },
    {
      "inputs": [],
      "name": "SECONDS_IN_DAY",
      "outputs": [
        {
          "internalType": "uint256",
          "name": "",
          "type": "uint256"
        }
      ],
      "stateMutability": "view",
      "type": "function"
    },
    {
      "inputs": [],
      "name": "TERM_AMPLIFIER",
      "outputs": [
        {
          "internalType": "uint256",
          "name": "",
          "type": "uint256"
        }
      ],
      "stateMutability": "view",
      "type": "function"
    },
    {
      "inputs": [],
      "name": "TERM_AMPLIFIER_THRESHOLD",
      "outputs": [
        {
          "internalType": "uint256",
          "name": "",
          "type": "uint256"
        }
      ],
      "stateMutability": "view",
      "type": "function"
    },
    {
      "inputs": [],
      "name": "WITHDRAWAL_WINDOW_DAYS",
      "outputs": [
        {
          "internalType": "uint256",
          "name": "",
          "type": "uint256"
        }
      ],
      "stateMutability": "view",
      "type": "function"
    },
    {
      "inputs": [],
      "name": "XEN_APY_DAYS_STEP",
      "outputs": [
        {
          "internalType": "uint256",
          "name": "",
          "type": "uint256"
        }
      ],
      "stateMutability": "view",
      "type": "function"
    },
    {
      "inputs": [],
      "name": "XEN_APY_END",
      "outputs": [
        {
          "internalType": "uint256",
          "name": "",
          "type": "uint256"
        }
      ],
      "stateMutability": "view",
      "type": "function"
    },
    {
      "inputs": [],
      "name": "XEN_APY_START",
      "outputs": [
        {
          "internalType": "uint256",
          "name": "",
          "type": "uint256"
        }
      ],
      "stateMutability": "view",
      "type": "function"
    },
    {
      "inputs": [],
      "name": "XEN_MIN_BURN",
      "outputs": [
        {
          "internalType": "uint256",
          "name": "",
          "type": "uint256"
        }
      ],
      "stateMutability": "view",
      "type": "function"
    },
    {
      "inputs": [],
      "name": "XEN_MIN_STAKE",
      "outputs": [
        {
          "internalType": "uint256",
          "name": "",
          "type": "uint256"
        }
      ],
      "stateMutability": "view",
      "type": "function"
    },
    {
      "inputs": [],
      "name": "activeMinters",
      "outputs": [
        {
          "internalType": "uint256",
          "name": "",
          "type": "uint256"
        }
      ],
      "stateMutability": "view",
      "type": "function"
    },
    {
      "inputs": [],
      "name": "activeStakes",
      "outputs": [
        {
          "internalType": "uint256",
          "name": "",
          "type": "uint256"
        }
      ],
      "stateMutability": "view",
      "type": "function"
    },
    {
      "inputs": [
        {
          "internalType": "address",
          "name": "owner",
          "type": "address"
        },
        {
          "internalType": "address",
          "name": "spender",
          "type": "address"
        }
      ],
      "name": "allowance",
      "outputs": [
        {
          "internalType": "uint256",
          "name": "",
          "type": "uint256"
        }
      ],
      "stateMutability": "view",
      "type": "function"
    },
    {
      "inputs": [
        {
          "internalType": "address",
          "name": "spender",
          "type": "address"
        },
        {
          "internalType": "uint256",
          "name": "amount",
          "type": "uint256"
        }
      ],
      "name": "approve",
      "outputs": [
        {
          "internalType": "bool",
          "name": "",
          "type": "bool"
        }
      ],
      "stateMutability": "nonpayable",
      "type": "function"
    },
    {
      "inputs": [
        {
          "internalType": "address",
          "name": "account",
          "type": "address"
        }
      ],
      "name": "balanceOf",
      "outputs": [
        {
          "internalType": "uint256",
          "name": "",
          "type": "uint256"
        }
      ],
      "stateMutability": "view",
      "type": "function"
    },
    {
      "inputs": [
        {
          "internalType": "address",
          "name": "user",
          "type": "address"
        },
        {
          "internalType": "uint256",
          "name": "amount",
          "type": "uint256"
        }
      ],
      "name": "burn",
      "outputs": [],
      "stateMutability": "nonpayable",
      "type": "function"
    },
    {
      "inputs": [],
      "name": "claimMintReward",
      "outputs": [],
      "stateMutability": "nonpayable",
      "type": "function"
    },
    {
      "inputs": [
        {
          "internalType": "address",
          "name": "other",
          "type": "address"
        },
        {
          "internalType": "uint256",
          "name": "pct",
          "type": "uint256"
        }
      ],
      "name": "claimMintRewardAndShare",
      "outputs": [],
      "stateMutability": "nonpayable",
      "type": "function"
    },
    {
      "inputs": [
        {
          "internalType": "uint256",
          "name": "pct",
          "type": "uint256"
        },
        {
          "internalType": "uint256",
          "name": "term",
          "type": "uint256"
        }
      ],
      "name": "claimMintRewardAndStake",
      "outputs": [],
      "stateMutability": "nonpayable",
      "type": "function"
    },
    {
      "inputs": [
        {
          "internalType": "uint256",
          "name": "term",
          "type": "uint256"
        }
      ],
      "name": "claimRank",
      "outputs": [],
      "stateMutability": "nonpayable",
      "type": "function"
    },
    {
      "inputs": [],
      "name": "decimals",
      "outputs": [
        {
          "internalType": "uint8",
          "name": "",
          "type": "uint8"
        }
      ],
      "stateMutability": "view",
      "type": "function"
    },
    {
      "inputs": [
        {
          "internalType": "address",
          "name": "spender",
          "type": "address"
        },
        {
          "internalType": "uint256",
          "name": "subtractedValue",
          "type": "uint256"
        }
      ],
      "name": "decreaseAllowance",
      "outputs": [
        {
          "internalType": "bool",
          "name": "",
          "type": "bool"
        }
      ],
      "stateMutability": "nonpayable",
      "type": "function"
    },
    {
      "inputs": [],
      "name": "genesisTs",
      "outputs": [
        {
          "internalType": "uint256",
          "name": "",
          "type": "uint256"
        }
      ],
      "stateMutability": "view",
      "type": "function"
    },
    {
      "inputs": [],
      "name": "getCurrentAMP",
      "outputs": [
        {
          "internalType": "uint256",
          "name": "",
          "type": "uint256"
        }
      ],
      "stateMutability": "view",
      "type": "function"
    },
    {
      "inputs": [],
      "name": "getCurrentAPY",
      "outputs": [
        {
          "internalType": "uint256",
          "name": "",
          "type": "uint256"
        }
      ],
      "stateMutability": "view",
      "type": "function"
    },
    {
      "inputs": [],
      "name": "getCurrentEAAR",
      "outputs": [
        {
          "internalType": "uint256",
          "name": "",
          "type": "uint256"
        }
      ],
      "stateMutability": "view",
      "type": "function"
    },
    {
      "inputs": [
        {
          "internalType": "uint256",
          "name": "rankDelta",
          "type": "uint256"
        },
        {
          "internalType": "uint256",
          "name": "amplifier",
          "type": "uint256"
        },
        {
          "internalType": "uint256",
          "name": "term",
          "type": "uint256"
        },
        {
          "internalType": "uint256",
          "name": "eaa",
          "type": "uint256"
        }
      ],
      "name": "getGrossReward",
      "outputs": [
        {
          "internalType": "uint256",
          "name": "",
          "type": "uint256"
        }
      ],
      "stateMutability": "pure",
      "type": "function"
    },
    {
      "inputs": [],
      "name": "getUserMint",
      "outputs": [
        {
          "components": [
            {
              "internalType": "address",
              "name": "user",
              "type": "address"
            },
            {
              "internalType": "uint256",
              "name": "term",
              "type": "uint256"
            },
            {
              "internalType": "uint256",
              "name": "maturityTs",
              "type": "uint256"
            },
            {
              "internalType": "uint256",
              "name": "rank",
              "type": "uint256"
            },
            {
              "internalType": "uint256",
              "name": "amplifier",
              "type": "uint256"
            },
            {
              "internalType": "uint256",
              "name": "eaaRate",
              "type": "uint256"
            }
          ],
          "internalType": "struct XENCrypto25mm1.MintInfo",
          "name": "",
          "type": "tuple"
        }
      ],
      "stateMutability": "view",
      "type": "function"
    },
    {
      "inputs": [],
      "name": "getUserStake",
      "outputs": [
        {
          "components": [
            {
              "internalType": "uint256",
              "name": "term",
              "type": "uint256"
            },
            {
              "internalType": "uint256",
              "name": "maturityTs",
              "type": "uint256"
            },
            {
              "internalType": "uint256",
              "name": "amount",
              "type": "uint256"
            },
            {
              "internalType": "uint256",
              "name": "apy",
              "type": "uint256"
            }
          ],
          "internalType": "struct XENCrypto25mm1.StakeInfo",
          "name": "",
          "type": "tuple"
        }
      ],
      "stateMutability": "view",
      "type": "function"
    },
    {
      "inputs": [],
      "name": "globalRank",
      "outputs": [
        {
          "internalType": "uint256",
          "name": "",
          "type": "uint256"
        }
      ],
      "stateMutability": "view",
      "type": "function"
    },
    {
      "inputs": [
        {
          "internalType": "address",
          "name": "spender",
          "type": "address"
        },
        {
          "internalType": "uint256",
          "name": "addedValue",
          "type": "uint256"
        }
      ],
      "name": "increaseAllowance",
      "outputs": [
        {
          "internalType": "bool",
          "name": "",
          "type": "bool"
        }
      ],
      "stateMutability": "nonpayable",
      "type": "function"
    },
    {
      "inputs": [],
      "name": "name",
      "outputs": [
        {
          "internalType": "string",
          "name": "",
          "type": "string"
        }
      ],
      "stateMutability": "view",
      "type": "function"
    },
    {
      "inputs": [
        {
          "internalType": "uint256",
          "name": "amount",
          "type": "uint256"
        },
        {
          "internalType": "uint256",
          "name": "term",
          "type": "uint256"
        }
      ],
      "name": "stake",
      "outputs": [],
      "stateMutability": "nonpayable",
      "type": "function"
    },
    {
      "inputs": [],
      "name": "symbol",
      "outputs": [
        {
          "internalType": "string",
          "name": "",
          "type": "string"
        }
      ],
      "stateMutability": "view",
      "type": "function"
    },
    {
      "inputs": [],
      "name": "totalSupply",
      "outputs": [
        {
          "internalType": "uint256",
          "name": "",
          "type": "uint256"
        }
      ],
      "stateMutability": "view",
      "type": "function"
    },
    {
      "inputs": [],
      "name": "totalXenStaked",
      "outputs": [
        {
          "internalType": "uint256",
          "name": "",
          "type": "uint256"
        }
      ],
      "stateMutability": "view",
      "type": "function"
    },
    {
      "inputs": [
        {
          "internalType": "address",
          "name": "to",
          "type": "address"
        },
        {
          "internalType": "uint256",
          "name": "amount",
          "type": "uint256"
        }
      ],
      "name": "transfer",
      "outputs": [
        {
          "internalType": "bool",
          "name": "",
          "type": "bool"
        }
      ],
      "stateMutability": "nonpayable",
      "type": "function"
    },
    {
      "inputs": [
        {
          "internalType": "address",
          "name": "from",
          "type": "address"
        },
        {
          "internalType": "address",
          "name": "to",
          "type": "address"
        },
        {
          "internalType": "uint256",
          "name": "amount",
          "type": "uint256"
        }
      ],
      "name": "transferFrom",
      "outputs": [
        {
          "internalType": "bool",
          "name": "",
          "type": "bool"
        }
      ],
      "stateMutability": "nonpayable",
      "type": "function"
    },
    {
      "inputs": [
        {
          "internalType": "address",
          "name": "",
          "type": "address"
        }
      ],
      "name": "userBurns",
      "outputs": [
        {
          "internalType": "uint256",
          "name": "",
          "type": "uint256"
        }
      ],
      "stateMutability": "view",
      "type": "function"
    },
    {
      "inputs": [
        {
          "internalType": "address",
          "name": "",
          "type": "address"
        }
      ],
      "name": "userMints",
      "outputs": [
        {
          "internalType": "address",
          "name": "user",
          "type": "address"
        },
        {
          "internalType": "uint256",
          "name": "term",
          "type": "uint256"
        },
        {
          "internalType": "uint256",
          "name": "maturityTs",
          "type": "uint256"
        },
        {
          "internalType": "uint256",
          "name": "rank",
          "type": "uint256"
        },
        {
          "internalType": "uint256",
          "name": "amplifier",
          "type": "uint256"
        },
        {
          "internalType": "uint256",
          "name": "eaaRate",
          "type": "uint256"
        }
      ],
      "stateMutability": "view",
      "type": "function"
    },
    {
      "inputs": [
        {
          "internalType": "address",
          "name": "",
          "type": "address"
        }
      ],
      "name": "userStakes",
      "outputs": [
        {
          "internalType": "uint256",
          "name": "term",
          "type": "uint256"
        },
        {
          "internalType": "uint256",
          "name": "maturityTs",
          "type": "uint256"
        },
        {
          "internalType": "uint256",
          "name": "amount",
          "type": "uint256"
        },
        {
          "internalType": "uint256",
          "name": "apy",
          "type": "uint256"
        }
      ],
      "stateMutability": "view",
      "type": "function"
    },
    {
      "inputs": [],
      "name": "withdraw",
      "outputs": [],
      "stateMutability": "nonpayable",
      "type": "function"
    }
  ],
  "bytecode": "0x60a060405263017d78416005553480156200001957600080fd5b506040518060400160405280600f81526020016e58454e2043727970746f2032356d6d60881b8152506040518060400160405280600781526020016658454e32354d4d60c81b815250816003908162000073919062000134565b50600462000082828262000134565b5050426080525062000200565b634e487b7160e01b600052604160045260246000fd5b600181811c90821680620000ba57607f821691505b602082108103620000db57634e487b7160e01b600052602260045260246000fd5b50919050565b601f8211156200012f57600081815260208120601f850160051c810160208610156200010a5750805b601f850160051c820191505b818110156200012b5782815560010162000116565b5050505b505050565b81516001600160401b038111156200015057620001506200008f565b6200016881620001618454620000a5565b84620000e1565b602080601f831160018114620001a05760008415620001875750858301515b600019600386901b1c1916600185901b1785556200012b565b600085815260208120601f198616915b82811015620001d157888601518255948401946001909101908401620001b0565b5085821015620001f05787850151600019600388901b60f8161c191681555b5050505050600190811b01905550565b6080516127aa6200022a600039600081816106c2015281816120bd015261212001526127aa6000f3fe608060405234801561001057600080fd5b506004361061030c5760003560e01c80638979c87c1161019d578063ba3ec741116100e9578063df282331116100a2578063ed2f23691161007c578063ed2f2369146106ed578063f0604829146106f6578063f340faed146106fe578063fed742691461070857600080fd5b8063df28233114610639578063e3af6d0a146106bd578063e81917b4146106e457600080fd5b8063ba3ec741146105ee578063bcfe394f14610437578063c0c65259146105f6578063c56f0bab146105fe578063ce653d5f14610606578063dd62ed3e1461062657600080fd5b80639dc29fac11610156578063a9059cbb11610130578063a9059cbb146105b6578063b0fd1fc2146105c9578063b21d35f2146105dc578063b4800cdc146105e557600080fd5b80639dc29fac1461057d5780639ff054df14610590578063a457c2d7146105a357600080fd5b80638979c87c146105005780638da7ad2314610508578063909a2ff61461055d57806395d89b4114610565578063962ca4961461056d578063992024541461057557600080fd5b8063313ce5671161025c5780635bccb4c41161021557806370a08231116101ef57806370a08231146104b457806372475f94146104dd5780637b0472f0146104e55780637e7aa62e146104f857600080fd5b80635bccb4c41461043f57806361a52a36146104525780637010d7a11461045c57600080fd5b8063313ce567146103fd57806332870fda1461040c57806339509351146104145780633ccfd60b1461042757806352c7f8dc1461042f578063543d36521461043757600080fd5b806316f9c8fd116102c95780631c560305116102a35780631c560305146103ca5780631c6f212e146103df57806323b872dd146103ea5780632a62d9661461037657600080fd5b806316f9c8fd1461037e57806318160ddd146103b95780631c244082146103c157600080fd5b80630237893214610311578063069612a51461032d57806306fdde0314610336578063095ea7b31461034b5780630bfae56b1461036e578063110d7fc214610376575b600080fd5b61031a61016d81565b6040519081526020015b60405180910390f35b61031a60085481565b61033e610710565b604051610324919061244f565b61035e6103593660046124b9565b6107a2565b6040519015158152602001610324565b61031a6107bc565b61031a600081565b6103866107cd565b60405161032491908151815260208083015190820152604080830151908201526060918201519181019190915260800190565b60025461031a565b61031a60055481565b6103dd6103d83660046124b9565b61083e565b005b61031a63017d784181565b61035e6103f83660046124e3565b610a9f565b60405160128152602001610324565b61031a605a81565b61035e6104223660046124b9565b610ac3565b6103dd610ae5565b6103dd610c39565b61031a600181565b6103dd61044d36600461251f565b610d5c565b61031a6201518081565b6104646110b3565b604051610324919081516001600160a01b031681526020808301519082015260408083015190820152606080830151908201526080808301519082015260a0918201519181019190915260c00190565b61031a6104c2366004612541565b6001600160a01b031660009081526020819052604090205490565b61031a600f81565b6103dd6104f336600461251f565b611158565b61031a600281565b61031a611376565b61053d610516366004612541565b600a6020526000908152604090208054600182015460028301546003909301549192909184565b604080519485526020850193909352918301526060820152608001610324565b61031a606481565b61033e611385565b61031a611394565b61031a61139e565b6103dd61058b3660046124b9565b6113a8565b6103dd61059e36600461255c565b61155a565b61035e6105b13660046124b9565b6117d3565b61035e6105c43660046124b9565b61184e565b61031a6105d7366004612575565b61185c565b61031a61138881565b61031a60065481565b61033e6118ec565b61031a611908565b61031a600781565b61031a610614366004612541565b600b6020526000908152604090205481565b61031a6106343660046125a7565b611917565b610686610647366004612541565b6009602052600090815260409020805460018201546002830154600384015460048501546005909501546001600160a01b039094169492939192909186565b604080516001600160a01b0390971687526020870195909552938501929092526060840152608083015260a082015260c001610324565b61031a7f000000000000000000000000000000000000000000000000000000000000000081565b61031a610bb881565b61031a60075481565b61031a611942565b61031a620186a081565b61031a601481565b60606003805461071f906125da565b80601f016020809104026020016040519081016040528092919081815260200182805461074b906125da565b80156107985780601f1061076d57610100808354040283529160200191610798565b820191906000526020600020905b81548152906001019060200180831161077b57829003601f168201915b5050505050905090565b6000336107b081858561195b565b60019150505b92915050565b6107ca620151806064612624565b81565b6107f86040518060800160405280600081526020016000815260200160008152602001600081525090565b50336000908152600a6020908152604091829020825160808101845281548152600182015492810192909252600281015492820192909252600390910154606082015290565b33600090815260096020908152604091829020825160c08101845281546001600160a01b03908116825260018301549382019390935260028201549381019390935260038101546060840152600481015460808401526005015460a083015283166108fe5760405162461bcd60e51b815260206004820152602560248201527f4352616e6b3a2043616e6e6f742073686172652077697468207a65726f206164604482015264647265737360d81b60648201526084015b60405180910390fd5b6000821161094e5760405162461bcd60e51b815260206004820181905260248201527f4352616e6b3a2043616e6e6f74207368617265207a65726f2070657263656e7460448201526064016108f5565b6065821061099e5760405162461bcd60e51b815260206004820181905260248201527f4352616e6b3a2043616e6e6f74207368617265203130302b2070657263656e7460448201526064016108f5565b60008160600151116109c25760405162461bcd60e51b81526004016108f59061263b565b806040015142116109e55760405162461bcd60e51b81526004016108f59061266a565b6000610a0882606001518360200151846040015185608001518660a00151611a80565b610a1a90670de0b6b3a7640000612624565b905060006064610a2a8584612624565b610a3491906126b5565b90506000610a4282846126d7565b9050610a4f335b82611b07565b610a598683611b07565b610a61611bc6565b60405183815233907fd74752b13281df13701575f3a507e9b1242e0b5fb040143211c481c1fce573a6906020015b60405180910390a2505050505050565b600033610aad858285611c1a565b610ab8858585611c94565b506001949350505050565b6000336107b0818585610ad68383611917565b610ae091906126ea565b61195b565b336000908152600a6020908152604091829020825160808101845281548152600182015492810192909252600281015492820183905260030154606082015290610b685760405162461bcd60e51b815260206004820152601460248201527358454e3a206e6f207374616b652065786973747360601b60448201526064016108f5565b6000610b868260400151836000015184602001518560600151611e38565b600780549192506000610b98836126fd565b9190505550816040015160086000828254610bb391906126d7565b90915550610bd2905033828460400151610bcd91906126ea565b611b07565b60408083015181519081526020810183905233917f92ccf450a286a957af52509bc1c9939d1a6a481783e142e41e2499f0bb66ebc6910160405180910390a25050336000908152600a60205260408120818155600181018290556002810182905560030155565b33600090815260096020908152604091829020825160c08101845281546001600160a01b031681526001820154928101929092526002810154928201929092526003820154606082018190526004830154608083015260059092015460a082015290610cb75760405162461bcd60e51b81526004016108f59061263b565b80604001514211610cda5760405162461bcd60e51b81526004016108f59061266a565b6000610cfd82606001518360200151846040015185608001518660a00151611a80565b610d0f90670de0b6b3a7640000612624565b9050610d1a33610a49565b610d22611bc6565b60405181815233907fd74752b13281df13701575f3a507e9b1242e0b5fb040143211c481c1fce573a6906020015b60405180910390a25050565b33600090815260096020908152604091829020825160c08101845281546001600160a01b03168152600182015492810192909252600281015492820192909252600382015460608201526004820154608082015260059091015460a082015260658310610e0b5760405162461bcd60e51b815260206004820181905260248201527f4352616e6b3a2043616e6e6f74207368617265203e3130302070657263656e7460448201526064016108f5565b6000816060015111610e2f5760405162461bcd60e51b81526004016108f59061263b565b80604001514211610e525760405162461bcd60e51b81526004016108f59061266a565b6000610e7582606001518360200151846040015185608001518660a00151611a80565b610e8790670de0b6b3a7640000612624565b905060006064610e978684612624565b610ea191906126b5565b90506000610eaf82846126d7565b9050610eba33610a49565b610ec2611bc6565b60405183815233907fd74752b13281df13701575f3a507e9b1242e0b5fb040143211c481c1fce573a69060200160405180910390a260008211610f3e5760405162461bcd60e51b815260206004820152601460248201527358454e3a2042656c6f77206d696e207374616b6560601b60448201526064016108f5565b6001610f4d6201518082612624565b610f5791906126d7565b610f646201518087612624565b11610fad5760405162461bcd60e51b815260206004820152601960248201527858454e3a2042656c6f77206d696e207374616b65207465726d60381b60448201526064016108f5565b610fbc620151806103e8612624565b610fc79060016126ea565b610fd46201518087612624565b1061101d5760405162461bcd60e51b815260206004820152601960248201527858454e3a2041626f7665206d6178207374616b65207465726d60381b60448201526064016108f5565b336000908152600a6020526040902060020154156110715760405162461bcd60e51b815260206004820152601160248201527058454e3a207374616b652065786973747360781b60448201526064016108f5565b61107b8286611e96565b604080518381526020810187905233917f1449c6dd7851abc30abf37f57715f492010519147cc2652fbc38202c18a6ee909101610a8f565b6110f56040518060c0016040528060006001600160a01b0316815260200160008152602001600081526020016000815260200160008152602001600081525090565b5033600090815260096020908152604091829020825160c08101845281546001600160a01b03168152600182015492810192909252600281015492820192909252600382015460608201526004820154608082015260059091015460a082015290565b81611162336104c2565b10156111b05760405162461bcd60e51b815260206004820152601760248201527f58454e3a206e6f7420656e6f7567682062616c616e636500000000000000000060448201526064016108f5565b600082116111f75760405162461bcd60e51b815260206004820152601460248201527358454e3a2042656c6f77206d696e207374616b6560601b60448201526064016108f5565b60016112066201518082612624565b61121091906126d7565b61121d6201518083612624565b116112665760405162461bcd60e51b815260206004820152601960248201527858454e3a2042656c6f77206d696e207374616b65207465726d60381b60448201526064016108f5565b611275620151806103e8612624565b6112809060016126ea565b61128d6201518083612624565b106112d65760405162461bcd60e51b815260206004820152601960248201527858454e3a2041626f7665206d6178207374616b65207465726d60381b60448201526064016108f5565b336000908152600a60205260409020600201541561132a5760405162461bcd60e51b815260206004820152601160248201527058454e3a207374616b652065786973747360781b60448201526064016108f5565b6113343383611f39565b61133e8282611e96565b604080518381526020810183905233917f1449c6dd7851abc30abf37f57715f492010519147cc2652fbc38202c18a6ee909101610d50565b6000611380612063565b905090565b60606004805461071f906125da565b60006113806120a7565b6000611380612114565b600081116113f05760405162461bcd60e51b8152602060048201526015602482015274109d5c9b8e8810995b1bddc81b5a5b881b1a5b5a5d605a1b60448201526064016108f5565b336040516301ffc9a760e01b815263543746b160e01b60048201526001600160a01b0391909116906301ffc9a790602401602060405180830381865afa15801561143e573d6000803e3d6000fd5b505050506040513d601f19601f820116820180604052508101906114629190612714565b6114ae5760405162461bcd60e51b815260206004820152601e60248201527f4275726e3a206e6f74206120737570706f7274656420636f6e7472616374000060448201526064016108f5565b6114b9823383611c1a565b6114c38282611f39565b6001600160a01b0382166000908152600b6020526040812080548392906114eb9084906126ea565b9091555033905060405163543746b160e01b81526001600160a01b03848116600483015260248201849052919091169063543746b190604401600060405180830381600087803b15801561153e57600080fd5b505af1158015611552573d6000803e3d6000fd5b505050505050565b60006115696201518083612624565b9050600161157a6201518082612624565b61158491906126d7565b81116115d25760405162461bcd60e51b815260206004820152601960248201527f4352616e6b3a205465726d206c657373207468616e206d696e0000000000000060448201526064016108f5565b6115da612179565b6115e59060016126ea565b81106116425760405162461bcd60e51b815260206004820152602660248201527f4352616e6b3a205465726d206d6f7265207468616e2063757272656e74206d6160448201526578207465726d60d01b60648201526084016108f5565b33600090815260096020526040902060030154156116a25760405162461bcd60e51b815260206004820152601f60248201527f4352616e6b3a204d696e7420616c726561647920696e2070726f67726573730060448201526064016108f5565b60006040518060c001604052806116b63390565b6001600160a01b03168152602081018590526040016116d584426126ea565b815260200160055481526020016116ea612114565b81526020016116f7612063565b9052336000908152600960209081526040808320845181546001600160a01b0319166001600160a01b039091161781559184015160018301558301516002820155606083015160038201556080830151600482015560a0830151600590910155600680549293509061176883612736565b91905055506117743390565b6001600160a01b03167fe9149e1b5059238baed02fa659dbf4bd932fbcf760a431330df4d934bc942f3784600560008154809291906117b290612736565b909155506040805192835260208301919091520160405180910390a2505050565b600033816117e18286611917565b9050838110156118415760405162461bcd60e51b815260206004820152602560248201527f45524332303a2064656372656173656420616c6c6f77616e63652062656c6f77604482015264207a65726f60d81b60648201526084016108f5565b610ab8828686840361195b565b6000336107b0818585611c94565b60008061187361186b87612209565b600f0b612227565b905060006118af61188385612209565b6118a661188f88612209565b6118a661189b8b612209565b600f88900b9061230b565b600f0b9061230b565b90506118d56118cd6118c26103e8612209565b600f84900b90612349565b600f0b6123a0565b67ffffffffffffffff16925050505b949350505050565b6040518060600160405280602581526020016127506025913981565b6107ca620151806103e8612624565b6001600160a01b03918216600090815260016020908152604080832093909416825291909152205490565b60016119516201518082612624565b6107ca91906126d7565b6001600160a01b0383166119bd5760405162461bcd60e51b8152602060048201526024808201527f45524332303a20617070726f76652066726f6d20746865207a65726f206164646044820152637265737360e01b60648201526084016108f5565b6001600160a01b038216611a1e5760405162461bcd60e51b815260206004820152602260248201527f45524332303a20617070726f766520746f20746865207a65726f206164647265604482015261737360f01b60648201526084016108f5565b6001600160a01b0383811660008181526001602090815260408083209487168084529482529182902085905590518481527f8c5be1e5ebec7d5bd14f71427d1e84f3dd0314c0f7b2291e5b200ac8c7c3b92591015b60405180910390a3505050565b600080611a8d85426126d7565b90506000611a9a826123bc565b90506000611ab689600554611aaf91906126d7565b6002612420565b90506000611ac6866103e86126ea565b90506000611ad683898c8561185c565b90506064611ae485826126d7565b611aee9083612624565b611af891906126b5565b9b9a5050505050505050505050565b6001600160a01b038216611b5d5760405162461bcd60e51b815260206004820152601f60248201527f45524332303a206d696e7420746f20746865207a65726f20616464726573730060448201526064016108f5565b8060026000828254611b6f91906126ea565b90915550506001600160a01b038216600081815260208181526040808320805486019055518481527fddf252ad1be2c89b69c2b068fc378daa952ba7f163c4a11628f55a4df523b3ef910160405180910390a35050565b33600090815260096020526040812080546001600160a01b0319168155600181018290556002810182905560038101829055600481018290556005018190556006805491611c13836126fd565b9190505550565b6000611c268484611917565b90506000198114611c8e5781811015611c815760405162461bcd60e51b815260206004820152601d60248201527f45524332303a20696e73756666696369656e7420616c6c6f77616e636500000060448201526064016108f5565b611c8e848484840361195b565b50505050565b6001600160a01b038316611cf85760405162461bcd60e51b815260206004820152602560248201527f45524332303a207472616e736665722066726f6d20746865207a65726f206164604482015264647265737360d81b60648201526084016108f5565b6001600160a01b038216611d5a5760405162461bcd60e51b815260206004820152602360248201527f45524332303a207472616e7366657220746f20746865207a65726f206164647260448201526265737360e81b60648201526084016108f5565b6001600160a01b03831660009081526020819052604090205481811015611dd25760405162461bcd60e51b815260206004820152602660248201527f45524332303a207472616e7366657220616d6f756e7420657863656564732062604482015265616c616e636560d01b60648201526084016108f5565b6001600160a01b03848116600081815260208181526040808320878703905593871680835291849020805487019055925185815290927fddf252ad1be2c89b69c2b068fc378daa952ba7f163c4a11628f55a4df523b3ef910160405180910390a3611c8e565b600082421115611e8b57600061016d611e518685612624565b611e5e90620f4240612624565b611e6891906126b5565b90506305f5e100611e798288612624565b611e8391906126b5565b9150506118e4565b506000949350505050565b60405180608001604052808281526020016201518083611eb69190612624565b611ec090426126ea565b8152602001838152602001611ed36120a7565b9052336000908152600a602090815260408083208451815591840151600183015583015160028201556060909201516003909201919091556007805491611f1983612736565b91905055508160086000828254611f3091906126ea565b90915550505050565b6001600160a01b038216611f995760405162461bcd60e51b815260206004820152602160248201527f45524332303a206275726e2066726f6d20746865207a65726f206164647265736044820152607360f81b60648201526084016108f5565b6001600160a01b0382166000908152602081905260409020548181101561200d5760405162461bcd60e51b815260206004820152602260248201527f45524332303a206275726e20616d6f756e7420657863656564732062616c616e604482015261636560f01b60648201526084016108f5565b6001600160a01b0383166000818152602081815260408083208686039055600280548790039055518581529192917fddf252ad1be2c89b69c2b068fc378daa952ba7f163c4a11628f55a4df523b3ef9101611a73565b600080620186a060055460016120799190612624565b61208391906126b5565b9050606481111561209657600091505090565b6120a18160646126d7565b91505090565b6000806120b8605a62015180612624565b6120e27f0000000000000000000000000000000000000000000000000000000000000000426126d7565b6120ec91906126b5565b9050806120fb600260146126d7565b101561210957600291505090565b6120a18160146126d7565b600080620151806121457f0000000000000000000000000000000000000000000000000000000000000000426126d7565b61214f91906126b5565b9050610bb8811015612171576120a161216a82610bb86126d7565b6001612420565b600191505090565b600061138860055411156121fb5760006121a76118cd612199600f612209565b6118a661186b600554612209565b67ffffffffffffffff16905060006121c26201518083612624565b6121d0620151806064612624565b6121da91906126ea565b90506121f4816121ef620151806103e8612624565b612437565b9250505090565b611380620151806064612624565b6000677fffffffffffffff82111561222057600080fd5b5060401b90565b60008082600f0b1361223857600080fd5b6000600f83900b680100000000000000008112612257576040918201911d5b640100000000811261226b576020918201911d5b62010000811261227d576010918201911d5b610100811261228e576008918201911d5b6010811261229e576004918201911d5b600481126122ae576002918201911d5b600281126122bd576001820191505b603f19820160401b600f85900b607f8490031b6780000000000000005b60008113156123005790800260ff81901c8281029390930192607f011c9060011d6122da565b509095945050505050565b6000600f83810b9083900b0260401d60016001607f1b03198112801590612339575060016001607f1b038113155b61234257600080fd5b9392505050565b600081600f0b60000361235b57600080fd5b600082600f0b604085600f0b901b816123765761237661269f565b05905060016001607f1b03198112801590612339575060016001607f1b0381131561234257600080fd5b60008082600f0b12156123b257600080fd5b50600f0b60401d90565b6000806123cc62015180846126b5565b90506123da600160076126d7565b8111156123ea5750606492915050565b6000600160076123fb8460036126ea565b6001901b61240991906126b5565b61241391906126d7565b90506118e4816064612437565b6000818311156124315750816107b6565b50919050565b6000818311156124485750806107b6565b5090919050565b600060208083528351808285015260005b8181101561247c57858101830151858201604001528201612460565b506000604082860101526040601f19601f8301168501019250505092915050565b80356001600160a01b03811681146124b457600080fd5b919050565b600080604083850312156124cc57600080fd5b6124d58361249d565b946020939093013593505050565b6000806000606084860312156124f857600080fd5b6125018461249d565b925061250f6020850161249d565b9150604084013590509250925092565b6000806040838503121561253257600080fd5b50508035926020909101359150565b60006020828403121561255357600080fd5b6123428261249d565b60006020828403121561256e57600080fd5b5035919050565b6000806000806080858703121561258b57600080fd5b5050823594602084013594506040840135936060013592509050565b600080604083850312156125ba57600080fd5b6125c38361249d565b91506125d16020840161249d565b90509250929050565b600181811c908216806125ee57607f821691505b60208210810361243157634e487b7160e01b600052602260045260246000fd5b634e487b7160e01b600052601160045260246000fd5b80820281158282048414176107b6576107b661260e565b6020808252601590820152744352616e6b3a204e6f206d696e742065786973747360581b604082015260600190565b6020808252818101527f4352616e6b3a204d696e74206d61747572697479206e6f742072656163686564604082015260600190565b634e487b7160e01b600052601260045260246000fd5b6000826126d257634e487b7160e01b600052601260045260246000fd5b500490565b818103818111156107b6576107b661260e565b808201808211156107b6576107b661260e565b60008161270c5761270c61260e565b506000190190565b60006020828403121561272657600080fd5b8151801515811461234257600080fd5b6000600182016127485761274861260e565b506001019056fe404d724a61636b4c6576696e20406c62656c79616576206661697263727970746f2e6f7267a2646970667358221220d297c1eb8991b100ec156d24e4cc9c51f4e747cd7aaef2cb550e429701a8c65164736f6c63430008110033",
  "linkReferences": {},
  "deployedLinkReferences": {}
}