{
  "_format": "hh-sol-artifact-1",
  "contractName": "XENCrypto100001",
  "sourceName": "contracts/test/XENCryptoRank100001.sol",
  "abi": [
    {
      "inputs": [],
      "stateMutability": "nonpayable",
      "type": "constructor"
    },
    {
      "anonymous": false,
      "inputs": [
        {
          "indexed": true,
          "internalType": "address",
          "name": "owner",
          "type": "address"
        },
        {
          "indexed": true,
          "internalType": "address",
          "name": "spender",
          "type": "address"
        },
        {
          "indexed": false,
          "internalType": "uint256",
          "name": "value",
          "type": "uint256"
        }
      ],
      "name": "Approval",
      "type": "event"
    },
    {
      "anonymous": false,
      "inputs": [
        {
          "indexed": true,
          "internalType": "address",
          "name": "user",
          "type": "address"
        },
        {
          "indexed": false,
          "internalType": "uint256",
          "name": "rewardAmount",
          "type": "uint256"
        }
      ],
      "name": "MintClaimed",
      "type": "event"
    },
    {
      "anonymous": false,
      "inputs": [
        {
          "indexed": true,
          "internalType": "address",
          "name": "user",
          "type": "address"
        },
        {
          "indexed": false,
          "internalType": "uint256",
          "name": "term",
          "type": "uint256"
        },
        {
          "indexed": false,
          "internalType": "uint256",
          "name": "rank",
          "type": "uint256"
        }
      ],
      "name": "RankClaimed",
      "type": "event"
    },
    {
      "anonymous": false,
      "inputs": [
        {
          "indexed": true,
          "internalType": "address",
          "name": "user",
          "type": "address"
        },
        {
          "indexed": false,
          "internalType": "uint256",
          "name": "amount",
          "type": "uint256"
        },
        {
          "indexed": false,
          "internalType": "uint256",
          "name": "term",
          "type": "uint256"
        }
      ],
      "name": "Staked",
      "type": "event"
    },
    {
      "anonymous": false,
      "inputs": [
        {
          "indexed": true,
          "internalType": "address",
          "name": "from",
          "type": "address"
        },
        {
          "indexed": true,
          "internalType": "address",
          "name": "to",
          "type": "address"
        },
        {
          "indexed": false,
          "internalType": "uint256",
          "name": "value",
          "type": "uint256"
        }
      ],
      "name": "Transfer",
      "type": "event"
    },
    {
      "anonymous": false,
      "inputs": [
        {
          "indexed": true,
          "internalType": "address",
          "name": "user",
          "type": "address"
        },
        {
          "indexed": false,
          "internalType": "uint256",
          "name": "amount",
          "type": "uint256"
        },
        {
          "indexed": false,
          "internalType": "uint256",
          "name": "reward",
          "type": "uint256"
        }
      ],
      "name": "Withdrawn",
      "type": "event"
    },
    {
      "inputs": [],
      "name": "AUTHORS",
      "outputs": [
        {
          "internalType": "string",
          "name": "",
          "type": "string"
        }
      ],
      "stateMutability": "view",
      "type": "function"
    },
    {
      "inputs": [],
      "name": "DAYS_IN_YEAR",
      "outputs": [
        {
          "internalType": "uint256",
          "name": "",
          "type": "uint256"
        }
      ],
      "stateMutability": "view",
      "type": "function"
    },
    {
      "inputs": [],
      "name": "EAA_PM_START",
      "outputs": [
        {
          "internalType": "uint256",
          "name": "",
          "type": "uint256"
        }
      ],
      "stateMutability": "view",
      "type": "function"
    },
    {
      "inputs": [],
      "name": "EAA_PM_STEP",
      "outputs": [
        {
          "internalType": "uint256",
          "name": "",
          "type": "uint256"
        }
      ],
      "stateMutability": "view",
      "type": "function"
    },
    {
      "inputs": [],
      "name": "EAA_RANK_STEP",
      "outputs": [
        {
          "internalType": "uint256",
          "name": "",
          "type": "uint256"
        }
      ],
      "stateMutability": "view",
      "type": "function"
    },
    {
      "inputs": [],
      "name": "GENESIS_RANK",
      "outputs": [
        {
          "internalType": "uint256",
          "name": "",
          "type": "uint256"
        }
      ],
      "stateMutability": "view",
      "type": "function"
    },
    {
      "inputs": [],
      "name": "MAX_TERM_END",
      "outputs": [
        {
          "internalType": "uint256",
          "name": "",
          "type": "uint256"
        }
      ],
      "stateMutability": "view",
      "type": "function"
    },
    {
      "inputs": [],
      "name": "MAX_TERM_START",
      "outputs": [
        {
          "internalType": "uint256",
          "name": "",
          "type": "uint256"
        }
      ],
      "stateMutability": "view",
      "type": "function"
    },
    {
      "inputs": [],
      "name": "MIN_TERM",
      "outputs": [
        {
          "internalType": "uint256",
          "name": "",
          "type": "uint256"
        }
      ],
      "stateMutability": "view",
      "type": "function"
    },
    {
      "inputs": [],
      "name": "REWARD_AMPLIFIER_END",
      "outputs": [
        {
          "internalType": "uint256",
          "name": "",
          "type": "uint256"
        }
      ],
      "stateMutability": "view",
      "type": "function"
    },
    {
      "inputs": [],
      "name": "REWARD_AMPLIFIER_START",
      "outputs": [
        {
          "internalType": "uint256",
          "name": "",
          "type": "uint256"
        }
      ],
      "stateMutability": "view",
      "type": "function"
    },
    {
      "inputs": [],
      "name": "SECONDS_IN_DAY",
      "outputs": [
        {
          "internalType": "uint256",
          "name": "",
          "type": "uint256"
        }
      ],
      "stateMutability": "view",
      "type": "function"
    },
    {
      "inputs": [],
      "name": "TERM_AMPLIFIER",
      "outputs": [
        {
          "internalType": "uint256",
          "name": "",
          "type": "uint256"
        }
      ],
      "stateMutability": "view",
      "type": "function"
    },
    {
      "inputs": [],
      "name": "TERM_AMPLIFIER_THRESHOLD",
      "outputs": [
        {
          "internalType": "uint256",
          "name": "",
          "type": "uint256"
        }
      ],
      "stateMutability": "view",
      "type": "function"
    },
    {
      "inputs": [],
      "name": "WITHDRAWAL_WINDOW_DAYS",
      "outputs": [
        {
          "internalType": "uint256",
          "name": "",
          "type": "uint256"
        }
      ],
      "stateMutability": "view",
      "type": "function"
    },
    {
      "inputs": [],
      "name": "XEN_APY_DAYS_STEP",
      "outputs": [
        {
          "internalType": "uint256",
          "name": "",
          "type": "uint256"
        }
      ],
      "stateMutability": "view",
      "type": "function"
    },
    {
      "inputs": [],
      "name": "XEN_APY_END",
      "outputs": [
        {
          "internalType": "uint256",
          "name": "",
          "type": "uint256"
        }
      ],
      "stateMutability": "view",
      "type": "function"
    },
    {
      "inputs": [],
      "name": "XEN_APY_START",
      "outputs": [
        {
          "internalType": "uint256",
          "name": "",
          "type": "uint256"
        }
      ],
      "stateMutability": "view",
      "type": "function"
    },
    {
      "inputs": [],
      "name": "XEN_MIN_BURN",
      "outputs": [
        {
          "internalType": "uint256",
          "name": "",
          "type": "uint256"
        }
      ],
      "stateMutability": "view",
      "type": "function"
    },
    {
      "inputs": [],
      "name": "XEN_MIN_STAKE",
      "outputs": [
        {
          "internalType": "uint256",
          "name": "",
          "type": "uint256"
        }
      ],
      "stateMutability": "view",
      "type": "function"
    },
    {
      "inputs": [],
      "name": "activeMinters",
      "outputs": [
        {
          "internalType": "uint256",
          "name": "",
          "type": "uint256"
        }
      ],
      "stateMutability": "view",
      "type": "function"
    },
    {
      "inputs": [],
      "name": "activeStakes",
      "outputs": [
        {
          "internalType": "uint256",
          "name": "",
          "type": "uint256"
        }
      ],
      "stateMutability": "view",
      "type": "function"
    },
    {
      "inputs": [
        {
          "internalType": "address",
          "name": "owner",
          "type": "address"
        },
        {
          "internalType": "address",
          "name": "spender",
          "type": "address"
        }
      ],
      "name": "allowance",
      "outputs": [
        {
          "internalType": "uint256",
          "name": "",
          "type": "uint256"
        }
      ],
      "stateMutability": "view",
      "type": "function"
    },
    {
      "inputs": [
        {
          "internalType": "address",
          "name": "spender",
          "type": "address"
        },
        {
          "internalType": "uint256",
          "name": "amount",
          "type": "uint256"
        }
      ],
      "name": "approve",
      "outputs": [
        {
          "internalType": "bool",
          "name": "",
          "type": "bool"
        }
      ],
      "stateMutability": "nonpayable",
      "type": "function"
    },
    {
      "inputs": [
        {
          "internalType": "address",
          "name": "account",
          "type": "address"
        }
      ],
      "name": "balanceOf",
      "outputs": [
        {
          "internalType": "uint256",
          "name": "",
          "type": "uint256"
        }
      ],
      "stateMutability": "view",
      "type": "function"
    },
    {
      "inputs": [
        {
          "internalType": "address",
          "name": "user",
          "type": "address"
        },
        {
          "internalType": "uint256",
          "name": "amount",
          "type": "uint256"
        }
      ],
      "name": "burn",
      "outputs": [],
      "stateMutability": "nonpayable",
      "type": "function"
    },
    {
      "inputs": [],
      "name": "claimMintReward",
      "outputs": [],
      "stateMutability": "nonpayable",
      "type": "function"
    },
    {
      "inputs": [
        {
          "internalType": "address",
          "name": "other",
          "type": "address"
        },
        {
          "internalType": "uint256",
          "name": "pct",
          "type": "uint256"
        }
      ],
      "name": "claimMintRewardAndShare",
      "outputs": [],
      "stateMutability": "nonpayable",
      "type": "function"
    },
    {
      "inputs": [
        {
          "internalType": "uint256",
          "name": "pct",
          "type": "uint256"
        },
        {
          "internalType": "uint256",
          "name": "term",
          "type": "uint256"
        }
      ],
      "name": "claimMintRewardAndStake",
      "outputs": [],
      "stateMutability": "nonpayable",
      "type": "function"
    },
    {
      "inputs": [
        {
          "internalType": "uint256",
          "name": "term",
          "type": "uint256"
        }
      ],
      "name": "claimRank",
      "outputs": [],
      "stateMutability": "nonpayable",
      "type": "function"
    },
    {
      "inputs": [],
      "name": "decimals",
      "outputs": [
        {
          "internalType": "uint8",
          "name": "",
          "type": "uint8"
        }
      ],
      "stateMutability": "view",
      "type": "function"
    },
    {
      "inputs": [
        {
          "internalType": "address",
          "name": "spender",
          "type": "address"
        },
        {
          "internalType": "uint256",
          "name": "subtractedValue",
          "type": "uint256"
        }
      ],
      "name": "decreaseAllowance",
      "outputs": [
        {
          "internalType": "bool",
          "name": "",
          "type": "bool"
        }
      ],
      "stateMutability": "nonpayable",
      "type": "function"
    },
    {
      "inputs": [],
      "name": "genesisTs",
      "outputs": [
        {
          "internalType": "uint256",
          "name": "",
          "type": "uint256"
        }
      ],
      "stateMutability": "view",
      "type": "function"
    },
    {
      "inputs": [],
      "name": "getCurrentAMP",
      "outputs": [
        {
          "internalType": "uint256",
          "name": "",
          "type": "uint256"
        }
      ],
      "stateMutability": "view",
      "type": "function"
    },
    {
      "inputs": [],
      "name": "getCurrentAPY",
      "outputs": [
        {
          "internalType": "uint256",
          "name": "",
          "type": "uint256"
        }
      ],
      "stateMutability": "view",
      "type": "function"
    },
    {
      "inputs": [],
      "name": "getCurrentEAAR",
      "outputs": [
        {
          "internalType": "uint256",
          "name": "",
          "type": "uint256"
        }
      ],
      "stateMutability": "view",
      "type": "function"
    },
    {
      "inputs": [
        {
          "internalType": "uint256",
          "name": "rankDelta",
          "type": "uint256"
        },
        {
          "internalType": "uint256",
          "name": "amplifier",
          "type": "uint256"
        },
        {
          "internalType": "uint256",
          "name": "term",
          "type": "uint256"
        },
        {
          "internalType": "uint256",
          "name": "eaa",
          "type": "uint256"
        }
      ],
      "name": "getGrossReward",
      "outputs": [
        {
          "internalType": "uint256",
          "name": "",
          "type": "uint256"
        }
      ],
      "stateMutability": "pure",
      "type": "function"
    },
    {
      "inputs": [],
      "name": "getUserMint",
      "outputs": [
        {
          "components": [
            {
              "internalType": "address",
              "name": "user",
              "type": "address"
            },
            {
              "internalType": "uint256",
              "name": "term",
              "type": "uint256"
            },
            {
              "internalType": "uint256",
              "name": "maturityTs",
              "type": "uint256"
            },
            {
              "internalType": "uint256",
              "name": "rank",
              "type": "uint256"
            },
            {
              "internalType": "uint256",
              "name": "amplifier",
              "type": "uint256"
            },
            {
              "internalType": "uint256",
              "name": "eaaRate",
              "type": "uint256"
            }
          ],
          "internalType": "struct XENCrypto100001.MintInfo",
          "name": "",
          "type": "tuple"
        }
      ],
      "stateMutability": "view",
      "type": "function"
    },
    {
      "inputs": [],
      "name": "getUserStake",
      "outputs": [
        {
          "components": [
            {
              "internalType": "uint256",
              "name": "term",
              "type": "uint256"
            },
            {
              "internalType": "uint256",
              "name": "maturityTs",
              "type": "uint256"
            },
            {
              "internalType": "uint256",
              "name": "amount",
              "type": "uint256"
            },
            {
              "internalType": "uint256",
              "name": "apy",
              "type": "uint256"
            }
          ],
          "internalType": "struct XENCrypto100001.StakeInfo",
          "name": "",
          "type": "tuple"
        }
      ],
      "stateMutability": "view",
      "type": "function"
    },
    {
      "inputs": [],
      "name": "globalRank",
      "outputs": [
        {
          "internalType": "uint256",
          "name": "",
          "type": "uint256"
        }
      ],
      "stateMutability": "view",
      "type": "function"
    },
    {
      "inputs": [
        {
          "internalType": "address",
          "name": "spender",
          "type": "address"
        },
        {
          "internalType": "uint256",
          "name": "addedValue",
          "type": "uint256"
        }
      ],
      "name": "increaseAllowance",
      "outputs": [
        {
          "internalType": "bool",
          "name": "",
          "type": "bool"
        }
      ],
      "stateMutability": "nonpayable",
      "type": "function"
    },
    {
      "inputs": [],
      "name": "name",
      "outputs": [
        {
          "internalType": "string",
          "name": "",
          "type": "string"
        }
      ],
      "stateMutability": "view",
      "type": "function"
    },
    {
      "inputs": [
        {
          "internalType": "uint256",
          "name": "amount",
          "type": "uint256"
        },
        {
          "internalType": "uint256",
          "name": "term",
          "type": "uint256"
        }
      ],
      "name": "stake",
      "outputs": [],
      "stateMutability": "nonpayable",
      "type": "function"
    },
    {
      "inputs": [],
      "name": "symbol",
      "outputs": [
        {
          "internalType": "string",
          "name": "",
          "type": "string"
        }
      ],
      "stateMutability": "view",
      "type": "function"
    },
    {
      "inputs": [],
      "name": "totalSupply",
      "outputs": [
        {
          "internalType": "uint256",
          "name": "",
          "type": "uint256"
        }
      ],
      "stateMutability": "view",
      "type": "function"
    },
    {
      "inputs": [],
      "name": "totalXenStaked",
      "outputs": [
        {
          "internalType": "uint256",
          "name": "",
          "type": "uint256"
        }
      ],
      "stateMutability": "view",
      "type": "function"
    },
    {
      "inputs": [
        {
          "internalType": "address",
          "name": "to",
          "type": "address"
        },
        {
          "internalType": "uint256",
          "name": "amount",
          "type": "uint256"
        }
      ],
      "name": "transfer",
      "outputs": [
        {
          "internalType": "bool",
          "name": "",
          "type": "bool"
        }
      ],
      "stateMutability": "nonpayable",
      "type": "function"
    },
    {
      "inputs": [
        {
          "internalType": "address",
          "name": "from",
          "type": "address"
        },
        {
          "internalType": "address",
          "name": "to",
          "type": "address"
        },
        {
          "internalType": "uint256",
          "name": "amount",
          "type": "uint256"
        }
      ],
      "name": "transferFrom",
      "outputs": [
        {
          "internalType": "bool",
          "name": "",
          "type": "bool"
        }
      ],
      "stateMutability": "nonpayable",
      "type": "function"
    },
    {
      "inputs": [
        {
          "internalType": "address",
          "name": "",
          "type": "address"
        }
      ],
      "name": "userBurns",
      "outputs": [
        {
          "internalType": "uint256",
          "name": "",
          "type": "uint256"
        }
      ],
      "stateMutability": "view",
      "type": "function"
    },
    {
      "inputs": [
        {
          "internalType": "address",
          "name": "",
          "type": "address"
        }
      ],
      "name": "userMints",
      "outputs": [
        {
          "internalType": "address",
          "name": "user",
          "type": "address"
        },
        {
          "internalType": "uint256",
          "name": "term",
          "type": "uint256"
        },
        {
          "internalType": "uint256",
          "name": "maturityTs",
          "type": "uint256"
        },
        {
          "internalType": "uint256",
          "name": "rank",
          "type": "uint256"
        },
        {
          "internalType": "uint256",
          "name": "amplifier",
          "type": "uint256"
        },
        {
          "internalType": "uint256",
          "name": "eaaRate",
          "type": "uint256"
        }
      ],
      "stateMutability": "view",
      "type": "function"
    },
    {
      "inputs": [
        {
          "internalType": "address",
          "name": "",
          "type": "address"
        }
      ],
      "name": "userStakes",
      "outputs": [
        {
          "internalType": "uint256",
          "name": "term",
          "type": "uint256"
        },
        {
          "internalType": "uint256",
          "name": "maturityTs",
          "type": "uint256"
        },
        {
          "internalType": "uint256",
          "name": "amount",
          "type": "uint256"
        },
        {
          "internalType": "uint256",
          "name": "apy",
          "type": "uint256"
        }
      ],
      "stateMutability": "view",
      "type": "function"
    },
    {
      "inputs": [],
      "name": "withdraw",
      "outputs": [],
      "stateMutability": "nonpayable",
      "type": "function"
    }
  ],
  "bytecode": "0x60a0604052620186a16005553480156200001857600080fd5b506040518060400160405280600f81526020016e58454e2043727970746f203130306b60881b8152506040518060400160405280600781526020016658454e3130304b60c81b815250816003908162000072919062000133565b50600462000081828262000133565b50504260805250620001ff565b634e487b7160e01b600052604160045260246000fd5b600181811c90821680620000b957607f821691505b602082108103620000da57634e487b7160e01b600052602260045260246000fd5b50919050565b601f8211156200012e57600081815260208120601f850160051c81016020861015620001095750805b601f850160051c820191505b818110156200012a5782815560010162000115565b5050505b505050565b81516001600160401b038111156200014f576200014f6200008e565b6200016781620001608454620000a4565b84620000e0565b602080601f8311600181146200019f5760008415620001865750858301515b600019600386901b1c1916600185901b1785556200012a565b600085815260208120601f198616915b82811015620001d057888601518255948401946001909101908401620001af565b5085821015620001ef5787850151600019600388901b60f8161c191681555b5050505050600190811b01905550565b6080516127a962000229600039600081816106c1015281816120bc015261211f01526127a96000f3fe608060405234801561001057600080fd5b506004361061030c5760003560e01c80638979c87c1161019d578063ba3ec741116100e9578063df282331116100a2578063ed2f23691161007c578063ed2f2369146106ec578063f0604829146106f5578063f340faed146106fd578063fed742691461070757600080fd5b8063df28233114610638578063e3af6d0a146106bc578063e81917b4146106e357600080fd5b8063ba3ec741146105ed578063bcfe394f14610436578063c0c65259146105f5578063c56f0bab146105fd578063ce653d5f14610605578063dd62ed3e1461062557600080fd5b80639dc29fac11610156578063a9059cbb11610130578063a9059cbb146105b5578063b0fd1fc2146105c8578063b21d35f2146105db578063b4800cdc146105e457600080fd5b80639dc29fac1461057c5780639ff054df1461058f578063a457c2d7146105a257600080fd5b80638979c87c146104ff5780638da7ad2314610507578063909a2ff61461055c57806395d89b4114610564578063962ca4961461056c578063992024541461057457600080fd5b8063313ce5671161025c5780635bccb4c41161021557806370a08231116101ef57806370a08231146104b357806372475f94146104dc5780637b0472f0146104e45780637e7aa62e146104f757600080fd5b80635bccb4c41461043e57806361a52a36146104515780637010d7a11461045b57600080fd5b8063313ce567146103fc57806332870fda1461040b57806339509351146104135780633ccfd60b1461042657806352c7f8dc1461042e578063543d36521461043657600080fd5b806316f9c8fd116102c95780631c560305116102a35780631c560305146103ca5780631c6f212e146103df57806323b872dd146103e95780632a62d9661461037657600080fd5b806316f9c8fd1461037e57806318160ddd146103b95780631c244082146103c157600080fd5b80630237893214610311578063069612a51461032d57806306fdde0314610336578063095ea7b31461034b5780630bfae56b1461036e578063110d7fc214610376575b600080fd5b61031a61016d81565b6040519081526020015b60405180910390f35b61031a60085481565b61033e61070f565b604051610324919061244e565b61035e6103593660046124b8565b6107a1565b6040519015158152602001610324565b61031a6107bb565b61031a600081565b6103866107cc565b60405161032491908151815260208083015190820152604080830151908201526060918201519181019190915260800190565b60025461031a565b61031a60055481565b6103dd6103d83660046124b8565b61083d565b005b61031a620186a181565b61035e6103f73660046124e2565b610a9e565b60405160128152602001610324565b61031a605a81565b61035e6104213660046124b8565b610ac2565b6103dd610ae4565b6103dd610c38565b61031a600181565b6103dd61044c36600461251e565b610d5b565b61031a6201518081565b6104636110b2565b604051610324919081516001600160a01b031681526020808301519082015260408083015190820152606080830151908201526080808301519082015260a0918201519181019190915260c00190565b61031a6104c1366004612540565b6001600160a01b031660009081526020819052604090205490565b61031a600f81565b6103dd6104f236600461251e565b611157565b61031a600281565b61031a611375565b61053c610515366004612540565b600a6020526000908152604090208054600182015460028301546003909301549192909184565b604080519485526020850193909352918301526060820152608001610324565b61031a606481565b61033e611384565b61031a611393565b61031a61139d565b6103dd61058a3660046124b8565b6113a7565b6103dd61059d36600461255b565b611559565b61035e6105b03660046124b8565b6117d2565b61035e6105c33660046124b8565b61184d565b61031a6105d6366004612574565b61185b565b61031a61138881565b61031a60065481565b61033e6118eb565b61031a611907565b61031a600781565b61031a610613366004612540565b600b6020526000908152604090205481565b61031a6106333660046125a6565b611916565b610685610646366004612540565b6009602052600090815260409020805460018201546002830154600384015460048501546005909501546001600160a01b039094169492939192909186565b604080516001600160a01b0390971687526020870195909552938501929092526060840152608083015260a082015260c001610324565b61031a7f000000000000000000000000000000000000000000000000000000000000000081565b61031a610bb881565b61031a60075481565b61031a611941565b61031a620186a081565b61031a601481565b60606003805461071e906125d9565b80601f016020809104026020016040519081016040528092919081815260200182805461074a906125d9565b80156107975780601f1061076c57610100808354040283529160200191610797565b820191906000526020600020905b81548152906001019060200180831161077a57829003601f168201915b5050505050905090565b6000336107af81858561195a565b60019150505b92915050565b6107c9620151806064612623565b81565b6107f76040518060800160405280600081526020016000815260200160008152602001600081525090565b50336000908152600a6020908152604091829020825160808101845281548152600182015492810192909252600281015492820192909252600390910154606082015290565b33600090815260096020908152604091829020825160c08101845281546001600160a01b03908116825260018301549382019390935260028201549381019390935260038101546060840152600481015460808401526005015460a083015283166108fd5760405162461bcd60e51b815260206004820152602560248201527f4352616e6b3a2043616e6e6f742073686172652077697468207a65726f206164604482015264647265737360d81b60648201526084015b60405180910390fd5b6000821161094d5760405162461bcd60e51b815260206004820181905260248201527f4352616e6b3a2043616e6e6f74207368617265207a65726f2070657263656e7460448201526064016108f4565b6065821061099d5760405162461bcd60e51b815260206004820181905260248201527f4352616e6b3a2043616e6e6f74207368617265203130302b2070657263656e7460448201526064016108f4565b60008160600151116109c15760405162461bcd60e51b81526004016108f49061263a565b806040015142116109e45760405162461bcd60e51b81526004016108f490612669565b6000610a0782606001518360200151846040015185608001518660a00151611a7f565b610a1990670de0b6b3a7640000612623565b905060006064610a298584612623565b610a3391906126b4565b90506000610a4182846126d6565b9050610a4e335b82611b06565b610a588683611b06565b610a60611bc5565b60405183815233907fd74752b13281df13701575f3a507e9b1242e0b5fb040143211c481c1fce573a6906020015b60405180910390a2505050505050565b600033610aac858285611c19565b610ab7858585611c93565b506001949350505050565b6000336107af818585610ad58383611916565b610adf91906126e9565b61195a565b336000908152600a6020908152604091829020825160808101845281548152600182015492810192909252600281015492820183905260030154606082015290610b675760405162461bcd60e51b815260206004820152601460248201527358454e3a206e6f207374616b652065786973747360601b60448201526064016108f4565b6000610b858260400151836000015184602001518560600151611e37565b600780549192506000610b97836126fc565b9190505550816040015160086000828254610bb291906126d6565b90915550610bd1905033828460400151610bcc91906126e9565b611b06565b60408083015181519081526020810183905233917f92ccf450a286a957af52509bc1c9939d1a6a481783e142e41e2499f0bb66ebc6910160405180910390a25050336000908152600a60205260408120818155600181018290556002810182905560030155565b33600090815260096020908152604091829020825160c08101845281546001600160a01b031681526001820154928101929092526002810154928201929092526003820154606082018190526004830154608083015260059092015460a082015290610cb65760405162461bcd60e51b81526004016108f49061263a565b80604001514211610cd95760405162461bcd60e51b81526004016108f490612669565b6000610cfc82606001518360200151846040015185608001518660a00151611a7f565b610d0e90670de0b6b3a7640000612623565b9050610d1933610a48565b610d21611bc5565b60405181815233907fd74752b13281df13701575f3a507e9b1242e0b5fb040143211c481c1fce573a6906020015b60405180910390a25050565b33600090815260096020908152604091829020825160c08101845281546001600160a01b03168152600182015492810192909252600281015492820192909252600382015460608201526004820154608082015260059091015460a082015260658310610e0a5760405162461bcd60e51b815260206004820181905260248201527f4352616e6b3a2043616e6e6f74207368617265203e3130302070657263656e7460448201526064016108f4565b6000816060015111610e2e5760405162461bcd60e51b81526004016108f49061263a565b80604001514211610e515760405162461bcd60e51b81526004016108f490612669565b6000610e7482606001518360200151846040015185608001518660a00151611a7f565b610e8690670de0b6b3a7640000612623565b905060006064610e968684612623565b610ea091906126b4565b90506000610eae82846126d6565b9050610eb933610a48565b610ec1611bc5565b60405183815233907fd74752b13281df13701575f3a507e9b1242e0b5fb040143211c481c1fce573a69060200160405180910390a260008211610f3d5760405162461bcd60e51b815260206004820152601460248201527358454e3a2042656c6f77206d696e207374616b6560601b60448201526064016108f4565b6001610f4c6201518082612623565b610f5691906126d6565b610f636201518087612623565b11610fac5760405162461bcd60e51b815260206004820152601960248201527858454e3a2042656c6f77206d696e207374616b65207465726d60381b60448201526064016108f4565b610fbb620151806103e8612623565b610fc69060016126e9565b610fd36201518087612623565b1061101c5760405162461bcd60e51b815260206004820152601960248201527858454e3a2041626f7665206d6178207374616b65207465726d60381b60448201526064016108f4565b336000908152600a6020526040902060020154156110705760405162461bcd60e51b815260206004820152601160248201527058454e3a207374616b652065786973747360781b60448201526064016108f4565b61107a8286611e95565b604080518381526020810187905233917f1449c6dd7851abc30abf37f57715f492010519147cc2652fbc38202c18a6ee909101610a8e565b6110f46040518060c0016040528060006001600160a01b0316815260200160008152602001600081526020016000815260200160008152602001600081525090565b5033600090815260096020908152604091829020825160c08101845281546001600160a01b03168152600182015492810192909252600281015492820192909252600382015460608201526004820154608082015260059091015460a082015290565b81611161336104c1565b10156111af5760405162461bcd60e51b815260206004820152601760248201527f58454e3a206e6f7420656e6f7567682062616c616e636500000000000000000060448201526064016108f4565b600082116111f65760405162461bcd60e51b815260206004820152601460248201527358454e3a2042656c6f77206d696e207374616b6560601b60448201526064016108f4565b60016112056201518082612623565b61120f91906126d6565b61121c6201518083612623565b116112655760405162461bcd60e51b815260206004820152601960248201527858454e3a2042656c6f77206d696e207374616b65207465726d60381b60448201526064016108f4565b611274620151806103e8612623565b61127f9060016126e9565b61128c6201518083612623565b106112d55760405162461bcd60e51b815260206004820152601960248201527858454e3a2041626f7665206d6178207374616b65207465726d60381b60448201526064016108f4565b336000908152600a6020526040902060020154156113295760405162461bcd60e51b815260206004820152601160248201527058454e3a207374616b652065786973747360781b60448201526064016108f4565b6113333383611f38565b61133d8282611e95565b604080518381526020810183905233917f1449c6dd7851abc30abf37f57715f492010519147cc2652fbc38202c18a6ee909101610d4f565b600061137f612062565b905090565b60606004805461071e906125d9565b600061137f6120a6565b600061137f612113565b600081116113ef5760405162461bcd60e51b8152602060048201526015602482015274109d5c9b8e8810995b1bddc81b5a5b881b1a5b5a5d605a1b60448201526064016108f4565b336040516301ffc9a760e01b815263543746b160e01b60048201526001600160a01b0391909116906301ffc9a790602401602060405180830381865afa15801561143d573d6000803e3d6000fd5b505050506040513d601f19601f820116820180604052508101906114619190612713565b6114ad5760405162461bcd60e51b815260206004820152601e60248201527f4275726e3a206e6f74206120737570706f7274656420636f6e7472616374000060448201526064016108f4565b6114b8823383611c19565b6114c28282611f38565b6001600160a01b0382166000908152600b6020526040812080548392906114ea9084906126e9565b9091555033905060405163543746b160e01b81526001600160a01b03848116600483015260248201849052919091169063543746b190604401600060405180830381600087803b15801561153d57600080fd5b505af1158015611551573d6000803e3d6000fd5b505050505050565b60006115686201518083612623565b905060016115796201518082612623565b61158391906126d6565b81116115d15760405162461bcd60e51b815260206004820152601960248201527f4352616e6b3a205465726d206c657373207468616e206d696e0000000000000060448201526064016108f4565b6115d9612178565b6115e49060016126e9565b81106116415760405162461bcd60e51b815260206004820152602660248201527f4352616e6b3a205465726d206d6f7265207468616e2063757272656e74206d6160448201526578207465726d60d01b60648201526084016108f4565b33600090815260096020526040902060030154156116a15760405162461bcd60e51b815260206004820152601f60248201527f4352616e6b3a204d696e7420616c726561647920696e2070726f67726573730060448201526064016108f4565b60006040518060c001604052806116b53390565b6001600160a01b03168152602081018590526040016116d484426126e9565b815260200160055481526020016116e9612113565b81526020016116f6612062565b9052336000908152600960209081526040808320845181546001600160a01b0319166001600160a01b039091161781559184015160018301558301516002820155606083015160038201556080830151600482015560a0830151600590910155600680549293509061176783612735565b91905055506117733390565b6001600160a01b03167fe9149e1b5059238baed02fa659dbf4bd932fbcf760a431330df4d934bc942f3784600560008154809291906117b190612735565b909155506040805192835260208301919091520160405180910390a2505050565b600033816117e08286611916565b9050838110156118405760405162461bcd60e51b815260206004820152602560248201527f45524332303a2064656372656173656420616c6c6f77616e63652062656c6f77604482015264207a65726f60d81b60648201526084016108f4565b610ab7828686840361195a565b6000336107af818585611c93565b60008061187261186a87612208565b600f0b612226565b905060006118ae61188285612208565b6118a561188e88612208565b6118a561189a8b612208565b600f88900b9061230a565b600f0b9061230a565b90506118d46118cc6118c16103e8612208565b600f84900b90612348565b600f0b61239f565b67ffffffffffffffff16925050505b949350505050565b60405180606001604052806025815260200161274f6025913981565b6107c9620151806103e8612623565b6001600160a01b03918216600090815260016020908152604080832093909416825291909152205490565b60016119506201518082612623565b6107c991906126d6565b6001600160a01b0383166119bc5760405162461bcd60e51b8152602060048201526024808201527f45524332303a20617070726f76652066726f6d20746865207a65726f206164646044820152637265737360e01b60648201526084016108f4565b6001600160a01b038216611a1d5760405162461bcd60e51b815260206004820152602260248201527f45524332303a20617070726f766520746f20746865207a65726f206164647265604482015261737360f01b60648201526084016108f4565b6001600160a01b0383811660008181526001602090815260408083209487168084529482529182902085905590518481527f8c5be1e5ebec7d5bd14f71427d1e84f3dd0314c0f7b2291e5b200ac8c7c3b92591015b60405180910390a3505050565b600080611a8c85426126d6565b90506000611a99826123bb565b90506000611ab589600554611aae91906126d6565b600261241f565b90506000611ac5866103e86126e9565b90506000611ad583898c8561185b565b90506064611ae385826126d6565b611aed9083612623565b611af791906126b4565b9b9a5050505050505050505050565b6001600160a01b038216611b5c5760405162461bcd60e51b815260206004820152601f60248201527f45524332303a206d696e7420746f20746865207a65726f20616464726573730060448201526064016108f4565b8060026000828254611b6e91906126e9565b90915550506001600160a01b038216600081815260208181526040808320805486019055518481527fddf252ad1be2c89b69c2b068fc378daa952ba7f163c4a11628f55a4df523b3ef910160405180910390a35050565b33600090815260096020526040812080546001600160a01b0319168155600181018290556002810182905560038101829055600481018290556005018190556006805491611c12836126fc565b9190505550565b6000611c258484611916565b90506000198114611c8d5781811015611c805760405162461bcd60e51b815260206004820152601d60248201527f45524332303a20696e73756666696369656e7420616c6c6f77616e636500000060448201526064016108f4565b611c8d848484840361195a565b50505050565b6001600160a01b038316611cf75760405162461bcd60e51b815260206004820152602560248201527f45524332303a207472616e736665722066726f6d20746865207a65726f206164604482015264647265737360d81b60648201526084016108f4565b6001600160a01b038216611d595760405162461bcd60e51b815260206004820152602360248201527f45524332303a207472616e7366657220746f20746865207a65726f206164647260448201526265737360e81b60648201526084016108f4565b6001600160a01b03831660009081526020819052604090205481811015611dd15760405162461bcd60e51b815260206004820152602660248201527f45524332303a207472616e7366657220616d6f756e7420657863656564732062604482015265616c616e636560d01b60648201526084016108f4565b6001600160a01b03848116600081815260208181526040808320878703905593871680835291849020805487019055925185815290927fddf252ad1be2c89b69c2b068fc378daa952ba7f163c4a11628f55a4df523b3ef910160405180910390a3611c8d565b600082421115611e8a57600061016d611e508685612623565b611e5d90620f4240612623565b611e6791906126b4565b90506305f5e100611e788288612623565b611e8291906126b4565b9150506118e3565b506000949350505050565b60405180608001604052808281526020016201518083611eb59190612623565b611ebf90426126e9565b8152602001838152602001611ed26120a6565b9052336000908152600a602090815260408083208451815591840151600183015583015160028201556060909201516003909201919091556007805491611f1883612735565b91905055508160086000828254611f2f91906126e9565b90915550505050565b6001600160a01b038216611f985760405162461bcd60e51b815260206004820152602160248201527f45524332303a206275726e2066726f6d20746865207a65726f206164647265736044820152607360f81b60648201526084016108f4565b6001600160a01b0382166000908152602081905260409020548181101561200c5760405162461bcd60e51b815260206004820152602260248201527f45524332303a206275726e20616d6f756e7420657863656564732062616c616e604482015261636560f01b60648201526084016108f4565b6001600160a01b0383166000818152602081815260408083208686039055600280548790039055518581529192917fddf252ad1be2c89b69c2b068fc378daa952ba7f163c4a11628f55a4df523b3ef9101611a72565b600080620186a060055460016120789190612623565b61208291906126b4565b9050606481111561209557600091505090565b6120a08160646126d6565b91505090565b6000806120b7605a62015180612623565b6120e17f0000000000000000000000000000000000000000000000000000000000000000426126d6565b6120eb91906126b4565b9050806120fa600260146126d6565b101561210857600291505090565b6120a08160146126d6565b600080620151806121447f0000000000000000000000000000000000000000000000000000000000000000426126d6565b61214e91906126b4565b9050610bb8811015612170576120a061216982610bb86126d6565b600161241f565b600191505090565b600061138860055411156121fa5760006121a66118cc612198600f612208565b6118a561186a600554612208565b67ffffffffffffffff16905060006121c16201518083612623565b6121cf620151806064612623565b6121d991906126e9565b90506121f3816121ee620151806103e8612623565b612436565b9250505090565b61137f620151806064612623565b6000677fffffffffffffff82111561221f57600080fd5b5060401b90565b60008082600f0b1361223757600080fd5b6000600f83900b680100000000000000008112612256576040918201911d5b640100000000811261226a576020918201911d5b62010000811261227c576010918201911d5b610100811261228d576008918201911d5b6010811261229d576004918201911d5b600481126122ad576002918201911d5b600281126122bc576001820191505b603f19820160401b600f85900b607f8490031b6780000000000000005b60008113156122ff5790800260ff81901c8281029390930192607f011c9060011d6122d9565b509095945050505050565b6000600f83810b9083900b0260401d60016001607f1b03198112801590612338575060016001607f1b038113155b61234157600080fd5b9392505050565b600081600f0b60000361235a57600080fd5b600082600f0b604085600f0b901b816123755761237561269e565b05905060016001607f1b03198112801590612338575060016001607f1b0381131561234157600080fd5b60008082600f0b12156123b157600080fd5b50600f0b60401d90565b6000806123cb62015180846126b4565b90506123d9600160076126d6565b8111156123e95750606492915050565b6000600160076123fa8460036126e9565b6001901b61240891906126b4565b61241291906126d6565b90506118e3816064612436565b6000818311156124305750816107b5565b50919050565b6000818311156124475750806107b5565b5090919050565b600060208083528351808285015260005b8181101561247b5785810183015185820160400152820161245f565b506000604082860101526040601f19601f8301168501019250505092915050565b80356001600160a01b03811681146124b357600080fd5b919050565b600080604083850312156124cb57600080fd5b6124d48361249c565b946020939093013593505050565b6000806000606084860312156124f757600080fd5b6125008461249c565b925061250e6020850161249c565b9150604084013590509250925092565b6000806040838503121561253157600080fd5b50508035926020909101359150565b60006020828403121561255257600080fd5b6123418261249c565b60006020828403121561256d57600080fd5b5035919050565b6000806000806080858703121561258a57600080fd5b5050823594602084013594506040840135936060013592509050565b600080604083850312156125b957600080fd5b6125c28361249c565b91506125d06020840161249c565b90509250929050565b600181811c908216806125ed57607f821691505b60208210810361243057634e487b7160e01b600052602260045260246000fd5b634e487b7160e01b600052601160045260246000fd5b80820281158282048414176107b5576107b561260d565b6020808252601590820152744352616e6b3a204e6f206d696e742065786973747360581b604082015260600190565b6020808252818101527f4352616e6b3a204d696e74206d61747572697479206e6f742072656163686564604082015260600190565b634e487b7160e01b600052601260045260246000fd5b6000826126d157634e487b7160e01b600052601260045260246000fd5b500490565b818103818111156107b5576107b561260d565b808201808211156107b5576107b561260d565b60008161270b5761270b61260d565b506000190190565b60006020828403121561272557600080fd5b8151801515811461234157600080fd5b6000600182016127475761274761260d565b506001019056fe404d724a61636b4c6576696e20406c62656c79616576206661697263727970746f2e6f7267a26469706673582212200734fbd8d2cdcef70fc6f65ba4409a54e0206f597df16e7c7586d28ad8acd74164736f6c63430008110033",
  "linkReferences": {},
  "deployedLinkReferences": {}
}