{
  "_format": "hh-sol-artifact-1",
  "contractName": "Factory",
  "sourceName": "contracts/Minter.sol",
  "abi": [
    {
      "inputs": [
        {
          "internalType": "address",
          "name": "_main",
          "type": "address"
        }
      ],
      "stateMutability": "nonpayable",
      "type": "constructor"
    },
    {
      "inputs": [],
      "name": "claimMintReward",
      "outputs": [],
      "stateMutability": "payable",
      "type": "function"
    },
    {
      "inputs": [],
      "name": "claimRank",
      "outputs": [],
      "stateMutability": "payable",
      "type": "function"
    },
    {
      "inputs": [],
      "name": "getTimestamp",
      "outputs": [
        {
          "internalType": "uint256",
          "name": "",
          "type": "uint256"
        }
      ],
      "stateMutability": "view",
      "type": "function"
    },
    {
      "inputs": [
        {
          "internalType": "address",
          "name": "user",
          "type": "address"
        }
      ],
      "name": "getUserMinterInfo",
      "outputs": [
        {
          "components": [
            {
              "internalType": "address",
              "name": "user",
              "type": "address"
            },
            {
              "internalType": "uint256",
              "name": "term",
              "type": "uint256"
            },
            {
              "internalType": "uint256",
              "name": "maturityTs",
              "type": "uint256"
            },
            {
              "internalType": "uint256",
              "name": "rank",
              "type": "uint256"
            },
            {
              "internalType": "uint256",
              "name": "amplifier",
              "type": "uint256"
            },
            {
              "internalType": "uint256",
              "name": "eaaRate",
              "type": "uint256"
            }
          ],
          "internalType": "struct IMain.MintInfo[]",
          "name": "",
          "type": "tuple[]"
        }
      ],
      "stateMutability": "view",
      "type": "function"
    },
    {
      "inputs": [
        {
          "internalType": "address",
          "name": "user",
          "type": "address"
        }
      ],
      "name": "getUserMinters",
      "outputs": [
        {
          "internalType": "address[]",
          "name": "",
          "type": "address[]"
        }
      ],
      "stateMutability": "view",
      "type": "function"
    },
    {
      "inputs": [],
      "name": "main",
      "outputs": [
        {
          "internalType": "address",
          "name": "",
          "type": "address"
        }
      ],
      "stateMutability": "view",
      "type": "function"
    },
    {
      "inputs": [
        {
          "internalType": "uint256",
          "name": "miners",
          "type": "uint256"
        },
        {
          "internalType": "uint256",
          "name": "term",
          "type": "uint256"
        }
      ],
      "name": "minterFactory",
      "outputs": [],
      "stateMutability": "payable",
      "type": "function"
    }
  ],
  "bytecode": "0x608060405234801561001057600080fd5b5060405161124238038061124283398101604081905261002f91610054565b600080546001600160a01b0319166001600160a01b0392909216919091179055610084565b60006020828403121561006657600080fd5b81516001600160a01b038116811461007d57600080fd5b9392505050565b6111af806100936000396000f3fe6080604052600436106100705760003560e01c806352c7f8dc1161004e57806352c7f8dc146100cc578063dc2b539f146100d4578063dffeadd0146100e7578063f30bee181461011f57600080fd5b806316841ebf14610075578063188ec3561461007f578063218c044f1461009f575b600080fd5b61007d61014c565b005b34801561008b57600080fd5b506040514281526020015b60405180910390f35b3480156100ab57600080fd5b506100bf6100ba3660046108d7565b610375565b60405161009691906108fb565b61007d6103eb565b61007d6100e2366004610948565b61059c565b3480156100f357600080fd5b50600054610107906001600160a01b031681565b6040516001600160a01b039091168152602001610096565b34801561012b57600080fd5b5061013f61013a3660046108d7565b610719565b604051610096919061096a565b60008060009054906101000a90046001600160a01b03166001600160a01b031663ddca3f436040518163ffffffff1660e01b81526004016020604051808303816000875af11580156101a2573d6000803e3d6000fd5b505050506040513d601f19601f820116820180604052508101906101c691906109eb565b336000908152600160205260408120549192505b818110156103705733600090815260016020526040812080548390811061020357610203610a04565b9060005260206000200160009054906101000a90046001600160a01b031690506000816001600160a01b03166382a86e2c6040518163ffffffff1660e01b815260040160c060405180830381865afa158015610263573d6000803e3d6000fd5b505050506040513d601f19601f820116820180604052508101906102879190610a40565b60408101519091501561029b575050610360565b816001600160a01b0316639ff054df86846001600160a01b031663a10ffbed6040518163ffffffff1660e01b8152600401602060405180830381865afa1580156102e9573d6000803e3d6000fd5b505050506040513d601f19601f8201168201806040525081019061030d91906109eb565b6040518363ffffffff1660e01b815260040161032b91815260200190565b6000604051808303818588803b15801561034457600080fd5b505af1158015610358573d6000803e3d6000fd5b505050505050505b61036981610acd565b90506101da565b505050565b6001600160a01b0381166000908152600160209081526040918290208054835181840281018401909452808452606093928301828280156103df57602002820191906000526020600020905b81546001600160a01b031681526001909101906020018083116103c1575b50505050509050919050565b60008060009054906101000a90046001600160a01b03166001600160a01b031663ddca3f436040518163ffffffff1660e01b81526004016020604051808303816000875af1158015610441573d6000803e3d6000fd5b505050506040513d601f19601f8201168201806040525081019061046591906109eb565b336000908152600160205260408120549192505b81811015610370573360009081526001602052604081208054839081106104a2576104a2610a04565b9060005260206000200160009054906101000a90046001600160a01b031690506000816001600160a01b03166382a86e2c6040518163ffffffff1660e01b815260040160c060405180830381865afa158015610502573d6000803e3d6000fd5b505050506040513d601f19601f820116820180604052508101906105269190610a40565b9050806040015142111561058957816001600160a01b03166352c7f8dc866040518263ffffffff1660e01b81526004016000604051808303818588803b15801561056f57600080fd5b505af1158015610583573d6000803e3d6000fd5b50505050505b50508061059590610acd565b9050610479565b60008060009054906101000a90046001600160a01b03166001600160a01b031663ddca3f436040518163ffffffff1660e01b81526004016020604051808303816000875af11580156105f2573d6000803e3d6000fd5b505050506040513d601f19601f8201168201806040525081019061061691906109eb565b905060005b83811015610713576000805460405133916001600160a01b03169061063f906108b2565b6001600160a01b03928316815291166020820152604001604051809103906000f080158015610672573d6000803e3d6000fd5b5033600090815260016020818152604080842080549384018155845292200180546001600160a01b0319166001600160a01b0384169081179091559051639ff054df60e01b81526004810187905291925090639ff054df9085906024016000604051808303818588803b1580156106e857600080fd5b505af11580156106fc573d6000803e3d6000fd5b5050505050508061070c90610acd565b905061061b565b50505050565b6001600160a01b0381166000908152600160205260408120546060918167ffffffffffffffff81111561074e5761074e610a1a565b6040519080825280602002602001820160405280156107c157816020015b6107ae6040518060c0016040528060006001600160a01b0316815260200160008152602001600081526020016000815260200160008152602001600081525090565b81526020019060019003908161076c5790505b50905060005b828110156108aa576001600160a01b03851660009081526001602052604081208054839081106107f9576107f9610a04565b9060005260206000200160009054906101000a90046001600160a01b03169050806001600160a01b03166382a86e2c6040518163ffffffff1660e01b815260040160c060405180830381865afa158015610857573d6000803e3d6000fd5b505050506040513d601f19601f8201168201806040525081019061087b9190610a40565b83838151811061088d5761088d610a04565b602002602001018190525050806108a390610acd565b90506107c7565b509392505050565b61068580610af583390190565b6001600160a01b03811681146108d457600080fd5b50565b6000602082840312156108e957600080fd5b81356108f4816108bf565b9392505050565b6020808252825182820181905260009190848201906040850190845b8181101561093c5783516001600160a01b031683529284019291840191600101610917565b50909695505050505050565b6000806040838503121561095b57600080fd5b50508035926020909101359150565b602080825282518282018190526000919060409081850190868401855b828110156109de57815180516001600160a01b0316855286810151878601528581015186860152606080820151908601526080808201519086015260a0908101519085015260c09093019290850190600101610987565b5091979650505050505050565b6000602082840312156109fd57600080fd5b5051919050565b634e487b7160e01b600052603260045260246000fd5b634e487b7160e01b600052604160045260246000fd5b8051610a3b816108bf565b919050565b600060c08284031215610a5257600080fd5b60405160c0810181811067ffffffffffffffff82111715610a8357634e487b7160e01b600052604160045260246000fd5b604052610a8f83610a30565b81526020830151602082015260408301516040820152606083015160608201526080830151608082015260a083015160a08201528091505092915050565b600060018201610aed57634e487b7160e01b600052601160045260246000fd5b506001019056fe608060405234801561001057600080fd5b5060405161068538038061068583398101604081905261002f9161007c565b600080546001600160a01b039384166001600160a01b031991821617909155600180549290931691161790556100af565b80516001600160a01b038116811461007757600080fd5b919050565b6000806040838503121561008f57600080fd5b61009883610060565b91506100a660208401610060565b90509250929050565b6105c7806100be6000396000f3fe60806040526004361061004a5760003560e01c806352c7f8dc1461004f57806382a86e2c146100595780638da5cb5b146100c75780639ff054df146100ff578063a10ffbed14610112575b600080fd5b610057610136565b005b34801561006557600080fd5b5061006e6102fd565b6040516100be919081516001600160a01b031681526020808301519082015260408083015190820152606080830151908201526080808301519082015260a0918201519181019190915260c00190565b60405180910390f35b3480156100d357600080fd5b506000546100e7906001600160a01b031681565b6040516001600160a01b0390911681526020016100be565b61005761010d36600461048d565b6103b0565b34801561011e57600080fd5b5061012860025481565b6040519081526020016100be565b6001546040805163ddca3f4360e01b815290516000926001600160a01b03169163ddca3f43916004808301926020929190829003018187875af1158015610181573d6000803e3d6000fd5b505050506040513d601f19601f820116820180604052508101906101a591906104a6565b9050600160009054906101000a90046001600160a01b03166001600160a01b03166352c7f8dc826040518263ffffffff1660e01b81526004016000604051808303818588803b1580156101f757600080fd5b505af115801561020b573d6000803e3d6000fd5b50506001546000546040516370a0823160e01b81523060048201526001600160a01b03928316955063a9059cbb94509116915083906370a0823190602401602060405180830381865afa158015610266573d6000803e3d6000fd5b505050506040513d601f19601f8201168201806040525081019061028a91906104a6565b6040516001600160e01b031960e085901b1681526001600160a01b03909216600483015260248201526044016020604051808303816000875af11580156102d5573d6000803e3d6000fd5b505050506040513d601f19601f820116820180604052508101906102f991906104bf565b5050565b61033f6040518060c0016040528060006001600160a01b0316815260200160008152602001600081526020016000815260200160008152602001600081525090565b60015460405163df28233160e01b81523060048201526001600160a01b039091169063df2823319060240160c060405180830381865afa158015610387573d6000803e3d6000fd5b505050506040513d601f19601f820116820180604052508101906103ab9190610504565b905090565b60028190556001546040805163ddca3f4360e01b815290516000926001600160a01b03169163ddca3f43916004808301926020929190829003018187875af1158015610400573d6000803e3d6000fd5b505050506040513d601f19601f8201168201806040525081019061042491906104a6565b600154600254604051639ff054df60e01b815260048101919091529192506001600160a01b031690639ff054df9083906024016000604051808303818588803b15801561047057600080fd5b505af1158015610484573d6000803e3d6000fd5b50505050505050565b60006020828403121561049f57600080fd5b5035919050565b6000602082840312156104b857600080fd5b5051919050565b6000602082840312156104d157600080fd5b815180151581146104e157600080fd5b9392505050565b80516001600160a01b03811681146104ff57600080fd5b919050565b600060c0828403121561051657600080fd5b60405160c0810181811067ffffffffffffffff8211171561054757634e487b7160e01b600052604160045260246000fd5b604052610553836104e8565b81526020830151602082015260408301516040820152606083015160608201526080830151608082015260a083015160a0820152809150509291505056fea26469706673582212208c528cdb9038ed693bb5a420cbef8fc19fbb95bb8edf388e1291410fbba9fe6d64736f6c63430008110033a2646970667358221220ceddbf07b85de18db0aa4a0babc2b7617182affb0673b4228395c0135fc76f1464736f6c63430008110033",
  "linkReferences": {},
  "deployedLinkReferences": {}
}