{
  "_format": "hh-sol-artifact-1",
  "contractName": "Factory",
  "sourceName": "contracts/Minter.sol",
  "abi": [
    {
      "inputs": [
        {
          "internalType": "address",
          "name": "_main",
          "type": "address"
        }
      ],
      "stateMutability": "nonpayable",
      "type": "constructor"
    },
    {
      "inputs": [],
      "name": "claimMintReward",
      "outputs": [],
      "stateMutability": "payable",
      "type": "function"
    },
    {
      "inputs": [],
      "name": "claimRank",
      "outputs": [],
      "stateMutability": "payable",
      "type": "function"
    },
    {
      "inputs": [
        {
          "internalType": "address",
          "name": "user",
          "type": "address"
        }
      ],
      "name": "getMintReward",
      "outputs": [
        {
          "internalType": "uint256[]",
          "name": "",
          "type": "uint256[]"
        }
      ],
      "stateMutability": "view",
      "type": "function"
    },
    {
      "inputs": [
        {
          "internalType": "address",
          "name": "user",
          "type": "address"
        }
      ],
      "name": "getUserMinterInfo",
      "outputs": [
        {
          "components": [
            {
              "internalType": "address",
              "name": "user",
              "type": "address"
            },
            {
              "internalType": "uint256",
              "name": "term",
              "type": "uint256"
            },
            {
              "internalType": "uint256",
              "name": "maturityTs",
              "type": "uint256"
            },
            {
              "internalType": "uint256",
              "name": "rank",
              "type": "uint256"
            },
            {
              "internalType": "uint256",
              "name": "amplifier",
              "type": "uint256"
            },
            {
              "internalType": "uint256",
              "name": "eaaRate",
              "type": "uint256"
            }
          ],
          "internalType": "struct IMain.MintInfo[]",
          "name": "",
          "type": "tuple[]"
        }
      ],
      "stateMutability": "view",
      "type": "function"
    },
    {
      "inputs": [
        {
          "internalType": "address",
          "name": "user",
          "type": "address"
        }
      ],
      "name": "getUserMinters",
      "outputs": [
        {
          "internalType": "address[]",
          "name": "",
          "type": "address[]"
        }
      ],
      "stateMutability": "view",
      "type": "function"
    },
    {
      "inputs": [],
      "name": "main",
      "outputs": [
        {
          "internalType": "address",
          "name": "",
          "type": "address"
        }
      ],
      "stateMutability": "view",
      "type": "function"
    },
    {
      "inputs": [
        {
          "internalType": "uint256",
          "name": "miners",
          "type": "uint256"
        },
        {
          "internalType": "uint256",
          "name": "term",
          "type": "uint256"
        }
      ],
      "name": "minterFactory",
      "outputs": [],
      "stateMutability": "payable",
      "type": "function"
    }
  ],
  "bytecode": "0x608060405234801561001057600080fd5b5060405161140e38038061140e83398101604081905261002f91610054565b600080546001600160a01b0319166001600160a01b0392909216919091179055610082565b600060208284031215610065578081fd5b81516001600160a01b038116811461007b578182fd5b9392505050565b61137d806100916000396000f3fe6080604052600436106100705760003560e01c8063dc2b539f1161004e578063dc2b539f146100bd578063dffeadd0146100d0578063f30bee1814610108578063f4e5063b1461013557600080fd5b806316841ebf14610075578063218c044f1461007f57806352c7f8dc146100b5575b600080fd5b61007d610162565b005b34801561008b57600080fd5b5061009f61009a3660046109eb565b610339565b6040516100ac9190610ad1565b60405180910390f35b61007d6103af565b61007d6100cb366004610ab0565b610591565b3480156100dc57600080fd5b506000546100f0906001600160a01b031681565b6040516001600160a01b0390911681526020016100ac565b34801561011457600080fd5b506101286101233660046109eb565b61068a565b6040516100ac9190610b1e565b34801561014157600080fd5b506101556101503660046109eb565b61085c565b6040516100ac9190610b9f565b33600090815260016020526040812054905b81811015610335573360009081526001602052604081208054839081106101ab57634e487b7160e01b600052603260045260246000fd5b9060005260206000200160009054906101000a90046001600160a01b031690506000816001600160a01b03166382a86e2c6040518163ffffffff1660e01b815260040160c06040518083038186803b15801561020657600080fd5b505afa15801561021a573d6000803e3d6000fd5b505050506040513d601f19601f8201168201806040525081019061023e9190610a0e565b604081015190915015610252575050610325565b816001600160a01b0316639ff054df836001600160a01b031663a10ffbed6040518163ffffffff1660e01b815260040160206040518083038186803b15801561029a57600080fd5b505afa1580156102ae573d6000803e3d6000fd5b505050506040513d601f19601f820116820180604052508101906102d29190610a98565b6040518263ffffffff1660e01b81526004016102f091815260200190565b600060405180830381600087803b15801561030a57600080fd5b505af115801561031e573d6000803e3d6000fd5b5050505050505b61032e81610bd7565b9050610174565b5050565b6001600160a01b0381166000908152600160209081526040918290208054835181840281018401909452808452606093928301828280156103a357602002820191906000526020600020905b81546001600160a01b03168152600190910190602001808311610385575b50505050509050919050565b60008060009054906101000a90046001600160a01b03166001600160a01b031663ddca3f436040518163ffffffff1660e01b8152600401602060405180830381600087803b15801561040057600080fd5b505af1158015610414573d6000803e3d6000fd5b505050506040513d601f19601f820116820180604052508101906104389190610a98565b336000908152600160205260408120549192505b8181101561058c5733600090815260016020526040812080548390811061048357634e487b7160e01b600052603260045260246000fd5b9060005260206000200160009054906101000a90046001600160a01b031690506000816001600160a01b03166382a86e2c6040518163ffffffff1660e01b815260040160c06040518083038186803b1580156104de57600080fd5b505afa1580156104f2573d6000803e3d6000fd5b505050506040513d601f19601f820116820180604052508101906105169190610a0e565b9050806040015142111561057957816001600160a01b03166352c7f8dc866040518263ffffffff1660e01b81526004016000604051808303818588803b15801561055f57600080fd5b505af1158015610573573d6000803e3d6000fd5b50505050505b50508061058590610bd7565b905061044c565b505050565b60005b8281101561058c576000805460405133916001600160a01b0316906105b8906109ce565b6001600160a01b03928316815291166020820152604001604051809103906000f0801580156105eb573d6000803e3d6000fd5b5033600090815260016020818152604080842080549384018155845292200180546001600160a01b0319166001600160a01b0384169081179091559051639ff054df60e01b81526004810186905291925090639ff054df90602401600060405180830381600087803b15801561066057600080fd5b505af1158015610674573d6000803e3d6000fd5b50505050508061068390610bd7565b9050610594565b6001600160a01b0381166000908152600160205260408120546060918167ffffffffffffffff8111156106cd57634e487b7160e01b600052604160045260246000fd5b60405190808252806020026020018201604052801561074057816020015b61072d6040518060c0016040528060006001600160a01b0316815260200160008152602001600081526020016000815260200160008152602001600081525090565b8152602001906001900390816106eb5790505b50905060005b82811015610854576001600160a01b038516600090815260016020526040812080548390811061078657634e487b7160e01b600052603260045260246000fd5b9060005260206000200160009054906101000a90046001600160a01b03169050806001600160a01b03166382a86e2c6040518163ffffffff1660e01b815260040160c06040518083038186803b1580156107df57600080fd5b505afa1580156107f3573d6000803e3d6000fd5b505050506040513d601f19601f820116820180604052508101906108179190610a0e565b83838151811061083757634e487b7160e01b600052603260045260246000fd5b6020026020010181905250508061084d90610bd7565b9050610746565b509392505050565b6001600160a01b0381166000908152600160205260408120546060918167ffffffffffffffff81111561089f57634e487b7160e01b600052604160045260246000fd5b6040519080825280602002602001820160405280156108c8578160200160208202803683370190505b50905060005b82811015610854576001600160a01b038516600090815260016020526040812080548390811061090e57634e487b7160e01b600052603260045260246000fd5b600091825260209182902001546040805163c833245160e01b815290516001600160a01b039092169350839263c833245192600480840193829003018186803b15801561095a57600080fd5b505afa15801561096e573d6000803e3d6000fd5b505050506040513d601f19601f820116820180604052508101906109929190610a98565b8383815181106109b257634e487b7160e01b600052603260045260246000fd5b6020908102919091010152506109c781610bd7565b90506108ce565b61073180610c1783390190565b80516109e681610bfe565b919050565b6000602082840312156109fc578081fd5b8135610a0781610bfe565b9392505050565b600060c08284031215610a1f578081fd5b60405160c0810181811067ffffffffffffffff82111715610a4e57634e487b7160e01b83526041600452602483fd5b604052610a5a836109db565b81526020830151602082015260408301516040820152606083015160608201526080830151608082015260a083015160a08201528091505092915050565b600060208284031215610aa9578081fd5b5051919050565b60008060408385031215610ac2578081fd5b50508035926020909101359150565b6020808252825182820181905260009190848201906040850190845b81811015610b125783516001600160a01b031683529284019291840191600101610aed565b50909695505050505050565b602080825282518282018190526000919060409081850190868401855b82811015610b9257815180516001600160a01b0316855286810151878601528581015186860152606080820151908601526080808201519086015260a0908101519085015260c09093019290850190600101610b3b565b5091979650505050505050565b6020808252825182820181905260009190848201906040850190845b81811015610b1257835183529284019291840191600101610bbb565b6000600019821415610bf757634e487b7160e01b81526011600452602481fd5b5060010190565b6001600160a01b0381168114610c1357600080fd5b5056fe608060405234801561001057600080fd5b5060405161073138038061073183398101604081905261002f9161007c565b600080546001600160a01b039384166001600160a01b031991821617909155600180549290931691161790556100ae565b80516001600160a01b038116811461007757600080fd5b919050565b6000806040838503121561008e578182fd5b61009783610060565b91506100a560208401610060565b90509250929050565b610674806100bd6000396000f3fe6080604052600436106100555760003560e01c806352c7f8dc1461005a57806382a86e2c146100645780638da5cb5b146100d25780639ff054df1461010a578063a10ffbed1461012a578063c83324511461014e575b600080fd5b610062610163565b005b34801561007057600080fd5b50610079610357565b6040516100c9919081516001600160a01b031681526020808301519082015260408083015190820152606080830151908201526080808301519082015260a0918201519181019190915260c00190565b60405180910390f35b3480156100de57600080fd5b506000546100f2906001600160a01b031681565b6040516001600160a01b0390911681526020016100c9565b34801561011657600080fd5b5061006261012536600461060e565b610419565b34801561013657600080fd5b5061014060025481565b6040519081526020016100c9565b34801561015a57600080fd5b5061014061047f565b6001546040805163ddca3f4360e01b815290516000926001600160a01b03169163ddca3f4391600480830192602092919082900301818787803b1580156101a957600080fd5b505af11580156101bd573d6000803e3d6000fd5b505050506040513d601f19601f820116820180604052508101906101e19190610626565b9050600160009054906101000a90046001600160a01b03166001600160a01b03166352c7f8dc826040518263ffffffff1660e01b81526004016000604051808303818588803b15801561023357600080fd5b505af1158015610247573d6000803e3d6000fd5b50506001546000546040516370a0823160e01b81523060048201526001600160a01b03928316955063a9059cbb94509116915083906370a082319060240160206040518083038186803b15801561029d57600080fd5b505afa1580156102b1573d6000803e3d6000fd5b505050506040513d601f19601f820116820180604052508101906102d59190610626565b6040516001600160e01b031960e085901b1681526001600160a01b0390921660048301526024820152604401602060405180830381600087803b15801561031b57600080fd5b505af115801561032f573d6000803e3d6000fd5b505050506040513d601f19601f82011682018060405250810190610353919061055d565b5050565b6103996040518060c0016040528060006001600160a01b0316815260200160008152602001600081526020016000815260200160008152602001600081525090565b60015460405163df28233160e01b81523060048201526001600160a01b039091169063df2823319060240160c06040518083038186803b1580156103dc57600080fd5b505afa1580156103f0573d6000803e3d6000fd5b505050506040513d601f19601f820116820180604052508101906104149190610584565b905090565b6002819055600154604051639ff054df60e01b8152600481018390526001600160a01b0390911690639ff054df90602401600060405180830381600087803b15801561046457600080fd5b505af1158015610478573d6000803e3d6000fd5b5050505050565b60008061048a610357565b60015460608201516020830151604080850151608086015160a087015192516311046b4160e21b8152600481019590955260248501939093526044840152606483019190915260848201529192506001600160a01b031690634411ad049060a40160206040518083038186803b15801561050357600080fd5b505afa158015610517573d6000803e3d6000fd5b505050506040513d601f19601f8201168201806040525081019061053b9190610626565b91505090565b80516001600160a01b038116811461055857600080fd5b919050565b60006020828403121561056e578081fd5b8151801515811461057d578182fd5b9392505050565b600060c08284031215610595578081fd5b60405160c0810181811067ffffffffffffffff821117156105c457634e487b7160e01b83526041600452602483fd5b6040526105d083610541565b81526020830151602082015260408301516040820152606083015160608201526080830151608082015260a083015160a08201528091505092915050565b60006020828403121561061f578081fd5b5035919050565b600060208284031215610637578081fd5b505191905056fea2646970667358221220a9ac851c8cb4e65f6ba96db27b1ae1387b1cb2956a1d21481a46595d29f9bf0364736f6c63430008040033a2646970667358221220183fc3d33c6f6a4b20aa8e97cc7be4efe9f535464a5d2bca0e1e2876e695e13564736f6c63430008040033",
  "linkReferences": {},
  "deployedLinkReferences": {}
}