{
  "_format": "hh-sol-artifact-1",
  "contractName": "Factory",
  "sourceName": "contracts/Minter.sol",
  "abi": [
    {
      "inputs": [
        {
          "internalType": "address",
          "name": "_main",
          "type": "address"
        }
      ],
      "stateMutability": "nonpayable",
      "type": "constructor"
    },
    {
      "inputs": [],
      "name": "claimMintReward",
      "outputs": [],
      "stateMutability": "payable",
      "type": "function"
    },
    {
      "inputs": [],
      "name": "claimRank",
      "outputs": [],
      "stateMutability": "payable",
      "type": "function"
    },
    {
      "inputs": [],
      "name": "getTimestamp",
      "outputs": [
        {
          "internalType": "uint256",
          "name": "",
          "type": "uint256"
        }
      ],
      "stateMutability": "view",
      "type": "function"
    },
    {
      "inputs": [
        {
          "internalType": "address",
          "name": "user",
          "type": "address"
        }
      ],
      "name": "getUserMinterInfo",
      "outputs": [
        {
          "components": [
            {
              "internalType": "address",
              "name": "user",
              "type": "address"
            },
            {
              "internalType": "uint256",
              "name": "term",
              "type": "uint256"
            },
            {
              "internalType": "uint256",
              "name": "maturityTs",
              "type": "uint256"
            },
            {
              "internalType": "uint256",
              "name": "rank",
              "type": "uint256"
            },
            {
              "internalType": "uint256",
              "name": "amplifier",
              "type": "uint256"
            },
            {
              "internalType": "uint256",
              "name": "eaaRate",
              "type": "uint256"
            }
          ],
          "internalType": "struct IMain.MintInfo[]",
          "name": "",
          "type": "tuple[]"
        }
      ],
      "stateMutability": "view",
      "type": "function"
    },
    {
      "inputs": [
        {
          "internalType": "address",
          "name": "user",
          "type": "address"
        }
      ],
      "name": "getUserMinters",
      "outputs": [
        {
          "internalType": "address[]",
          "name": "",
          "type": "address[]"
        }
      ],
      "stateMutability": "view",
      "type": "function"
    },
    {
      "inputs": [],
      "name": "main",
      "outputs": [
        {
          "internalType": "address",
          "name": "",
          "type": "address"
        }
      ],
      "stateMutability": "view",
      "type": "function"
    },
    {
      "inputs": [
        {
          "internalType": "uint256",
          "name": "miners",
          "type": "uint256"
        },
        {
          "internalType": "uint256",
          "name": "term",
          "type": "uint256"
        }
      ],
      "name": "minterFactory",
      "outputs": [],
      "stateMutability": "payable",
      "type": "function"
    }
  ],
  "bytecode": "0x608060405234801561001057600080fd5b506040516110db3803806110db83398101604081905261002f91610054565b600080546001600160a01b0319166001600160a01b0392909216919091179055610084565b60006020828403121561006657600080fd5b81516001600160a01b038116811461007d57600080fd5b9392505050565b611048806100936000396000f3fe6080604052600436106100605760003560e01c806316841ebf14610065578063188ec3561461006f578063218c044f1461008f57806352c7f8dc146100bc578063dc2b539f146100c4578063dffeadd0146100d7578063f30bee181461010f575b600080fd5b61006d61013c565b005b34801561007b57600080fd5b506040514281526020015b60405180910390f35b34801561009b57600080fd5b506100af6100aa3660046107c9565b6102e7565b60405161008691906107ed565b61006d61035d565b61006d6100d236600461083a565b610513565b3480156100e357600080fd5b506000546100f7906001600160a01b031681565b6040516001600160a01b039091168152602001610086565b34801561011b57600080fd5b5061012f61012a3660046107c9565b61060c565b604051610086919061085c565b33600090815260016020526040812054905b818110156102e357336000908152600160205260408120805483908110610177576101776108dd565b9060005260206000200160009054906101000a90046001600160a01b031690506000816001600160a01b03166382a86e2c6040518163ffffffff1660e01b815260040160c060405180830381865afa1580156101d7573d6000803e3d6000fd5b505050506040513d601f19601f820116820180604052508101906101fb9190610919565b60408101519091501561020f5750506102d3565b816001600160a01b0316639ff054df836001600160a01b031663a10ffbed6040518163ffffffff1660e01b8152600401602060405180830381865afa15801561025c573d6000803e3d6000fd5b505050506040513d601f19601f8201168201806040525081019061028091906109a5565b6040518263ffffffff1660e01b815260040161029e91815260200190565b600060405180830381600087803b1580156102b857600080fd5b505af11580156102cc573d6000803e3d6000fd5b5050505050505b6102dc816109be565b905061014e565b5050565b6001600160a01b03811660009081526001602090815260409182902080548351818402810184019094528084526060939283018282801561035157602002820191906000526020600020905b81546001600160a01b03168152600190910190602001808311610333575b50505050509050919050565b60008060009054906101000a90046001600160a01b03166001600160a01b031663ddca3f436040518163ffffffff1660e01b81526004016020604051808303816000875af11580156103b3573d6000803e3d6000fd5b505050506040513d601f19601f820116820180604052508101906103d791906109a5565b336000908152600160205260408120549192505b8181101561050e57336000908152600160205260408120805483908110610414576104146108dd565b9060005260206000200160009054906101000a90046001600160a01b031690506000816001600160a01b03166382a86e2c6040518163ffffffff1660e01b815260040160c060405180830381865afa158015610474573d6000803e3d6000fd5b505050506040513d601f19601f820116820180604052508101906104989190610919565b905080604001514211156104fb57816001600160a01b03166352c7f8dc866040518263ffffffff1660e01b81526004016000604051808303818588803b1580156104e157600080fd5b505af11580156104f5573d6000803e3d6000fd5b50505050505b505080610507906109be565b90506103eb565b505050565b60005b8281101561050e576000805460405133916001600160a01b03169061053a906107a4565b6001600160a01b03928316815291166020820152604001604051809103906000f08015801561056d573d6000803e3d6000fd5b5033600090815260016020818152604080842080549384018155845292200180546001600160a01b0319166001600160a01b0384169081179091559051639ff054df60e01b81526004810186905291925090639ff054df90602401600060405180830381600087803b1580156105e257600080fd5b505af11580156105f6573d6000803e3d6000fd5b505050505080610605906109be565b9050610516565b6001600160a01b038116600090815260016020526040812054606091816001600160401b03811115610640576106406108f3565b6040519080825280602002602001820160405280156106b357816020015b6106a06040518060c0016040528060006001600160a01b0316815260200160008152602001600081526020016000815260200160008152602001600081525090565b81526020019060019003908161065e5790505b50905060005b8281101561079c576001600160a01b03851660009081526001602052604081208054839081106106eb576106eb6108dd565b9060005260206000200160009054906101000a90046001600160a01b03169050806001600160a01b03166382a86e2c6040518163ffffffff1660e01b815260040160c060405180830381865afa158015610749573d6000803e3d6000fd5b505050506040513d601f19601f8201168201806040525081019061076d9190610919565b83838151811061077f5761077f6108dd565b60200260200101819052505080610795906109be565b90506106b9565b509392505050565b61062d806109e683390190565b6001600160a01b03811681146107c657600080fd5b50565b6000602082840312156107db57600080fd5b81356107e6816107b1565b9392505050565b6020808252825182820181905260009190848201906040850190845b8181101561082e5783516001600160a01b031683529284019291840191600101610809565b50909695505050505050565b6000806040838503121561084d57600080fd5b50508035926020909101359150565b602080825282518282018190526000919060409081850190868401855b828110156108d057815180516001600160a01b0316855286810151878601528581015186860152606080820151908601526080808201519086015260a0908101519085015260c09093019290850190600101610879565b5091979650505050505050565b634e487b7160e01b600052603260045260246000fd5b634e487b7160e01b600052604160045260246000fd5b8051610914816107b1565b919050565b600060c0828403121561092b57600080fd5b60405160c081016001600160401b038111828210171561095b57634e487b7160e01b600052604160045260246000fd5b60405261096783610909565b81526020830151602082015260408301516040820152606083015160608201526080830151608082015260a083015160a08201528091505092915050565b6000602082840312156109b757600080fd5b5051919050565b6000600182016109de57634e487b7160e01b600052601160045260246000fd5b506001019056fe608060405234801561001057600080fd5b5060405161062d38038061062d83398101604081905261002f9161007c565b600080546001600160a01b039384166001600160a01b031991821617909155600180549290931691161790556100af565b80516001600160a01b038116811461007757600080fd5b919050565b6000806040838503121561008f57600080fd5b61009883610060565b91506100a660208401610060565b90509250929050565b61056f806100be6000396000f3fe60806040526004361061004a5760003560e01c806352c7f8dc1461004f57806382a86e2c146100595780638da5cb5b146100c75780639ff054df146100f4578063a10ffbed14610114575b600080fd5b610057610138565b005b34801561006557600080fd5b5061006e610304565b6040516100be919081516001600160a01b031681526020808301519082015260408083015190820152606080830151908201526080808301519082015260a0918201519181019190915260c00190565b60405180910390f35b3480156100d357600080fd5b506000546100e7906001600160a01b031681565b6040516100be9190610422565b34801561010057600080fd5b5061005761010f366004610436565b6103bc565b34801561012057600080fd5b5061012a60025481565b6040519081526020016100be565b6001546040805163ddca3f4360e01b815290516000926001600160a01b03169163ddca3f43916004808301926020929190829003018187875af1158015610183573d6000803e3d6000fd5b505050506040513d601f19601f820116820180604052508101906101a7919061044f565b9050600160009054906101000a90046001600160a01b03166001600160a01b03166352c7f8dc826040518263ffffffff1660e01b81526004016000604051808303818588803b1580156101f957600080fd5b505af115801561020d573d6000803e3d6000fd5b50506001546000546040516370a0823160e01b81526001600160a01b03928316955063a9059cbb94509116915083906370a0823190610250903090600401610422565b602060405180830381865afa15801561026d573d6000803e3d6000fd5b505050506040513d601f19601f82011682018060405250810190610291919061044f565b6040516001600160e01b031960e085901b1681526001600160a01b03909216600483015260248201526044016020604051808303816000875af11580156102dc573d6000803e3d6000fd5b505050506040513d601f19601f820116820180604052508101906103009190610468565b5050565b6103466040518060c0016040528060006001600160a01b0316815260200160008152602001600081526020016000815260200160008152602001600081525090565b60015460405163df28233160e01b81526001600160a01b039091169063df28233190610376903090600401610422565b60c060405180830381865afa158015610393573d6000803e3d6000fd5b505050506040513d601f19601f820116820180604052508101906103b791906104ad565b905090565b6002819055600154604051639ff054df60e01b8152600481018390526001600160a01b0390911690639ff054df90602401600060405180830381600087803b15801561040757600080fd5b505af115801561041b573d6000803e3d6000fd5b5050505050565b6001600160a01b0391909116815260200190565b60006020828403121561044857600080fd5b5035919050565b60006020828403121561046157600080fd5b5051919050565b60006020828403121561047a57600080fd5b8151801515811461048a57600080fd5b9392505050565b80516001600160a01b03811681146104a857600080fd5b919050565b600060c082840312156104bf57600080fd5b60405160c081016001600160401b03811182821017156104ef57634e487b7160e01b600052604160045260246000fd5b6040526104fb83610491565b81526020830151602082015260408301516040820152606083015160608201526080830151608082015260a083015160a0820152809150509291505056fea2646970667358221220599f303a7514ce27ab68e739be3f323391d2c0e72eb7e1dae66e717d9d4e36df64736f6c63430008110033a264697066735822122064ce074858c9d67363bf8521c0152e174d01ff9030df975601564fe7147c4cf764736f6c63430008110033",
  "linkReferences": {},
  "deployedLinkReferences": {}
}