{
  "_format": "hh-sol-artifact-1",
  "contractName": "Minter",
  "sourceName": "contracts/Minter.sol",
  "abi": [
    {
      "inputs": [
        {
          "internalType": "address",
          "name": "user",
          "type": "address"
        },
        {
          "internalType": "address",
          "name": "_main",
          "type": "address"
        }
      ],
      "stateMutability": "nonpayable",
      "type": "constructor"
    },
    {
      "inputs": [],
      "name": "claimMintReward",
      "outputs": [],
      "stateMutability": "payable",
      "type": "function"
    },
    {
      "inputs": [
        {
          "internalType": "uint256",
          "name": "_term",
          "type": "uint256"
        }
      ],
      "name": "claimRank",
      "outputs": [],
      "stateMutability": "payable",
      "type": "function"
    },
    {
      "inputs": [],
      "name": "getUserMintInfo",
      "outputs": [
        {
          "components": [
            {
              "internalType": "address",
              "name": "user",
              "type": "address"
            },
            {
              "internalType": "uint256",
              "name": "term",
              "type": "uint256"
            },
            {
              "internalType": "uint256",
              "name": "maturityTs",
              "type": "uint256"
            },
            {
              "internalType": "uint256",
              "name": "rank",
              "type": "uint256"
            },
            {
              "internalType": "uint256",
              "name": "amplifier",
              "type": "uint256"
            },
            {
              "internalType": "uint256",
              "name": "eaaRate",
              "type": "uint256"
            }
          ],
          "internalType": "struct IMain.MintInfo",
          "name": "",
          "type": "tuple"
        }
      ],
      "stateMutability": "view",
      "type": "function"
    },
    {
      "inputs": [],
      "name": "owner",
      "outputs": [
        {
          "internalType": "address",
          "name": "",
          "type": "address"
        }
      ],
      "stateMutability": "view",
      "type": "function"
    },
    {
      "inputs": [],
      "name": "term",
      "outputs": [
        {
          "internalType": "uint256",
          "name": "",
          "type": "uint256"
        }
      ],
      "stateMutability": "view",
      "type": "function"
    }
  ],
  "bytecode": "0x608060405234801561001057600080fd5b5060405161068538038061068583398101604081905261002f9161007c565b600080546001600160a01b039384166001600160a01b031991821617909155600180549290931691161790556100af565b80516001600160a01b038116811461007757600080fd5b919050565b6000806040838503121561008f57600080fd5b61009883610060565b91506100a660208401610060565b90509250929050565b6105c7806100be6000396000f3fe60806040526004361061004a5760003560e01c806352c7f8dc1461004f57806382a86e2c146100595780638da5cb5b146100c75780639ff054df146100ff578063a10ffbed14610112575b600080fd5b610057610136565b005b34801561006557600080fd5b5061006e6102fd565b6040516100be919081516001600160a01b031681526020808301519082015260408083015190820152606080830151908201526080808301519082015260a0918201519181019190915260c00190565b60405180910390f35b3480156100d357600080fd5b506000546100e7906001600160a01b031681565b6040516001600160a01b0390911681526020016100be565b61005761010d36600461048d565b6103b0565b34801561011e57600080fd5b5061012860025481565b6040519081526020016100be565b6001546040805163ddca3f4360e01b815290516000926001600160a01b03169163ddca3f43916004808301926020929190829003018187875af1158015610181573d6000803e3d6000fd5b505050506040513d601f19601f820116820180604052508101906101a591906104a6565b9050600160009054906101000a90046001600160a01b03166001600160a01b03166352c7f8dc826040518263ffffffff1660e01b81526004016000604051808303818588803b1580156101f757600080fd5b505af115801561020b573d6000803e3d6000fd5b50506001546000546040516370a0823160e01b81523060048201526001600160a01b03928316955063a9059cbb94509116915083906370a0823190602401602060405180830381865afa158015610266573d6000803e3d6000fd5b505050506040513d601f19601f8201168201806040525081019061028a91906104a6565b6040516001600160e01b031960e085901b1681526001600160a01b03909216600483015260248201526044016020604051808303816000875af11580156102d5573d6000803e3d6000fd5b505050506040513d601f19601f820116820180604052508101906102f991906104bf565b5050565b61033f6040518060c0016040528060006001600160a01b0316815260200160008152602001600081526020016000815260200160008152602001600081525090565b60015460405163df28233160e01b81523060048201526001600160a01b039091169063df2823319060240160c060405180830381865afa158015610387573d6000803e3d6000fd5b505050506040513d601f19601f820116820180604052508101906103ab9190610504565b905090565b60028190556001546040805163ddca3f4360e01b815290516000926001600160a01b03169163ddca3f43916004808301926020929190829003018187875af1158015610400573d6000803e3d6000fd5b505050506040513d601f19601f8201168201806040525081019061042491906104a6565b600154600254604051639ff054df60e01b815260048101919091529192506001600160a01b031690639ff054df9083906024016000604051808303818588803b15801561047057600080fd5b505af1158015610484573d6000803e3d6000fd5b50505050505050565b60006020828403121561049f57600080fd5b5035919050565b6000602082840312156104b857600080fd5b5051919050565b6000602082840312156104d157600080fd5b815180151581146104e157600080fd5b9392505050565b80516001600160a01b03811681146104ff57600080fd5b919050565b600060c0828403121561051657600080fd5b60405160c0810181811067ffffffffffffffff8211171561054757634e487b7160e01b600052604160045260246000fd5b604052610553836104e8565b81526020830151602082015260408301516040820152606083015160608201526080830151608082015260a083015160a0820152809150509291505056fea26469706673582212208c528cdb9038ed693bb5a420cbef8fc19fbb95bb8edf388e1291410fbba9fe6d64736f6c63430008110033",
  "linkReferences": {},
  "deployedLinkReferences": {}
}