{
  "_format": "hh-sol-artifact-1",
  "contractName": "Minter",
  "sourceName": "contracts/Minter.sol",
  "abi": [
    {
      "inputs": [
        {
          "internalType": "address",
          "name": "user",
          "type": "address"
        },
        {
          "internalType": "address",
          "name": "_main",
          "type": "address"
        }
      ],
      "stateMutability": "nonpayable",
      "type": "constructor"
    },
    {
      "inputs": [],
      "name": "claimMintReward",
      "outputs": [],
      "stateMutability": "payable",
      "type": "function"
    },
    {
      "inputs": [
        {
          "internalType": "uint256",
          "name": "_term",
          "type": "uint256"
        }
      ],
      "name": "claimRank",
      "outputs": [],
      "stateMutability": "nonpayable",
      "type": "function"
    },
    {
      "inputs": [],
      "name": "getMintReward",
      "outputs": [
        {
          "internalType": "uint256",
          "name": "",
          "type": "uint256"
        }
      ],
      "stateMutability": "view",
      "type": "function"
    },
    {
      "inputs": [],
      "name": "getUserMintInfo",
      "outputs": [
        {
          "components": [
            {
              "internalType": "address",
              "name": "user",
              "type": "address"
            },
            {
              "internalType": "uint256",
              "name": "term",
              "type": "uint256"
            },
            {
              "internalType": "uint256",
              "name": "maturityTs",
              "type": "uint256"
            },
            {
              "internalType": "uint256",
              "name": "rank",
              "type": "uint256"
            },
            {
              "internalType": "uint256",
              "name": "amplifier",
              "type": "uint256"
            },
            {
              "internalType": "uint256",
              "name": "eaaRate",
              "type": "uint256"
            }
          ],
          "internalType": "struct IMain.MintInfo",
          "name": "",
          "type": "tuple"
        }
      ],
      "stateMutability": "view",
      "type": "function"
    },
    {
      "inputs": [],
      "name": "owner",
      "outputs": [
        {
          "internalType": "address",
          "name": "",
          "type": "address"
        }
      ],
      "stateMutability": "view",
      "type": "function"
    },
    {
      "inputs": [],
      "name": "term",
      "outputs": [
        {
          "internalType": "uint256",
          "name": "",
          "type": "uint256"
        }
      ],
      "stateMutability": "view",
      "type": "function"
    }
  ],
  "bytecode": "0x608060405234801561001057600080fd5b5060405161073138038061073183398101604081905261002f9161007c565b600080546001600160a01b039384166001600160a01b031991821617909155600180549290931691161790556100ae565b80516001600160a01b038116811461007757600080fd5b919050565b6000806040838503121561008e578182fd5b61009783610060565b91506100a560208401610060565b90509250929050565b610674806100bd6000396000f3fe6080604052600436106100555760003560e01c806352c7f8dc1461005a57806382a86e2c146100645780638da5cb5b146100d25780639ff054df1461010a578063a10ffbed1461012a578063c83324511461014e575b600080fd5b610062610163565b005b34801561007057600080fd5b50610079610357565b6040516100c9919081516001600160a01b031681526020808301519082015260408083015190820152606080830151908201526080808301519082015260a0918201519181019190915260c00190565b60405180910390f35b3480156100de57600080fd5b506000546100f2906001600160a01b031681565b6040516001600160a01b0390911681526020016100c9565b34801561011657600080fd5b5061006261012536600461060e565b610419565b34801561013657600080fd5b5061014060025481565b6040519081526020016100c9565b34801561015a57600080fd5b5061014061047f565b6001546040805163ddca3f4360e01b815290516000926001600160a01b03169163ddca3f4391600480830192602092919082900301818787803b1580156101a957600080fd5b505af11580156101bd573d6000803e3d6000fd5b505050506040513d601f19601f820116820180604052508101906101e19190610626565b9050600160009054906101000a90046001600160a01b03166001600160a01b03166352c7f8dc826040518263ffffffff1660e01b81526004016000604051808303818588803b15801561023357600080fd5b505af1158015610247573d6000803e3d6000fd5b50506001546000546040516370a0823160e01b81523060048201526001600160a01b03928316955063a9059cbb94509116915083906370a082319060240160206040518083038186803b15801561029d57600080fd5b505afa1580156102b1573d6000803e3d6000fd5b505050506040513d601f19601f820116820180604052508101906102d59190610626565b6040516001600160e01b031960e085901b1681526001600160a01b0390921660048301526024820152604401602060405180830381600087803b15801561031b57600080fd5b505af115801561032f573d6000803e3d6000fd5b505050506040513d601f19601f82011682018060405250810190610353919061055d565b5050565b6103996040518060c0016040528060006001600160a01b0316815260200160008152602001600081526020016000815260200160008152602001600081525090565b60015460405163df28233160e01b81523060048201526001600160a01b039091169063df2823319060240160c06040518083038186803b1580156103dc57600080fd5b505afa1580156103f0573d6000803e3d6000fd5b505050506040513d601f19601f820116820180604052508101906104149190610584565b905090565b6002819055600154604051639ff054df60e01b8152600481018390526001600160a01b0390911690639ff054df90602401600060405180830381600087803b15801561046457600080fd5b505af1158015610478573d6000803e3d6000fd5b5050505050565b60008061048a610357565b60015460608201516020830151604080850151608086015160a087015192516311046b4160e21b8152600481019590955260248501939093526044840152606483019190915260848201529192506001600160a01b031690634411ad049060a40160206040518083038186803b15801561050357600080fd5b505afa158015610517573d6000803e3d6000fd5b505050506040513d601f19601f8201168201806040525081019061053b9190610626565b91505090565b80516001600160a01b038116811461055857600080fd5b919050565b60006020828403121561056e578081fd5b8151801515811461057d578182fd5b9392505050565b600060c08284031215610595578081fd5b60405160c0810181811067ffffffffffffffff821117156105c457634e487b7160e01b83526041600452602483fd5b6040526105d083610541565b81526020830151602082015260408301516040820152606083015160608201526080830151608082015260a083015160a08201528091505092915050565b60006020828403121561061f578081fd5b5035919050565b600060208284031215610637578081fd5b505191905056fea264697066735822122095359d85b309432ca3b11b74ef5435310c6d6ef9216b00c8229c358a29a930fa64736f6c63430008040033",
  "linkReferences": {},
  "deployedLinkReferences": {}
}