{
  "_format": "hh-sol-artifact-1",
  "contractName": "Minter",
  "sourceName": "contracts/Minter.sol",
  "abi": [
    {
      "inputs": [
        {
          "internalType": "address",
          "name": "user",
          "type": "address"
        },
        {
          "internalType": "address",
          "name": "_main",
          "type": "address"
        }
      ],
      "stateMutability": "nonpayable",
      "type": "constructor"
    },
    {
      "inputs": [],
      "name": "claimMintReward",
      "outputs": [],
      "stateMutability": "payable",
      "type": "function"
    },
    {
      "inputs": [
        {
          "internalType": "uint256",
          "name": "_term",
          "type": "uint256"
        }
      ],
      "name": "claimRank",
      "outputs": [],
      "stateMutability": "nonpayable",
      "type": "function"
    },
    {
      "inputs": [],
      "name": "getUserMintInfo",
      "outputs": [
        {
          "components": [
            {
              "internalType": "address",
              "name": "user",
              "type": "address"
            },
            {
              "internalType": "uint256",
              "name": "term",
              "type": "uint256"
            },
            {
              "internalType": "uint256",
              "name": "maturityTs",
              "type": "uint256"
            },
            {
              "internalType": "uint256",
              "name": "rank",
              "type": "uint256"
            },
            {
              "internalType": "uint256",
              "name": "amplifier",
              "type": "uint256"
            },
            {
              "internalType": "uint256",
              "name": "eaaRate",
              "type": "uint256"
            }
          ],
          "internalType": "struct IMain.MintInfo",
          "name": "",
          "type": "tuple"
        }
      ],
      "stateMutability": "view",
      "type": "function"
    },
    {
      "inputs": [],
      "name": "owner",
      "outputs": [
        {
          "internalType": "address",
          "name": "",
          "type": "address"
        }
      ],
      "stateMutability": "view",
      "type": "function"
    },
    {
      "inputs": [],
      "name": "term",
      "outputs": [
        {
          "internalType": "uint256",
          "name": "",
          "type": "uint256"
        }
      ],
      "stateMutability": "view",
      "type": "function"
    }
  ],
  "bytecode": "0x608060405234801561001057600080fd5b5060405161062d38038061062d83398101604081905261002f9161007c565b600080546001600160a01b039384166001600160a01b031991821617909155600180549290931691161790556100af565b80516001600160a01b038116811461007757600080fd5b919050565b6000806040838503121561008f57600080fd5b61009883610060565b91506100a660208401610060565b90509250929050565b61056f806100be6000396000f3fe60806040526004361061004a5760003560e01c806352c7f8dc1461004f57806382a86e2c146100595780638da5cb5b146100c75780639ff054df146100f4578063a10ffbed14610114575b600080fd5b610057610138565b005b34801561006557600080fd5b5061006e610304565b6040516100be919081516001600160a01b031681526020808301519082015260408083015190820152606080830151908201526080808301519082015260a0918201519181019190915260c00190565b60405180910390f35b3480156100d357600080fd5b506000546100e7906001600160a01b031681565b6040516100be9190610422565b34801561010057600080fd5b5061005761010f366004610436565b6103bc565b34801561012057600080fd5b5061012a60025481565b6040519081526020016100be565b6001546040805163ddca3f4360e01b815290516000926001600160a01b03169163ddca3f43916004808301926020929190829003018187875af1158015610183573d6000803e3d6000fd5b505050506040513d601f19601f820116820180604052508101906101a7919061044f565b9050600160009054906101000a90046001600160a01b03166001600160a01b03166352c7f8dc826040518263ffffffff1660e01b81526004016000604051808303818588803b1580156101f957600080fd5b505af115801561020d573d6000803e3d6000fd5b50506001546000546040516370a0823160e01b81526001600160a01b03928316955063a9059cbb94509116915083906370a0823190610250903090600401610422565b602060405180830381865afa15801561026d573d6000803e3d6000fd5b505050506040513d601f19601f82011682018060405250810190610291919061044f565b6040516001600160e01b031960e085901b1681526001600160a01b03909216600483015260248201526044016020604051808303816000875af11580156102dc573d6000803e3d6000fd5b505050506040513d601f19601f820116820180604052508101906103009190610468565b5050565b6103466040518060c0016040528060006001600160a01b0316815260200160008152602001600081526020016000815260200160008152602001600081525090565b60015460405163df28233160e01b81526001600160a01b039091169063df28233190610376903090600401610422565b60c060405180830381865afa158015610393573d6000803e3d6000fd5b505050506040513d601f19601f820116820180604052508101906103b791906104ad565b905090565b6002819055600154604051639ff054df60e01b8152600481018390526001600160a01b0390911690639ff054df90602401600060405180830381600087803b15801561040757600080fd5b505af115801561041b573d6000803e3d6000fd5b5050505050565b6001600160a01b0391909116815260200190565b60006020828403121561044857600080fd5b5035919050565b60006020828403121561046157600080fd5b5051919050565b60006020828403121561047a57600080fd5b8151801515811461048a57600080fd5b9392505050565b80516001600160a01b03811681146104a857600080fd5b919050565b600060c082840312156104bf57600080fd5b60405160c081016001600160401b03811182821017156104ef57634e487b7160e01b600052604160045260246000fd5b6040526104fb83610491565b81526020830151602082015260408301516040820152606083015160608201526080830151608082015260a083015160a0820152809150509291505056fea2646970667358221220599f303a7514ce27ab68e739be3f323391d2c0e72eb7e1dae66e717d9d4e36df64736f6c63430008110033",
  "linkReferences": {},
  "deployedLinkReferences": {}
}