{
  "_format": "hh-sol-artifact-1",
  "contractName": "Math",
  "sourceName": "contracts/Math.sol",
  "abi": [
    {
      "inputs": [
        {
          "internalType": "uint256",
          "name": "x",
          "type": "uint256"
        }
      ],
      "name": "logX64",
      "outputs": [
        {
          "internalType": "int128",
          "name": "",
          "type": "int128"
        }
      ],
      "stateMutability": "pure",
      "type": "function"
    },
    {
      "inputs": [
        {
          "internalType": "uint256",
          "name": "a",
          "type": "uint256"
        },
        {
          "internalType": "uint256",
          "name": "b",
          "type": "uint256"
        }
      ],
      "name": "max",
      "outputs": [
        {
          "internalType": "uint256",
          "name": "",
          "type": "uint256"
        }
      ],
      "stateMutability": "pure",
      "type": "function"
    },
    {
      "inputs": [
        {
          "internalType": "uint256",
          "name": "a",
          "type": "uint256"
        },
        {
          "internalType": "uint256",
          "name": "b",
          "type": "uint256"
        }
      ],
      "name": "min",
      "outputs": [
        {
          "internalType": "uint256",
          "name": "",
          "type": "uint256"
        }
      ],
      "stateMutability": "pure",
      "type": "function"
    }
  ],
  "bytecode": "0x61026861003a600b82828239805160001a60731461002d57634e487b7160e01b600052600060045260246000fd5b30600052607381538281f3fe730000000000000000000000000000000000000000301460806040526004361061004b5760003560e01c80634793dbab146100505780636d5433e61461007b5780637ae2b5c71461009c575b600080fd5b61006361005e3660046101f9565b6100af565b604051600f9190910b81526020015b60405180910390f35b61008e610089366004610211565b6100c8565b604051908152602001610072565b61008e6100aa366004610211565b6100df565b60006100c26100bd836100f7565b610115565b92915050565b6000818311156100d95750816100c2565b50919050565b6000818311156100f05750806100c2565b5090919050565b6000677fffffffffffffff82111561010e57600080fd5b5060401b90565b60008082600f0b1361012657600080fd5b6000600f83900b680100000000000000008112610145576040918201911d5b6401000000008112610159576020918201911d5b62010000811261016b576010918201911d5b610100811261017c576008918201911d5b6010811261018c576004918201911d5b6004811261019c576002918201911d5b600281126101ab576001820191505b603f19820160401b600f85900b607f8490031b6780000000000000005b60008113156101ee5790800260ff81901c8281029390930192607f011c9060011d6101c8565b509095945050505050565b60006020828403121561020a578081fd5b5035919050565b60008060408385031215610223578081fd5b5050803592602090910135915056fea2646970667358221220e29e7e926bf285cab3e999a0087f7fd45c62bd0cb172ed141bacf27b42a0463164736f6c63430008040033",
  "linkReferences": {},
  "deployedLinkReferences": {}
}